{
  "address": "0x953c67EFFFB961244E72bcE8b887a6ead29c45AF",
  "abi": [
    {
      "inputs": [
        {
          "internalType": "address",
          "name": "_gelato",
          "type": "address"
        }
      ],
      "stateMutability": "nonpayable",
      "type": "constructor"
    },
    {
      "anonymous": false,
      "inputs": [
        {
          "indexed": true,
          "internalType": "address",
          "name": "sponsor",
          "type": "address"
        },
        {
          "indexed": true,
          "internalType": "address",
          "name": "target",
          "type": "address"
        },
        {
          "indexed": false,
          "internalType": "address",
          "name": "feeToken",
          "type": "address"
        },
        {
          "indexed": false,
          "internalType": "uint256",
          "name": "fee",
          "type": "uint256"
        },
        {
          "indexed": false,
          "internalType": "bytes32",
          "name": "taskId",
          "type": "bytes32"
        }
      ],
      "name": "LogForwardRequestPullFee",
      "type": "event"
    },
    {
      "anonymous": false,
      "inputs": [
        {
          "indexed": true,
          "internalType": "address",
          "name": "previousOwner",
          "type": "address"
        },
        {
          "indexed": true,
          "internalType": "address",
          "name": "newOwner",
          "type": "address"
        }
      ],
      "name": "OwnershipTransferred",
      "type": "event"
    },
    {
      "anonymous": false,
      "inputs": [
        {
          "indexed": false,
          "internalType": "address",
          "name": "account",
          "type": "address"
        }
      ],
      "name": "Paused",
      "type": "event"
    },
    {
      "anonymous": false,
      "inputs": [
        {
          "indexed": false,
          "internalType": "address",
          "name": "account",
          "type": "address"
        }
      ],
      "name": "Unpaused",
      "type": "event"
    },
    {
      "inputs": [],
      "name": "EIP712_DOMAIN_TYPE",
      "outputs": [
        {
          "internalType": "string",
          "name": "",
          "type": "string"
        }
      ],
      "stateMutability": "view",
      "type": "function"
    },
    {
      "inputs": [],
      "name": "FORWARD_REQUEST_TYPEHASH",
      "outputs": [
        {
          "internalType": "bytes32",
          "name": "",
          "type": "bytes32"
        }
      ],
      "stateMutability": "view",
      "type": "function"
    },
    {
      "inputs": [],
      "name": "chainId",
      "outputs": [
        {
          "internalType": "uint256",
          "name": "",
          "type": "uint256"
        }
      ],
      "stateMutability": "view",
      "type": "function"
    },
    {
      "inputs": [
        {
          "internalType": "address",
          "name": "_dest",
          "type": "address"
        }
      ],
      "name": "delistDest",
      "outputs": [],
      "stateMutability": "nonpayable",
      "type": "function"
    },
    {
      "inputs": [
        {
          "components": [
            {
              "internalType": "uint256",
              "name": "chainId",
              "type": "uint256"
            },
            {
              "internalType": "address",
              "name": "target",
              "type": "address"
            },
            {
              "internalType": "bytes",
              "name": "data",
              "type": "bytes"
            },
            {
              "internalType": "address",
              "name": "feeToken",
              "type": "address"
            },
            {
              "internalType": "uint256",
              "name": "paymentType",
              "type": "uint256"
            },
            {
              "internalType": "uint256",
              "name": "maxFee",
              "type": "uint256"
            },
            {
              "internalType": "uint256",
              "name": "gas",
              "type": "uint256"
            },
            {
              "internalType": "address",
              "name": "sponsor",
              "type": "address"
            },
            {
              "internalType": "uint256",
              "name": "sponsorChainId",
              "type": "uint256"
            },
            {
              "internalType": "uint256",
              "name": "nonce",
              "type": "uint256"
            },
            {
              "internalType": "bool",
              "name": "enforceSponsorNonce",
              "type": "bool"
            },
            {
              "internalType": "bool",
              "name": "enforceSponsorNonceOrdering",
              "type": "bool"
            }
          ],
          "internalType": "struct ForwardRequest",
          "name": "_req",
          "type": "tuple"
        },
        {
          "internalType": "bytes",
          "name": "_sponsorSignature",
          "type": "bytes"
        },
        {
          "internalType": "uint256",
          "name": "_gelatoFee",
          "type": "uint256"
        },
        {
          "internalType": "bytes32",
          "name": "_taskId",
          "type": "bytes32"
        }
      ],
      "name": "forwardRequestPullFee",
      "outputs": [],
      "stateMutability": "nonpayable",
      "type": "function"
    },
    {
      "inputs": [],
      "name": "gelato",
      "outputs": [
        {
          "internalType": "address",
          "name": "",
          "type": "address"
        }
      ],
      "stateMutability": "view",
      "type": "function"
    },
    {
      "inputs": [],
      "name": "getDomainSeparator",
      "outputs": [
        {
          "internalType": "bytes32",
          "name": "",
          "type": "bytes32"
        }
      ],
      "stateMutability": "view",
      "type": "function"
    },
    {
      "inputs": [],
      "name": "getWhitelistedDest",
      "outputs": [
        {
          "internalType": "address[]",
          "name": "",
          "type": "address[]"
        }
      ],
      "stateMutability": "view",
      "type": "function"
    },
    {
      "inputs": [
        {
          "internalType": "address",
          "name": "_pullFeeRegistry",
          "type": "address"
        }
      ],
      "name": "initPullFeeRegistry",
      "outputs": [],
      "stateMutability": "nonpayable",
      "type": "function"
    },
    {
      "inputs": [
        {
          "internalType": "bytes32",
          "name": "",
          "type": "bytes32"
        }
      ],
      "name": "messageDelivered",
      "outputs": [
        {
          "internalType": "bool",
          "name": "",
          "type": "bool"
        }
      ],
      "stateMutability": "view",
      "type": "function"
    },
    {
      "inputs": [
        {
          "internalType": "address",
          "name": "",
          "type": "address"
        }
      ],
      "name": "nonce",
      "outputs": [
        {
          "internalType": "uint256",
          "name": "",
          "type": "uint256"
        }
      ],
      "stateMutability": "view",
      "type": "function"
    },
    {
      "inputs": [],
      "name": "owner",
      "outputs": [
        {
          "internalType": "address",
          "name": "",
          "type": "address"
        }
      ],
      "stateMutability": "view",
      "type": "function"
    },
    {
      "inputs": [],
      "name": "pause",
      "outputs": [],
      "stateMutability": "nonpayable",
      "type": "function"
    },
    {
      "inputs": [],
      "name": "paused",
      "outputs": [
        {
          "internalType": "bool",
          "name": "",
          "type": "bool"
        }
      ],
      "stateMutability": "view",
      "type": "function"
    },
    {
      "inputs": [],
      "name": "pullFeeRegistry",
      "outputs": [
        {
          "internalType": "address",
          "name": "",
          "type": "address"
        }
      ],
      "stateMutability": "view",
      "type": "function"
    },
    {
      "inputs": [],
      "name": "renounceOwnership",
      "outputs": [],
      "stateMutability": "nonpayable",
      "type": "function"
    },
    {
      "inputs": [
        {
          "internalType": "address",
          "name": "newOwner",
          "type": "address"
        }
      ],
      "name": "transferOwnership",
      "outputs": [],
      "stateMutability": "nonpayable",
      "type": "function"
    },
    {
      "inputs": [],
      "name": "unpause",
      "outputs": [],
      "stateMutability": "nonpayable",
      "type": "function"
    },
    {
      "inputs": [
        {
          "internalType": "address",
          "name": "_dest",
          "type": "address"
        }
      ],
      "name": "whitelistDest",
      "outputs": [],
      "stateMutability": "nonpayable",
      "type": "function"
    }
  ],
  "transactionHash": "0xbac3e3143347cd94de0c332e57bcdb52b0b81024ec0b2e7565c5fe69153d8529",
  "args": [
    "0x7598e84B2E114AB62CAB288CE5f7d5f6bad35BbA"
  ],
  "numDeployments": 2,
  "solcInputHash": "514b07130362b0044abf75e362ea061c",
  "bytecode": "0x60c06040523480156200001157600080fd5b50604051620024be380380620024be8339810160408190526200003491620000b2565b6200003f3362000062565b6000805460ff60a01b191690556001600160a01b03166080524660a052620000e4565b600080546001600160a01b038381166001600160a01b0319831681178455604051919092169283917f8be0079c531659141344cd1fd0a4f28419497f9722a3daafe3b4186f6b6457e09190a35050565b600060208284031215620000c557600080fd5b81516001600160a01b0381168114620000dd57600080fd5b9392505050565b60805160a05161239862000126600039600081816102f5015281816108c901526111aa0152600081816101dc015281816107b90152610f3001526123986000f3fe608060405234801561001057600080fd5b50600436106101515760003560e01c806370ae92d2116100cd5780639563096811610081578063c3f28abd11610066578063c3f28abd14610317578063ed24911d1461032c578063f2fde38b1461033457600080fd5b806395630968146102e85780639a8a0592146102f057600080fd5b8063834806ce116100b2578063834806ce146102a25780638456cb59146102c25780638da5cb5b146102ca57600080fd5b806370ae92d21461026c578063715018a61461029a57600080fd5b80635550b0f4116101245780635c975abb116101095780635c975abb1461022357806366118cb5146102465780636db693231461025957600080fd5b80635550b0f4146101c4578063573ea575146101d757600080fd5b80630683d46d146101565780632329f9bb146101745780633f4ba83a146101a7578063400e7ea9146101b1575b600080fd5b61015e610347565b60405161016b9190611edb565b60405180910390f35b610197610182366004611f35565b60026020526000908152604090205460ff1681565b604051901515815260200161016b565b6101af610358565b005b6101af6101bf366004611f4e565b6103e8565b6101af6101d2366004611f4e565b610556565b6101fe7f000000000000000000000000000000000000000000000000000000000000000081565b60405173ffffffffffffffffffffffffffffffffffffffff909116815260200161016b565b60005474010000000000000000000000000000000000000000900460ff16610197565b6101af610254366004611f4e565b61067e565b6101af610267366004611f84565b6107a1565b61028c61027a366004611f4e565b60016020526000908152604090205481565b60405190815260200161016b565b6101af61104f565b6005546101fe9073ffffffffffffffffffffffffffffffffffffffff1681565b6101af6110da565b60005473ffffffffffffffffffffffffffffffffffffffff166101fe565b61028c611163565b61028c7f000000000000000000000000000000000000000000000000000000000000000081565b61031f611187565b60405161016b9190612033565b61028c6111a3565b6101af610342366004611f4e565b6111ce565b606061035360036112fe565b905090565b60005473ffffffffffffffffffffffffffffffffffffffff1633146103de576040517f08c379a000000000000000000000000000000000000000000000000000000000815260206004820181905260248201527f4f776e61626c653a2063616c6c6572206973206e6f7420746865206f776e657260448201526064015b60405180910390fd5b6103e6611312565b565b60005473ffffffffffffffffffffffffffffffffffffffff163314610469576040517f08c379a000000000000000000000000000000000000000000000000000000000815260206004820181905260248201527f4f776e61626c653a2063616c6c6572206973206e6f7420746865206f776e657260448201526064016103d5565b60055473ffffffffffffffffffffffffffffffffffffffff161561050f576040517f08c379a000000000000000000000000000000000000000000000000000000000815260206004820152602360248201527f70756c6c466565526567697374727920616c726561647920696e697469616c6960448201527f7a6564000000000000000000000000000000000000000000000000000000000060648201526084016103d5565b600580547fffffffffffffffffffffffff00000000000000000000000000000000000000001673ffffffffffffffffffffffffffffffffffffffff92909216919091179055565b60005473ffffffffffffffffffffffffffffffffffffffff1633146105d7576040517f08c379a000000000000000000000000000000000000000000000000000000000815260206004820181905260248201527f4f776e61626c653a2063616c6c6572206973206e6f7420746865206f776e657260448201526064016103d5565b6105e260038261140b565b1561066f576040517f08c379a000000000000000000000000000000000000000000000000000000000815260206004820152602760248201527f44657374696e6174696f6e206164647265737320616c7265616479207768697460448201527f656c69737465640000000000000000000000000000000000000000000000000060648201526084016103d5565b61067a60038261143f565b5050565b60005473ffffffffffffffffffffffffffffffffffffffff1633146106ff576040517f08c379a000000000000000000000000000000000000000000000000000000000815260206004820181905260248201527f4f776e61626c653a2063616c6c6572206973206e6f7420746865206f776e657260448201526064016103d5565b61070a60038261140b565b610796576040517f08c379a000000000000000000000000000000000000000000000000000000000815260206004820152602360248201527f44657374696e6174696f6e2061646472657373206e6f742077686974656c697360448201527f746564000000000000000000000000000000000000000000000000000000000060648201526084016103d5565b61067a600382611461565b3373ffffffffffffffffffffffffffffffffffffffff7f00000000000000000000000000000000000000000000000000000000000000001614610840576040517f08c379a000000000000000000000000000000000000000000000000000000000815260206004820152601760248201527f4f6e6c792063616c6c61626c652062792067656c61746f00000000000000000060448201526064016103d5565b60005474010000000000000000000000000000000000000000900460ff16156108c5576040517f08c379a000000000000000000000000000000000000000000000000000000000815260206004820152601060248201527f5061757361626c653a207061757365640000000000000000000000000000000060448201526064016103d5565b84357f00000000000000000000000000000000000000000000000000000000000000001461094f576040517f08c379a000000000000000000000000000000000000000000000000000000000815260206004820152600d60248201527f57726f6e6720636861696e49640000000000000000000000000000000000000060448201526064016103d5565b84608001356003146109bd576040517f08c379a000000000000000000000000000000000000000000000000000000000815260206004820152601560248201527f7061796d656e7454797065206d7573742062652033000000000000000000000060448201526064016103d5565b6109d86109d06040870160208801611f4e565b60039061140b565b610a3e576040517f08c379a000000000000000000000000000000000000000000000000000000000815260206004820152601e60248201527f7461726765742061646472657373206e6f742077686974656c6973746564000060448201526064016103d5565b73eeeeeeeeeeeeeeeeeeeeeeeeeeeeeeeeeeeeeeee610a636080870160608801611f4e565b73ffffffffffffffffffffffffffffffffffffffff1603610b06576040517f08c379a000000000000000000000000000000000000000000000000000000000815260206004820152602c60248201527f4e617469766520746f6b656e206e6f7420737570706f7274656420666f72207060448201527f61796d656e74547970652033000000000000000000000000000000000000000060648201526084016103d5565b8460a00135821115610b74576040517f08c379a000000000000000000000000000000000000000000000000000000000815260206004820152601560248201527f4578656375746f72206f7665722d63686172676564000000000000000000000060448201526064016103d5565b610b86610160860161014087016120a6565b15610d9e57610b9d610180860161016087016120a6565b15610ccd5760016000610bb7610100880160e08901611f4e565b73ffffffffffffffffffffffffffffffffffffffff1673ffffffffffffffffffffffffffffffffffffffff1681526020019081526020016000205485610120013514610c5f576040517f08c379a000000000000000000000000000000000000000000000000000000000815260206004820152600d60248201527f496e76616c6964206e6f6e63650000000000000000000000000000000000000060448201526064016103d5565b610c6f61012086013560016120f7565b60016000610c84610100890160e08a01611f4e565b73ffffffffffffffffffffffffffffffffffffffff168152602081019190915260400160002055610cc7858585610cc2610100840160e08501611f4e565b611483565b50610db7565b6000610ce6868686610cc2610100840160e08501611f4e565b60008181526002602052604090205490915060ff1615610d62576040517f08c379a000000000000000000000000000000000000000000000000000000000815260206004820152601560248201527f5461736b20616c7265616479206578656375746564000000000000000000000060448201526064016103d5565b600090815260026020526040902080547fffffffffffffffffffffffffffffffffffffffffffffffffffffffffffffff00166001179055610db7565b610db5858585610cc2610100840160e08501611f4e565b505b610dce858585610cc2610100840160e08501611f4e565b5060055473ffffffffffffffffffffffffffffffffffffffff1680610df96040880160208901611f4e565b73ffffffffffffffffffffffffffffffffffffffff1603610e76576040517f08c379a000000000000000000000000000000000000000000000000000000000815260206004820152601e60248201527f556e736166652063616c6c20746f2070756c6c4665655265676973747279000060448201526064016103d5565b610ea0610e896040880160208901611f4e565b610e96604089018961210f565b8960c00135611604565b73ffffffffffffffffffffffffffffffffffffffff8116638c3a0a27610ecc6080890160608a01611f4e565b610edd6101008a0160e08b01611f4e565b60405160e084901b7fffffffff0000000000000000000000000000000000000000000000000000000016815273ffffffffffffffffffffffffffffffffffffffff928316600482015290821660248201527f0000000000000000000000000000000000000000000000000000000000000000909116604482015260648101869052608401600060405180830381600087803b158015610f7b57600080fd5b505af1158015610f8f573d6000803e3d6000fd5b50610fa4925050506040870160208801611f4e565b73ffffffffffffffffffffffffffffffffffffffff16610fcb610100880160e08901611f4e565b73ffffffffffffffffffffffffffffffffffffffff167f4113a7309cd63f1458914fdd253480f259e634fca5ed8c870179a43ee0fd7fa261101260808a0160608b01611f4e565b6040805173ffffffffffffffffffffffffffffffffffffffff909216825260208201889052810186905260600160405180910390a3505050505050565b60005473ffffffffffffffffffffffffffffffffffffffff1633146110d0576040517f08c379a000000000000000000000000000000000000000000000000000000000815260206004820181905260248201527f4f776e61626c653a2063616c6c6572206973206e6f7420746865206f776e657260448201526064016103d5565b6103e660006117b0565b60005473ffffffffffffffffffffffffffffffffffffffff16331461115b576040517f08c379a000000000000000000000000000000000000000000000000000000000815260206004820181905260248201527f4f776e61626c653a2063616c6c6572206973206e6f7420746865206f776e657260448201526064016103d5565b6103e6611825565b60405180610120016040528060e8815260200161222960e891398051906020012081565b6040518060800160405280605281526020016123116052913981565b60006103537f0000000000000000000000000000000000000000000000000000000000000000611911565b60005473ffffffffffffffffffffffffffffffffffffffff16331461124f576040517f08c379a000000000000000000000000000000000000000000000000000000000815260206004820181905260248201527f4f776e61626c653a2063616c6c6572206973206e6f7420746865206f776e657260448201526064016103d5565b73ffffffffffffffffffffffffffffffffffffffff81166112f2576040517f08c379a000000000000000000000000000000000000000000000000000000000815260206004820152602660248201527f4f776e61626c653a206e6577206f776e657220697320746865207a65726f206160448201527f646472657373000000000000000000000000000000000000000000000000000060648201526084016103d5565b6112fb816117b0565b50565b6060600061130b83611a17565b9392505050565b60005474010000000000000000000000000000000000000000900460ff16611396576040517f08c379a000000000000000000000000000000000000000000000000000000000815260206004820152601460248201527f5061757361626c653a206e6f742070617573656400000000000000000000000060448201526064016103d5565b600080547fffffffffffffffffffffff00ffffffffffffffffffffffffffffffffffffffff1690557f5db9ee0a495bf2e6ff9c91a7834c1ba4fdd244a5e8aa4e537bd38aeae4b073aa335b60405173ffffffffffffffffffffffffffffffffffffffff909116815260200160405180910390a1565b73ffffffffffffffffffffffffffffffffffffffff8116600090815260018301602052604081205415155b90505b92915050565b60006114368373ffffffffffffffffffffffffffffffffffffffff8416611a73565b60006114368373ffffffffffffffffffffffffffffffffffffffff8416611ac2565b6000806114908635611911565b905060008161149e88611bb5565b80516020918201206040516114e59392017f190100000000000000000000000000000000000000000000000000000000000081526002810192909252602282015260420190565b6040516020818303038152906040528051906020012090506000806115408389898080601f016020809104026020016040519081016040528093929190818152602001838380828437600092019190915250611d0d92505050565b9092509050600081600481111561155957611559612174565b14801561159157508573ffffffffffffffffffffffffffffffffffffffff168273ffffffffffffffffffffffffffffffffffffffff16145b6115f7576040517f08c379a000000000000000000000000000000000000000000000000000000000815260206004820152601160248201527f496e76616c6964207369676e617475726500000000000000000000000000000060448201526064016103d5565b5090979650505050505050565b60008473ffffffffffffffffffffffffffffffffffffffff163b116116ab576040517f08c379a000000000000000000000000000000000000000000000000000000000815260206004820152603560248201527f47656c61746f43616c6c5574696c732e7361666545787465726e616c43616c6c60448201527f3a205f646573742063616e6e6f7420626520454f41000000000000000000000060648201526084016103d5565b60008473ffffffffffffffffffffffffffffffffffffffff168285856040516116d59291906121a3565b60006040518083038160008787f1925050503d8060008114611713576040519150601f19603f3d011682016040523d82523d6000602084013e611718565b606091505b50509050806117a9576040517f08c379a000000000000000000000000000000000000000000000000000000000815260206004820152603660248201527f47656c61746f43616c6c5574696c732e7361666545787465726e616c43616c6c60448201527f3a2045787465726e616c2063616c6c206661696c65640000000000000000000060648201526084016103d5565b5050505050565b6000805473ffffffffffffffffffffffffffffffffffffffff8381167fffffffffffffffffffffffff0000000000000000000000000000000000000000831681178455604051919092169283917f8be0079c531659141344cd1fd0a4f28419497f9722a3daafe3b4186f6b6457e09190a35050565b60005474010000000000000000000000000000000000000000900460ff16156118aa576040517f08c379a000000000000000000000000000000000000000000000000000000000815260206004820152601060248201527f5061757361626c653a207061757365640000000000000000000000000000000060448201526064016103d5565b600080547fffffffffffffffffffffff00ffffffffffffffffffffffffffffffffffffffff16740100000000000000000000000000000000000000001790557f62e78cea01bee320cd4e420270b5ea74000d11b0c9f74754ebdbfc544b05a2586113e13390565b6000604051806080016040528060528152602001612311605291398051602091820120604080518082018252601481527f47656c61746f52656c6179466f727761726465720000000000000000000000009084015280518082018252600281527f5631000000000000000000000000000000000000000000000000000000000000908401528051928301919091527f7234c7d9c507fe929abbaaae19187746b78bd8de7bfcbbfe07aa7aef1a476fb3908201527f4c23426613a5dc69e08fbd2787e6210aa679d4522e95a89d4dd88c4fd13a22836060820152608081018390523060a082015260c001604051602081830303815290604052805190602001209050919050565b606081600001805480602002602001604051908101604052809291908181526020018280548015611a6757602002820191906000526020600020905b815481526020019060010190808311611a53575b50505050509050919050565b6000818152600183016020526040812054611aba57508154600181810184556000848152602080822090930184905584548482528286019093526040902091909155611439565b506000611439565b60008181526001830160205260408120548015611bab576000611ae66001836121b3565b8554909150600090611afa906001906121b3565b9050818114611b5f576000866000018281548110611b1a57611b1a6121ca565b9060005260206000200154905080876000018481548110611b3d57611b3d6121ca565b6000918252602080832090910192909255918252600188019052604090208390555b8554869080611b7057611b706121f9565b600190038181906000526020600020016000905590558560010160008681526020019081526020016000206000905560019350505050611439565b6000915050611439565b606060405180610120016040528060e8815260200161222960e89139805160209182012090833590611bed9060408601908601611f4e565b611bfa604086018661210f565b604051611c089291906121a3565b604051908190039020611c216080870160608801611f4e565b608087013560a088013560c0890135611c416101008b0160e08c01611f4e565b6101008b01356101208c0135611c5f6101608e016101408f016120a6565b8d610160016020810190611c7391906120a6565b60408051602081019e909e528d019b909b5273ffffffffffffffffffffffffffffffffffffffff998a1660608d015260808c019890985295881660a08b015260c08a019490945260e0890192909252610100880152909316610120860152610140850192909252610160840191909152151561018083015215156101a08201526101c0016040516020818303038152906040529050919050565b6000808251604103611d435760208301516040840151606085015160001a611d3787828585611d7b565b94509450505050611d74565b8251604003611d6c5760208301516040840151611d61868383611e93565b935093505050611d74565b506000905060025b9250929050565b6000807f7fffffffffffffffffffffffffffffff5d576e7357a4501ddfe92f46681b20a0831115611db25750600090506003611e8a565b8460ff16601b14158015611dca57508460ff16601c14155b15611ddb5750600090506004611e8a565b6040805160008082526020820180845289905260ff881692820192909252606081018690526080810185905260019060a0016020604051602081039080840390855afa158015611e2f573d6000803e3d6000fd5b50506040517fffffffffffffffffffffffffffffffffffffffffffffffffffffffffffffffe0015191505073ffffffffffffffffffffffffffffffffffffffff8116611e8357600060019250925050611e8a565b9150600090505b94509492505050565b6000807f7fffffffffffffffffffffffffffffffffffffffffffffffffffffffffffffff831660ff84901c601b01611ecd87828885611d7b565b935093505050935093915050565b6020808252825182820181905260009190848201906040850190845b81811015611f2957835173ffffffffffffffffffffffffffffffffffffffff1683529284019291840191600101611ef7565b50909695505050505050565b600060208284031215611f4757600080fd5b5035919050565b600060208284031215611f6057600080fd5b813573ffffffffffffffffffffffffffffffffffffffff8116811461130b57600080fd5b600080600080600060808688031215611f9c57600080fd5b853567ffffffffffffffff80821115611fb457600080fd5b90870190610180828a031215611fc957600080fd5b90955060208701359080821115611fdf57600080fd5b818801915088601f830112611ff357600080fd5b81358181111561200257600080fd5b89602082850101111561201457600080fd5b9699602092909201985095966040810135965060600135945092505050565b600060208083528351808285015260005b8181101561206057858101830151858201604001528201612044565b81811115612072576000604083870101525b50601f017fffffffffffffffffffffffffffffffffffffffffffffffffffffffffffffffe016929092016040019392505050565b6000602082840312156120b857600080fd5b8135801515811461130b57600080fd5b7f4e487b7100000000000000000000000000000000000000000000000000000000600052601160045260246000fd5b6000821982111561210a5761210a6120c8565b500190565b60008083357fffffffffffffffffffffffffffffffffffffffffffffffffffffffffffffffe184360301811261214457600080fd5b83018035915067ffffffffffffffff82111561215f57600080fd5b602001915036819003821315611d7457600080fd5b7f4e487b7100000000000000000000000000000000000000000000000000000000600052602160045260246000fd5b8183823760009101908152919050565b6000828210156121c5576121c56120c8565b500390565b7f4e487b7100000000000000000000000000000000000000000000000000000000600052603260045260246000fd5b7f4e487b7100000000000000000000000000000000000000000000000000000000600052603160045260246000fdfe466f7277617264526571756573742875696e7432353620636861696e49642c61646472657373207461726765742c627974657320646174612c6164647265737320666565546f6b656e2c75696e74323536207061796d656e74547970652c75696e74323536206d61784665652c75696e74323536206761732c616464726573732073706f6e736f722c75696e743235362073706f6e736f72436861696e49642c75696e74323536206e6f6e63652c626f6f6c20656e666f72636553706f6e736f724e6f6e63652c626f6f6c20656e666f72636553706f6e736f724e6f6e63654f72646572696e6729454950373132446f6d61696e28737472696e67206e616d652c737472696e672076657273696f6e2c75696e7432353620636861696e49642c6164647265737320766572696679696e67436f6e747261637429a26469706673582212208a5e2dd987fd9a50bbf1cd61746e2932e096d9132b214654d1a4ae3d48497bff64736f6c634300080d0033",
  "devdoc": {
    "details": "Maliciously crafted transaction payloads could wipe out any funds left here.",
    "kind": "dev",
    "methods": {
      "owner()": {
        "details": "Returns the address of the current owner."
      },
      "paused()": {
        "details": "Returns true if the contract is paused, and false otherwise."
      },
      "renounceOwnership()": {
        "details": "Leaves the contract without owner. It will not be possible to call `onlyOwner` functions anymore. Can only be called by the current owner. NOTE: Renouncing ownership will leave the contract without an owner, thereby removing any functionality that is only available to the owner."
      },
      "transferOwnership(address)": {
        "details": "Transfers ownership of the contract to a new account (`newOwner`). Can only be called by the current owner."
      }
    },
    "title": "Gelato Relay Forwarder Pull Fee contract",
    "version": 1
  },
  "userdoc": {
    "kind": "user",
    "methods": {},
    "notice": "Forward calls + fee payment with transferFrom sponsor's address to gelato",
    "version": 1
  },
  "storageLayout": {
    "storage": [
      {
        "astId": 326,
        "contract": "contracts/GelatoRelayForwarderPullFee.sol:GelatoRelayForwarderPullFee",
        "label": "_owner",
        "offset": 0,
        "slot": "0",
        "type": "t_address"
      },
      {
        "astId": 518,
        "contract": "contracts/GelatoRelayForwarderPullFee.sol:GelatoRelayForwarderPullFee",
        "label": "_paused",
        "offset": 20,
        "slot": "0",
        "type": "t_bool"
      },
      {
        "astId": 3793,
        "contract": "contracts/GelatoRelayForwarderPullFee.sol:GelatoRelayForwarderPullFee",
        "label": "nonce",
        "offset": 0,
        "slot": "1",
        "type": "t_mapping(t_address,t_uint256)"
      },
      {
        "astId": 3797,
        "contract": "contracts/GelatoRelayForwarderPullFee.sol:GelatoRelayForwarderPullFee",
        "label": "messageDelivered",
        "offset": 0,
        "slot": "2",
        "type": "t_mapping(t_bytes32,t_bool)"
      },
      {
        "astId": 3800,
        "contract": "contracts/GelatoRelayForwarderPullFee.sol:GelatoRelayForwarderPullFee",
        "label": "_whitelistedDest",
        "offset": 0,
        "slot": "3",
        "type": "t_struct(AddressSet)2158_storage"
      },
      {
        "astId": 3802,
        "contract": "contracts/GelatoRelayForwarderPullFee.sol:GelatoRelayForwarderPullFee",
        "label": "pullFeeRegistry",
        "offset": 0,
        "slot": "5",
        "type": "t_address"
      }
    ],
    "types": {
      "t_address": {
        "encoding": "inplace",
        "label": "address",
        "numberOfBytes": "20"
      },
      "t_array(t_bytes32)dyn_storage": {
        "base": "t_bytes32",
        "encoding": "dynamic_array",
        "label": "bytes32[]",
        "numberOfBytes": "32"
      },
      "t_bool": {
        "encoding": "inplace",
        "label": "bool",
        "numberOfBytes": "1"
      },
      "t_bytes32": {
        "encoding": "inplace",
        "label": "bytes32",
        "numberOfBytes": "32"
      },
      "t_mapping(t_address,t_uint256)": {
        "encoding": "mapping",
        "key": "t_address",
        "label": "mapping(address => uint256)",
        "numberOfBytes": "32",
        "value": "t_uint256"
      },
      "t_mapping(t_bytes32,t_bool)": {
        "encoding": "mapping",
        "key": "t_bytes32",
        "label": "mapping(bytes32 => bool)",
        "numberOfBytes": "32",
        "value": "t_bool"
      },
      "t_mapping(t_bytes32,t_uint256)": {
        "encoding": "mapping",
        "key": "t_bytes32",
        "label": "mapping(bytes32 => uint256)",
        "numberOfBytes": "32",
        "value": "t_uint256"
      },
      "t_struct(AddressSet)2158_storage": {
        "encoding": "inplace",
        "label": "struct EnumerableSet.AddressSet",
        "members": [
          {
            "astId": 2157,
            "contract": "contracts/GelatoRelayForwarderPullFee.sol:GelatoRelayForwarderPullFee",
            "label": "_inner",
            "offset": 0,
            "slot": "0",
            "type": "t_struct(Set)1857_storage"
          }
        ],
        "numberOfBytes": "64"
      },
      "t_struct(Set)1857_storage": {
        "encoding": "inplace",
        "label": "struct EnumerableSet.Set",
        "members": [
          {
            "astId": 1852,
            "contract": "contracts/GelatoRelayForwarderPullFee.sol:GelatoRelayForwarderPullFee",
            "label": "_values",
            "offset": 0,
            "slot": "0",
            "type": "t_array(t_bytes32)dyn_storage"
          },
          {
            "astId": 1856,
            "contract": "contracts/GelatoRelayForwarderPullFee.sol:GelatoRelayForwarderPullFee",
            "label": "_indexes",
            "offset": 0,
            "slot": "1",
            "type": "t_mapping(t_bytes32,t_uint256)"
          }
        ],
        "numberOfBytes": "64"
      },
      "t_uint256": {
        "encoding": "inplace",
        "label": "uint256",
        "numberOfBytes": "32"
      }
    }
  }
}