{
  "address": "0xa0453c6AB71Fe3da89640EE2503326bd0899a589",
  "abi": [
    {
      "inputs": [
        {
          "internalType": "address",
          "name": "_gelato",
          "type": "address"
        }
      ],
      "stateMutability": "nonpayable",
      "type": "constructor"
    },
    {
      "anonymous": false,
      "inputs": [
        {
          "indexed": true,
          "internalType": "address",
          "name": "sponsor",
          "type": "address"
        },
        {
          "indexed": true,
          "internalType": "address",
          "name": "user",
          "type": "address"
        },
        {
          "indexed": true,
          "internalType": "address",
          "name": "target",
          "type": "address"
        },
        {
          "indexed": false,
          "internalType": "address",
          "name": "feeToken",
          "type": "address"
        },
        {
          "indexed": false,
          "internalType": "uint256",
          "name": "fee",
          "type": "uint256"
        }
      ],
      "name": "ExecuteRequestSuccess",
      "type": "event"
    },
    {
      "inputs": [],
      "name": "EIP712_DOMAIN_TYPE",
      "outputs": [
        {
          "internalType": "string",
          "name": "",
          "type": "string"
        }
      ],
      "stateMutability": "view",
      "type": "function"
    },
    {
      "inputs": [],
      "name": "REQUEST_TYPEHASH",
      "outputs": [
        {
          "internalType": "bytes32",
          "name": "",
          "type": "bytes32"
        }
      ],
      "stateMutability": "view",
      "type": "function"
    },
    {
      "inputs": [],
      "name": "chainId",
      "outputs": [
        {
          "internalType": "uint256",
          "name": "",
          "type": "uint256"
        }
      ],
      "stateMutability": "view",
      "type": "function"
    },
    {
      "inputs": [
        {
          "components": [
            {
              "internalType": "uint256",
              "name": "chainId",
              "type": "uint256"
            },
            {
              "internalType": "address",
              "name": "target",
              "type": "address"
            },
            {
              "internalType": "bytes",
              "name": "data",
              "type": "bytes"
            },
            {
              "internalType": "address",
              "name": "feeToken",
              "type": "address"
            },
            {
              "internalType": "address",
              "name": "user",
              "type": "address"
            },
            {
              "internalType": "address",
              "name": "sponsor",
              "type": "address"
            },
            {
              "internalType": "uint256",
              "name": "nonce",
              "type": "uint256"
            },
            {
              "internalType": "uint256",
              "name": "deadline",
              "type": "uint256"
            },
            {
              "internalType": "bool",
              "name": "isEIP2771",
              "type": "bool"
            }
          ],
          "internalType": "struct Request",
          "name": "_req",
          "type": "tuple"
        },
        {
          "internalType": "bytes",
          "name": "_userSignature",
          "type": "bytes"
        },
        {
          "internalType": "uint256",
          "name": "_gelatoFee",
          "type": "uint256"
        }
      ],
      "name": "executeRequest",
      "outputs": [],
      "stateMutability": "nonpayable",
      "type": "function"
    },
    {
      "inputs": [],
      "name": "gelato",
      "outputs": [
        {
          "internalType": "address",
          "name": "",
          "type": "address"
        }
      ],
      "stateMutability": "view",
      "type": "function"
    },
    {
      "inputs": [
        {
          "internalType": "address",
          "name": "",
          "type": "address"
        }
      ],
      "name": "nonce",
      "outputs": [
        {
          "internalType": "uint256",
          "name": "",
          "type": "uint256"
        }
      ],
      "stateMutability": "view",
      "type": "function"
    }
  ],
  "transactionHash": "0x84f127c6a23497d9e79e509e6ef687aa09d80fc6c8d74b0a87f8c21fcf97ee8d",
  "args": [
    "0x7598e84B2E114AB62CAB288CE5f7d5f6bad35BbA"
  ],
  "solcInputHash": "e0cb877b35d15474863a6199f5265cee",
  "bytecode": "0x60c060405234801561001057600080fd5b506040516110d73803806110d783398101604081905261002f91610044565b6001600160a01b03166080524660a052610074565b60006020828403121561005657600080fd5b81516001600160a01b038116811461006d57600080fd5b9392505050565b60805160a05161102a6100ad6000396000818161011001528181610272015261078a01526000818160910152610167015261102a6000f3fe608060405234801561001057600080fd5b50600436106100725760003560e01c80639a8a0592116100505780639a8a05921461010b5780639e39b73e14610132578063c3f28abd1461013a57600080fd5b80633a6a084214610077578063573ea5751461008c57806370ae92d2146100dd575b600080fd5b61008a610085366004610c35565b61014f565b005b6100b37f000000000000000000000000000000000000000000000000000000000000000081565b60405173ffffffffffffffffffffffffffffffffffffffff90911681526020015b60405180910390f35b6100fd6100eb366004610cdb565b60006020819052908152604090205481565b6040519081526020016100d4565b6100fd7f000000000000000000000000000000000000000000000000000000000000000081565b6100fd610670565b610142610693565b6040516100d49190610d48565b3373ffffffffffffffffffffffffffffffffffffffff7f000000000000000000000000000000000000000000000000000000000000000016146101f3576040517f08c379a000000000000000000000000000000000000000000000000000000000815260206004820152601760248201527f4f6e6c792063616c6c61626c652062792067656c61746f00000000000000000060448201526064015b60405180910390fd5b60e084013515806102085750428460e0013510155b61026e576040517f08c379a000000000000000000000000000000000000000000000000000000000815260206004820152600f60248201527f526571756573742065787069726564000000000000000000000000000000000060448201526064016101ea565b83357f0000000000000000000000000000000000000000000000000000000000000000146102f8576040517f08c379a000000000000000000000000000000000000000000000000000000000815260206004820152600d60248201527f57726f6e6720636861696e49640000000000000000000000000000000000000060448201526064016101ea565b60008061030b60a0870160808801610cdb565b73ffffffffffffffffffffffffffffffffffffffff1673ffffffffffffffffffffffffffffffffffffffff168152602001908152602001600020548460c00135146103b2576040517f08c379a000000000000000000000000000000000000000000000000000000000815260206004820152600d60248201527f496e76616c6964206e6f6e63650000000000000000000000000000000000000060448201526064016101ea565b6103cd8484846103c860a0840160808501610cdb565b6106af565b6000806103e060a0870160808801610cdb565b73ffffffffffffffffffffffffffffffffffffffff1681526020810191909152604001600090812080549161041483610d99565b909155506000905061042c6040860160208701610cdb565b73ffffffffffffffffffffffffffffffffffffffff1661045461012087016101008801610df9565b61049f576104656040870187610e1b565b8080601f0160208091040260200160405190810160405280939291908181526020018383808284376000920191909152506104de92505050565b6104ac6040870187610e1b565b6104bc60a0890160808a01610cdb565b6040516020016104ce93929190610e80565b6040516020818303038152906040525b6040516104eb9190610eb9565b6000604051808303816000865af19150503d8060008114610528576040519150601f19603f3d011682016040523d82523d6000602084013e61052d565b606091505b5050905080610598576040517f08c379a000000000000000000000000000000000000000000000000000000000815260206004820152601360248201527f526571756573742063616c6c206661696c65640000000000000000000000000060448201526064016101ea565b6105a86040860160208701610cdb565b73ffffffffffffffffffffffffffffffffffffffff166105ce60a0870160808801610cdb565b73ffffffffffffffffffffffffffffffffffffffff166105f460c0880160a08901610cdb565b73ffffffffffffffffffffffffffffffffffffffff167fa2b715c090f75dc0b3d840e7406e89862781af6914b12a1f4fc25a9874d2a3ea61063b60808a0160608b01610cdb565b6040805173ffffffffffffffffffffffffffffffffffffffff9092168252602082018890520160405180910390a45050505050565b6040518060c00160405280608e8152602001610f67608e91398051906020012081565b604051806080016040528060528152602001610f156052913981565b6000604051806080016040528060528152602001610f15605291398051602091820120604080518082018252600d81527f47656c61746f4d657461426f78000000000000000000000000000000000000009084015280518082018252600281527f5631000000000000000000000000000000000000000000000000000000000000908401528051928301919091527f919f16ca789a3e2bbe70bbe2c4e0a9ff8affaab44711ff9ce735a3f4eef9b2d9908201527f4c23426613a5dc69e08fbd2787e6210aa679d4522e95a89d4dd88c4fd13a228360608201527f000000000000000000000000000000000000000000000000000000000000000060808201523060a082015260c0016040516020818303038152906040528051906020012090506000816107db8761093e565b80516020918201206040516108229392017f190100000000000000000000000000000000000000000000000000000000000081526002810192909252602282015260420190565b60405160208183030381529060405280519060200120905060008061087d8388888080601f016020809104026020016040519081016040528093929190818152602001838380828437600092019190915250610a6592505050565b9092509050600081600481111561089657610896610ed5565b1480156108ce57508473ffffffffffffffffffffffffffffffffffffffff168273ffffffffffffffffffffffffffffffffffffffff16145b610934576040517f08c379a000000000000000000000000000000000000000000000000000000000815260206004820152601660248201527f496e76616c69642075736572207369676e61747572650000000000000000000060448201526064016101ea565b5050505050505050565b60606040518060c00160405280608e8152602001610f67608e91398051602091820120908335906109759060408601908601610cdb565b6109826040860186610e1b565b604051610990929190610f04565b6040519081900390206109a96080870160608801610cdb565b6109b960a0880160808901610cdb565b6109c960c0890160a08a01610cdb565b60c089013560e08a01356109e56101208c016101008d01610df9565b60408051602081019b909b528a019890985273ffffffffffffffffffffffffffffffffffffffff96871660608a0152608089019590955292851660a088015290841660c087015290921660e08501526101008401919091526101208301521515610140820152610160016040516020818303038152906040529050919050565b600080825160411415610a9c5760208301516040840151606085015160001a610a9087828585610ad5565b94509450505050610ace565b825160401415610ac65760208301516040840151610abb868383610bed565b935093505050610ace565b506000905060025b9250929050565b6000807f7fffffffffffffffffffffffffffffff5d576e7357a4501ddfe92f46681b20a0831115610b0c5750600090506003610be4565b8460ff16601b14158015610b2457508460ff16601c14155b15610b355750600090506004610be4565b6040805160008082526020820180845289905260ff881692820192909252606081018690526080810185905260019060a0016020604051602081039080840390855afa158015610b89573d6000803e3d6000fd5b50506040517fffffffffffffffffffffffffffffffffffffffffffffffffffffffffffffffe0015191505073ffffffffffffffffffffffffffffffffffffffff8116610bdd57600060019250925050610be4565b9150600090505b94509492505050565b6000807f7fffffffffffffffffffffffffffffffffffffffffffffffffffffffffffffff831660ff84901c601b01610c2787828885610ad5565b935093505050935093915050565b60008060008060608587031215610c4b57600080fd5b843567ffffffffffffffff80821115610c6357600080fd5b908601906101208289031215610c7857600080fd5b90945060208601359080821115610c8e57600080fd5b818701915087601f830112610ca257600080fd5b813581811115610cb157600080fd5b886020828501011115610cc357600080fd5b95986020929092019750949560400135945092505050565b600060208284031215610ced57600080fd5b813573ffffffffffffffffffffffffffffffffffffffff81168114610d1157600080fd5b9392505050565b60005b83811015610d33578181015183820152602001610d1b565b83811115610d42576000848401525b50505050565b6020815260008251806020840152610d67816040850160208701610d18565b601f017fffffffffffffffffffffffffffffffffffffffffffffffffffffffffffffffe0169190910160400192915050565b60007fffffffffffffffffffffffffffffffffffffffffffffffffffffffffffffffff821415610df2577f4e487b7100000000000000000000000000000000000000000000000000000000600052601160045260246000fd5b5060010190565b600060208284031215610e0b57600080fd5b81358015158114610d1157600080fd5b60008083357fffffffffffffffffffffffffffffffffffffffffffffffffffffffffffffffe1843603018112610e5057600080fd5b83018035915067ffffffffffffffff821115610e6b57600080fd5b602001915036819003821315610ace57600080fd5b8284823760609190911b7fffffffffffffffffffffffffffffffffffffffff000000000000000000000000169101908152601401919050565b60008251610ecb818460208701610d18565b9190910192915050565b7f4e487b7100000000000000000000000000000000000000000000000000000000600052602160045260246000fd5b818382376000910190815291905056fe454950373132446f6d61696e28737472696e67206e616d652c737472696e672076657273696f6e2c75696e7432353620636861696e49642c6164647265737320766572696679696e67436f6e747261637429526571756573742875696e7432353620636861696e49642c61646472657373207461726765742c627974657320646174612c6164647265737320666565546f6b656e2c6164647265737320757365722c616464726573732073706f6e736f722c75696e74323536206e6f6e63652c75696e7432353620646561646c696e652c626f6f6c2069734549503237373129a2646970667358221220206d8f2f26a06319573f7f5abc6e4759206db2496ec7c09f7caca650ed821bc164736f6c634300080b0033",
  "devdoc": {
    "details": "Maliciously crafted transaction payloads could wipe out any funds left here.",
    "kind": "dev",
    "methods": {
      "executeRequest((uint256,address,bytes,address,address,address,uint256,uint256,bool),bytes,uint256)": {
        "params": {
          "_gelatoFee": "Fee to be charged by Gelato relayer, denominated in _req.feeToken",
          "_req": "Relay request data",
          "_userSignature": "EIP-712 compliant signature from _req.user"
        }
      }
    },
    "title": "Gelato Meta Box contract",
    "version": 1
  },
  "userdoc": {
    "kind": "user",
    "methods": {
      "executeRequest((uint256,address,bytes,address,address,address,uint256,uint256,bool),bytes,uint256)": {
        "notice": "EOA that originates the tx, but does not necessarily pay the relayer"
      }
    },
    "notice": "This contract must NEVER hold funds!",
    "version": 1
  },
  "storageLayout": {
    "storage": [
      {
        "astId": 708,
        "contract": "contracts/GelatoMetaBox.sol:GelatoMetaBox",
        "label": "nonce",
        "offset": 0,
        "slot": "0",
        "type": "t_mapping(t_address,t_uint256)"
      }
    ],
    "types": {
      "t_address": {
        "encoding": "inplace",
        "label": "address",
        "numberOfBytes": "20"
      },
      "t_mapping(t_address,t_uint256)": {
        "encoding": "mapping",
        "key": "t_address",
        "label": "mapping(address => uint256)",
        "numberOfBytes": "32",
        "value": "t_uint256"
      },
      "t_uint256": {
        "encoding": "inplace",
        "label": "uint256",
        "numberOfBytes": "32"
      }
    }
  }
}