{
  "address": "0x6837BD46F4BFF1A2fA891BE6C40C8Fa895fdC5ac",
  "abi": [
    {
      "inputs": [
        {
          "internalType": "address",
          "name": "_gelato",
          "type": "address"
        }
      ],
      "stateMutability": "nonpayable",
      "type": "constructor"
    },
    {
      "anonymous": false,
      "inputs": [
        {
          "indexed": true,
          "internalType": "address",
          "name": "sponsor",
          "type": "address"
        },
        {
          "indexed": true,
          "internalType": "address",
          "name": "user",
          "type": "address"
        },
        {
          "indexed": true,
          "internalType": "address",
          "name": "target",
          "type": "address"
        },
        {
          "indexed": false,
          "internalType": "uint256",
          "name": "sponsorChainId",
          "type": "uint256"
        },
        {
          "indexed": false,
          "internalType": "address",
          "name": "feeToken",
          "type": "address"
        },
        {
          "indexed": false,
          "internalType": "uint256",
          "name": "fee",
          "type": "uint256"
        },
        {
          "indexed": false,
          "internalType": "bytes32",
          "name": "taskId",
          "type": "bytes32"
        }
      ],
      "name": "LogMetaTxRequestAsyncGasTankFee",
      "type": "event"
    },
    {
      "anonymous": false,
      "inputs": [
        {
          "indexed": true,
          "internalType": "address",
          "name": "sponsor",
          "type": "address"
        },
        {
          "indexed": true,
          "internalType": "address",
          "name": "user",
          "type": "address"
        },
        {
          "indexed": true,
          "internalType": "address",
          "name": "target",
          "type": "address"
        },
        {
          "indexed": false,
          "internalType": "address",
          "name": "feeToken",
          "type": "address"
        },
        {
          "indexed": false,
          "internalType": "uint256",
          "name": "fee",
          "type": "uint256"
        },
        {
          "indexed": false,
          "internalType": "bytes32",
          "name": "taskId",
          "type": "bytes32"
        }
      ],
      "name": "LogMetaTxRequestSyncGasTankFee",
      "type": "event"
    },
    {
      "anonymous": false,
      "inputs": [
        {
          "indexed": false,
          "internalType": "address",
          "name": "oldGasTank",
          "type": "address"
        },
        {
          "indexed": false,
          "internalType": "address",
          "name": "newGasTank",
          "type": "address"
        }
      ],
      "name": "LogSetGasTank",
      "type": "event"
    },
    {
      "anonymous": false,
      "inputs": [
        {
          "indexed": false,
          "internalType": "address",
          "name": "oldGasTankAdmin",
          "type": "address"
        },
        {
          "indexed": false,
          "internalType": "address",
          "name": "newGasTankAdmin",
          "type": "address"
        }
      ],
      "name": "LogSetGasTankAdmin",
      "type": "event"
    },
    {
      "inputs": [],
      "name": "EIP712_DOMAIN_TYPE",
      "outputs": [
        {
          "internalType": "string",
          "name": "",
          "type": "string"
        }
      ],
      "stateMutability": "view",
      "type": "function"
    },
    {
      "inputs": [],
      "name": "METATX_REQUEST_TYPEHASH",
      "outputs": [
        {
          "internalType": "bytes32",
          "name": "",
          "type": "bytes32"
        }
      ],
      "stateMutability": "view",
      "type": "function"
    },
    {
      "inputs": [],
      "name": "chainId",
      "outputs": [
        {
          "internalType": "uint256",
          "name": "",
          "type": "uint256"
        }
      ],
      "stateMutability": "view",
      "type": "function"
    },
    {
      "inputs": [],
      "name": "gasTank",
      "outputs": [
        {
          "internalType": "address",
          "name": "",
          "type": "address"
        }
      ],
      "stateMutability": "view",
      "type": "function"
    },
    {
      "inputs": [],
      "name": "gasTankAdmin",
      "outputs": [
        {
          "internalType": "address",
          "name": "",
          "type": "address"
        }
      ],
      "stateMutability": "view",
      "type": "function"
    },
    {
      "inputs": [],
      "name": "gelato",
      "outputs": [
        {
          "internalType": "address",
          "name": "",
          "type": "address"
        }
      ],
      "stateMutability": "view",
      "type": "function"
    },
    {
      "inputs": [],
      "name": "getDomainSeparator",
      "outputs": [
        {
          "internalType": "bytes32",
          "name": "",
          "type": "bytes32"
        }
      ],
      "stateMutability": "view",
      "type": "function"
    },
    {
      "inputs": [
        {
          "internalType": "address",
          "name": "_gasTankAdmin",
          "type": "address"
        }
      ],
      "name": "init",
      "outputs": [],
      "stateMutability": "nonpayable",
      "type": "function"
    },
    {
      "inputs": [
        {
          "components": [
            {
              "internalType": "uint256",
              "name": "chainId",
              "type": "uint256"
            },
            {
              "internalType": "address",
              "name": "target",
              "type": "address"
            },
            {
              "internalType": "bytes",
              "name": "data",
              "type": "bytes"
            },
            {
              "internalType": "address",
              "name": "feeToken",
              "type": "address"
            },
            {
              "internalType": "uint256",
              "name": "paymentType",
              "type": "uint256"
            },
            {
              "internalType": "uint256",
              "name": "maxFee",
              "type": "uint256"
            },
            {
              "internalType": "uint256",
              "name": "gas",
              "type": "uint256"
            },
            {
              "internalType": "address",
              "name": "user",
              "type": "address"
            },
            {
              "internalType": "address",
              "name": "sponsor",
              "type": "address"
            },
            {
              "internalType": "uint256",
              "name": "sponsorChainId",
              "type": "uint256"
            },
            {
              "internalType": "uint256",
              "name": "nonce",
              "type": "uint256"
            },
            {
              "internalType": "uint256",
              "name": "deadline",
              "type": "uint256"
            }
          ],
          "internalType": "struct MetaTxRequest",
          "name": "_req",
          "type": "tuple"
        },
        {
          "internalType": "bytes",
          "name": "_userSignature",
          "type": "bytes"
        },
        {
          "internalType": "bytes",
          "name": "_sponsorSignature",
          "type": "bytes"
        },
        {
          "internalType": "uint256",
          "name": "_gelatoFee",
          "type": "uint256"
        },
        {
          "internalType": "bytes32",
          "name": "_taskId",
          "type": "bytes32"
        }
      ],
      "name": "metaTxRequestGasTankFee",
      "outputs": [],
      "stateMutability": "nonpayable",
      "type": "function"
    },
    {
      "inputs": [
        {
          "internalType": "address",
          "name": "",
          "type": "address"
        }
      ],
      "name": "nonce",
      "outputs": [
        {
          "internalType": "uint256",
          "name": "",
          "type": "uint256"
        }
      ],
      "stateMutability": "view",
      "type": "function"
    },
    {
      "inputs": [
        {
          "internalType": "address",
          "name": "_gasTank",
          "type": "address"
        }
      ],
      "name": "setGasTank",
      "outputs": [],
      "stateMutability": "nonpayable",
      "type": "function"
    },
    {
      "inputs": [
        {
          "internalType": "address",
          "name": "_gasTankAdmin",
          "type": "address"
        }
      ],
      "name": "setGasTankAdmin",
      "outputs": [],
      "stateMutability": "nonpayable",
      "type": "function"
    }
  ],
  "transactionHash": "0x1ec64c7a2d54d6b06a7037c33d5e5feadeb96b13e5298c29e01eb74d09d319c5",
  "args": [
    "0x7598e84B2E114AB62CAB288CE5f7d5f6bad35BbA"
  ],
  "numDeployments": 1,
  "solcInputHash": "85fbd0f7b0e717324165a04e405ed4b9",
  "bytecode": "0x60c060405234801561001057600080fd5b50604051611aa8380380611aa883398101604081905261002f91610044565b6001600160a01b03166080524660a052610074565b60006020828403121561005657600080fd5b81516001600160a01b038116811461006d57600080fd5b9392505050565b60805160a0516119f36100b5600039600081816101e0015281816104f201528181610b2b0152610ffe01526000818161017901526103ea01526119f36000f3fe608060405234801561001057600080fd5b50600436106100d45760003560e01c806370ae92d211610081578063ac4cae3a1161005b578063ac4cae3a14610202578063c3f28abd14610215578063ed24911d1461022a57600080fd5b806370ae92d21461019b5780637be52e59146101bb5780639a8a0592146101db57600080fd5b806343e297b2116100b257806343e297b21461011c57806348271fa01461012f578063573ea5751461017457600080fd5b806319ab453c146100d9578063342be667146100ee5780633e40957d14610101575b600080fd5b6100ec6100e73660046115bb565b610232565b005b6100ec6100fc36600461163a565b6103d2565b610109610c85565b6040519081526020015b60405180910390f35b6100ec61012a3660046115bb565b610ca9565b60035461014f9073ffffffffffffffffffffffffffffffffffffffff1681565b60405173ffffffffffffffffffffffffffffffffffffffff9091168152602001610113565b61014f7f000000000000000000000000000000000000000000000000000000000000000081565b6101096101a93660046115bb565b60016020526000908152604090205481565b60025461014f9073ffffffffffffffffffffffffffffffffffffffff1681565b6101097f000000000000000000000000000000000000000000000000000000000000000081565b6100ec6102103660046115bb565b610e42565b61021d610fdb565b6040516101139190611717565b610109610ff7565b600054610100900460ff1661024d5760005460ff1615610251565b303b155b6102e2576040517f08c379a000000000000000000000000000000000000000000000000000000000815260206004820152602e60248201527f496e697469616c697a61626c653a20636f6e747261637420697320616c72656160448201527f647920696e697469616c697a656400000000000000000000000000000000000060648201526084015b60405180910390fd5b600054610100900460ff1615801561032157600080547fffffffffffffffffffffffffffffffffffffffffffffffffffffffffffff0000166101011790555b600380547fffffffffffffffffffffffff00000000000000000000000000000000000000001673ffffffffffffffffffffffffffffffffffffffff8416908117909155604080516000815260208101929092527f7b4314d7a370be44c4e81707ded97705e0bd63e6bd46d7bbe386155e94436419910160405180910390a180156103ce57600080547fffffffffffffffffffffffffffffffffffffffffffffffffffffffffffff00ff1690555b5050565b3373ffffffffffffffffffffffffffffffffffffffff7f00000000000000000000000000000000000000000000000000000000000000001614610471576040517f08c379a000000000000000000000000000000000000000000000000000000000815260206004820152601760248201527f4f6e6c792063616c6c61626c652062792067656c61746f00000000000000000060448201526064016102d9565b610160870135158061048857504287610160013510155b6104ee576040517f08c379a000000000000000000000000000000000000000000000000000000000815260206004820152600f60248201527f526571756573742065787069726564000000000000000000000000000000000060448201526064016102d9565b86357f000000000000000000000000000000000000000000000000000000000000000014610578576040517f08c379a000000000000000000000000000000000000000000000000000000000815260206004820152600d60248201527f57726f6e6720636861696e49640000000000000000000000000000000000000060448201526064016102d9565b86608001356001148061058f575086608001356002145b6105f5576040517f08c379a000000000000000000000000000000000000000000000000000000000815260206004820152601a60248201527f7061796d656e7454797065206d7573742062652031206f72203200000000000060448201526064016102d9565b8660a00135821115610663576040517f08c379a000000000000000000000000000000000000000000000000000000000815260206004820152601560248201527f4578656375746f72206f7665722d63686172676564000000000000000000000060448201526064016102d9565b60006001816106796101008b0160e08c016115bb565b73ffffffffffffffffffffffffffffffffffffffff1673ffffffffffffffffffffffffffffffffffffffff1681526020019081526020016000205490508088610140013514610724576040517f08c379a000000000000000000000000000000000000000000000000000000000815260206004820152600d60248201527f496e76616c6964206e6f6e63650000000000000000000000000000000000000060448201526064016102d9565b61072f816001611768565b600160006107446101008c0160e08d016115bb565b73ffffffffffffffffffffffffffffffffffffffff168152602081019190915260400160002055610787888888610782610100840160e085016115bb565b611027565b61079961012089016101008a016115bb565b73ffffffffffffffffffffffffffffffffffffffff166107c06101008a0160e08b016115bb565b73ffffffffffffffffffffffffffffffffffffffff16146107f3576107f3888686610782610120840161010085016115bb565b60025473ffffffffffffffffffffffffffffffffffffffff1661081c60408a0160208b016115bb565b73ffffffffffffffffffffffffffffffffffffffff1603610899576040517f08c379a000000000000000000000000000000000000000000000000000000000815260206004820181905260248201527f74617267657420616464726573732063616e6e6f742062652067617354616e6b60448201526064016102d9565b6108c86108ac60408a0160208b016115bb565b73ffffffffffffffffffffffffffffffffffffffff163b151590565b61092e576040517f08c379a000000000000000000000000000000000000000000000000000000000815260206004820152600f60248201527f43616e6e6f742063616c6c20454f41000000000000000000000000000000000060448201526064016102d9565b600061094060408a0160208b016115bb565b73ffffffffffffffffffffffffffffffffffffffff1660c08a013561096860408c018c6117a7565b6109796101008e0160e08f016115bb565b60405160200161098b9392919061180c565b604080517fffffffffffffffffffffffffffffffffffffffffffffffffffffffffffffffe0818403018152908290526109c391611845565b60006040518083038160008787f1925050503d8060008114610a01576040519150601f19603f3d011682016040523d82523d6000602084013e610a06565b606091505b5050905080610a71576040517f08c379a000000000000000000000000000000000000000000000000000000000815260206004820152601460248201527f45787465726e616c2063616c6c206661696c656400000000000000000000000060448201526064016102d9565b8860800135600103610b9e57610a8d60408a0160208b016115bb565b73ffffffffffffffffffffffffffffffffffffffff16610ab46101008b0160e08c016115bb565b73ffffffffffffffffffffffffffffffffffffffff16610adc6101208c016101008d016115bb565b73ffffffffffffffffffffffffffffffffffffffff167f16242369046bb2c7332fc0c95dd99d425572accb515027a97630cadf2dfafb7c6101208d013515610b29578c6101200135610b4b565b7f00000000000000000000000000000000000000000000000000000000000000005b8d6060016020810190610b5e91906115bb565b6040805192835273ffffffffffffffffffffffffffffffffffffffff909116602083015281018990526060810188905260800160405180910390a4610c7a565b610bae60408a0160208b016115bb565b73ffffffffffffffffffffffffffffffffffffffff16610bd56101008b0160e08c016115bb565b73ffffffffffffffffffffffffffffffffffffffff16610bfd6101208c016101008d016115bb565b73ffffffffffffffffffffffffffffffffffffffff167fa3f8da1c59eb950d4098996c44c53e9692e2c5d73cd186cb415376d31d5ba7c6610c4460808e0160608f016115bb565b6040805173ffffffffffffffffffffffffffffffffffffffff9092168252602082018a9052810188905260600160405180910390a45b505050505050505050565b60405180610100016040528060cb81526020016118f360cb91398051906020012081565b60035473ffffffffffffffffffffffffffffffffffffffff163314610d2a576040517f08c379a000000000000000000000000000000000000000000000000000000000815260206004820152601d60248201527f4f6e6c792063616c6c61626c652062792067617354616e6b41646d696e00000060448201526064016102d9565b73ffffffffffffffffffffffffffffffffffffffff8116610da7576040517f08c379a000000000000000000000000000000000000000000000000000000000815260206004820152601760248201527f496e76616c69642067617354616e6b206164647265737300000000000000000060448201526064016102d9565b6002546040805173ffffffffffffffffffffffffffffffffffffffff928316815291831660208301527f646b74924371efeac02b8806e41f72490eaa858cf528e6f59768d6bbcea84fba910160405180910390a1600280547fffffffffffffffffffffffff00000000000000000000000000000000000000001673ffffffffffffffffffffffffffffffffffffffff92909216919091179055565b60035473ffffffffffffffffffffffffffffffffffffffff163314610ec3576040517f08c379a000000000000000000000000000000000000000000000000000000000815260206004820152601d60248201527f4f6e6c792063616c6c61626c652062792067617354616e6b41646d696e00000060448201526064016102d9565b73ffffffffffffffffffffffffffffffffffffffff8116610f40576040517f08c379a000000000000000000000000000000000000000000000000000000000815260206004820152601c60248201527f496e76616c69642067617354616e6b41646d696e20616464726573730000000060448201526064016102d9565b6003546040805173ffffffffffffffffffffffffffffffffffffffff928316815291831660208301527f7b4314d7a370be44c4e81707ded97705e0bd63e6bd46d7bbe386155e94436419910160405180910390a1600380547fffffffffffffffffffffffff00000000000000000000000000000000000000001673ffffffffffffffffffffffffffffffffffffffff92909216919091179055565b6040518060800160405280605281526020016118a16052913981565b60006110227f00000000000000000000000000000000000000000000000000000000000000006111a4565b905090565b600061103385356111a4565b9050600081611041876112aa565b80516020918201206040516110889392017f190100000000000000000000000000000000000000000000000000000000000081526002810192909252602282015260420190565b6040516020818303038152906040528051906020012090506000806110e38388888080601f0160208091040260200160405190810160405280939291908181526020018383808284376000920191909152506113ed92505050565b909250905060008160048111156110fc576110fc611861565b14801561113457508473ffffffffffffffffffffffffffffffffffffffff168273ffffffffffffffffffffffffffffffffffffffff16145b61119a576040517f08c379a000000000000000000000000000000000000000000000000000000000815260206004820152601160248201527f496e76616c6964207369676e617475726500000000000000000000000000000060448201526064016102d9565b5050505050505050565b60006040518060800160405280605281526020016118a1605291398051602091820120604080518082018252600d81527f47656c61746f4d657461426f78000000000000000000000000000000000000009084015280518082018252600281527f5631000000000000000000000000000000000000000000000000000000000000908401528051928301919091527f919f16ca789a3e2bbe70bbe2c4e0a9ff8affaab44711ff9ce735a3f4eef9b2d9908201527f4c23426613a5dc69e08fbd2787e6210aa679d4522e95a89d4dd88c4fd13a22836060820152608081018390523060a082015260c001604051602081830303815290604052805190602001209050919050565b606060405180610100016040528060cb81526020016118f360cb91398051602091820120908335906112e290604086019086016115bb565b6112ef60408601866117a7565b6040516112fd929190611890565b60405190819003902061131660808701606088016115bb565b608087013560a088013560c08901356113366101008b0160e08c016115bb565b6113486101208c016101008d016115bb565b60408051602081019b909b528a019890985273ffffffffffffffffffffffffffffffffffffffff96871660608a0152608089019590955292851660a088015260c087019190915260e08601526101008501528116610120848101919091529116610140838101919091529084013561016083810191909152908401356101808301528301356101a08201526101c0016040516020818303038152906040529050919050565b60008082516041036114235760208301516040840151606085015160001a6114178782858561145b565b94509450505050611454565b825160400361144c5760208301516040840151611441868383611573565b935093505050611454565b506000905060025b9250929050565b6000807f7fffffffffffffffffffffffffffffff5d576e7357a4501ddfe92f46681b20a0831115611492575060009050600361156a565b8460ff16601b141580156114aa57508460ff16601c14155b156114bb575060009050600461156a565b6040805160008082526020820180845289905260ff881692820192909252606081018690526080810185905260019060a0016020604051602081039080840390855afa15801561150f573d6000803e3d6000fd5b50506040517fffffffffffffffffffffffffffffffffffffffffffffffffffffffffffffffe0015191505073ffffffffffffffffffffffffffffffffffffffff81166115635760006001925092505061156a565b9150600090505b94509492505050565b6000807f7fffffffffffffffffffffffffffffffffffffffffffffffffffffffffffffff831660ff84901c601b016115ad8782888561145b565b935093505050935093915050565b6000602082840312156115cd57600080fd5b813573ffffffffffffffffffffffffffffffffffffffff811681146115f157600080fd5b9392505050565b60008083601f84011261160a57600080fd5b50813567ffffffffffffffff81111561162257600080fd5b60208301915083602082850101111561145457600080fd5b600080600080600080600060a0888a03121561165557600080fd5b873567ffffffffffffffff8082111561166d57600080fd5b90890190610180828c03121561168257600080fd5b9097506020890135908082111561169857600080fd5b6116a48b838c016115f8565b909850965060408a01359150808211156116bd57600080fd5b506116ca8a828b016115f8565b989b979a5095989597966060870135966080013595509350505050565b60005b838110156117025781810151838201526020016116ea565b83811115611711576000848401525b50505050565b60208152600082518060208401526117368160408501602087016116e7565b601f017fffffffffffffffffffffffffffffffffffffffffffffffffffffffffffffffe0169190910160400192915050565b600082198211156117a2577f4e487b7100000000000000000000000000000000000000000000000000000000600052601160045260246000fd5b500190565b60008083357fffffffffffffffffffffffffffffffffffffffffffffffffffffffffffffffe18436030181126117dc57600080fd5b83018035915067ffffffffffffffff8211156117f757600080fd5b60200191503681900382131561145457600080fd5b8284823760609190911b7fffffffffffffffffffffffffffffffffffffffff000000000000000000000000169101908152601401919050565b600082516118578184602087016116e7565b9190910192915050565b7f4e487b7100000000000000000000000000000000000000000000000000000000600052602160045260246000fd5b818382376000910190815291905056fe454950373132446f6d61696e28737472696e67206e616d652c737472696e672076657273696f6e2c75696e7432353620636861696e49642c6164647265737320766572696679696e67436f6e7472616374294d6574615478526571756573742875696e7432353620636861696e49642c61646472657373207461726765742c627974657320646174612c6164647265737320666565546f6b656e2c75696e74323536207061796d656e74547970652c75696e74323536206d61784665652c75696e74323536206761732c6164647265737320757365722c616464726573732073706f6e736f722c75696e743235362073706f6e736f72436861696e49642c75696e74323536206e6f6e63652c75696e7432353620646561646c696e6529a26469706673582212201dfdb225e64b07effb3fd0db7939eed2e8122056aabb6478c894c3f8e14e92ef64736f6c634300080d0033",
  "devdoc": {
    "details": "Maliciously crafted transaction payloads could wipe out any funds left here.",
    "kind": "dev",
    "methods": {
      "metaTxRequestGasTankFee((uint256,address,bytes,address,uint256,uint256,uint256,address,address,uint256,uint256,uint256),bytes,bytes,uint256,bytes32)": {
        "params": {
          "_gelatoFee": "Fee to be charged by Gelato relayer, denominated in _req.feeToken",
          "_req": "Relay request data",
          "_sponsorSignature": "EIP-712 compliant signature from _req.sponsor                          (can be same as _userSignature)",
          "_userSignature": "EIP-712 compliant signature from _req.user"
        }
      }
    },
    "title": "Gelato Meta Box contract",
    "version": 1
  },
  "userdoc": {
    "kind": "user",
    "methods": {
      "metaTxRequestGasTankFee((uint256,address,bytes,address,uint256,uint256,uint256,address,address,uint256,uint256,uint256),bytes,bytes,uint256,bytes32)": {
        "notice": "Relay request + async Gas Tank payment deductions (off-chain accounting)EOA that originates the tx, but does not necessarily pay the relayer"
      }
    },
    "notice": "This contract must NEVER hold funds!",
    "version": 1
  },
  "storageLayout": {
    "storage": [
      {
        "astId": 6,
        "contract": "contracts/GelatoMetaBox.sol:GelatoMetaBox",
        "label": "_initialized",
        "offset": 0,
        "slot": "0",
        "type": "t_bool"
      },
      {
        "astId": 9,
        "contract": "contracts/GelatoMetaBox.sol:GelatoMetaBox",
        "label": "_initializing",
        "offset": 1,
        "slot": "0",
        "type": "t_bool"
      },
      {
        "astId": 2470,
        "contract": "contracts/GelatoMetaBox.sol:GelatoMetaBox",
        "label": "nonce",
        "offset": 0,
        "slot": "1",
        "type": "t_mapping(t_address,t_uint256)"
      },
      {
        "astId": 2472,
        "contract": "contracts/GelatoMetaBox.sol:GelatoMetaBox",
        "label": "gasTank",
        "offset": 0,
        "slot": "2",
        "type": "t_address"
      },
      {
        "astId": 2474,
        "contract": "contracts/GelatoMetaBox.sol:GelatoMetaBox",
        "label": "gasTankAdmin",
        "offset": 0,
        "slot": "3",
        "type": "t_address"
      }
    ],
    "types": {
      "t_address": {
        "encoding": "inplace",
        "label": "address",
        "numberOfBytes": "20"
      },
      "t_bool": {
        "encoding": "inplace",
        "label": "bool",
        "numberOfBytes": "1"
      },
      "t_mapping(t_address,t_uint256)": {
        "encoding": "mapping",
        "key": "t_address",
        "label": "mapping(address => uint256)",
        "numberOfBytes": "32",
        "value": "t_uint256"
      },
      "t_uint256": {
        "encoding": "inplace",
        "label": "uint256",
        "numberOfBytes": "32"
      }
    }
  }
}