{
  "address": "0x2caD01dE572e00af828e5FB02EBf9821f03eD8f0",
  "abi": [
    {
      "inputs": [
        {
          "internalType": "address",
          "name": "_gelatoMetaBox",
          "type": "address"
        }
      ],
      "stateMutability": "nonpayable",
      "type": "constructor"
    },
    {
      "anonymous": false,
      "inputs": [
        {
          "indexed": true,
          "internalType": "address",
          "name": "user",
          "type": "address"
        },
        {
          "indexed": true,
          "internalType": "address",
          "name": "feeToken",
          "type": "address"
        },
        {
          "indexed": false,
          "internalType": "string",
          "name": "message",
          "type": "string"
        }
      ],
      "name": "Success",
      "type": "event"
    },
    {
      "inputs": [
        {
          "internalType": "address",
          "name": "forwarder",
          "type": "address"
        }
      ],
      "name": "isTrustedForwarder",
      "outputs": [
        {
          "internalType": "bool",
          "name": "",
          "type": "bool"
        }
      ],
      "stateMutability": "view",
      "type": "function"
    },
    {
      "inputs": [
        {
          "internalType": "address",
          "name": "_feeToken",
          "type": "address"
        }
      ],
      "name": "sayHi",
      "outputs": [],
      "stateMutability": "nonpayable",
      "type": "function"
    }
  ],
  "transactionHash": "0x6efe51e8b80680d8c4ce69ed3c082dd0ab9a3ba45b27b88d1530361ef38bc80b",
  "args": [
    "0xbeC333EDE1A0687D2b9624F8C073a54c93ba9777"
  ],
  "solcInputHash": "f14659bd62e80f3835c66fef3dcd9b49",
  "bytecode": "0x608060405234801561001057600080fd5b5060405161030138038061030183398101604081905261002f91610054565b600080546001600160a01b0319166001600160a01b0392909216919091179055610084565b60006020828403121561006657600080fd5b81516001600160a01b038116811461007d57600080fd5b9392505050565b61026e806100936000396000f3fe608060405234801561001057600080fd5b50600436106100365760003560e01c80634c6d26271461003b578063572b6c0514610050575b600080fd5b61004e610049366004610188565b610093565b005b61007f61005e366004610188565b60005473ffffffffffffffffffffffffffffffffffffffff91821691161490565b604051901515815260200160405180910390f35b60408051808201909152600c81527f48656c6c6f20576f726c64210000000000000000000000000000000000000000602082015273ffffffffffffffffffffffffffffffffffffffff82166100e6610137565b73ffffffffffffffffffffffffffffffffffffffff167f250bf4b2488bf4c0d40c5698ffbdd9538361bf0c1d6a7ac473e87b55dd8030fd8360405161012b91906101c5565b60405180910390a35050565b6000805473ffffffffffffffffffffffffffffffffffffffff1633141561018357507fffffffffffffffffffffffffffffffffffffffffffffffffffffffffffffffec36013560601c90565b503390565b60006020828403121561019a57600080fd5b813573ffffffffffffffffffffffffffffffffffffffff811681146101be57600080fd5b9392505050565b600060208083528351808285015260005b818110156101f2578581018301518582016040015282016101d6565b81811115610204576000604083870101525b50601f017fffffffffffffffffffffffffffffffffffffffffffffffffffffffffffffffe01692909201604001939250505056fea264697066735822122037be0cfc0857e6754837297bd91849874ba771c3e773fef53a64810860b1f6f764736f6c634300080b0033",
  "devdoc": {
    "kind": "dev",
    "methods": {},
    "title": "HelloWorld with meta transaction support (EIP-2771)",
    "version": 1
  },
  "userdoc": {
    "kind": "user",
    "methods": {},
    "version": 1
  },
  "storageLayout": {
    "storage": [
      {
        "astId": 7,
        "contract": "contracts/HelloWorld.sol:HelloWorld",
        "label": "_trustedForwarder",
        "offset": 0,
        "slot": "0",
        "type": "t_address"
      }
    ],
    "types": {
      "t_address": {
        "encoding": "inplace",
        "label": "address",
        "numberOfBytes": "20"
      }
    }
  }
}