{
  "address": "0x71C057A68Ea02ec716044945F185Da6F45B65CE0",
  "abi": [
    {
      "inputs": [
        {
          "internalType": "address",
          "name": "_gelato",
          "type": "address"
        }
      ],
      "stateMutability": "nonpayable",
      "type": "constructor"
    },
    {
      "anonymous": false,
      "inputs": [
        {
          "indexed": true,
          "internalType": "address",
          "name": "target",
          "type": "address"
        },
        {
          "indexed": false,
          "internalType": "address",
          "name": "feeToken",
          "type": "address"
        },
        {
          "indexed": false,
          "internalType": "uint256",
          "name": "fee",
          "type": "uint256"
        },
        {
          "indexed": false,
          "internalType": "bytes32",
          "name": "taskId",
          "type": "bytes32"
        }
      ],
      "name": "LogCallWithSyncFee",
      "type": "event"
    },
    {
      "anonymous": false,
      "inputs": [
        {
          "indexed": true,
          "internalType": "address",
          "name": "target",
          "type": "address"
        },
        {
          "indexed": true,
          "internalType": "bytes32",
          "name": "correlationId",
          "type": "bytes32"
        }
      ],
      "name": "LogCallWithSyncFeeV2",
      "type": "event"
    },
    {
      "anonymous": false,
      "inputs": [
        {
          "indexed": true,
          "internalType": "address",
          "name": "sponsor",
          "type": "address"
        },
        {
          "indexed": true,
          "internalType": "address",
          "name": "target",
          "type": "address"
        },
        {
          "indexed": true,
          "internalType": "address",
          "name": "feeToken",
          "type": "address"
        },
        {
          "indexed": false,
          "internalType": "uint256",
          "name": "oneBalanceChainId",
          "type": "uint256"
        },
        {
          "indexed": false,
          "internalType": "uint256",
          "name": "nativeToFeeTokenXRateNumerator",
          "type": "uint256"
        },
        {
          "indexed": false,
          "internalType": "uint256",
          "name": "nativeToFeeTokenXRateDenominator",
          "type": "uint256"
        },
        {
          "indexed": false,
          "internalType": "bytes32",
          "name": "correlationId",
          "type": "bytes32"
        }
      ],
      "name": "LogUseGelato1Balance",
      "type": "event"
    },
    {
      "inputs": [
        {
          "internalType": "address",
          "name": "_target",
          "type": "address"
        },
        {
          "internalType": "bytes",
          "name": "_data",
          "type": "bytes"
        },
        {
          "internalType": "address",
          "name": "_feeToken",
          "type": "address"
        },
        {
          "internalType": "uint256",
          "name": "_fee",
          "type": "uint256"
        },
        {
          "internalType": "bytes32",
          "name": "_taskId",
          "type": "bytes32"
        }
      ],
      "name": "callWithSyncFee",
      "outputs": [],
      "stateMutability": "nonpayable",
      "type": "function"
    },
    {
      "inputs": [
        {
          "internalType": "address",
          "name": "_target",
          "type": "address"
        },
        {
          "internalType": "bytes",
          "name": "_data",
          "type": "bytes"
        },
        {
          "internalType": "bool",
          "name": "_isRelayContext",
          "type": "bool"
        },
        {
          "internalType": "bytes32",
          "name": "_correlationId",
          "type": "bytes32"
        }
      ],
      "name": "callWithSyncFeeV2",
      "outputs": [],
      "stateMutability": "nonpayable",
      "type": "function"
    },
    {
      "inputs": [],
      "name": "gelato",
      "outputs": [
        {
          "internalType": "address",
          "name": "",
          "type": "address"
        }
      ],
      "stateMutability": "view",
      "type": "function"
    },
    {
      "inputs": [
        {
          "components": [
            {
              "internalType": "uint256",
              "name": "chainId",
              "type": "uint256"
            },
            {
              "internalType": "address",
              "name": "target",
              "type": "address"
            },
            {
              "internalType": "bytes",
              "name": "data",
              "type": "bytes"
            }
          ],
          "internalType": "struct SponsoredCall",
          "name": "_call",
          "type": "tuple"
        },
        {
          "internalType": "address",
          "name": "_sponsor",
          "type": "address"
        },
        {
          "internalType": "address",
          "name": "_feeToken",
          "type": "address"
        },
        {
          "internalType": "uint256",
          "name": "_oneBalanceChainId",
          "type": "uint256"
        },
        {
          "internalType": "uint256",
          "name": "_nativeToFeeTokenXRateNumerator",
          "type": "uint256"
        },
        {
          "internalType": "uint256",
          "name": "_nativeToFeeTokenXRateDenominator",
          "type": "uint256"
        },
        {
          "internalType": "bytes32",
          "name": "_correlationId",
          "type": "bytes32"
        }
      ],
      "name": "sponsoredCall",
      "outputs": [],
      "stateMutability": "nonpayable",
      "type": "function"
    }
  ],
  "transactionHash": "0x9cc9ed3c411d373a693609b7b5875ac6ea373e422821d2913fcad53901d98b2c",
  "args": [
    "0x7598e84B2E114AB62CAB288CE5f7d5f6bad35BbA"
  ],
  "numDeployments": 2,
  "solcInputHash": "8a9028dcd05718e2699a4776d11b1021",
  "bytecode": "0x60a060405234801561001057600080fd5b506040516116c13803806116c183398101604081905261002f91610040565b6001600160a01b0316608052610070565b60006020828403121561005257600080fd5b81516001600160a01b038116811461006957600080fd5b9392505050565b60805161162361009e60003960008181607e0152818160f40152818161038701526105f401526116236000f3fe608060405234801561001057600080fd5b506004361061004c5760003560e01c80630c44357d1461005157806327be3c2414610066578063573ea57514610079578063a2d53b5e146100c9575b600080fd5b61006461005f366004611128565b6100dc565b005b610064610074366004611196565b61036f565b6100a07f000000000000000000000000000000000000000000000000000000000000000081565b60405173ffffffffffffffffffffffffffffffffffffffff909116815260200160405180910390f35b6100646100d736600461121e565b6105dc565b3373ffffffffffffffffffffffffffffffffffffffff7f00000000000000000000000000000000000000000000000000000000000000001614610180576040517f08c379a000000000000000000000000000000000000000000000000000000000815260206004820152601760248201527f4f6e6c792063616c6c61626c652062792067656c61746f00000000000000000060448201526064015b60405180910390fd5b6000806000841561020057367fffffffffffffffffffffffffffffffffffffffffffffffffffffffffffffffb8013560601c9150367fffffffffffffffffffffffffffffffffffffffffffffffffffffffffffffffcc013560601c92506101fd73ffffffffffffffffffffffffffffffffffffffff8416306107c2565b90505b846102905761028b6102398888367fffffffffffffffffffffffffffffffffffffffffffffffffffffffffffffffec013560601c6108ac565b60408051808201909152601e81527f47656c61746f52656c61792e63616c6c5769746853796e6346656556323a0000602082015273ffffffffffffffffffffffffffffffffffffffff8b1691906108dc565b6102c3565b6102c361023988888587367fffffffffffffffffffffffffffffffffffffffffffffffffffffffffffffffe001356109e6565b508415610322576000816102ed73ffffffffffffffffffffffffffffffffffffffff8616306107c2565b6102f79190611295565b905080156103205761032073ffffffffffffffffffffffffffffffffffffffff85168483610a1b565b505b604051849073ffffffffffffffffffffffffffffffffffffffff8a16907fd8cb76b2a24ef8154ad59a94b242b7237ecb805ebe9f7f5c16d14aebf0047f4990600090a35050505050505050565b3373ffffffffffffffffffffffffffffffffffffffff7f0000000000000000000000000000000000000000000000000000000000000000161461040e576040517f08c379a000000000000000000000000000000000000000000000000000000000815260206004820152601760248201527f4f6e6c792063616c6c61626c652062792067656c61746f0000000000000000006044820152606401610177565b8635461461049e576040517f08c379a000000000000000000000000000000000000000000000000000000000815260206004820152602160248201527f47656c61746f52656c61792e73706f6e736f72656443616c6c3a636861696e6960448201527f64000000000000000000000000000000000000000000000000000000000000006064820152608401610177565b6105476104ae60408901896112cf565b8080601f01602080910402602001604051908101604052809392919081815260200183838082843760009201919091525050604080518082018252601a81527f47656c61746f52656c61792e73706f6e736f72656443616c6c3a00000000000060208083019190915290935061052a9250908c01908c01611334565b73ffffffffffffffffffffffffffffffffffffffff1691906108dc565b5073ffffffffffffffffffffffffffffffffffffffff851661056f6040890160208a01611334565b60408051878152602081018790529081018590526060810184905273ffffffffffffffffffffffffffffffffffffffff918216918916907f116bfd46451bbd23e7a5f5b7420b28e3d98d4c477f173da513aaaeac3c4baada9060800160405180910390a450505050505050565b3373ffffffffffffffffffffffffffffffffffffffff7f0000000000000000000000000000000000000000000000000000000000000000161461067b576040517f08c379a000000000000000000000000000000000000000000000000000000000815260206004820152601760248201527f4f6e6c792063616c6c61626c652062792067656c61746f0000000000000000006044820152606401610177565b600061069d73ffffffffffffffffffffffffffffffffffffffff8516306107c2565b90506107016106af8787338888610a66565b60408051808201909152601c81527f47656c61746f52656c61792e63616c6c5769746853796e634665653a00000000602082015273ffffffffffffffffffffffffffffffffffffffff8a1691906108dc565b50600061072473ffffffffffffffffffffffffffffffffffffffff8616306107c2565b905060006107328383611295565b9050801561075b5761075b73ffffffffffffffffffffffffffffffffffffffff87163383610a1b565b6040805173ffffffffffffffffffffffffffffffffffffffff888116825260208201889052918101869052908a16907f2ebf5825cbf63a0d0bd018d3d8547867630cd139f87864652d984d57da4edb559060600160405180910390a2505050505050505050565b600073ffffffffffffffffffffffffffffffffffffffff831673eeeeeeeeeeeeeeeeeeeeeeeeeeeeeeeeeeeeeeee1461088a576040517f70a0823100000000000000000000000000000000000000000000000000000000815273ffffffffffffffffffffffffffffffffffffffff83811660048301528416906370a0823190602401602060405180830381865afa158015610861573d6000803e3d6000fd5b505050506040513d601f19601f82011682018060405250810190610885919061134f565b6108a3565b8173ffffffffffffffffffffffffffffffffffffffff16315b90505b92915050565b60608383836040516020016108c393929190611368565b60405160208183030381529060405290505b9392505050565b606060008473ffffffffffffffffffffffffffffffffffffffff168460405161090591906113c5565b6000604051808303816000865af19150503d8060008114610942576040519150601f19603f3d011682016040523d82523d6000602084013e610947565b606091505b509250905080156109d45781516000036109cf5773ffffffffffffffffffffffffffffffffffffffff85163b15158360405160200161098691906113e1565b604051602081830303815290604052906109cd576040517f08c379a00000000000000000000000000000000000000000000000000000000081526004016101779190611422565b505b6109de565b6109de8284610ab6565b509392505050565b60608585858585604051602001610a01959493929190611473565b604051602081830303815290604052905095945050505050565b73ffffffffffffffffffffffffffffffffffffffff831673eeeeeeeeeeeeeeeeeeeeeeeeeeeeeeeeeeeeeeee14610a5c57610a57838383610bb2565b505050565b610a578282610c3f565b6040805173ffffffffffffffffffffffffffffffffffffffff858116602083015284168183015260608082018490528251808303820181526080830190935291610a01918891889160a0016114bd565b60208251610ac491906114e4565b600403610ba15760208201517fffffffff0000000000000000000000000000000000000000000000000000000081167f08c379a00000000000000000000000000000000000000000000000000000000003610b90576044830192508183604051602001610b3292919061151f565b604080517fffffffffffffffffffffffffffffffffffffffffffffffffffffffffffffffe0818403018152908290527f08c379a000000000000000000000000000000000000000000000000000000000825261017791600401611422565b81604051602001610b32919061154e565b80604051602001610b32919061158f565b6040805173ffffffffffffffffffffffffffffffffffffffff8416602482015260448082018490528251808303909101815260649091019091526020810180517bffffffffffffffffffffffffffffffffffffffffffffffffffffffff167fa9059cbb00000000000000000000000000000000000000000000000000000000179052610a57908490610d99565b80471015610ca9576040517f08c379a000000000000000000000000000000000000000000000000000000000815260206004820152601d60248201527f416464726573733a20696e73756666696369656e742062616c616e63650000006044820152606401610177565b60008273ffffffffffffffffffffffffffffffffffffffff168260405160006040518083038185875af1925050503d8060008114610d03576040519150601f19603f3d011682016040523d82523d6000602084013e610d08565b606091505b5050905080610a57576040517f08c379a000000000000000000000000000000000000000000000000000000000815260206004820152603a60248201527f416464726573733a20756e61626c6520746f2073656e642076616c75652c207260448201527f6563697069656e74206d617920686176652072657665727465640000000000006064820152608401610177565b6000610dfb826040518060400160405280602081526020017f5361666545524332303a206c6f772d6c6576656c2063616c6c206661696c65648152508573ffffffffffffffffffffffffffffffffffffffff16610ea59092919063ffffffff16565b805190915015610a575780806020019051810190610e1991906115d0565b610a57576040517f08c379a000000000000000000000000000000000000000000000000000000000815260206004820152602a60248201527f5361666545524332303a204552433230206f7065726174696f6e20646964206e60448201527f6f742073756363656564000000000000000000000000000000000000000000006064820152608401610177565b6060610eb48484600085610ebc565b949350505050565b606082471015610f4e576040517f08c379a000000000000000000000000000000000000000000000000000000000815260206004820152602660248201527f416464726573733a20696e73756666696369656e742062616c616e636520666f60448201527f722063616c6c00000000000000000000000000000000000000000000000000006064820152608401610177565b73ffffffffffffffffffffffffffffffffffffffff85163b610fcc576040517f08c379a000000000000000000000000000000000000000000000000000000000815260206004820152601d60248201527f416464726573733a2063616c6c20746f206e6f6e2d636f6e74726163740000006044820152606401610177565b6000808673ffffffffffffffffffffffffffffffffffffffff168587604051610ff591906113c5565b60006040518083038185875af1925050503d8060008114611032576040519150601f19603f3d011682016040523d82523d6000602084013e611037565b606091505b5091509150611047828286611052565b979650505050505050565b606083156110615750816108d5565b8251156110715782518084602001fd5b816040517f08c379a00000000000000000000000000000000000000000000000000000000081526004016101779190611422565b803573ffffffffffffffffffffffffffffffffffffffff811681146110c957600080fd5b919050565b60008083601f8401126110e057600080fd5b50813567ffffffffffffffff8111156110f857600080fd5b60208301915083602082850101111561111057600080fd5b9250929050565b801515811461112557600080fd5b50565b60008060008060006080868803121561114057600080fd5b611149866110a5565b9450602086013567ffffffffffffffff81111561116557600080fd5b611171888289016110ce565b909550935050604086013561118581611117565b949793965091946060013592915050565b600080600080600080600060e0888a0312156111b157600080fd5b873567ffffffffffffffff8111156111c857600080fd5b88016060818b0312156111da57600080fd5b96506111e8602089016110a5565b95506111f6604089016110a5565b969995985095966060810135965060808101359560a0820135955060c0909101359350915050565b60008060008060008060a0878903121561123757600080fd5b611240876110a5565b9550602087013567ffffffffffffffff81111561125c57600080fd5b61126889828a016110ce565b909650945061127b9050604088016110a5565b925060608701359150608087013590509295509295509295565b818103818111156108a6577f4e487b7100000000000000000000000000000000000000000000000000000000600052601160045260246000fd5b60008083357fffffffffffffffffffffffffffffffffffffffffffffffffffffffffffffffe184360301811261130457600080fd5b83018035915067ffffffffffffffff82111561131f57600080fd5b60200191503681900382131561111057600080fd5b60006020828403121561134657600080fd5b6108a3826110a5565b60006020828403121561136157600080fd5b5051919050565b8284823760609190911b7fffffffffffffffffffffffffffffffffffffffff000000000000000000000000169101908152601401919050565b60005b838110156113bc5781810151838201526020016113a4565b50506000910152565b600082516113d78184602087016113a1565b9190910192915050565b600082516113f38184602087016113a1565b7f43616c6c20746f206e6f6e20636f6e7472616374000000000000000000000000920191825250601401919050565b60208152600082518060208401526114418160408501602087016113a1565b601f017fffffffffffffffffffffffffffffffffffffffffffffffffffffffffffffffe0169190910160400192915050565b848682377fffffffffffffffffffffffffffffffffffffffff000000000000000000000000606094851b8116959091019485529190921b1660148301526028820152604801919050565b8284823760008382016000815283516114da8183602088016113a1565b0195945050505050565b60008261151a577f4e487b7100000000000000000000000000000000000000000000000000000000600052601260045260246000fd5b500690565b600083516115318184602088016113a1565b8351908301906115458183602088016113a1565b01949350505050565b600082516115608184602087016113a1565b7f4e6f4572726f7253656c6563746f720000000000000000000000000000000000920191825250600f01919050565b600082516115a18184602087016113a1565b7f556e657870656374656452657475726e64617461000000000000000000000000920191825250601401919050565b6000602082840312156115e257600080fd5b81516108d58161111756fea26469706673582212208a1e17bae5af3eb91138f73b69297696d03fbff6aa28a1fb7723e37d9be819c664736f6c63430008110033",
  "devdoc": {
    "details": "This contract must NEVER hold funds!Maliciously crafted transaction payloads could wipe out any funds left here",
    "kind": "dev",
    "methods": {
      "callWithSyncFee(address,bytes,address,uint256,bytes32)": {
        "details": "Previous version kept for backward compatibility"
      },
      "callWithSyncFeeV2(address,bytes,bool,bytes32)": {
        "details": "This is the most straightforward use case, and `transfer` handles token payments.",
        "params": {
          "_correlationId": "Unique task identifier generated by gelato",
          "_data": "Payload for call on _target",
          "_isRelayContext": "true: all relay context encoding, false: only feeCollector encoding",
          "_target": "Target smart contract"
        }
      },
      "sponsoredCall((uint256,address,bytes),address,address,uint256,uint256,uint256,bytes32)": {
        "details": "Payment is handled with off-chain accounting using Gelato's 1Balance system",
        "params": {
          "_call": "Relay call data packed into SponsoredCall struct",
          "_correlationId": "Unique task identifier generated by gelato",
          "_nativeToFeeTokenXRateDenominator": "Exchange rate denominator",
          "_nativeToFeeTokenXRateNumerator": "Exchange rate numerator"
        }
      }
    },
    "title": "Gelato Relay contract",
    "version": 1
  },
  "userdoc": {
    "kind": "user",
    "methods": {
      "callWithSyncFeeV2(address,bytes,bool,bytes32)": {
        "notice": "Relay call with Synchronous PaymentThe target contract pays Gelato during the call forward"
      },
      "sponsoredCall((uint256,address,bytes),address,address,uint256,uint256,uint256,bytes32)": {
        "notice": "Relay call + One Balance payment - with sponsor authenticationOracle value for exchange rate between native tokens and fee token"
      }
    },
    "notice": "This contract deals with synchronous payments and Gelato 1Balance payments",
    "version": 1
  },
  "storageLayout": {
    "storage": [],
    "types": null
  }
}