{
  "address": "0x69B910a1B856193784a7aa65F57830301D296Ea1",
  "abi": [
    {
      "inputs": [
        {
          "internalType": "address",
          "name": "_gelato",
          "type": "address"
        }
      ],
      "stateMutability": "nonpayable",
      "type": "constructor"
    },
    {
      "anonymous": false,
      "inputs": [
        {
          "indexed": true,
          "internalType": "address",
          "name": "sponsor",
          "type": "address"
        },
        {
          "indexed": true,
          "internalType": "address",
          "name": "user",
          "type": "address"
        },
        {
          "indexed": true,
          "internalType": "address",
          "name": "target",
          "type": "address"
        },
        {
          "indexed": false,
          "internalType": "address",
          "name": "feeToken",
          "type": "address"
        },
        {
          "indexed": false,
          "internalType": "uint256",
          "name": "fee",
          "type": "uint256"
        },
        {
          "indexed": false,
          "internalType": "bytes32",
          "name": "taskId",
          "type": "bytes32"
        }
      ],
      "name": "LogMetaTxRequestPullFee",
      "type": "event"
    },
    {
      "anonymous": false,
      "inputs": [
        {
          "indexed": true,
          "internalType": "address",
          "name": "previousOwner",
          "type": "address"
        },
        {
          "indexed": true,
          "internalType": "address",
          "name": "newOwner",
          "type": "address"
        }
      ],
      "name": "OwnershipTransferred",
      "type": "event"
    },
    {
      "anonymous": false,
      "inputs": [
        {
          "indexed": false,
          "internalType": "address",
          "name": "account",
          "type": "address"
        }
      ],
      "name": "Paused",
      "type": "event"
    },
    {
      "anonymous": false,
      "inputs": [
        {
          "indexed": false,
          "internalType": "address",
          "name": "account",
          "type": "address"
        }
      ],
      "name": "Unpaused",
      "type": "event"
    },
    {
      "inputs": [],
      "name": "EIP712_DOMAIN_TYPE",
      "outputs": [
        {
          "internalType": "string",
          "name": "",
          "type": "string"
        }
      ],
      "stateMutability": "view",
      "type": "function"
    },
    {
      "inputs": [],
      "name": "METATX_REQUEST_TYPEHASH",
      "outputs": [
        {
          "internalType": "bytes32",
          "name": "",
          "type": "bytes32"
        }
      ],
      "stateMutability": "view",
      "type": "function"
    },
    {
      "inputs": [],
      "name": "chainId",
      "outputs": [
        {
          "internalType": "uint256",
          "name": "",
          "type": "uint256"
        }
      ],
      "stateMutability": "view",
      "type": "function"
    },
    {
      "inputs": [
        {
          "internalType": "address",
          "name": "_dest",
          "type": "address"
        }
      ],
      "name": "delistDest",
      "outputs": [],
      "stateMutability": "nonpayable",
      "type": "function"
    },
    {
      "inputs": [],
      "name": "gelato",
      "outputs": [
        {
          "internalType": "address",
          "name": "",
          "type": "address"
        }
      ],
      "stateMutability": "view",
      "type": "function"
    },
    {
      "inputs": [],
      "name": "getDomainSeparator",
      "outputs": [
        {
          "internalType": "bytes32",
          "name": "",
          "type": "bytes32"
        }
      ],
      "stateMutability": "view",
      "type": "function"
    },
    {
      "inputs": [],
      "name": "getWhitelistedDest",
      "outputs": [
        {
          "internalType": "address[]",
          "name": "",
          "type": "address[]"
        }
      ],
      "stateMutability": "view",
      "type": "function"
    },
    {
      "inputs": [
        {
          "internalType": "address",
          "name": "_pullFeeRegistry",
          "type": "address"
        }
      ],
      "name": "initPullFeeRegistry",
      "outputs": [],
      "stateMutability": "nonpayable",
      "type": "function"
    },
    {
      "inputs": [
        {
          "components": [
            {
              "internalType": "uint256",
              "name": "chainId",
              "type": "uint256"
            },
            {
              "internalType": "address",
              "name": "target",
              "type": "address"
            },
            {
              "internalType": "bytes",
              "name": "data",
              "type": "bytes"
            },
            {
              "internalType": "address",
              "name": "feeToken",
              "type": "address"
            },
            {
              "internalType": "uint256",
              "name": "paymentType",
              "type": "uint256"
            },
            {
              "internalType": "uint256",
              "name": "maxFee",
              "type": "uint256"
            },
            {
              "internalType": "uint256",
              "name": "gas",
              "type": "uint256"
            },
            {
              "internalType": "address",
              "name": "user",
              "type": "address"
            },
            {
              "internalType": "address",
              "name": "sponsor",
              "type": "address"
            },
            {
              "internalType": "uint256",
              "name": "sponsorChainId",
              "type": "uint256"
            },
            {
              "internalType": "uint256",
              "name": "nonce",
              "type": "uint256"
            },
            {
              "internalType": "uint256",
              "name": "deadline",
              "type": "uint256"
            }
          ],
          "internalType": "struct MetaTxRequest",
          "name": "_req",
          "type": "tuple"
        },
        {
          "internalType": "bytes",
          "name": "_userSignature",
          "type": "bytes"
        },
        {
          "internalType": "bytes",
          "name": "_sponsorSignature",
          "type": "bytes"
        },
        {
          "internalType": "uint256",
          "name": "_gelatoFee",
          "type": "uint256"
        },
        {
          "internalType": "bytes32",
          "name": "_taskId",
          "type": "bytes32"
        }
      ],
      "name": "metaTxRequestPullFee",
      "outputs": [],
      "stateMutability": "nonpayable",
      "type": "function"
    },
    {
      "inputs": [
        {
          "internalType": "address",
          "name": "",
          "type": "address"
        }
      ],
      "name": "nonce",
      "outputs": [
        {
          "internalType": "uint256",
          "name": "",
          "type": "uint256"
        }
      ],
      "stateMutability": "view",
      "type": "function"
    },
    {
      "inputs": [],
      "name": "owner",
      "outputs": [
        {
          "internalType": "address",
          "name": "",
          "type": "address"
        }
      ],
      "stateMutability": "view",
      "type": "function"
    },
    {
      "inputs": [],
      "name": "pause",
      "outputs": [],
      "stateMutability": "nonpayable",
      "type": "function"
    },
    {
      "inputs": [],
      "name": "paused",
      "outputs": [
        {
          "internalType": "bool",
          "name": "",
          "type": "bool"
        }
      ],
      "stateMutability": "view",
      "type": "function"
    },
    {
      "inputs": [],
      "name": "pullFeeRegistry",
      "outputs": [
        {
          "internalType": "address",
          "name": "",
          "type": "address"
        }
      ],
      "stateMutability": "view",
      "type": "function"
    },
    {
      "inputs": [],
      "name": "renounceOwnership",
      "outputs": [],
      "stateMutability": "nonpayable",
      "type": "function"
    },
    {
      "inputs": [
        {
          "internalType": "address",
          "name": "newOwner",
          "type": "address"
        }
      ],
      "name": "transferOwnership",
      "outputs": [],
      "stateMutability": "nonpayable",
      "type": "function"
    },
    {
      "inputs": [],
      "name": "unpause",
      "outputs": [],
      "stateMutability": "nonpayable",
      "type": "function"
    },
    {
      "inputs": [
        {
          "internalType": "address",
          "name": "_dest",
          "type": "address"
        }
      ],
      "name": "whitelistDest",
      "outputs": [],
      "stateMutability": "nonpayable",
      "type": "function"
    }
  ],
  "transactionHash": "0x2b0cd70267ee3a0c202e04d1a82d43130fad9f2d67e681e7fc6a352916773bb8",
  "args": [
    "0x7C5c4Af1618220C090A6863175de47afb20fa9Df"
  ],
  "numDeployments": 1,
  "solcInputHash": "24891a73cc9f8e6000a4d150fa42948d",
  "bytecode": "0x60c06040523480156200001157600080fd5b5060405162002490380380620024908339810160408190526200003491620000b2565b6200003f3362000062565b6000805460ff60a01b191690556001600160a01b03166080524660a052620000e4565b600080546001600160a01b038381166001600160a01b0319831681178455604051919092169283917f8be0079c531659141344cd1fd0a4f28419497f9722a3daafe3b4186f6b6457e09190a35050565b600060208284031215620000c557600080fd5b81516001600160a01b0381168114620000dd57600080fd5b9392505050565b60805160a05161236a62000126600039600081816102b2015281816104bf01526112f60152600081816101b70152818161032d0152610c0d015261236a6000f3fe608060405234801561001057600080fd5b50600436106101365760003560e01c806370ae92d2116100b25780638da5cb5b11610081578063c3f28abd11610066578063c3f28abd146102d4578063ed24911d146102e9578063f2fde38b146102f157600080fd5b80638da5cb5b1461028f5780639a8a0592146102ad57600080fd5b806370ae92d21461023f578063715018a61461025f578063834806ce146102675780638456cb591461028757600080fd5b8063400e7ea911610109578063573ea575116100ee578063573ea575146101b25780635c975abb146101fe57806366118cb51461022c57600080fd5b8063400e7ea91461018c5780635550b0f41461019f57600080fd5b80630683d46d1461013b57806327aba4a8146101595780633e40957d1461016e5780633f4ba83a14610184575b600080fd5b610143610304565b6040516101509190611e62565b60405180910390f35b61016c610167366004611efe565b610315565b005b610176610d57565b604051908152602001610150565b61016c610d7b565b61016c61019a366004611fab565b610e06565b61016c6101ad366004611fab565b610f74565b6101d97f000000000000000000000000000000000000000000000000000000000000000081565b60405173ffffffffffffffffffffffffffffffffffffffff9091168152602001610150565b60005474010000000000000000000000000000000000000000900460ff166040519015158152602001610150565b61016c61023a366004611fab565b61109c565b61017661024d366004611fab565b60026020526000908152604090205481565b61016c6111bf565b6001546101d99073ffffffffffffffffffffffffffffffffffffffff1681565b61016c61124a565b60005473ffffffffffffffffffffffffffffffffffffffff166101d9565b6101767f000000000000000000000000000000000000000000000000000000000000000081565b6102dc6112d3565b6040516101509190612011565b6101766112ef565b61016c6102ff366004611fab565b61131a565b6060610310600361144a565b905090565b3373ffffffffffffffffffffffffffffffffffffffff7f000000000000000000000000000000000000000000000000000000000000000016146103b9576040517f08c379a000000000000000000000000000000000000000000000000000000000815260206004820152601760248201527f4f6e6c792063616c6c61626c652062792067656c61746f00000000000000000060448201526064015b60405180910390fd5b60005474010000000000000000000000000000000000000000900460ff161561043e576040517f08c379a000000000000000000000000000000000000000000000000000000000815260206004820152601060248201527f5061757361626c653a207061757365640000000000000000000000000000000060448201526064016103b0565b610160870135158061045557504287610160013510155b6104bb576040517f08c379a000000000000000000000000000000000000000000000000000000000815260206004820152600f60248201527f526571756573742065787069726564000000000000000000000000000000000060448201526064016103b0565b86357f000000000000000000000000000000000000000000000000000000000000000014610545576040517f08c379a000000000000000000000000000000000000000000000000000000000815260206004820152600d60248201527f57726f6e6720636861696e49640000000000000000000000000000000000000060448201526064016103b0565b86608001356003146105b3576040517f08c379a000000000000000000000000000000000000000000000000000000000815260206004820152601560248201527f7061796d656e7454797065206d7573742062652033000000000000000000000060448201526064016103b0565b6105ce6105c66040890160208a01611fab565b60039061145e565b610634576040517f08c379a000000000000000000000000000000000000000000000000000000000815260206004820152601e60248201527f7461726765742061646472657373206e6f742077686974656c6973746564000060448201526064016103b0565b73eeeeeeeeeeeeeeeeeeeeeeeeeeeeeeeeeeeeeeee6106596080890160608a01611fab565b73ffffffffffffffffffffffffffffffffffffffff16036106fc576040517f08c379a000000000000000000000000000000000000000000000000000000000815260206004820152602c60248201527f4e617469766520746f6b656e206e6f7420737570706f7274656420666f72207060448201527f61796d656e74547970652033000000000000000000000000000000000000000060648201526084016103b0565b8660a0013582111561076a576040517f08c379a000000000000000000000000000000000000000000000000000000000815260206004820152601560248201527f4578656375746f72206f7665722d63686172676564000000000000000000000060448201526064016103b0565b60006002816107806101008b0160e08c01611fab565b73ffffffffffffffffffffffffffffffffffffffff1673ffffffffffffffffffffffffffffffffffffffff168152602001908152602001600020549050808861014001351461082b576040517f08c379a000000000000000000000000000000000000000000000000000000000815260206004820152600d60248201527f496e76616c6964206e6f6e63650000000000000000000000000000000000000060448201526064016103b0565b610836816001612091565b6002600061084b6101008c0160e08d01611fab565b73ffffffffffffffffffffffffffffffffffffffff16815260208101919091526040016000205561088e888888610889610100840160e08501611fab565b611492565b6108a061012089016101008a01611fab565b73ffffffffffffffffffffffffffffffffffffffff166108c76101008a0160e08b01611fab565b73ffffffffffffffffffffffffffffffffffffffff16146108fa576108fa88868661088961012084016101008501611fab565b60015473ffffffffffffffffffffffffffffffffffffffff168061092460408b0160208c01611fab565b73ffffffffffffffffffffffffffffffffffffffff16036109a1576040517f08c379a000000000000000000000000000000000000000000000000000000000815260206004820152601e60248201527f556e736166652063616c6c20746f2070756c6c4665655265676973747279000060448201526064016103b0565b6109d06109b460408b0160208c01611fab565b73ffffffffffffffffffffffffffffffffffffffff163b151590565b610a36576040517f08c379a000000000000000000000000000000000000000000000000000000000815260206004820152600f60248201527f43616e6e6f742063616c6c20454f41000000000000000000000000000000000060448201526064016103b0565b6000610a4860408b0160208c01611fab565b73ffffffffffffffffffffffffffffffffffffffff1660c08b0135610a7060408d018d6120a9565b8d60e0016020810190610a839190611fab565b604051602001610a959392919061210e565b604080517fffffffffffffffffffffffffffffffffffffffffffffffffffffffffffffffe081840301815290829052610acd91612147565b60006040518083038160008787f1925050503d8060008114610b0b576040519150601f19603f3d011682016040523d82523d6000602084013e610b10565b606091505b5050905080610b7b576040517f08c379a000000000000000000000000000000000000000000000000000000000815260206004820152601460248201527f45787465726e616c2063616c6c206661696c656400000000000000000000000060448201526064016103b0565b5073ffffffffffffffffffffffffffffffffffffffff8116638c3a0a27610ba860808c0160608d01611fab565b610bba6101208d016101008e01611fab565b60405160e084901b7fffffffff0000000000000000000000000000000000000000000000000000000016815273ffffffffffffffffffffffffffffffffffffffff928316600482015290821660248201527f0000000000000000000000000000000000000000000000000000000000000000909116604482015260648101879052608401600060405180830381600087803b158015610c5857600080fd5b505af1158015610c6c573d6000803e3d6000fd5b50610c819250505060408a0160208b01611fab565b73ffffffffffffffffffffffffffffffffffffffff16610ca86101008b0160e08c01611fab565b73ffffffffffffffffffffffffffffffffffffffff16610cd06101208c016101008d01611fab565b73ffffffffffffffffffffffffffffffffffffffff167f03dd5aff697664a4c8b7e1f1980ca40037a34cecaf0a02ffc2b4e83689bd6df9610d1760808e0160608f01611fab565b6040805173ffffffffffffffffffffffffffffffffffffffff9092168252602082018a9052810188905260600160405180910390a4505050505050505050565b60405180610100016040528060cb815260200161226a60cb91398051906020012081565b60005473ffffffffffffffffffffffffffffffffffffffff163314610dfc576040517f08c379a000000000000000000000000000000000000000000000000000000000815260206004820181905260248201527f4f776e61626c653a2063616c6c6572206973206e6f7420746865206f776e657260448201526064016103b0565b610e0461160f565b565b60005473ffffffffffffffffffffffffffffffffffffffff163314610e87576040517f08c379a000000000000000000000000000000000000000000000000000000000815260206004820181905260248201527f4f776e61626c653a2063616c6c6572206973206e6f7420746865206f776e657260448201526064016103b0565b60015473ffffffffffffffffffffffffffffffffffffffff1615610f2d576040517f08c379a000000000000000000000000000000000000000000000000000000000815260206004820152602360248201527f70756c6c466565526567697374727920616c726561647920696e697469616c6960448201527f7a6564000000000000000000000000000000000000000000000000000000000060648201526084016103b0565b600180547fffffffffffffffffffffffff00000000000000000000000000000000000000001673ffffffffffffffffffffffffffffffffffffffff92909216919091179055565b60005473ffffffffffffffffffffffffffffffffffffffff163314610ff5576040517f08c379a000000000000000000000000000000000000000000000000000000000815260206004820181905260248201527f4f776e61626c653a2063616c6c6572206973206e6f7420746865206f776e657260448201526064016103b0565b61100060038261145e565b1561108d576040517f08c379a000000000000000000000000000000000000000000000000000000000815260206004820152602760248201527f44657374696e6174696f6e206164647265737320616c7265616479207768697460448201527f656c69737465640000000000000000000000000000000000000000000000000060648201526084016103b0565b611098600382611708565b5050565b60005473ffffffffffffffffffffffffffffffffffffffff16331461111d576040517f08c379a000000000000000000000000000000000000000000000000000000000815260206004820181905260248201527f4f776e61626c653a2063616c6c6572206973206e6f7420746865206f776e657260448201526064016103b0565b61112860038261145e565b6111b4576040517f08c379a000000000000000000000000000000000000000000000000000000000815260206004820152602360248201527f44657374696e6174696f6e2061646472657373206e6f742077686974656c697360448201527f746564000000000000000000000000000000000000000000000000000000000060648201526084016103b0565b61109860038261172a565b60005473ffffffffffffffffffffffffffffffffffffffff163314611240576040517f08c379a000000000000000000000000000000000000000000000000000000000815260206004820181905260248201527f4f776e61626c653a2063616c6c6572206973206e6f7420746865206f776e657260448201526064016103b0565b610e04600061174c565b60005473ffffffffffffffffffffffffffffffffffffffff1633146112cb576040517f08c379a000000000000000000000000000000000000000000000000000000000815260206004820181905260248201527f4f776e61626c653a2063616c6c6572206973206e6f7420746865206f776e657260448201526064016103b0565b610e046117c1565b6040518060800160405280605281526020016122186052913981565b60006103107f00000000000000000000000000000000000000000000000000000000000000006118ad565b60005473ffffffffffffffffffffffffffffffffffffffff16331461139b576040517f08c379a000000000000000000000000000000000000000000000000000000000815260206004820181905260248201527f4f776e61626c653a2063616c6c6572206973206e6f7420746865206f776e657260448201526064016103b0565b73ffffffffffffffffffffffffffffffffffffffff811661143e576040517f08c379a000000000000000000000000000000000000000000000000000000000815260206004820152602660248201527f4f776e61626c653a206e6577206f776e657220697320746865207a65726f206160448201527f646472657373000000000000000000000000000000000000000000000000000060648201526084016103b0565b6114478161174c565b50565b60606000611457836119b3565b9392505050565b73ffffffffffffffffffffffffffffffffffffffff8116600090815260018301602052604081205415155b90505b92915050565b600061149e85356118ad565b90506000816114ac87611a0f565b80516020918201206040516114f39392017f190100000000000000000000000000000000000000000000000000000000000081526002810192909252602282015260420190565b60405160208183030381529060405280519060200120905060008061154e8388888080601f016020809104026020016040519081016040528093929190818152602001838380828437600092019190915250611b5292505050565b9092509050600081600481111561156757611567612163565b14801561159f57508473ffffffffffffffffffffffffffffffffffffffff168273ffffffffffffffffffffffffffffffffffffffff16145b611605576040517f08c379a000000000000000000000000000000000000000000000000000000000815260206004820152601160248201527f496e76616c6964207369676e617475726500000000000000000000000000000060448201526064016103b0565b5050505050505050565b60005474010000000000000000000000000000000000000000900460ff16611693576040517f08c379a000000000000000000000000000000000000000000000000000000000815260206004820152601460248201527f5061757361626c653a206e6f742070617573656400000000000000000000000060448201526064016103b0565b600080547fffffffffffffffffffffff00ffffffffffffffffffffffffffffffffffffffff1690557f5db9ee0a495bf2e6ff9c91a7834c1ba4fdd244a5e8aa4e537bd38aeae4b073aa335b60405173ffffffffffffffffffffffffffffffffffffffff909116815260200160405180910390a1565b60006114898373ffffffffffffffffffffffffffffffffffffffff8416611bc0565b60006114898373ffffffffffffffffffffffffffffffffffffffff8416611c0f565b6000805473ffffffffffffffffffffffffffffffffffffffff8381167fffffffffffffffffffffffff0000000000000000000000000000000000000000831681178455604051919092169283917f8be0079c531659141344cd1fd0a4f28419497f9722a3daafe3b4186f6b6457e09190a35050565b60005474010000000000000000000000000000000000000000900460ff1615611846576040517f08c379a000000000000000000000000000000000000000000000000000000000815260206004820152601060248201527f5061757361626c653a207061757365640000000000000000000000000000000060448201526064016103b0565b600080547fffffffffffffffffffffff00ffffffffffffffffffffffffffffffffffffffff16740100000000000000000000000000000000000000001790557f62e78cea01bee320cd4e420270b5ea74000d11b0c9f74754ebdbfc544b05a2586116de3390565b6000604051806080016040528060528152602001612218605291398051602091820120604080518082018252600d81527f47656c61746f4d657461426f78000000000000000000000000000000000000009084015280518082018252600281527f5631000000000000000000000000000000000000000000000000000000000000908401528051928301919091527f919f16ca789a3e2bbe70bbe2c4e0a9ff8affaab44711ff9ce735a3f4eef9b2d9908201527f4c23426613a5dc69e08fbd2787e6210aa679d4522e95a89d4dd88c4fd13a22836060820152608081018390523060a082015260c001604051602081830303815290604052805190602001209050919050565b606081600001805480602002602001604051908101604052809291908181526020018280548015611a0357602002820191906000526020600020905b8154815260200190600101908083116119ef575b50505050509050919050565b606060405180610100016040528060cb815260200161226a60cb9139805160209182012090833590611a479060408601908601611fab565b611a5460408601866120a9565b604051611a62929190612192565b604051908190039020611a7b6080870160608801611fab565b608087013560a088013560c0890135611a9b6101008b0160e08c01611fab565b611aad6101208c016101008d01611fab565b60408051602081019b909b528a019890985273ffffffffffffffffffffffffffffffffffffffff96871660608a0152608089019590955292851660a088015260c087019190915260e08601526101008501528116610120848101919091529116610140838101919091529084013561016083810191909152908401356101808301528301356101a08201526101c0016040516020818303038152906040529050919050565b6000808251604103611b885760208301516040840151606085015160001a611b7c87828585611d02565b94509450505050611bb9565b8251604003611bb15760208301516040840151611ba6868383611e1a565b935093505050611bb9565b506000905060025b9250929050565b6000818152600183016020526040812054611c075750815460018181018455600084815260208082209093018490558454848252828601909352604090209190915561148c565b50600061148c565b60008181526001830160205260408120548015611cf8576000611c336001836121a2565b8554909150600090611c47906001906121a2565b9050818114611cac576000866000018281548110611c6757611c676121b9565b9060005260206000200154905080876000018481548110611c8a57611c8a6121b9565b6000918252602080832090910192909255918252600188019052604090208390555b8554869080611cbd57611cbd6121e8565b60019003818190600052602060002001600090559055856001016000868152602001908152602001600020600090556001935050505061148c565b600091505061148c565b6000807f7fffffffffffffffffffffffffffffff5d576e7357a4501ddfe92f46681b20a0831115611d395750600090506003611e11565b8460ff16601b14158015611d5157508460ff16601c14155b15611d625750600090506004611e11565b6040805160008082526020820180845289905260ff881692820192909252606081018690526080810185905260019060a0016020604051602081039080840390855afa158015611db6573d6000803e3d6000fd5b50506040517fffffffffffffffffffffffffffffffffffffffffffffffffffffffffffffffe0015191505073ffffffffffffffffffffffffffffffffffffffff8116611e0a57600060019250925050611e11565b9150600090505b94509492505050565b6000807f7fffffffffffffffffffffffffffffffffffffffffffffffffffffffffffffff831660ff84901c601b01611e5487828885611d02565b935093505050935093915050565b6020808252825182820181905260009190848201906040850190845b81811015611eb057835173ffffffffffffffffffffffffffffffffffffffff1683529284019291840191600101611e7e565b50909695505050505050565b60008083601f840112611ece57600080fd5b50813567ffffffffffffffff811115611ee657600080fd5b602083019150836020828501011115611bb957600080fd5b600080600080600080600060a0888a031215611f1957600080fd5b873567ffffffffffffffff80821115611f3157600080fd5b90890190610180828c031215611f4657600080fd5b90975060208901359080821115611f5c57600080fd5b611f688b838c01611ebc565b909850965060408a0135915080821115611f8157600080fd5b50611f8e8a828b01611ebc565b989b979a5095989597966060870135966080013595509350505050565b600060208284031215611fbd57600080fd5b813573ffffffffffffffffffffffffffffffffffffffff8116811461145757600080fd5b60005b83811015611ffc578181015183820152602001611fe4565b8381111561200b576000848401525b50505050565b6020815260008251806020840152612030816040850160208701611fe1565b601f017fffffffffffffffffffffffffffffffffffffffffffffffffffffffffffffffe0169190910160400192915050565b7f4e487b7100000000000000000000000000000000000000000000000000000000600052601160045260246000fd5b600082198211156120a4576120a4612062565b500190565b60008083357fffffffffffffffffffffffffffffffffffffffffffffffffffffffffffffffe18436030181126120de57600080fd5b83018035915067ffffffffffffffff8211156120f957600080fd5b602001915036819003821315611bb957600080fd5b8284823760609190911b7fffffffffffffffffffffffffffffffffffffffff000000000000000000000000169101908152601401919050565b60008251612159818460208701611fe1565b9190910192915050565b7f4e487b7100000000000000000000000000000000000000000000000000000000600052602160045260246000fd5b8183823760009101908152919050565b6000828210156121b4576121b4612062565b500390565b7f4e487b7100000000000000000000000000000000000000000000000000000000600052603260045260246000fd5b7f4e487b7100000000000000000000000000000000000000000000000000000000600052603160045260246000fdfe454950373132446f6d61696e28737472696e67206e616d652c737472696e672076657273696f6e2c75696e7432353620636861696e49642c6164647265737320766572696679696e67436f6e7472616374294d6574615478526571756573742875696e7432353620636861696e49642c61646472657373207461726765742c627974657320646174612c6164647265737320666565546f6b656e2c75696e74323536207061796d656e74547970652c75696e74323536206d61784665652c75696e74323536206761732c6164647265737320757365722c616464726573732073706f6e736f722c75696e743235362073706f6e736f72436861696e49642c75696e74323536206e6f6e63652c75696e7432353620646561646c696e6529a264697066735822122014802e57571f9a70ff495a6631ef9b65a08742afae0143770221b3394fcad04a64736f6c634300080d0033",
  "devdoc": {
    "kind": "dev",
    "methods": {
      "metaTxRequestPullFee((uint256,address,bytes,address,uint256,uint256,uint256,address,address,uint256,uint256,uint256),bytes,bytes,uint256,bytes32)": {
        "details": "Assumes that _req.sponsor has approved this contract to spend _req.feeToken",
        "params": {
          "_gelatoFee": "Fee to be charged by Gelato relayer, denominated in _req.feeToken",
          "_req": "Relay request data",
          "_sponsorSignature": "EIP-712 compliant signature from _req.sponsor                          (can be same as _userSignature)",
          "_taskId": "Gelato task id",
          "_userSignature": "EIP-712 compliant signature from _req.user"
        }
      },
      "owner()": {
        "details": "Returns the address of the current owner."
      },
      "paused()": {
        "details": "Returns true if the contract is paused, and false otherwise."
      },
      "renounceOwnership()": {
        "details": "Leaves the contract without owner. It will not be possible to call `onlyOwner` functions anymore. Can only be called by the current owner. NOTE: Renouncing ownership will leave the contract without an owner, thereby removing any functionality that is only available to the owner."
      },
      "transferOwnership(address)": {
        "details": "Transfers ownership of the contract to a new account (`newOwner`). Can only be called by the current owner."
      }
    },
    "version": 1
  },
  "userdoc": {
    "kind": "user",
    "methods": {
      "metaTxRequestPullFee((uint256,address,bytes,address,uint256,uint256,uint256,address,address,uint256,uint256,uint256),bytes,bytes,uint256,bytes32)": {
        "notice": "Relay meta tx request + pull fee from (transferFrom) _req.sponsor's addressEOA that originates the tx, but does not necessarily pay the relayerHandles the case of tokens with fee on transfer"
      }
    },
    "version": 1
  },
  "storageLayout": {
    "storage": [
      {
        "astId": 326,
        "contract": "contracts/GelatoMetaBoxPullFee.sol:GelatoMetaBoxPullFee",
        "label": "_owner",
        "offset": 0,
        "slot": "0",
        "type": "t_address"
      },
      {
        "astId": 518,
        "contract": "contracts/GelatoMetaBoxPullFee.sol:GelatoMetaBoxPullFee",
        "label": "_paused",
        "offset": 20,
        "slot": "0",
        "type": "t_bool"
      },
      {
        "astId": 2896,
        "contract": "contracts/GelatoMetaBoxPullFee.sol:GelatoMetaBoxPullFee",
        "label": "pullFeeRegistry",
        "offset": 0,
        "slot": "1",
        "type": "t_address"
      },
      {
        "astId": 2900,
        "contract": "contracts/GelatoMetaBoxPullFee.sol:GelatoMetaBoxPullFee",
        "label": "nonce",
        "offset": 0,
        "slot": "2",
        "type": "t_mapping(t_address,t_uint256)"
      },
      {
        "astId": 2903,
        "contract": "contracts/GelatoMetaBoxPullFee.sol:GelatoMetaBoxPullFee",
        "label": "_whitelistedDest",
        "offset": 0,
        "slot": "3",
        "type": "t_struct(AddressSet)2158_storage"
      }
    ],
    "types": {
      "t_address": {
        "encoding": "inplace",
        "label": "address",
        "numberOfBytes": "20"
      },
      "t_array(t_bytes32)dyn_storage": {
        "base": "t_bytes32",
        "encoding": "dynamic_array",
        "label": "bytes32[]",
        "numberOfBytes": "32"
      },
      "t_bool": {
        "encoding": "inplace",
        "label": "bool",
        "numberOfBytes": "1"
      },
      "t_bytes32": {
        "encoding": "inplace",
        "label": "bytes32",
        "numberOfBytes": "32"
      },
      "t_mapping(t_address,t_uint256)": {
        "encoding": "mapping",
        "key": "t_address",
        "label": "mapping(address => uint256)",
        "numberOfBytes": "32",
        "value": "t_uint256"
      },
      "t_mapping(t_bytes32,t_uint256)": {
        "encoding": "mapping",
        "key": "t_bytes32",
        "label": "mapping(bytes32 => uint256)",
        "numberOfBytes": "32",
        "value": "t_uint256"
      },
      "t_struct(AddressSet)2158_storage": {
        "encoding": "inplace",
        "label": "struct EnumerableSet.AddressSet",
        "members": [
          {
            "astId": 2157,
            "contract": "contracts/GelatoMetaBoxPullFee.sol:GelatoMetaBoxPullFee",
            "label": "_inner",
            "offset": 0,
            "slot": "0",
            "type": "t_struct(Set)1857_storage"
          }
        ],
        "numberOfBytes": "64"
      },
      "t_struct(Set)1857_storage": {
        "encoding": "inplace",
        "label": "struct EnumerableSet.Set",
        "members": [
          {
            "astId": 1852,
            "contract": "contracts/GelatoMetaBoxPullFee.sol:GelatoMetaBoxPullFee",
            "label": "_values",
            "offset": 0,
            "slot": "0",
            "type": "t_array(t_bytes32)dyn_storage"
          },
          {
            "astId": 1856,
            "contract": "contracts/GelatoMetaBoxPullFee.sol:GelatoMetaBoxPullFee",
            "label": "_indexes",
            "offset": 0,
            "slot": "1",
            "type": "t_mapping(t_bytes32,t_uint256)"
          }
        ],
        "numberOfBytes": "64"
      },
      "t_uint256": {
        "encoding": "inplace",
        "label": "uint256",
        "numberOfBytes": "32"
      }
    }
  }
}