{
  "address": "0xC5a998D0b5eB81bb3C9244152025e074c5ECf5Bb",
  "abi": [
    {
      "inputs": [
        {
          "internalType": "address",
          "name": "_gelato",
          "type": "address"
        }
      ],
      "stateMutability": "nonpayable",
      "type": "constructor"
    },
    {
      "anonymous": false,
      "inputs": [
        {
          "indexed": true,
          "internalType": "address",
          "name": "target",
          "type": "address"
        },
        {
          "indexed": true,
          "internalType": "bytes32",
          "name": "correlationId",
          "type": "bytes32"
        }
      ],
      "name": "LogCallWithSyncFeeV2",
      "type": "event"
    },
    {
      "inputs": [
        {
          "internalType": "address",
          "name": "_target",
          "type": "address"
        },
        {
          "internalType": "bytes",
          "name": "_data",
          "type": "bytes"
        },
        {
          "internalType": "bool",
          "name": "_isRelayContext",
          "type": "bool"
        },
        {
          "internalType": "bytes32",
          "name": "_correlationId",
          "type": "bytes32"
        }
      ],
      "name": "callWithSyncFeeV2",
      "outputs": [],
      "stateMutability": "nonpayable",
      "type": "function"
    },
    {
      "inputs": [],
      "name": "gelato",
      "outputs": [
        {
          "internalType": "address",
          "name": "",
          "type": "address"
        }
      ],
      "stateMutability": "view",
      "type": "function"
    }
  ],
  "transactionHash": "0x9ae9632e70f03971aec4d2ef25b2f9a93526b7421f65463bba17f4332c6d2577",
  "args": [
    "0x08EFb6D315c7e74C39620c9AAEA289730f43a429"
  ],
  "numDeployments": 1,
  "solcInputHash": "efcc780799ae6b1b32e01eeb6cd9e269",
  "bytecode": "0x60a060405234801561001057600080fd5b5060405161102a38038061102a83398101604081905261002f91610040565b6001600160a01b0316608052610070565b60006020828403121561005257600080fd5b81516001600160a01b038116811461006957600080fd5b9392505050565b608051610f9a610090600039600081816055015260b80152610f9a6000f3fe608060405234801561001057600080fd5b50600436106100365760003560e01c80630c44357d1461003b578063573ea57514610050575b600080fd5b61004e610049366004610bf5565b6100a0565b005b6100777f000000000000000000000000000000000000000000000000000000000000000081565b60405173ffffffffffffffffffffffffffffffffffffffff909116815260200160405180910390f35b3373ffffffffffffffffffffffffffffffffffffffff7f00000000000000000000000000000000000000000000000000000000000000001614610144576040517f08c379a000000000000000000000000000000000000000000000000000000000815260206004820152601760248201527f4f6e6c792063616c6c61626c652062792067656c61746f00000000000000000060448201526064015b60405180910390fd5b600080600084156101c457367fffffffffffffffffffffffffffffffffffffffffffffffffffffffffffffffb8013560601c9150367fffffffffffffffffffffffffffffffffffffffffffffffffffffffffffffffcc013560601c92506101c173ffffffffffffffffffffffffffffffffffffffff841630610333565b90505b846102545761024f6101fd8888367fffffffffffffffffffffffffffffffffffffffffffffffffffffffffffffffec013560601c61041d565b60408051808201909152601e81527f47656c61746f52656c61792e63616c6c5769746853796e6346656556323a0000602082015273ffffffffffffffffffffffffffffffffffffffff8b16919061044c565b610287565b6102876101fd88888587367fffffffffffffffffffffffffffffffffffffffffffffffffffffffffffffffe00135610556565b5084156102e6576000816102b173ffffffffffffffffffffffffffffffffffffffff861630610333565b6102bb9190610cac565b905080156102e4576102e473ffffffffffffffffffffffffffffffffffffffff8516848361058b565b505b604051849073ffffffffffffffffffffffffffffffffffffffff8a16907fd8cb76b2a24ef8154ad59a94b242b7237ecb805ebe9f7f5c16d14aebf0047f4990600090a35050505050505050565b600073ffffffffffffffffffffffffffffffffffffffff831673eeeeeeeeeeeeeeeeeeeeeeeeeeeeeeeeeeeeeeee146103fb576040517f70a0823100000000000000000000000000000000000000000000000000000000815273ffffffffffffffffffffffffffffffffffffffff83811660048301528416906370a0823190602401602060405180830381865afa1580156103d2573d6000803e3d6000fd5b505050506040513d601f19601f820116820180604052508101906103f69190610ce6565b610414565b8173ffffffffffffffffffffffffffffffffffffffff16315b90505b92915050565b606083838360405160200161043493929190610cff565b60405160208183030381529060405290509392505050565b606060008473ffffffffffffffffffffffffffffffffffffffff16846040516104759190610d5c565b6000604051808303816000865af19150503d80600081146104b2576040519150601f19603f3d011682016040523d82523d6000602084013e6104b7565b606091505b5092509050801561054457815160000361053f5773ffffffffffffffffffffffffffffffffffffffff85163b1515836040516020016104f69190610d78565b6040516020818303038152906040529061053d576040517f08c379a000000000000000000000000000000000000000000000000000000000815260040161013b9190610db9565b505b61054e565b61054e82846105d6565b509392505050565b60608585858585604051602001610571959493929190610e0a565b604051602081830303815290604052905095945050505050565b73ffffffffffffffffffffffffffffffffffffffff831673eeeeeeeeeeeeeeeeeeeeeeeeeeeeeeeeeeeeeeee146105cc576105c78383836106d2565b505050565b6105c7828261075f565b602082516105e49190610e54565b6004036106c15760208201517fffffffff0000000000000000000000000000000000000000000000000000000081167f08c379a000000000000000000000000000000000000000000000000000000000036106b0576044830192508183604051602001610652929190610e8f565b604080517fffffffffffffffffffffffffffffffffffffffffffffffffffffffffffffffe0818403018152908290527f08c379a000000000000000000000000000000000000000000000000000000000825261013b91600401610db9565b816040516020016106529190610ebe565b806040516020016106529190610eff565b6040805173ffffffffffffffffffffffffffffffffffffffff8416602482015260448082018490528251808303909101815260649091019091526020810180517bffffffffffffffffffffffffffffffffffffffffffffffffffffffff167fa9059cbb000000000000000000000000000000000000000000000000000000001790526105c79084906108b9565b804710156107c9576040517f08c379a000000000000000000000000000000000000000000000000000000000815260206004820152601d60248201527f416464726573733a20696e73756666696369656e742062616c616e6365000000604482015260640161013b565b60008273ffffffffffffffffffffffffffffffffffffffff168260405160006040518083038185875af1925050503d8060008114610823576040519150601f19603f3d011682016040523d82523d6000602084013e610828565b606091505b50509050806105c7576040517f08c379a000000000000000000000000000000000000000000000000000000000815260206004820152603a60248201527f416464726573733a20756e61626c6520746f2073656e642076616c75652c207260448201527f6563697069656e74206d61792068617665207265766572746564000000000000606482015260840161013b565b600061091b826040518060400160405280602081526020017f5361666545524332303a206c6f772d6c6576656c2063616c6c206661696c65648152508573ffffffffffffffffffffffffffffffffffffffff166109c59092919063ffffffff16565b8051909150156105c757808060200190518101906109399190610f40565b6105c7576040517f08c379a000000000000000000000000000000000000000000000000000000000815260206004820152602a60248201527f5361666545524332303a204552433230206f7065726174696f6e20646964206e60448201527f6f74207375636365656400000000000000000000000000000000000000000000606482015260840161013b565b60606109d484846000856109dc565b949350505050565b606082471015610a6e576040517f08c379a000000000000000000000000000000000000000000000000000000000815260206004820152602660248201527f416464726573733a20696e73756666696369656e742062616c616e636520666f60448201527f722063616c6c0000000000000000000000000000000000000000000000000000606482015260840161013b565b6000808673ffffffffffffffffffffffffffffffffffffffff168587604051610a979190610d5c565b60006040518083038185875af1925050503d8060008114610ad4576040519150601f19603f3d011682016040523d82523d6000602084013e610ad9565b606091505b5091509150610aea87838387610af5565b979650505050505050565b60608315610b8b578251600003610b845773ffffffffffffffffffffffffffffffffffffffff85163b610b84576040517f08c379a000000000000000000000000000000000000000000000000000000000815260206004820152601d60248201527f416464726573733a2063616c6c20746f206e6f6e2d636f6e7472616374000000604482015260640161013b565b50816109d4565b6109d48383815115610ba05781518083602001fd5b806040517f08c379a000000000000000000000000000000000000000000000000000000000815260040161013b9190610db9565b8015158114610be257600080fd5b50565b8035610bf081610bd4565b919050565b600080600080600060808688031215610c0d57600080fd5b853573ffffffffffffffffffffffffffffffffffffffff81168114610c3157600080fd5b9450602086013567ffffffffffffffff80821115610c4e57600080fd5b818801915088601f830112610c6257600080fd5b813581811115610c7157600080fd5b896020828501011115610c8357600080fd5b602083019650809550505050610c9b60408701610be5565b949793965091946060013592915050565b81810381811115610417577f4e487b7100000000000000000000000000000000000000000000000000000000600052601160045260246000fd5b600060208284031215610cf857600080fd5b5051919050565b8284823760609190911b7fffffffffffffffffffffffffffffffffffffffff000000000000000000000000169101908152601401919050565b60005b83811015610d53578181015183820152602001610d3b565b50506000910152565b60008251610d6e818460208701610d38565b9190910192915050565b60008251610d8a818460208701610d38565b7f43616c6c20746f206e6f6e20636f6e7472616374000000000000000000000000920191825250601401919050565b6020815260008251806020840152610dd8816040850160208701610d38565b601f017fffffffffffffffffffffffffffffffffffffffffffffffffffffffffffffffe0169190910160400192915050565b848682377fffffffffffffffffffffffffffffffffffffffff000000000000000000000000606094851b8116959091019485529190921b1660148301526028820152604801919050565b600082610e8a577f4e487b7100000000000000000000000000000000000000000000000000000000600052601260045260246000fd5b500690565b60008351610ea1818460208801610d38565b835190830190610eb5818360208801610d38565b01949350505050565b60008251610ed0818460208701610d38565b7f4e6f4572726f7253656c6563746f720000000000000000000000000000000000920191825250600f01919050565b60008251610f11818460208701610d38565b7f556e657870656374656452657475726e64617461000000000000000000000000920191825250601401919050565b600060208284031215610f5257600080fd5b8151610f5d81610bd4565b939250505056fea2646970667358221220e69588382fd01875c6e5bcb5738cc69b000ff52159c8d391e22ca4393467d03a64736f6c63430008140033",
  "devdoc": {
    "details": "This contract must NEVER hold funds!Maliciously crafted transaction payloads could wipe out any funds left here",
    "kind": "dev",
    "methods": {
      "callWithSyncFeeV2(address,bytes,bool,bytes32)": {
        "details": "This is the most straightforward use case, and `transfer` handles token payments.",
        "params": {
          "_correlationId": "Unique task identifier generated by gelato",
          "_data": "Payload for call on _target",
          "_isRelayContext": "true: all relay context encoding, false: only feeCollector encoding",
          "_target": "Target smart contract"
        }
      }
    },
    "title": "Gelato Relay contract",
    "version": 1
  },
  "userdoc": {
    "kind": "user",
    "methods": {
      "callWithSyncFeeV2(address,bytes,bool,bytes32)": {
        "notice": "Relay call with Synchronous PaymentThe target contract pays Gelato during the call forward"
      }
    },
    "notice": "This contract deals with synchronous payments and Gelato 1Balance payments",
    "version": 1
  },
  "storageLayout": {
    "storage": [],
    "types": null
  }
}