{
  "address": "0x3860B063928436F548c3A58A40c4d1d171E78838",
  "abi": [
    {
      "anonymous": false,
      "inputs": [
        {
          "indexed": false,
          "internalType": "address",
          "name": "feeCollector",
          "type": "address"
        },
        {
          "indexed": false,
          "internalType": "address",
          "name": "feeToken",
          "type": "address"
        },
        {
          "indexed": false,
          "internalType": "uint256",
          "name": "fee",
          "type": "uint256"
        }
      ],
      "name": "LogContext",
      "type": "event"
    },
    {
      "anonymous": false,
      "inputs": [
        {
          "indexed": false,
          "internalType": "bytes",
          "name": "data",
          "type": "bytes"
        }
      ],
      "name": "LogMsgData",
      "type": "event"
    },
    {
      "inputs": [],
      "name": "emitContext",
      "outputs": [],
      "stateMutability": "nonpayable",
      "type": "function"
    },
    {
      "inputs": [],
      "name": "testOnlyGelatoRelay",
      "outputs": [],
      "stateMutability": "nonpayable",
      "type": "function"
    },
    {
      "inputs": [],
      "name": "testTransferRelayFee",
      "outputs": [],
      "stateMutability": "nonpayable",
      "type": "function"
    },
    {
      "inputs": [
        {
          "internalType": "uint256",
          "name": "_maxFee",
          "type": "uint256"
        }
      ],
      "name": "testTransferRelayFeeCapped",
      "outputs": [],
      "stateMutability": "nonpayable",
      "type": "function"
    }
  ],
  "transactionHash": "0xf18621039f722cb231ad0bbaedce9a53553ef250601deab3b223ad84d0cc5e71",
  "args": [],
  "numDeployments": 1,
  "solcInputHash": "2db35055c2f8905eca3d48ec6a0b3a43",
  "bytecode": "0x608060405234801561001057600080fd5b50610ae0806100206000396000f3fe608060405234801561001057600080fd5b506004361061004c5760003560e01c80636d0e778014610051578063ac08f3501461005b578063c8ef22d714610063578063eca1484e14610076575b600080fd5b61005961007e565b005b61005961012e565b6100596100713660046108f1565b6101d8565b6100596101e4565b7f84a7e86a5530dbab0d699a72cd56748c29585a63e9b2b8281b9acdf52e9d161e6100a76101ec565b6040516100b592919061090a565b60405180910390a17fbaa7cd25b6b7966fc647f706ebf3a3c64f29320f08fc975a5ab3e8ec9f1c5b036100e6610236565b6100ee610245565b6100f661026c565b6040805173ffffffffffffffffffffffffffffffffffffffff94851681529390921660208401529082015260600160405180910390a1565b73abcc9b596420a9e9172fd5938620e265a0f9df9233146101d6576040517f08c379a000000000000000000000000000000000000000000000000000000000815260206004820152602260248201527f47656c61746f52656c6179436f6e746578742e6f6e6c7947656c61746f52656c60448201527f617900000000000000000000000000000000000000000000000000000000000060648201526084015b60405180910390fd5b565b6101e181610293565b50565b6101d6610364565b36600073abcc9b596420a9e9172fd5938620e265a0f9df9233146102125760003661022e565b60008036610221606082610957565b9261022e93929190610997565b915091509091565b600061024061037f565b905090565b60008036610254604082610957565b61025f928290610997565b81019061024091906109c1565b6000803661027b602082610957565b610286928290610997565b81019061024091906108f1565b600061029d61026c565b90508181111561032f576040517f08c379a000000000000000000000000000000000000000000000000000000000815260206004820152603260248201527f47656c61746f52656c6179436f6e746578742e5f7472616e7366657252656c6160448201527f794665654361707065643a206d6178466565000000000000000000000000000060648201526084016101cd565b61036061033a610236565b82610343610245565b73ffffffffffffffffffffffffffffffffffffffff16919061038e565b5050565b6101d661036f610236565b61037761026c565b610343610245565b60008036610254606082610957565b8060000361039b57505050565b73ffffffffffffffffffffffffffffffffffffffff831673eeeeeeeeeeeeeeeeeeeeeeeeeeeeeeeeeeeeeeee146103f2576103ed73ffffffffffffffffffffffffffffffffffffffff841683836103fc565b505050565b6103ed8282610489565b6040805173ffffffffffffffffffffffffffffffffffffffff8416602482015260448082018490528251808303909101815260649091019091526020810180517bffffffffffffffffffffffffffffffffffffffffffffffffffffffff167fa9059cbb000000000000000000000000000000000000000000000000000000001790526103ed9084906105e3565b804710156104f3576040517f08c379a000000000000000000000000000000000000000000000000000000000815260206004820152601d60248201527f416464726573733a20696e73756666696369656e742062616c616e636500000060448201526064016101cd565b60008273ffffffffffffffffffffffffffffffffffffffff168260405160006040518083038185875af1925050503d806000811461054d576040519150601f19603f3d011682016040523d82523d6000602084013e610552565b606091505b50509050806103ed576040517f08c379a000000000000000000000000000000000000000000000000000000000815260206004820152603a60248201527f416464726573733a20756e61626c6520746f2073656e642076616c75652c207260448201527f6563697069656e74206d6179206861766520726576657274656400000000000060648201526084016101cd565b6000610645826040518060400160405280602081526020017f5361666545524332303a206c6f772d6c6576656c2063616c6c206661696c65648152508573ffffffffffffffffffffffffffffffffffffffff166106ef9092919063ffffffff16565b8051909150156103ed578080602001905181019061066391906109f7565b6103ed576040517f08c379a000000000000000000000000000000000000000000000000000000000815260206004820152602a60248201527f5361666545524332303a204552433230206f7065726174696f6e20646964206e60448201527f6f7420737563636565640000000000000000000000000000000000000000000060648201526084016101cd565b60606106fe8484600085610708565b90505b9392505050565b60608247101561079a576040517f08c379a000000000000000000000000000000000000000000000000000000000815260206004820152602660248201527f416464726573733a20696e73756666696369656e742062616c616e636520666f60448201527f722063616c6c000000000000000000000000000000000000000000000000000060648201526084016101cd565b73ffffffffffffffffffffffffffffffffffffffff85163b610818576040517f08c379a000000000000000000000000000000000000000000000000000000000815260206004820152601d60248201527f416464726573733a2063616c6c20746f206e6f6e2d636f6e747261637400000060448201526064016101cd565b6000808673ffffffffffffffffffffffffffffffffffffffff1685876040516108419190610a3d565b60006040518083038185875af1925050503d806000811461087e576040519150601f19603f3d011682016040523d82523d6000602084013e610883565b606091505b509150915061089382828661089e565b979650505050505050565b606083156108ad575081610701565b8251156108bd5782518084602001fd5b816040517f08c379a00000000000000000000000000000000000000000000000000000000081526004016101cd9190610a59565b60006020828403121561090357600080fd5b5035919050565b60208152816020820152818360408301376000818301604090810191909152601f9092017fffffffffffffffffffffffffffffffffffffffffffffffffffffffffffffffe0160101919050565b81810381811115610991577f4e487b7100000000000000000000000000000000000000000000000000000000600052601160045260246000fd5b92915050565b600080858511156109a757600080fd5b838611156109b457600080fd5b5050820193919092039150565b6000602082840312156109d357600080fd5b813573ffffffffffffffffffffffffffffffffffffffff8116811461070157600080fd5b600060208284031215610a0957600080fd5b8151801515811461070157600080fd5b60005b83811015610a34578181015183820152602001610a1c565b50506000910152565b60008251610a4f818460208701610a19565b9190910192915050565b6020815260008251806020840152610a78816040850160208701610a19565b601f017fffffffffffffffffffffffffffffffffffffffffffffffffffffffffffffffe016919091016040019291505056fea264697066735822122099a0dcc860f6bc2e617288f01873e813b74e16b2988ef43ef67f210a85ff641064736f6c63430008110033",
  "devdoc": {
    "kind": "dev",
    "methods": {},
    "version": 1
  },
  "userdoc": {
    "kind": "user",
    "methods": {},
    "version": 1
  },
  "storageLayout": {
    "storage": [],
    "types": null
  }
}