{
  "address": "0x59D0e1Cd1b5521E8F21AcA6B8Fd95181297E2784",
  "abi": [
    {
      "anonymous": false,
      "inputs": [
        {
          "indexed": false,
          "internalType": "address",
          "name": "feeCollector",
          "type": "address"
        }
      ],
      "name": "LogFeeCollector",
      "type": "event"
    },
    {
      "anonymous": false,
      "inputs": [
        {
          "indexed": false,
          "internalType": "bytes",
          "name": "data",
          "type": "bytes"
        }
      ],
      "name": "LogMsgData",
      "type": "event"
    },
    {
      "inputs": [],
      "name": "emitFeeCollector",
      "outputs": [],
      "stateMutability": "nonpayable",
      "type": "function"
    },
    {
      "inputs": [],
      "name": "testOnlyGelatoRelay",
      "outputs": [],
      "stateMutability": "nonpayable",
      "type": "function"
    }
  ],
  "transactionHash": "0xdedad1d64722793c932f54367ca6493ff5dd887ec7ddbae3675198031a1ed529",
  "args": [],
  "numDeployments": 1,
  "solcInputHash": "2db35055c2f8905eca3d48ec6a0b3a43",
  "bytecode": "0x608060405234801561001057600080fd5b50610328806100206000396000f3fe608060405234801561001057600080fd5b50600436106100365760003560e01c8063a0f9f5a81461003b578063ac08f35014610045575b600080fd5b61004361004d565b005b6100436100df565b7f84a7e86a5530dbab0d699a72cd56748c29585a63e9b2b8281b9acdf52e9d161e610076610188565b6040516100849291906101fe565b60405180910390a17f224677f1527d30571682747065020d5c16b714e22cd0b3220aa217a5a174730b6100b56101d2565b60405173ffffffffffffffffffffffffffffffffffffffff909116815260200160405180910390a1565b73abcc9b596420a9e9172fd5938620e265a0f9df923314610186576040517f08c379a000000000000000000000000000000000000000000000000000000000815260206004820152602260248201527f47656c61746f52656c6179436f6e746578742e6f6e6c7947656c61746f52656c60448201527f6179000000000000000000000000000000000000000000000000000000000000606482015260840160405180910390fd5b565b36600073abcc9b596420a9e9172fd5938620e265a0f9df9233146101ae576000366101ca565b600080366101bd60208261024b565b926101ca9392919061028b565b915091509091565b600080366101e160208261024b565b6101ec92829061028b565b8101906101f991906102b5565b905090565b60208152816020820152818360408301376000818301604090810191909152601f9092017fffffffffffffffffffffffffffffffffffffffffffffffffffffffffffffffe0160101919050565b81810381811115610285577f4e487b7100000000000000000000000000000000000000000000000000000000600052601160045260246000fd5b92915050565b6000808585111561029b57600080fd5b838611156102a857600080fd5b5050820193919092039150565b6000602082840312156102c757600080fd5b813573ffffffffffffffffffffffffffffffffffffffff811681146102eb57600080fd5b939250505056fea264697066735822122085eda5aece5a4417695309754fceb1a6544daaed8364670609f3f3576ad9104564736f6c63430008110033",
  "devdoc": {
    "kind": "dev",
    "methods": {},
    "version": 1
  },
  "userdoc": {
    "kind": "user",
    "methods": {},
    "version": 1
  },
  "storageLayout": {
    "storage": [],
    "types": null
  }
}