{
  "address": "0x0AA68cA8D43432aAcf26Db0a6512d5DC305eDA56",
  "abi": [
    {
      "anonymous": false,
      "inputs": [],
      "name": "LogUseGelato1BalanceV2",
      "type": "event"
    },
    {
      "inputs": [
        {
          "internalType": "address",
          "name": "_target",
          "type": "address"
        },
        {
          "internalType": "bytes",
          "name": "_data",
          "type": "bytes"
        },
        {
          "internalType": "bytes32",
          "name": "_correlationId",
          "type": "bytes32"
        },
        {
          "internalType": "bytes32",
          "name": "_r",
          "type": "bytes32"
        },
        {
          "internalType": "bytes32",
          "name": "_vs",
          "type": "bytes32"
        }
      ],
      "name": "sponsoredCallV2",
      "outputs": [],
      "stateMutability": "nonpayable",
      "type": "function"
    }
  ],
  "transactionHash": "0x19224f9a0af50ddf41acc279bf7a34cab31a93767da3a54e9084a925c5085369",
  "args": [],
  "numDeployments": 2,
  "solcInputHash": "082abcd288abb0735d39caa113bdc656",
  "bytecode": "0x608060405234801561001057600080fd5b5061048e806100206000396000f3fe608060405234801561001057600080fd5b506004361061002b5760003560e01c8063ad718d2a14610030575b600080fd5b61004361003e366004610232565b610045565b005b6000808773ffffffffffffffffffffffffffffffffffffffff16878760405161006f9291906102e7565b6000604051808303816000865af19150503d80600081146100ac576040519150601f19603f3d011682016040523d82523d6000602084013e6100b1565b606091505b5091509150816100fa5760408051808201909152601c81527f47656c61746f52656c61792e73706f6e736f72656443616c6c56323a0000000060208201526100fa90829061012d565b6040517f8e4f8b7f1299a63a6b46587ec357933d2006e5697cd46d99297e670cee1dbeb190600090a15050505050505050565b6020825161013b91906102f7565b6004036102215760208201517fffffffff0000000000000000000000000000000000000000000000000000000081167f08c379a000000000000000000000000000000000000000000000000000000000036102105760448301925081836040516020016101a9929190610356565b604080517fffffffffffffffffffffffffffffffffffffffffffffffffffffffffffffffe0818403018152908290527f08c379a000000000000000000000000000000000000000000000000000000000825261020791600401610385565b60405180910390fd5b816040516020016101a991906103d6565b806040516020016101a99190610417565b60008060008060008060a0878903121561024b57600080fd5b863573ffffffffffffffffffffffffffffffffffffffff8116811461026f57600080fd5b9550602087013567ffffffffffffffff8082111561028c57600080fd5b818901915089601f8301126102a057600080fd5b8135818111156102af57600080fd5b8a60208285010111156102c157600080fd5b979a60209290920199509697604081013597506060810135965060800135945092505050565b8183823760009101908152919050565b60008261032d577f4e487b7100000000000000000000000000000000000000000000000000000000600052601260045260246000fd5b500690565b60005b8381101561034d578181015183820152602001610335565b50506000910152565b60008351610368818460208801610332565b83519083019061037c818360208801610332565b01949350505050565b60208152600082518060208401526103a4816040850160208701610332565b601f017fffffffffffffffffffffffffffffffffffffffffffffffffffffffffffffffe0169190910160400192915050565b600082516103e8818460208701610332565b7f4e6f4572726f7253656c6563746f720000000000000000000000000000000000920191825250600f01919050565b60008251610429818460208701610332565b7f556e657870656374656452657475726e6461746100000000000000000000000092019182525060140191905056fea26469706673582212201c24bb35f643e934da08589c5f6555c05c04cbeeab83f3289618de255460a3b464736f6c63430008140033",
  "devdoc": {
    "details": "This contract must NEVER hold funds!Maliciously crafted transaction payloads could wipe out any funds left here",
    "kind": "dev",
    "methods": {
      "sponsoredCallV2(address,bytes,bytes32,bytes32,bytes32)": {
        "details": "This method can be called directly without passing through the diamondThe validity of the emitted LogUseGelato1BalanceV2 event must be verified off-chainPayment is handled with off-chain accounting using Gelato's 1Balance system",
        "params": {
          "_correlationId": "Unique task identifier generated by gelato Signature is split into `r` and `vs` - See https://eips.ethereum.org/EIPS/eip-2098",
          "_data": "Relay call data",
          "_r": "Checker signature",
          "_target": "Relay call target",
          "_vs": "Checker signature"
        }
      }
    },
    "title": "Gelato Relay V2 contract",
    "version": 1
  },
  "userdoc": {
    "kind": "user",
    "methods": {
      "sponsoredCallV2(address,bytes,bytes32,bytes32,bytes32)": {
        "notice": "Relay call + One Balance payment - with sponsor authentication"
      }
    },
    "notice": "This contract deals with Gelato 1Balance payments",
    "version": 1
  },
  "storageLayout": {
    "storage": [],
    "types": null
  }
}