{
  "address": "0xE45A605A120020c49ee69377B6A8dA6C06759211",
  "abi": [
    {
      "inputs": [
        {
          "internalType": "address",
          "name": "_gelato",
          "type": "address"
        }
      ],
      "stateMutability": "nonpayable",
      "type": "constructor"
    },
    {
      "anonymous": false,
      "inputs": [
        {
          "indexed": true,
          "internalType": "address",
          "name": "sponsor",
          "type": "address"
        },
        {
          "indexed": true,
          "internalType": "address",
          "name": "target",
          "type": "address"
        },
        {
          "indexed": true,
          "internalType": "address",
          "name": "feeToken",
          "type": "address"
        },
        {
          "indexed": false,
          "internalType": "uint256",
          "name": "oneBalanceChainId",
          "type": "uint256"
        },
        {
          "indexed": false,
          "internalType": "uint256",
          "name": "nativeToFeeTokenXRateNumerator",
          "type": "uint256"
        },
        {
          "indexed": false,
          "internalType": "uint256",
          "name": "nativeToFeeTokenXRateDenominator",
          "type": "uint256"
        },
        {
          "indexed": false,
          "internalType": "bytes32",
          "name": "correlationId",
          "type": "bytes32"
        }
      ],
      "name": "LogUseGelato1Balance",
      "type": "event"
    },
    {
      "anonymous": false,
      "inputs": [
        {
          "indexed": false,
          "internalType": "bytes32",
          "name": "correlationId",
          "type": "bytes32"
        },
        {
          "indexed": false,
          "internalType": "bytes",
          "name": "checkerSignature",
          "type": "bytes"
        }
      ],
      "name": "LogUseGelato1BalanceV2",
      "type": "event"
    },
    {
      "inputs": [],
      "name": "gelato",
      "outputs": [
        {
          "internalType": "address",
          "name": "",
          "type": "address"
        }
      ],
      "stateMutability": "view",
      "type": "function"
    },
    {
      "inputs": [
        {
          "components": [
            {
              "internalType": "uint256",
              "name": "chainId",
              "type": "uint256"
            },
            {
              "internalType": "address",
              "name": "target",
              "type": "address"
            },
            {
              "internalType": "bytes",
              "name": "data",
              "type": "bytes"
            }
          ],
          "internalType": "struct SponsoredCall",
          "name": "_call",
          "type": "tuple"
        },
        {
          "internalType": "address",
          "name": "_sponsor",
          "type": "address"
        },
        {
          "internalType": "address",
          "name": "_feeToken",
          "type": "address"
        },
        {
          "internalType": "uint256",
          "name": "_oneBalanceChainId",
          "type": "uint256"
        },
        {
          "internalType": "uint256",
          "name": "_nativeToFeeTokenXRateNumerator",
          "type": "uint256"
        },
        {
          "internalType": "uint256",
          "name": "_nativeToFeeTokenXRateDenominator",
          "type": "uint256"
        },
        {
          "internalType": "bytes32",
          "name": "_correlationId",
          "type": "bytes32"
        }
      ],
      "name": "sponsoredCall",
      "outputs": [],
      "stateMutability": "nonpayable",
      "type": "function"
    },
    {
      "inputs": [
        {
          "components": [
            {
              "internalType": "address",
              "name": "target",
              "type": "address"
            },
            {
              "internalType": "bytes",
              "name": "data",
              "type": "bytes"
            }
          ],
          "internalType": "struct SponsoredCallV2",
          "name": "_call",
          "type": "tuple"
        },
        {
          "internalType": "bytes",
          "name": "_checkerSignature",
          "type": "bytes"
        },
        {
          "internalType": "bytes32",
          "name": "_correlationId",
          "type": "bytes32"
        }
      ],
      "name": "sponsoredCallV2",
      "outputs": [],
      "stateMutability": "nonpayable",
      "type": "function"
    }
  ],
  "transactionHash": "0x5bffafced5c985f6163d6ab260da883dab76ad17ae0f8fe60113e5abc23dcad0",
  "args": [
    "0xaB0A8DCb1590C4565C35cC785dc25A0590398054"
  ],
  "numDeployments": 2,
  "solcInputHash": "8c9427734e35ceb52873de05b24d1c6f",
  "bytecode": "0x60a060405234801561001057600080fd5b50604051610abe380380610abe83398101604081905261002f91610040565b6001600160a01b0316608052610070565b60006020828403121561005257600080fd5b81516001600160a01b038116811461006957600080fd5b9392505050565b608051610a2e610090600039600081816060015260d60152610a2e6000f3fe608060405234801561001057600080fd5b50600436106100415760003560e01c806327be3c2414610046578063573ea5751461005b578063b6766bda146100ab575b600080fd5b61005961005436600461062b565b6100be565b005b6100827f000000000000000000000000000000000000000000000000000000000000000081565b60405173ffffffffffffffffffffffffffffffffffffffff909116815260200160405180910390f35b6100596100b93660046106b3565b610330565b3373ffffffffffffffffffffffffffffffffffffffff7f00000000000000000000000000000000000000000000000000000000000000001614610162576040517f08c379a000000000000000000000000000000000000000000000000000000000815260206004820152601760248201527f4f6e6c792063616c6c61626c652062792067656c61746f00000000000000000060448201526064015b60405180910390fd5b863546146101f2576040517f08c379a000000000000000000000000000000000000000000000000000000000815260206004820152602160248201527f47656c61746f52656c61792e73706f6e736f72656443616c6c3a636861696e6960448201527f64000000000000000000000000000000000000000000000000000000000000006064820152608401610159565b61029b6102026040890189610758565b8080601f01602080910402602001604051908101604052809392919081815260200183838082843760009201919091525050604080518082018252601a81527f47656c61746f52656c61792e73706f6e736f72656443616c6c3a00000000000060208083019190915290935061027e9250908c01908c016107c4565b73ffffffffffffffffffffffffffffffffffffffff1691906103fc565b5073ffffffffffffffffffffffffffffffffffffffff85166102c36040890160208a016107c4565b60408051878152602081018790529081018590526060810184905273ffffffffffffffffffffffffffffffffffffffff918216918916907f116bfd46451bbd23e7a5f5b7420b28e3d98d4c477f173da513aaaeac3c4baada9060800160405180910390a450505050505050565b6103ba6103406020860186610758565b8080601f0160208091040260200160405190810160405280939291908181526020018383808284376000920191909152505060408051808201909152601c81527f47656c61746f52656c61792e73706f6e736f72656443616c6c56323a0000000060208083019190915290925061027e91508801886107c4565b507f3afea9aefdee2921b29c3c00850fa274782fa308026ddd5a6272ea964027c4428184846040516103ee939291906107e6565b60405180910390a150505050565b606060008473ffffffffffffffffffffffffffffffffffffffff1684604051610425919061085e565b6000604051808303816000865af19150503d8060008114610462576040519150601f19603f3d011682016040523d82523d6000602084013e610467565b606091505b509250905080156104f45781516000036104ef5773ffffffffffffffffffffffffffffffffffffffff85163b1515836040516020016104a6919061087a565b604051602081830303815290604052906104ed576040517f08c379a000000000000000000000000000000000000000000000000000000000815260040161015991906108bb565b505b6104fe565b6104fe8284610506565b509392505050565b60208251610514919061090c565b6004036105f15760208201517fffffffff0000000000000000000000000000000000000000000000000000000081167f08c379a000000000000000000000000000000000000000000000000000000000036105e0576044830192508183604051602001610582929190610947565b604080517fffffffffffffffffffffffffffffffffffffffffffffffffffffffffffffffe0818403018152908290527f08c379a0000000000000000000000000000000000000000000000000000000008252610159916004016108bb565b816040516020016105829190610976565b8060405160200161058291906109b7565b803573ffffffffffffffffffffffffffffffffffffffff8116811461062657600080fd5b919050565b600080600080600080600060e0888a03121561064657600080fd5b873567ffffffffffffffff81111561065d57600080fd5b88016060818b03121561066f57600080fd5b965061067d60208901610602565b955061068b60408901610602565b969995985095966060810135965060808101359560a0820135955060c0909101359350915050565b600080600080606085870312156106c957600080fd5b843567ffffffffffffffff808211156106e157600080fd5b90860190604082890312156106f557600080fd5b9094506020860135908082111561070b57600080fd5b818701915087601f83011261071f57600080fd5b81358181111561072e57600080fd5b88602082850101111561074057600080fd5b95986020929092019750949560400135945092505050565b60008083357fffffffffffffffffffffffffffffffffffffffffffffffffffffffffffffffe184360301811261078d57600080fd5b83018035915067ffffffffffffffff8211156107a857600080fd5b6020019150368190038213156107bd57600080fd5b9250929050565b6000602082840312156107d657600080fd5b6107df82610602565b9392505050565b83815260406020820152816040820152818360608301376000818301606090810191909152601f9092017fffffffffffffffffffffffffffffffffffffffffffffffffffffffffffffffe016010192915050565b60005b8381101561085557818101518382015260200161083d565b50506000910152565b6000825161087081846020870161083a565b9190910192915050565b6000825161088c81846020870161083a565b7f43616c6c20746f206e6f6e20636f6e7472616374000000000000000000000000920191825250601401919050565b60208152600082518060208401526108da81604085016020870161083a565b601f017fffffffffffffffffffffffffffffffffffffffffffffffffffffffffffffffe0169190910160400192915050565b600082610942577f4e487b7100000000000000000000000000000000000000000000000000000000600052601260045260246000fd5b500690565b6000835161095981846020880161083a565b83519083019061096d81836020880161083a565b01949350505050565b6000825161098881846020870161083a565b7f4e6f4572726f7253656c6563746f720000000000000000000000000000000000920191825250600f01919050565b600082516109c981846020870161083a565b7f556e657870656374656452657475726e6461746100000000000000000000000092019182525060140191905056fea2646970667358221220f290a39735c0db4df749257d9ef1946936e687d1cc546e66a411290a8374e99f64736f6c63430008140033",
  "devdoc": {
    "details": "This contract must NEVER hold funds!Maliciously crafted transaction payloads could wipe out any funds left here",
    "kind": "dev",
    "methods": {
      "sponsoredCall((uint256,address,bytes),address,address,uint256,uint256,uint256,bytes32)": {
        "details": "Payment is handled with off-chain accounting using Gelato's 1Balance system",
        "params": {
          "_call": "Relay call data packed into SponsoredCall struct",
          "_correlationId": "Unique task identifier generated by gelato",
          "_nativeToFeeTokenXRateDenominator": "Exchange rate denominator",
          "_nativeToFeeTokenXRateNumerator": "Exchange rate numerator"
        }
      },
      "sponsoredCallV2((address,bytes),bytes,bytes32)": {
        "details": "This method can be called directly without passing through the diamondThe validity of the emitted LogUseGelato1BalanceV2 event must be verified off-chainPayment is handled with off-chain accounting using Gelato's 1Balance system",
        "params": {
          "_call": "Relay call data packed into SponsoredCallV2 struct",
          "_checkerSignature": "Checker signed _call.target, _call.data, _correlationId, chainId",
          "_correlationId": "Unique task identifier generated by gelato"
        }
      }
    },
    "title": "Gelato Relay contract",
    "version": 1
  },
  "userdoc": {
    "kind": "user",
    "methods": {
      "sponsoredCall((uint256,address,bytes),address,address,uint256,uint256,uint256,bytes32)": {
        "notice": "Relay call + One Balance payment - with sponsor authenticationOracle value for exchange rate between native tokens and fee token"
      },
      "sponsoredCallV2((address,bytes),bytes,bytes32)": {
        "notice": "Relay call + One Balance payment - with sponsor authentication"
      }
    },
    "notice": "This contract deals with synchronous payments and Gelato 1Balance payments",
    "version": 1
  },
  "storageLayout": {
    "storage": [],
    "types": null
  }
}