{
  "address": "0xC6e576260853e8eDb7a683Ff1233747Ad9904f16",
  "abi": [
    {
      "anonymous": false,
      "inputs": [],
      "name": "LogUseGelato1BalanceV2",
      "type": "event"
    },
    {
      "inputs": [
        {
          "internalType": "address",
          "name": "_target",
          "type": "address"
        },
        {
          "internalType": "bytes",
          "name": "_data",
          "type": "bytes"
        },
        {
          "internalType": "bytes32",
          "name": "_correlationId",
          "type": "bytes32"
        },
        {
          "internalType": "bytes32",
          "name": "_r",
          "type": "bytes32"
        },
        {
          "internalType": "bytes32",
          "name": "_vs",
          "type": "bytes32"
        }
      ],
      "name": "sponsoredCallV2",
      "outputs": [],
      "stateMutability": "nonpayable",
      "type": "function"
    }
  ],
  "transactionHash": "0xb4e76512abf03677e78375d9b8d1b510b8fe2637fced7619eea3b10b1e7843a7",
  "args": [],
  "numDeployments": 1,
  "solcInputHash": "d55ef212f5a43db4bacad8b4ae13f7b2",
  "bytecode": "0x608060405234801561001057600080fd5b506105bb806100206000396000f3fe608060405234801561001057600080fd5b506004361061002b5760003560e01c8063ad718d2a14610030575b600080fd5b61004361003e366004610312565b610045565b005b6100d185858080601f0160208091040260200160405190810160405280939291908181526020018383808284376000920191909152505060408051808201909152601c81527f47656c61746f52656c61792e73706f6e736f72656443616c6c56323a00000000602082015273ffffffffffffffffffffffffffffffffffffffff8b169392509050610103565b506040517f8e4f8b7f1299a63a6b46587ec357933d2006e5697cd46d99297e670cee1dbeb190600090a1505050505050565b606060008473ffffffffffffffffffffffffffffffffffffffff168460405161012c91906103eb565b6000604051808303816000865af19150503d8060008114610169576040519150601f19603f3d011682016040523d82523d6000602084013e61016e565b606091505b509250905080156102045781516000036101ff5773ffffffffffffffffffffffffffffffffffffffff85163b1515836040516020016101ad9190610407565b604051602081830303815290604052906101fd576040517f08c379a00000000000000000000000000000000000000000000000000000000081526004016101f49190610448565b60405180910390fd5b505b61020e565b61020e8284610216565b509392505050565b602082516102249190610499565b6004036103015760208201517fffffffff0000000000000000000000000000000000000000000000000000000081167f08c379a000000000000000000000000000000000000000000000000000000000036102f05760448301925081836040516020016102929291906104d4565b604080517fffffffffffffffffffffffffffffffffffffffffffffffffffffffffffffffe0818403018152908290527f08c379a00000000000000000000000000000000000000000000000000000000082526101f491600401610448565b816040516020016102929190610503565b806040516020016102929190610544565b60008060008060008060a0878903121561032b57600080fd5b863573ffffffffffffffffffffffffffffffffffffffff8116811461034f57600080fd5b9550602087013567ffffffffffffffff8082111561036c57600080fd5b818901915089601f83011261038057600080fd5b81358181111561038f57600080fd5b8a60208285010111156103a157600080fd5b979a60209290920199509697604081013597506060810135965060800135945092505050565b60005b838110156103e25781810151838201526020016103ca565b50506000910152565b600082516103fd8184602087016103c7565b9190910192915050565b600082516104198184602087016103c7565b7f43616c6c20746f206e6f6e20636f6e7472616374000000000000000000000000920191825250601401919050565b60208152600082518060208401526104678160408501602087016103c7565b601f017fffffffffffffffffffffffffffffffffffffffffffffffffffffffffffffffe0169190910160400192915050565b6000826104cf577f4e487b7100000000000000000000000000000000000000000000000000000000600052601260045260246000fd5b500690565b600083516104e68184602088016103c7565b8351908301906104fa8183602088016103c7565b01949350505050565b600082516105158184602087016103c7565b7f4e6f4572726f7253656c6563746f720000000000000000000000000000000000920191825250600f01919050565b600082516105568184602087016103c7565b7f556e657870656374656452657475726e6461746100000000000000000000000092019182525060140191905056fea2646970667358221220582610a37287a07756e82c4742887f464821fa0391645f7cf8c1a59deaf80aa564736f6c63430008140033",
  "devdoc": {
    "details": "This contract must NEVER hold funds!Maliciously crafted transaction payloads could wipe out any funds left here",
    "kind": "dev",
    "methods": {
      "sponsoredCallV2(address,bytes,bytes32,bytes32,bytes32)": {
        "details": "This method can be called directly without passing through the diamondThe validity of the emitted LogUseGelato1BalanceV2 event must be verified off-chainPayment is handled with off-chain accounting using Gelato's 1Balance system",
        "params": {
          "_correlationId": "Unique task identifier generated by gelato Signature is split into `r` and `vs` - See https://eips.ethereum.org/EIPS/eip-2098",
          "_data": "Relay call data",
          "_r": "Checker signature",
          "_target": "Relay call target",
          "_vs": "Checker signature"
        }
      }
    },
    "title": "Gelato Relay V2 contract",
    "version": 1
  },
  "userdoc": {
    "kind": "user",
    "methods": {
      "sponsoredCallV2(address,bytes,bytes32,bytes32,bytes32)": {
        "notice": "Relay call + One Balance payment - with sponsor authentication"
      }
    },
    "notice": "This contract deals with Gelato 1Balance payments",
    "version": 1
  },
  "storageLayout": {
    "storage": [],
    "types": null
  }
}