{
  "address": "0xb539068872230f20456CF38EC52EF2f91AF4AE49",
  "abi": [
    {
      "inputs": [
        {
          "internalType": "address",
          "name": "_gelato",
          "type": "address"
        }
      ],
      "stateMutability": "nonpayable",
      "type": "constructor"
    },
    {
      "anonymous": false,
      "inputs": [
        {
          "indexed": true,
          "internalType": "address",
          "name": "target",
          "type": "address"
        },
        {
          "indexed": true,
          "internalType": "bytes32",
          "name": "correlationId",
          "type": "bytes32"
        }
      ],
      "name": "LogCallWithSyncFeeERC2771",
      "type": "event"
    },
    {
      "inputs": [],
      "name": "CALL_WITH_SYNC_FEE_ERC2771_TYPEHASH",
      "outputs": [
        {
          "internalType": "bytes32",
          "name": "",
          "type": "bytes32"
        }
      ],
      "stateMutability": "view",
      "type": "function"
    },
    {
      "inputs": [],
      "name": "DOMAIN_SEPARATOR",
      "outputs": [
        {
          "internalType": "bytes32",
          "name": "",
          "type": "bytes32"
        }
      ],
      "stateMutability": "view",
      "type": "function"
    },
    {
      "inputs": [
        {
          "components": [
            {
              "internalType": "uint256",
              "name": "chainId",
              "type": "uint256"
            },
            {
              "internalType": "address",
              "name": "target",
              "type": "address"
            },
            {
              "internalType": "bytes",
              "name": "data",
              "type": "bytes"
            },
            {
              "internalType": "address",
              "name": "user",
              "type": "address"
            },
            {
              "internalType": "uint256",
              "name": "userNonce",
              "type": "uint256"
            },
            {
              "internalType": "uint256",
              "name": "userDeadline",
              "type": "uint256"
            }
          ],
          "internalType": "struct CallWithERC2771",
          "name": "_call",
          "type": "tuple"
        },
        {
          "internalType": "address",
          "name": "_feeToken",
          "type": "address"
        },
        {
          "internalType": "bytes",
          "name": "_userSignature",
          "type": "bytes"
        },
        {
          "internalType": "bool",
          "name": "_isRelayContext",
          "type": "bool"
        },
        {
          "internalType": "bytes32",
          "name": "_correlationId",
          "type": "bytes32"
        }
      ],
      "name": "callWithSyncFeeERC2771",
      "outputs": [],
      "stateMutability": "nonpayable",
      "type": "function"
    },
    {
      "inputs": [],
      "name": "gelato",
      "outputs": [
        {
          "internalType": "address",
          "name": "",
          "type": "address"
        }
      ],
      "stateMutability": "view",
      "type": "function"
    },
    {
      "inputs": [],
      "name": "name",
      "outputs": [
        {
          "internalType": "string",
          "name": "",
          "type": "string"
        }
      ],
      "stateMutability": "view",
      "type": "function"
    },
    {
      "inputs": [
        {
          "internalType": "address",
          "name": "",
          "type": "address"
        }
      ],
      "name": "userNonce",
      "outputs": [
        {
          "internalType": "uint256",
          "name": "",
          "type": "uint256"
        }
      ],
      "stateMutability": "view",
      "type": "function"
    },
    {
      "inputs": [],
      "name": "version",
      "outputs": [
        {
          "internalType": "string",
          "name": "",
          "type": "string"
        }
      ],
      "stateMutability": "view",
      "type": "function"
    }
  ],
  "transactionHash": "0x956eb30f27cd0cec5c59fb70f44bc637783c3893cf80696dd4ee1f15696abd6e",
  "args": [
    "0xb0cb899251086ed70e5d2c8d733D2896Fd989850"
  ],
  "numDeployments": 1,
  "solcInputHash": "d55ef212f5a43db4bacad8b4ae13f7b2",
  "bytecode": "0x60a060405234801561001057600080fd5b506040516113f73803806113f783398101604081905261002f91610040565b6001600160a01b0316608052610070565b60006020828403121561005257600080fd5b81516001600160a01b038116811461006957600080fd5b9392505050565b6080516113656100926000396000818161014b01526101f901526113656000f3fe608060405234801561001057600080fd5b506004361061007d5760003560e01c806354fd4d501161005b57806354fd4d501461010a578063573ea57514610146578063742ee29314610192578063b9d16f1c1461019a57600080fd5b806306fdde03146100825780632e04b8e7146100d45780633644e51514610102575b600080fd5b6100be6040518060400160405280601281526020017f47656c61746f52656c617945524332373731000000000000000000000000000081525081565b6040516100cb9190610e08565b60405180910390f35b6100f46100e2366004610e82565b60006020819052908152604090205481565b6040519081526020016100cb565b6100f46101af565b6100be6040518060400160405280600181526020017f310000000000000000000000000000000000000000000000000000000000000081525081565b61016d7f000000000000000000000000000000000000000000000000000000000000000081565b60405173ffffffffffffffffffffffffffffffffffffffff90911681526020016100cb565b6100f46101be565b6101ad6101a8366004610eb4565b6101e1565b005b60006101b961050a565b905090565b6040518060a001604052806075815260200161123f607591398051906020012081565b3373ffffffffffffffffffffffffffffffffffffffff7f00000000000000000000000000000000000000000000000000000000000000001614610285576040517f08c379a000000000000000000000000000000000000000000000000000000000815260206004820152601760248201527f4f6e6c792063616c6c61626c652062792067656c61746f00000000000000000060448201526064015b60405180910390fd5b6102ab86600001356040518060600160405280602a8152602001611306602a913961060d565b600080806102bf60808a0160608b01610e82565b73ffffffffffffffffffffffffffffffffffffffff1673ffffffffffffffffffffffffffffffffffffffff1681526020019081526020016000205490506103288760800135828960a001356040518060600160405280602a8152602001611306602a9139610695565b600061033261050a565b90506103508189888861034b6080840160608501610e82565b6107a4565b5061035c826001610f7e565b60008061036f60808c0160608d01610e82565b73ffffffffffffffffffffffffffffffffffffffff16815260208101919091526040016000205583610435576104306103ea6103ae60408b018b610fb8565b367fffffffffffffffffffffffffffffffffffffffffffffffffffffffffffffffec013560601c6103e560808e0160608f01610e82565b61093a565b6040518060600160405280602a8152602001611306602a913961041360408c0160208d01610e82565b73ffffffffffffffffffffffffffffffffffffffff16919061096c565b6104ac565b6104ac6103ea61044860408b018b610fb8565b367fffffffffffffffffffffffffffffffffffffffffffffffffffffffffffffffb8013560601c8b367fffffffffffffffffffffffffffffffffffffffffffffffffffffffffffffffe001358e60600160208101906104a79190610e82565b610a76565b50826104be60408a0160208b01610e82565b73ffffffffffffffffffffffffffffffffffffffff167f54a07c256d6c19724ae52465b8676550ecbe2c59035eb67330324962ac62db6960405160405180910390a35050505050505050565b60006040518060800160405280605281526020016112b4605291398051602091820120604080518082018252601281527f47656c61746f52656c61794552433237373100000000000000000000000000009084015280518082018252600181527f3100000000000000000000000000000000000000000000000000000000000000908401528051928301919091527f70c540b9e520f15fb82a0638406c3d99d9cadb63b8c86c5b11e4fc8b168dfd4a908201527fc89efdaa54c0f20c7adf612882df0950f5a951637e0307cdcb4c672f298b8bc660608201524660808201523060a082015260c00160405160208183030381529060405280519060200120905090565b4682146106586040518060400160405280600781526020017f636861696e69640000000000000000000000000000000000000000000000000081525083610aae90919063ffffffff16565b90610690576040517f08c379a000000000000000000000000000000000000000000000000000000000815260040161027c9190610e08565b505050565b8284146106e06040518060400160405280600581526020017f6e6f6e636500000000000000000000000000000000000000000000000000000081525083610aae90919063ffffffff16565b90610718576040517f08c379a000000000000000000000000000000000000000000000000000000000815260040161027c9190610e08565b508115806107265750428210155b60408051808201909152600881527f646561646c696e650000000000000000000000000000000000000000000000006020820152610765908390610aae565b9061079d576040517f08c379a000000000000000000000000000000000000000000000000000000000815260040161027c9190610e08565b5050505050565b6000856107b086610adb565b80516020918201206040516107f79392017f190100000000000000000000000000000000000000000000000000000000000081526002810192909252602282015260420190565b6040516020818303038152906040528051906020012090506000806108528387878080601f016020809104026020016040519081016040528093929190818152602001838380828437600092019190915250610bb492505050565b9092509050600081600481111561086b5761086b61101d565b1480156108a357508373ffffffffffffffffffffffffffffffffffffffff168273ffffffffffffffffffffffffffffffffffffffff16145b61092f576040517f08c379a000000000000000000000000000000000000000000000000000000000815260206004820152603e60248201527f47656c61746f52656c617945524332373731426173652e5f726571756972654360448201527f616c6c5769746853796e63466565455243323737315369676e61747572650000606482015260840161027c565b505095945050505050565b606084848484604051602001610953949392919061104c565b6040516020818303038152906040529050949350505050565b606060008473ffffffffffffffffffffffffffffffffffffffff1684604051610995919061108f565b6000604051808303816000865af19150503d80600081146109d2576040519150601f19603f3d011682016040523d82523d6000602084013e6109d7565b606091505b50925090508015610a64578151600003610a5f5773ffffffffffffffffffffffffffffffffffffffff85163b151583604051602001610a1691906110ab565b60405160208183030381529060405290610a5d576040517f08c379a000000000000000000000000000000000000000000000000000000000815260040161027c9190610e08565b505b610a6e565b610a6e8284610bf9565b509392505050565b6060868686868686604051602001610a93969594939291906110ec565b60405160208183030381529060405290509695505050505050565b60608282604051602001610ac3929190611142565b60405160208183030381529060405290505b92915050565b60606040518060a001604052806075815260200161123f60759139805160209182012090833590610b129060408601908601610e82565b610b1f6040860186610fb8565b604051610b2d929190611171565b604051908190039020610b466080870160608801610e82565b60408051602081019690965285019390935273ffffffffffffffffffffffffffffffffffffffff9182166060850152608084810191909152911660a0838101919091529084013560c083015283013560e0820152610100016040516020818303038152906040529050919050565b6000808251604103610bea5760208301516040840151606085015160001a610bde87828585610cf5565b94509450505050610bf2565b506000905060025b9250929050565b60208251610c079190611181565b600403610ce45760208201517fffffffff0000000000000000000000000000000000000000000000000000000081167f08c379a00000000000000000000000000000000000000000000000000000000003610cd3576044830192508183604051602001610c75929190611142565b604080517fffffffffffffffffffffffffffffffffffffffffffffffffffffffffffffffe0818403018152908290527f08c379a000000000000000000000000000000000000000000000000000000000825261027c91600401610e08565b81604051602001610c7591906111bc565b80604051602001610c7591906111fd565b6000807f7fffffffffffffffffffffffffffffff5d576e7357a4501ddfe92f46681b20a0831115610d2c5750600090506003610ddb565b6040805160008082526020820180845289905260ff881692820192909252606081018690526080810185905260019060a0016020604051602081039080840390855afa158015610d80573d6000803e3d6000fd5b50506040517fffffffffffffffffffffffffffffffffffffffffffffffffffffffffffffffe0015191505073ffffffffffffffffffffffffffffffffffffffff8116610dd457600060019250925050610ddb565b9150600090505b94509492505050565b60005b83811015610dff578181015183820152602001610de7565b50506000910152565b6020815260008251806020840152610e27816040850160208701610de4565b601f017fffffffffffffffffffffffffffffffffffffffffffffffffffffffffffffffe0169190910160400192915050565b803573ffffffffffffffffffffffffffffffffffffffff81168114610e7d57600080fd5b919050565b600060208284031215610e9457600080fd5b610e9d82610e59565b9392505050565b80358015158114610e7d57600080fd5b60008060008060008060a08789031215610ecd57600080fd5b863567ffffffffffffffff80821115610ee557600080fd5b9088019060c0828b031215610ef957600080fd5b819750610f0860208a01610e59565b96506040890135915080821115610f1e57600080fd5b818901915089601f830112610f3257600080fd5b813581811115610f4157600080fd5b8a6020828501011115610f5357600080fd5b602083019650809550505050610f6b60608801610ea4565b9150608087013590509295509295509295565b80820180821115610ad5577f4e487b7100000000000000000000000000000000000000000000000000000000600052601160045260246000fd5b60008083357fffffffffffffffffffffffffffffffffffffffffffffffffffffffffffffffe1843603018112610fed57600080fd5b83018035915067ffffffffffffffff82111561100857600080fd5b602001915036819003821315610bf257600080fd5b7f4e487b7100000000000000000000000000000000000000000000000000000000600052602160045260246000fd5b838582377fffffffffffffffffffffffffffffffffffffffff000000000000000000000000606093841b811694909101938452911b166014820152602801919050565b600082516110a1818460208701610de4565b9190910192915050565b600082516110bd818460208701610de4565b7f43616c6c20746f206e6f6e20636f6e7472616374000000000000000000000000920191825250601401919050565b858782377fffffffffffffffffffffffffffffffffffffffff000000000000000000000000606095861b81169690910195865292841b83166014860152602885019190915290911b166048820152605c01919050565b60008351611154818460208801610de4565b835190830190611168818360208801610de4565b01949350505050565b8183823760009101908152919050565b6000826111b7577f4e487b7100000000000000000000000000000000000000000000000000000000600052601260045260246000fd5b500690565b600082516111ce818460208701610de4565b7f4e6f4572726f7253656c6563746f720000000000000000000000000000000000920191825250600f01919050565b6000825161120f818460208701610de4565b7f556e657870656374656452657475726e6461746100000000000000000000000092019182525060140191905056fe43616c6c5769746853796e63466565455243323737312875696e7432353620636861696e49642c61646472657373207461726765742c627974657320646174612c6164647265737320757365722c75696e7432353620757365724e6f6e63652c75696e743235362075736572446561646c696e6529454950373132446f6d61696e28737472696e67206e616d652c737472696e672076657273696f6e2c75696e7432353620636861696e49642c6164647265737320766572696679696e67436f6e74726163742947656c61746f52656c6179455243323737312e63616c6c5769746853796e63466565455243323737313aa264697066735822122034a1accc8265a6ba3de175384a5d654539ac9f6af50e1ec9e5a22a31dfd9295764736f6c63430008140033",
  "devdoc": {
    "details": "This contract must NEVER hold funds!Maliciously crafted transaction payloads could wipe out any funds left here",
    "kind": "dev",
    "methods": {
      "callWithSyncFeeERC2771((uint256,address,bytes,address,uint256,uint256),address,bytes,bool,bytes32)": {
        "details": "This is the most straightforward use case, and `transfer` handles token payments.",
        "params": {
          "_call": "Relay call data packed into CallWithERC2771 struct",
          "_correlationId": "Unique task identifier generated by gelato",
          "_isRelayContext": "true: all relay context encoding, false: only feeCollector encoding"
        }
      }
    },
    "title": "Gelato Relay contract",
    "version": 1
  },
  "userdoc": {
    "kind": "user",
    "methods": {
      "callWithSyncFeeERC2771((uint256,address,bytes,address,uint256,uint256),address,bytes,bool,bytes32)": {
        "notice": "Relay call with Synchronous PaymentThe target contract pays Gelato during the call forward"
      }
    },
    "notice": "This contract deals with synchronous payments and Gelato 1Balance payments",
    "version": 1
  },
  "storageLayout": {
    "storage": [
      {
        "astId": 6089,
        "contract": "contracts/GelatoRelayERC2771.sol:GelatoRelayERC2771",
        "label": "userNonce",
        "offset": 0,
        "slot": "0",
        "type": "t_mapping(t_address,t_uint256)"
      }
    ],
    "types": {
      "t_address": {
        "encoding": "inplace",
        "label": "address",
        "numberOfBytes": "20"
      },
      "t_mapping(t_address,t_uint256)": {
        "encoding": "mapping",
        "key": "t_address",
        "label": "mapping(address => uint256)",
        "numberOfBytes": "32",
        "value": "t_uint256"
      },
      "t_uint256": {
        "encoding": "inplace",
        "label": "uint256",
        "numberOfBytes": "32"
      }
    }
  }
}