{
  "address": "0x5b271944A90FA58c702f0cac47acBA17E2791258",
  "abi": [
    {
      "inputs": [
        {
          "internalType": "address",
          "name": "_gelato",
          "type": "address"
        }
      ],
      "stateMutability": "nonpayable",
      "type": "constructor"
    },
    {
      "anonymous": false,
      "inputs": [
        {
          "indexed": true,
          "internalType": "address",
          "name": "sponsor",
          "type": "address"
        },
        {
          "indexed": true,
          "internalType": "address",
          "name": "target",
          "type": "address"
        },
        {
          "indexed": true,
          "internalType": "address",
          "name": "feeToken",
          "type": "address"
        },
        {
          "indexed": false,
          "internalType": "uint256",
          "name": "oneBalanceChainId",
          "type": "uint256"
        },
        {
          "indexed": false,
          "internalType": "uint256",
          "name": "nativeToFeeTokenXRateNumerator",
          "type": "uint256"
        },
        {
          "indexed": false,
          "internalType": "uint256",
          "name": "nativeToFeeTokenXRateDenominator",
          "type": "uint256"
        },
        {
          "indexed": false,
          "internalType": "bytes32",
          "name": "correlationId",
          "type": "bytes32"
        }
      ],
      "name": "LogUseGelato1Balance",
      "type": "event"
    },
    {
      "inputs": [],
      "name": "gelato",
      "outputs": [
        {
          "internalType": "address",
          "name": "",
          "type": "address"
        }
      ],
      "stateMutability": "view",
      "type": "function"
    },
    {
      "inputs": [
        {
          "components": [
            {
              "internalType": "uint256",
              "name": "chainId",
              "type": "uint256"
            },
            {
              "internalType": "address",
              "name": "target",
              "type": "address"
            },
            {
              "internalType": "bytes",
              "name": "data",
              "type": "bytes"
            }
          ],
          "internalType": "struct SponsoredCall",
          "name": "_call",
          "type": "tuple"
        },
        {
          "internalType": "address",
          "name": "_sponsor",
          "type": "address"
        },
        {
          "internalType": "address",
          "name": "_feeToken",
          "type": "address"
        },
        {
          "internalType": "uint256",
          "name": "_oneBalanceChainId",
          "type": "uint256"
        },
        {
          "internalType": "uint256",
          "name": "_nativeToFeeTokenXRateNumerator",
          "type": "uint256"
        },
        {
          "internalType": "uint256",
          "name": "_nativeToFeeTokenXRateDenominator",
          "type": "uint256"
        },
        {
          "internalType": "bytes32",
          "name": "_correlationId",
          "type": "bytes32"
        }
      ],
      "name": "sponsoredCall",
      "outputs": [],
      "stateMutability": "nonpayable",
      "type": "function"
    }
  ],
  "transactionHash": "0x91ef5380d389956b73d2e1b5c0790cb2eb5ce5c18710e6b778ff8c7603ed8872",
  "args": [
    "0xd56096b5A70bA6755834f320200811Ec304f3101"
  ],
  "numDeployments": 1,
  "solcInputHash": "d55ef212f5a43db4bacad8b4ae13f7b2",
  "bytecode": "0x60a060405234801561001057600080fd5b506040516108db3803806108db83398101604081905261002f91610040565b6001600160a01b0316608052610070565b60006020828403121561005257600080fd5b81516001600160a01b038116811461006957600080fd5b9392505050565b60805161084b610090600039600081816055015260b8015261084b6000f3fe608060405234801561001057600080fd5b50600436106100365760003560e01c806327be3c241461003b578063573ea57514610050575b600080fd5b61004e610049366004610541565b6100a0565b005b6100777f000000000000000000000000000000000000000000000000000000000000000081565b60405173ffffffffffffffffffffffffffffffffffffffff909116815260200160405180910390f35b3373ffffffffffffffffffffffffffffffffffffffff7f00000000000000000000000000000000000000000000000000000000000000001614610144576040517f08c379a000000000000000000000000000000000000000000000000000000000815260206004820152601760248201527f4f6e6c792063616c6c61626c652062792067656c61746f00000000000000000060448201526064015b60405180910390fd5b863546146101d4576040517f08c379a000000000000000000000000000000000000000000000000000000000815260206004820152602160248201527f47656c61746f52656c61792e73706f6e736f72656443616c6c3a636861696e6960448201527f6400000000000000000000000000000000000000000000000000000000000000606482015260840161013b565b61027d6101e460408901896105c9565b8080601f01602080910402602001604051908101604052809392919081815260200183838082843760009201919091525050604080518082018252601a81527f47656c61746f52656c61792e73706f6e736f72656443616c6c3a0000000000006020808301919091529093506102609250908c01908c01610635565b73ffffffffffffffffffffffffffffffffffffffff169190610312565b5073ffffffffffffffffffffffffffffffffffffffff85166102a56040890160208a01610635565b60408051878152602081018790529081018590526060810184905273ffffffffffffffffffffffffffffffffffffffff918216918916907f116bfd46451bbd23e7a5f5b7420b28e3d98d4c477f173da513aaaeac3c4baada9060800160405180910390a450505050505050565b606060008473ffffffffffffffffffffffffffffffffffffffff168460405161033b919061067b565b6000604051808303816000865af19150503d8060008114610378576040519150601f19603f3d011682016040523d82523d6000602084013e61037d565b606091505b5092509050801561040a5781516000036104055773ffffffffffffffffffffffffffffffffffffffff85163b1515836040516020016103bc9190610697565b60405160208183030381529060405290610403576040517f08c379a000000000000000000000000000000000000000000000000000000000815260040161013b91906106d8565b505b610414565b610414828461041c565b509392505050565b6020825161042a9190610729565b6004036105075760208201517fffffffff0000000000000000000000000000000000000000000000000000000081167f08c379a000000000000000000000000000000000000000000000000000000000036104f6576044830192508183604051602001610498929190610764565b604080517fffffffffffffffffffffffffffffffffffffffffffffffffffffffffffffffe0818403018152908290527f08c379a000000000000000000000000000000000000000000000000000000000825261013b916004016106d8565b816040516020016104989190610793565b8060405160200161049891906107d4565b803573ffffffffffffffffffffffffffffffffffffffff8116811461053c57600080fd5b919050565b600080600080600080600060e0888a03121561055c57600080fd5b873567ffffffffffffffff81111561057357600080fd5b88016060818b03121561058557600080fd5b965061059360208901610518565b95506105a160408901610518565b969995985095966060810135965060808101359560a0820135955060c0909101359350915050565b60008083357fffffffffffffffffffffffffffffffffffffffffffffffffffffffffffffffe18436030181126105fe57600080fd5b83018035915067ffffffffffffffff82111561061957600080fd5b60200191503681900382131561062e57600080fd5b9250929050565b60006020828403121561064757600080fd5b61065082610518565b9392505050565b60005b8381101561067257818101518382015260200161065a565b50506000910152565b6000825161068d818460208701610657565b9190910192915050565b600082516106a9818460208701610657565b7f43616c6c20746f206e6f6e20636f6e7472616374000000000000000000000000920191825250601401919050565b60208152600082518060208401526106f7816040850160208701610657565b601f017fffffffffffffffffffffffffffffffffffffffffffffffffffffffffffffffe0169190910160400192915050565b60008261075f577f4e487b7100000000000000000000000000000000000000000000000000000000600052601260045260246000fd5b500690565b60008351610776818460208801610657565b83519083019061078a818360208801610657565b01949350505050565b600082516107a5818460208701610657565b7f4e6f4572726f7253656c6563746f720000000000000000000000000000000000920191825250600f01919050565b600082516107e6818460208701610657565b7f556e657870656374656452657475726e6461746100000000000000000000000092019182525060140191905056fea2646970667358221220423c05d807b519481ca10ed21348c41d2c6f1f7b4dd0bacb5faf4f714965018064736f6c63430008140033",
  "devdoc": {
    "details": "This contract must NEVER hold funds!Maliciously crafted transaction payloads could wipe out any funds left here",
    "kind": "dev",
    "methods": {
      "sponsoredCall((uint256,address,bytes),address,address,uint256,uint256,uint256,bytes32)": {
        "details": "Payment is handled with off-chain accounting using Gelato's 1Balance system",
        "params": {
          "_call": "Relay call data packed into SponsoredCall struct",
          "_correlationId": "Unique task identifier generated by gelato",
          "_nativeToFeeTokenXRateDenominator": "Exchange rate denominator",
          "_nativeToFeeTokenXRateNumerator": "Exchange rate numerator"
        }
      }
    },
    "title": "Gelato Relay contract",
    "version": 1
  },
  "userdoc": {
    "kind": "user",
    "methods": {
      "sponsoredCall((uint256,address,bytes),address,address,uint256,uint256,uint256,bytes32)": {
        "notice": "Relay call + One Balance payment - with sponsor authenticationOracle value for exchange rate between native tokens and fee token"
      }
    },
    "notice": "This contract deals with synchronous payments and Gelato 1Balance payments",
    "version": 1
  },
  "storageLayout": {
    "storage": [],
    "types": null
  }
}