{
  "address": "0xC5a998D0b5eB81bb3C9244152025e074c5ECf5Bb",
  "abi": [
    {
      "inputs": [
        {
          "internalType": "address",
          "name": "_gelato",
          "type": "address"
        }
      ],
      "stateMutability": "nonpayable",
      "type": "constructor"
    },
    {
      "anonymous": false,
      "inputs": [
        {
          "indexed": true,
          "internalType": "address",
          "name": "target",
          "type": "address"
        },
        {
          "indexed": false,
          "internalType": "address",
          "name": "feeToken",
          "type": "address"
        },
        {
          "indexed": false,
          "internalType": "uint256",
          "name": "fee",
          "type": "uint256"
        },
        {
          "indexed": false,
          "internalType": "bytes32",
          "name": "taskId",
          "type": "bytes32"
        }
      ],
      "name": "LogCallWithSyncFee",
      "type": "event"
    },
    {
      "anonymous": false,
      "inputs": [
        {
          "indexed": true,
          "internalType": "address",
          "name": "sponsor",
          "type": "address"
        },
        {
          "indexed": true,
          "internalType": "address",
          "name": "target",
          "type": "address"
        },
        {
          "indexed": true,
          "internalType": "address",
          "name": "feeToken",
          "type": "address"
        },
        {
          "indexed": false,
          "internalType": "uint256",
          "name": "sponsorChainId",
          "type": "uint256"
        },
        {
          "indexed": false,
          "internalType": "uint256",
          "name": "nativeToFeeTokenXRateNumerator",
          "type": "uint256"
        },
        {
          "indexed": false,
          "internalType": "uint256",
          "name": "nativeToFeeTokenXRateDenominator",
          "type": "uint256"
        },
        {
          "indexed": false,
          "internalType": "bytes32",
          "name": "taskId",
          "type": "bytes32"
        }
      ],
      "name": "LogUseGelato1Balance",
      "type": "event"
    },
    {
      "inputs": [],
      "name": "DOMAIN_SEPARATOR",
      "outputs": [
        {
          "internalType": "bytes32",
          "name": "",
          "type": "bytes32"
        }
      ],
      "stateMutability": "view",
      "type": "function"
    },
    {
      "inputs": [],
      "name": "SPONSOR_AUTH_CALL_1BALANCE_TYPEHASH",
      "outputs": [
        {
          "internalType": "bytes32",
          "name": "",
          "type": "bytes32"
        }
      ],
      "stateMutability": "view",
      "type": "function"
    },
    {
      "inputs": [],
      "name": "USER_AUTH_CALL_1BALANCE_TYPEHASH",
      "outputs": [
        {
          "internalType": "bytes32",
          "name": "",
          "type": "bytes32"
        }
      ],
      "stateMutability": "view",
      "type": "function"
    },
    {
      "inputs": [],
      "name": "USER_SPONSOR_AUTH_CALL_1BALANCE_TYPEHASH",
      "outputs": [
        {
          "internalType": "bytes32",
          "name": "",
          "type": "bytes32"
        }
      ],
      "stateMutability": "view",
      "type": "function"
    },
    {
      "inputs": [
        {
          "internalType": "address",
          "name": "_target",
          "type": "address"
        },
        {
          "internalType": "bytes",
          "name": "_data",
          "type": "bytes"
        },
        {
          "internalType": "address",
          "name": "_feeToken",
          "type": "address"
        },
        {
          "internalType": "uint256",
          "name": "_fee",
          "type": "uint256"
        },
        {
          "internalType": "bytes32",
          "name": "_taskId",
          "type": "bytes32"
        }
      ],
      "name": "callWithSyncFee",
      "outputs": [],
      "stateMutability": "nonpayable",
      "type": "function"
    },
    {
      "inputs": [],
      "name": "gelato",
      "outputs": [
        {
          "internalType": "address",
          "name": "",
          "type": "address"
        }
      ],
      "stateMutability": "view",
      "type": "function"
    },
    {
      "inputs": [],
      "name": "name",
      "outputs": [
        {
          "internalType": "string",
          "name": "",
          "type": "string"
        }
      ],
      "stateMutability": "view",
      "type": "function"
    },
    {
      "inputs": [
        {
          "components": [
            {
              "internalType": "uint256",
              "name": "chainId",
              "type": "uint256"
            },
            {
              "internalType": "address",
              "name": "target",
              "type": "address"
            },
            {
              "internalType": "bytes",
              "name": "data",
              "type": "bytes"
            },
            {
              "internalType": "address",
              "name": "sponsor",
              "type": "address"
            },
            {
              "internalType": "uint256",
              "name": "sponsorSalt",
              "type": "uint256"
            },
            {
              "internalType": "enum PaymentType",
              "name": "paymentType",
              "type": "uint8"
            },
            {
              "internalType": "address",
              "name": "feeToken",
              "type": "address"
            },
            {
              "internalType": "uint256",
              "name": "oneBalanceChainId",
              "type": "uint256"
            }
          ],
          "internalType": "struct SponsorAuthCallWith1Balance",
          "name": "_call",
          "type": "tuple"
        },
        {
          "internalType": "bytes",
          "name": "_sponsorSignature",
          "type": "bytes"
        },
        {
          "internalType": "uint256",
          "name": "_nativeToFeeTokenXRateNumerator",
          "type": "uint256"
        },
        {
          "internalType": "uint256",
          "name": "_nativeToFeeTokenXRateDenominator",
          "type": "uint256"
        },
        {
          "internalType": "bytes32",
          "name": "_taskId",
          "type": "bytes32"
        }
      ],
      "name": "sponsorAuthCallWith1Balance",
      "outputs": [],
      "stateMutability": "nonpayable",
      "type": "function"
    },
    {
      "inputs": [
        {
          "components": [
            {
              "internalType": "uint256",
              "name": "chainId",
              "type": "uint256"
            },
            {
              "internalType": "address",
              "name": "target",
              "type": "address"
            },
            {
              "internalType": "bytes",
              "name": "data",
              "type": "bytes"
            },
            {
              "internalType": "address",
              "name": "user",
              "type": "address"
            },
            {
              "internalType": "uint256",
              "name": "userNonce",
              "type": "uint256"
            },
            {
              "internalType": "uint256",
              "name": "userDeadline",
              "type": "uint256"
            },
            {
              "internalType": "enum PaymentType",
              "name": "paymentType",
              "type": "uint8"
            },
            {
              "internalType": "address",
              "name": "feeToken",
              "type": "address"
            },
            {
              "internalType": "uint256",
              "name": "oneBalanceChainId",
              "type": "uint256"
            }
          ],
          "internalType": "struct UserAuthCallWith1Balance",
          "name": "_call",
          "type": "tuple"
        },
        {
          "internalType": "bytes",
          "name": "_userSignature",
          "type": "bytes"
        },
        {
          "internalType": "uint256",
          "name": "_nativeToFeeTokenXRateNumerator",
          "type": "uint256"
        },
        {
          "internalType": "uint256",
          "name": "_nativeToFeeTokenXRateDenominator",
          "type": "uint256"
        },
        {
          "internalType": "bytes32",
          "name": "_taskId",
          "type": "bytes32"
        }
      ],
      "name": "userAuthCallWith1Balance",
      "outputs": [],
      "stateMutability": "nonpayable",
      "type": "function"
    },
    {
      "inputs": [
        {
          "internalType": "address",
          "name": "",
          "type": "address"
        }
      ],
      "name": "userNonce",
      "outputs": [
        {
          "internalType": "uint256",
          "name": "",
          "type": "uint256"
        }
      ],
      "stateMutability": "view",
      "type": "function"
    },
    {
      "inputs": [
        {
          "components": [
            {
              "internalType": "uint256",
              "name": "chainId",
              "type": "uint256"
            },
            {
              "internalType": "address",
              "name": "target",
              "type": "address"
            },
            {
              "internalType": "bytes",
              "name": "data",
              "type": "bytes"
            },
            {
              "internalType": "address",
              "name": "user",
              "type": "address"
            },
            {
              "internalType": "uint256",
              "name": "userNonce",
              "type": "uint256"
            },
            {
              "internalType": "uint256",
              "name": "userDeadline",
              "type": "uint256"
            },
            {
              "internalType": "address",
              "name": "sponsor",
              "type": "address"
            },
            {
              "internalType": "uint256",
              "name": "sponsorSalt",
              "type": "uint256"
            },
            {
              "internalType": "enum PaymentType",
              "name": "paymentType",
              "type": "uint8"
            },
            {
              "internalType": "address",
              "name": "feeToken",
              "type": "address"
            },
            {
              "internalType": "uint256",
              "name": "oneBalanceChainId",
              "type": "uint256"
            }
          ],
          "internalType": "struct UserSponsorAuthCallWith1Balance",
          "name": "_call",
          "type": "tuple"
        },
        {
          "internalType": "bytes",
          "name": "_userSignature",
          "type": "bytes"
        },
        {
          "internalType": "bytes",
          "name": "_sponsorSignature",
          "type": "bytes"
        },
        {
          "internalType": "uint256",
          "name": "_nativeToFeeTokenXRateNumerator",
          "type": "uint256"
        },
        {
          "internalType": "uint256",
          "name": "_nativeToFeeTokenXRateDenominator",
          "type": "uint256"
        },
        {
          "internalType": "bytes32",
          "name": "_taskId",
          "type": "bytes32"
        }
      ],
      "name": "userSponsorAuthCallWith1Balance",
      "outputs": [],
      "stateMutability": "nonpayable",
      "type": "function"
    },
    {
      "inputs": [],
      "name": "version",
      "outputs": [
        {
          "internalType": "string",
          "name": "",
          "type": "string"
        }
      ],
      "stateMutability": "view",
      "type": "function"
    },
    {
      "inputs": [
        {
          "internalType": "bytes32",
          "name": "",
          "type": "bytes32"
        }
      ],
      "name": "wasCallSponsoredAlready",
      "outputs": [
        {
          "internalType": "bool",
          "name": "",
          "type": "bool"
        }
      ],
      "stateMutability": "view",
      "type": "function"
    }
  ],
  "transactionHash": "0x1bda6bdb30108e50fbfa876de97364a6cbb08edd975f3effc6a5a2b35abaac84",
  "args": [
    "0x91f2A140cA47DdF438B9c583b7E71987525019bB"
  ],
  "numDeployments": 1,
  "solcInputHash": "2cbb4ead68613d0253d7cd1cc825e298",
  "bytecode": "0x60a06040523480156200001157600080fd5b5060405162002b7238038062002b72833981016040819052620000349162000046565b6001600160a01b031660805262000078565b6000602082840312156200005957600080fd5b81516001600160a01b03811681146200007157600080fd5b9392505050565b608051612ac2620000b0600039600081816101ca015281816102a5015281816106ac0152818161086b0152610c150152612ac26000f3fe608060405234801561001057600080fd5b50600436106100df5760003560e01c8063573ea5751161008c578063ad5e012011610066578063ad5e012014610257578063bc49e3e81461026a578063c0386a5214610272578063f1f1c5ce1461028557600080fd5b8063573ea575146101c55780638b778dc014610211578063a2d53b5e1461024457600080fd5b80633644e515116100bd5780633644e515146101795780633e8cc7b81461018157806354fd4d501461018957600080fd5b806306fdde03146100e457806321776100146101365780632e04b8e71461014b575b600080fd5b6101206040518060400160405280600b81526020017f47656c61746f52656c617900000000000000000000000000000000000000000081525081565b60405161012d919061201e565b60405180910390f35b6101496101443660046120b1565b61028d565b005b61016b610159366004612166565b60006020819052908152604090205481565b60405190815260200161012d565b61016b610662565b61016b610671565b6101206040518060400160405280600181526020017f310000000000000000000000000000000000000000000000000000000000000081525081565b6101ec7f000000000000000000000000000000000000000000000000000000000000000081565b60405173ffffffffffffffffffffffffffffffffffffffff909116815260200161012d565b61023461021f366004612181565b60016020526000908152604090205460ff1681565b604051901515815260200161012d565b61014961025236600461219a565b610694565b610149610265366004612211565b610853565b61016b610bda565b610149610280366004612257565b610bfd565b61016b611088565b3373ffffffffffffffffffffffffffffffffffffffff7f00000000000000000000000000000000000000000000000000000000000000001614610331576040517f08c379a000000000000000000000000000000000000000000000000000000000815260206004820152601760248201527f4f6e6c792063616c6c61626c652062792067656c61746f00000000000000000060448201526064015b60405180910390fd5b600061034360c0880160a0890161233b565b60018111156103545761035461230c565b146103e1576040517f08c379a000000000000000000000000000000000000000000000000000000000815260206004820152603460248201527f47656c61746f52656c61792e73706f6e736f724175746843616c6c576974683160448201527f42616c616e63653a207061796d656e74547970650000000000000000000000006064820152608401610328565b6104078660000135604051806060016040528060288152602001612908602891396110ac565b600061042c610414611134565b8888886104276080840160608501612166565b611237565b60008181526001602052604090205490915060ff16156104ce576040517f08c379a000000000000000000000000000000000000000000000000000000000815260206004820152602f60248201527f47656c61746f52656c61792e73706f6e736f724175746843616c6c576974683160448201527f42616c616e63653a207265706c617900000000000000000000000000000000006064820152608401610328565b60008181526001602081905260409182902080547fffffffffffffffffffffffffffffffffffffffffffffffffffffffffffffff001690911790556105959061051990890189612363565b8080601f01602080910402602001604051908101604052809392919081815260200183838082843760009201919091525050604080516060810190915260288082529092509050612908602083013961057860408b0160208c01612166565b73ffffffffffffffffffffffffffffffffffffffff1691906113cf565b506105a660e0880160c08901612166565b73ffffffffffffffffffffffffffffffffffffffff166105cc6040890160208a01612166565b73ffffffffffffffffffffffffffffffffffffffff166105f260808a0160608b01612166565b6040805160e08c01358152602081018990529081018790526060810186905273ffffffffffffffffffffffffffffffffffffffff91909116907f116bfd46451bbd23e7a5f5b7420b28e3d98d4c477f173da513aaaeac3c4baada906080015b60405180910390a450505050505050565b600061066c611134565b905090565b6040518060e0016040528060a7815260200161278860a791398051906020012081565b3373ffffffffffffffffffffffffffffffffffffffff7f00000000000000000000000000000000000000000000000000000000000000001614610733576040517f08c379a000000000000000000000000000000000000000000000000000000000815260206004820152601760248201527f4f6e6c792063616c6c61626c652062792067656c61746f0000000000000000006044820152606401610328565b600061075573ffffffffffffffffffffffffffffffffffffffff8516336114d9565b90506107b961076787873388886115c3565b60408051808201909152601c81527f47656c61746f52656c61792e63616c6c5769746853796e634665653a00000000602082015273ffffffffffffffffffffffffffffffffffffffff8a1691906113cf565b5060006107dc73ffffffffffffffffffffffffffffffffffffffff8616336114d9565b905060006107ea83836123f7565b6040805173ffffffffffffffffffffffffffffffffffffffff8981168252602082018490529181018790529192508a16907f2ebf5825cbf63a0d0bd018d3d8547867630cd139f87864652d984d57da4edb559060600160405180910390a2505050505050505050565b3373ffffffffffffffffffffffffffffffffffffffff7f000000000000000000000000000000000000000000000000000000000000000016146108f2576040517f08c379a000000000000000000000000000000000000000000000000000000000815260206004820152601760248201527f4f6e6c792063616c6c61626c652062792067656c61746f0000000000000000006044820152606401610328565b600061090460e0880160c0890161233b565b60018111156109155761091561230c565b146109a2576040517f08c379a000000000000000000000000000000000000000000000000000000000815260206004820152603160248201527f47656c61746f52656c61792e757365724175746843616c6c576974683142616c60448201527f616e63653a207061796d656e74547970650000000000000000000000000000006064820152608401610328565b6109c886600001356040518060600160405280602581526020016128e3602591396110ac565b600080806109dc60808a0160608b01612166565b73ffffffffffffffffffffffffffffffffffffffff1673ffffffffffffffffffffffffffffffffffffffff168152602001908152602001600020549050610a458760800135828960a001356040518060600160405280602581526020016128e36025913961162d565b610a68610a50611134565b888888610a636080840160608501612166565b61173c565b610a7381600161240a565b600080610a8660808b0160608c01612166565b73ffffffffffffffffffffffffffffffffffffffff1673ffffffffffffffffffffffffffffffffffffffff16815260200190815260200160002081905550610b18610aef888060400190610ada9190612363565b610aea60808c0160608d01612166565b6118d1565b6040518060600160405280602581526020016128e36025913961057860408b0160208c01612166565b50610b2a610100880160e08901612166565b73ffffffffffffffffffffffffffffffffffffffff16610b506040890160208a01612166565b73ffffffffffffffffffffffffffffffffffffffff16610b7660808a0160608b01612166565b604080516101008c01358152602081018990529081018790526060810186905273ffffffffffffffffffffffffffffffffffffffff91909116907f116bfd46451bbd23e7a5f5b7420b28e3d98d4c477f173da513aaaeac3c4baada90608001610651565b6040518060e0016040528060b4815260200161282f60b491398051906020012081565b3373ffffffffffffffffffffffffffffffffffffffff7f00000000000000000000000000000000000000000000000000000000000000001614610c9c576040517f08c379a000000000000000000000000000000000000000000000000000000000815260206004820152601760248201527f4f6e6c792063616c6c61626c652062792067656c61746f0000000000000000006044820152606401610328565b6000610cb06101208a016101008b0161233b565b6001811115610cc157610cc161230c565b14610d4e576040517f08c379a000000000000000000000000000000000000000000000000000000000815260206004820152603860248201527f47656c61746f52656c61792e7573657253706f6e736f724175746843616c6c5760448201527f6974683142616c616e63653a207061796d656e745479706500000000000000006064820152608401610328565b610d7488600001356040518060600160405280602c8152602001612a61602c91396110ac565b60008080610d8860808c0160608d01612166565b73ffffffffffffffffffffffffffffffffffffffff1673ffffffffffffffffffffffffffffffffffffffff168152602001908152602001600020549050610df18960800135828b60a001356040518060600160405280602c8152602001612a61602c913961162d565b6000610dfb611134565b9050610e19818b8b8b610e146080840160608501612166565b611900565b506000610e33828c8a8a610e1460e0840160c08501612166565b60008181526001602052604090205490915060ff1615610ed5576040517f08c379a000000000000000000000000000000000000000000000000000000000815260206004820152603360248201527f47656c61746f52656c61792e7573657253706f6e736f724175746843616c6c5760448201527f6974683142616c616e63653a207265706c6179000000000000000000000000006064820152608401610328565b610ee083600161240a565b6000808d6060016020810190610ef69190612166565b73ffffffffffffffffffffffffffffffffffffffff16815260208082019290925260409081016000908120939093558383526001918290529182902080547fffffffffffffffffffffffffffffffffffffffffffffffffffffffffffffff00169091179055610fae90610f8290610f6f908e018e612363565b8e6060016020810190610aea9190612166565b6040518060600160405280602c8152602001612a61602c91398d60200160208101906105789190612166565b50610fc16101408c016101208d01612166565b73ffffffffffffffffffffffffffffffffffffffff16610fe760408d0160208e01612166565b73ffffffffffffffffffffffffffffffffffffffff1661100d60e08e0160c08f01612166565b73ffffffffffffffffffffffffffffffffffffffff167f116bfd46451bbd23e7a5f5b7420b28e3d98d4c477f173da513aaaeac3c4baada8e61014001358a8a8a604051611073949392919093845260208401929092526040830152606082015260800190565b60405180910390a45050505050505050505050565b60405180610100016040528060df815260200161298260df91398051906020012081565b4682146110f76040518060400160405280600781526020017f636861696e69640000000000000000000000000000000000000000000000000081525083611ab290919063ffffffff16565b9061112f576040517f08c379a0000000000000000000000000000000000000000000000000000000008152600401610328919061201e565b505050565b6000604051806080016040528060528152602001612930605291398051602091820120604080518082018252600b81527f47656c61746f52656c61790000000000000000000000000000000000000000009084015280518082018252600181527f3100000000000000000000000000000000000000000000000000000000000000908401528051928301919091527f34fc646dc54aecbfe1e155e4774cd50377f6ce69bbc8ac7b749a4bee450138e5908201527fc89efdaa54c0f20c7adf612882df0950f5a951637e0307cdcb4c672f298b8bc660608201524660808201523060a082015260c00160405160208183030381529060405280519060200120905090565b60008561124386611ade565b805160209182012060405161128a9392017f190100000000000000000000000000000000000000000000000000000000000081526002810192909252602282015260420190565b6040516020818303038152906040528051906020012090506000806112e58387878080601f016020809104026020016040519081016040528093929190818152602001838380828437600092019190915250611ba192505050565b909250905060008160048111156112fe576112fe61230c565b14801561133657508373ffffffffffffffffffffffffffffffffffffffff168273ffffffffffffffffffffffffffffffffffffffff16145b6113c457604080517f08c379a00000000000000000000000000000000000000000000000000000000081526020600482015260248101919091527f47656c61746f52656c6179426173653142616c616e63652e5f7265717569726560448201527f53706f6e736f724175746843616c6c5369676e61747572653142616c616e63656064820152608401610328565b505095945050505050565b606060008473ffffffffffffffffffffffffffffffffffffffff16846040516113f8919061241d565b6000604051808303816000865af19150503d8060008114611435576040519150601f19603f3d011682016040523d82523d6000602084013e61143a565b606091505b509250905080156114c75781516000036114c25773ffffffffffffffffffffffffffffffffffffffff85163b1515836040516020016114799190612439565b604051602081830303815290604052906114c0576040517f08c379a0000000000000000000000000000000000000000000000000000000008152600401610328919061201e565b505b6114d1565b6114d18284611c0f565b509392505050565b600073ffffffffffffffffffffffffffffffffffffffff831673eeeeeeeeeeeeeeeeeeeeeeeeeeeeeeeeeeeeeeee146115a1576040517f70a0823100000000000000000000000000000000000000000000000000000000815273ffffffffffffffffffffffffffffffffffffffff83811660048301528416906370a0823190602401602060405180830381865afa158015611578573d6000803e3d6000fd5b505050506040513d601f19601f8201168201806040525081019061159c919061247a565b6115ba565b8173ffffffffffffffffffffffffffffffffffffffff16315b90505b92915050565b6040805173ffffffffffffffffffffffffffffffffffffffff858116602083015284168183015260608082018490528251808303820181526080830190935291611613918891889160a001612493565b604051602081830303815290604052905095945050505050565b8284146116786040518060400160405280600581526020017f6e6f6e636500000000000000000000000000000000000000000000000000000081525083611ab290919063ffffffff16565b906116b0576040517f08c379a0000000000000000000000000000000000000000000000000000000008152600401610328919061201e565b508115806116be5750428210155b60408051808201909152600881527f646561646c696e6500000000000000000000000000000000000000000000000060208201526116fd908390611ab2565b90611735576040517f08c379a0000000000000000000000000000000000000000000000000000000008152600401610328919061201e565b5050505050565b60008561174886611d0b565b805160209182012060405161178f9392017f190100000000000000000000000000000000000000000000000000000000000081526002810192909252602282015260420190565b6040516020818303038152906040528051906020012090506000806117ea8387878080601f016020809104026020016040519081016040528093929190818152602001838380828437600092019190915250611ba192505050565b909250905060008160048111156118035761180361230c565b14801561183b57508373ffffffffffffffffffffffffffffffffffffffff168273ffffffffffffffffffffffffffffffffffffffff16145b6118c7576040517f08c379a000000000000000000000000000000000000000000000000000000000815260206004820152603d60248201527f47656c61746f52656c6179426173653142616c616e63652e5f7265717569726560448201527f557365724175746843616c6c5369676e61747572653142616c616e63650000006064820152608401610328565b5050505050505050565b60608383836040516020016118e8939291906124ba565b60405160208183030381529060405290509392505050565b60008561190c86611dc0565b80516020918201206040516119539392017f190100000000000000000000000000000000000000000000000000000000000081526002810192909252602282015260420190565b6040516020818303038152906040528051906020012090506000806119ae8387878080601f016020809104026020016040519081016040528093929190818152602001838380828437600092019190915250611ba192505050565b909250905060008160048111156119c7576119c761230c565b1480156119ff57508373ffffffffffffffffffffffffffffffffffffffff168273ffffffffffffffffffffffffffffffffffffffff16145b6113c4576040517f08c379a0000000000000000000000000000000000000000000000000000000008152602060048201526044602482018190527f47656c61746f52656c6179426173653142616c616e63652e5f72657175697265908201527f5573657253706f6e736f724175746843616c6c5369676e61747572653142616c60648201527f616e636500000000000000000000000000000000000000000000000000000000608482015260a401610328565b60608282604051602001611ac79291906124f3565b604051602081830303815290604052905092915050565b60606040518060e0016040528060a7815260200161278860a79139805160209182012090833590611b159060408601908601612166565b611b226040860186612363565b604051611b30929190612522565b604051908190039020611b496080870160608801612166565b6080870135611b5e60c0890160a08a0161233b565b611b6e60e08a0160c08b01612166565b8960e00135604051602001611b8b9998979695949392919061256d565b6040516020818303038152906040529050919050565b6000808251604103611bd75760208301516040840151606085015160001a611bcb87828585611e90565b94509450505050611c08565b8251604003611c005760208301516040840151611bf5868383611fa8565b935093505050611c08565b506000905060025b9250929050565b60208251611c1d91906125d6565b600403611cfa5760208201517fffffffff0000000000000000000000000000000000000000000000000000000081167f08c379a00000000000000000000000000000000000000000000000000000000003611ce9576044830192508183604051602001611c8b9291906124f3565b604080517fffffffffffffffffffffffffffffffffffffffffffffffffffffffffffffffe0818403018152908290527f08c379a00000000000000000000000000000000000000000000000000000000082526103289160040161201e565b81604051602001611c8b9190612611565b80604051602001611c8b9190612652565b60606040518060e0016040528060b4815260200161282f60b49139805160209182012090833590611d429060408601908601612166565b611d4f6040860186612363565b604051611d5d929190612522565b604051908190039020611d766080870160608801612166565b608087013560a0880135611d9060e08a0160c08b0161233b565b611da16101008b0160e08c01612166565b8a6101000135604051602001611b8b9a99989796959493929190612693565b606060405180610100016040528060df815260200161298260df9139805160209182012090833590611df89060408601908601612166565b611e056040860186612363565b604051611e13929190612522565b604051908190039020611e2c6080870160608801612166565b608087013560a0880135611e4660e08a0160c08b01612166565b60e08a0135611e5d6101208c016101008d0161233b565b611e6f6101408d016101208e01612166565b8c6101400135604051602001611b8b9c9b9a99989796959493929190612704565b6000807f7fffffffffffffffffffffffffffffff5d576e7357a4501ddfe92f46681b20a0831115611ec75750600090506003611f9f565b8460ff16601b14158015611edf57508460ff16601c14155b15611ef05750600090506004611f9f565b6040805160008082526020820180845289905260ff881692820192909252606081018690526080810185905260019060a0016020604051602081039080840390855afa158015611f44573d6000803e3d6000fd5b50506040517fffffffffffffffffffffffffffffffffffffffffffffffffffffffffffffffe0015191505073ffffffffffffffffffffffffffffffffffffffff8116611f9857600060019250925050611f9f565b9150600090505b94509492505050565b6000807f7fffffffffffffffffffffffffffffffffffffffffffffffffffffffffffffff831681611fde60ff86901c601b61240a565b9050611fec87828885611e90565b935093505050935093915050565b60005b83811015612015578181015183820152602001611ffd565b50506000910152565b602081526000825180602084015261203d816040850160208701611ffa565b601f017fffffffffffffffffffffffffffffffffffffffffffffffffffffffffffffffe0169190910160400192915050565b60008083601f84011261208157600080fd5b50813567ffffffffffffffff81111561209957600080fd5b602083019150836020828501011115611c0857600080fd5b60008060008060008060a087890312156120ca57600080fd5b863567ffffffffffffffff808211156120e257600080fd5b90880190610100828b0312156120f757600080fd5b9096506020880135908082111561210d57600080fd5b5061211a89828a0161206f565b979a90995096976040810135976060820135975060809091013595509350505050565b803573ffffffffffffffffffffffffffffffffffffffff8116811461216157600080fd5b919050565b60006020828403121561217857600080fd5b6115ba8261213d565b60006020828403121561219357600080fd5b5035919050565b60008060008060008060a087890312156121b357600080fd5b6121bc8761213d565b9550602087013567ffffffffffffffff8111156121d857600080fd5b6121e489828a0161206f565b90965094506121f790506040880161213d565b925060608701359150608087013590509295509295509295565b60008060008060008060a0878903121561222a57600080fd5b863567ffffffffffffffff8082111561224257600080fd5b90880190610120828b0312156120f757600080fd5b60008060008060008060008060c0898b03121561227357600080fd5b883567ffffffffffffffff8082111561228b57600080fd5b908a0190610160828d0312156122a057600080fd5b90985060208a013590808211156122b657600080fd5b6122c28c838d0161206f565b909950975060408b01359150808211156122db57600080fd5b506122e88b828c0161206f565b999c989b5096999698976060880135976080810135975060a0013595509350505050565b7f4e487b7100000000000000000000000000000000000000000000000000000000600052602160045260246000fd5b60006020828403121561234d57600080fd5b81356002811061235c57600080fd5b9392505050565b60008083357fffffffffffffffffffffffffffffffffffffffffffffffffffffffffffffffe184360301811261239857600080fd5b83018035915067ffffffffffffffff8211156123b357600080fd5b602001915036819003821315611c0857600080fd5b7f4e487b7100000000000000000000000000000000000000000000000000000000600052601160045260246000fd5b818103818111156115bd576115bd6123c8565b808201808211156115bd576115bd6123c8565b6000825161242f818460208701611ffa565b9190910192915050565b6000825161244b818460208701611ffa565b7f43616c6c20746f206e6f6e20636f6e7472616374000000000000000000000000920191825250601401919050565b60006020828403121561248c57600080fd5b5051919050565b8284823760008382016000815283516124b0818360208801611ffa565b0195945050505050565b8284823760609190911b7fffffffffffffffffffffffffffffffffffffffff000000000000000000000000169101908152601401919050565b60008351612505818460208801611ffa565b835190830190612519818360208801611ffa565b01949350505050565b8183823760009101908152919050565b60028110612569577f4e487b7100000000000000000000000000000000000000000000000000000000600052602160045260246000fd5b9052565b6000610120820190508a825289602083015273ffffffffffffffffffffffffffffffffffffffff808a16604084015288606084015280881660808401528660a08401526125bd60c0840187612532565b9390931660e08201526101000152979650505050505050565b60008261260c577f4e487b7100000000000000000000000000000000000000000000000000000000600052601260045260246000fd5b500690565b60008251612623818460208701611ffa565b7f4e6f4572726f7253656c6563746f720000000000000000000000000000000000920191825250600f01919050565b60008251612664818460208701611ffa565b7f556e657870656374656452657475726e64617461000000000000000000000000920191825250601401919050565b6000610140820190508b82528a602083015273ffffffffffffffffffffffffffffffffffffffff808b16604084015289606084015280891660808401528760a08401528660c08401526126e960e0840187612532565b93909316610100820152610120015298975050505050505050565b6000610180820190508d82528c602083015273ffffffffffffffffffffffffffffffffffffffff808d1660408401528b6060840152808b1660808401528960a08401528860c084015280881660e08401528661010084015261276a610120840187612532565b9390931661014082015261016001529a995050505050505050505056fe53706f6e736f724175746843616c6c576974683142616c616e63652875696e7432353620636861696e49642c61646472657373207461726765742c627974657320646174612c616464726573732073706f6e736f722c75696e743235362073706f6e736f7253616c742c75696e7438207061796d656e74547970652c6164647265737320666565546f6b656e2c75696e74323536206f6e6542616c616e6365436861696e496429557365724175746843616c6c576974683142616c616e63652875696e7432353620636861696e49642c61646472657373207461726765742c627974657320646174612c6164647265737320757365722c75696e7432353620757365724e6f6e63652c75696e743235362075736572446561646c696e652c75696e7438207061796d656e74547970652c6164647265737320666565546f6b656e2c75696e74323536206f6e6542616c616e6365436861696e49642947656c61746f52656c61792e757365724175746843616c6c576974683142616c616e63653a47656c61746f52656c61792e73706f6e736f724175746843616c6c576974683142616c616e63653a454950373132446f6d61696e28737472696e67206e616d652c737472696e672076657273696f6e2c75696e7432353620636861696e49642c6164647265737320766572696679696e67436f6e7472616374295573657253706f6e736f724175746843616c6c576974683142616c616e63652875696e7432353620636861696e49642c61646472657373207461726765742c627974657320646174612c6164647265737320757365722c75696e7432353620757365724e6f6e63652c75696e743235362075736572446561646c696e652c616464726573732073706f6e736f722c75696e743235362073706f6e736f7253616c742c75696e7438207061796d656e74547970652c6164647265737320666565546f6b656e2c75696e74323536206f6e6542616c616e6365436861696e49642947656c61746f52656c61792e7573657253706f6e736f724175746843616c6c576974683142616c616e63653aa264697066735822122054f59a7836e52d5b16585936080bfb627fab030c75d612747bdfcec26102310464736f6c63430008100033",
  "devdoc": {
    "details": "This contract must NEVER hold funds!Maliciously crafted transaction payloads could wipe out any funds left here",
    "kind": "dev",
    "methods": {
      "callWithSyncFee(address,bytes,address,uint256,bytes32)": {
        "details": "This is the most straightforward use case, and `transfer` handles token payments.",
        "params": {
          "_data": "Payload for call on _target",
          "_feeToken": "Payment can be done in native and ERC-20 tokens",
          "_target": "Target smart contract",
          "_taskId": "Unique task identifier generated by gelato"
        }
      },
      "sponsorAuthCallWith1Balance((uint256,address,bytes,address,uint256,uint8,address,uint256),bytes,uint256,uint256,bytes32)": {
        "details": "Payment is handled with off-chain accounting using Gelato's 1Balance system",
        "params": {
          "_call": "Relay call data packed into SponsorAuthCall struct",
          "_nativeToFeeTokenXRateDenominator": "Exchange rate denominator",
          "_nativeToFeeTokenXRateNumerator": "Exchange rate numerator",
          "_sponsorSignature": "EIP-712 compliant signature from _call.sponsor",
          "_taskId": "Unique task identifier generated by gelato"
        }
      },
      "userAuthCallWith1Balance((uint256,address,bytes,address,uint256,uint256,uint8,address,uint256),bytes,uint256,uint256,bytes32)": {
        "details": "Payment is handled with off-chain accounting using Gelato's 1Balance systemThe userNonce abstraction does not support multiple calls (call concurrency)Apps that need concurrent user calls will need to implement multi-callingon their end via encoding into _call.data.",
        "params": {
          "_call": "Relay call data packed into UserAuthCall struct",
          "_nativeToFeeTokenXRateDenominator": "Exchange rate denominator",
          "_nativeToFeeTokenXRateNumerator": "Exchange rate numerator",
          "_taskId": "Unique task identifier generated by gelato",
          "_userSignature": "EIP-712 compliant signature from _call.user"
        }
      },
      "userSponsorAuthCallWith1Balance((uint256,address,bytes,address,uint256,uint256,address,uint256,uint8,address,uint256),bytes,bytes,uint256,uint256,bytes32)": {
        "details": "Payment is handled with off-chain accounting using Gelato's 1Balance systemThe userNonce abstraction does not support multiple calls (call concurrency)Apps that need concurrent user calls will need to implement multi-callingon their end via encoding into _call.data.",
        "params": {
          "_call": "Relay call data packed into UserSponsorAuthCall struct",
          "_nativeToFeeTokenXRateDenominator": "Exchange rate denominator",
          "_nativeToFeeTokenXRateNumerator": "Exchange rate numerator",
          "_sponsorSignature": "EIP-712 compliant signature from _call.sponsor",
          "_taskId": "Unique task identifier generated by gelato",
          "_userSignature": "EIP-712 compliant signature from _call.user"
        }
      }
    },
    "title": "Gelato Relay contract",
    "version": 1
  },
  "userdoc": {
    "kind": "user",
    "methods": {
      "callWithSyncFee(address,bytes,address,uint256,bytes32)": {
        "notice": "Relay call with Synchronous PaymentThe target contract pays Gelato during the call forward"
      },
      "sponsorAuthCallWith1Balance((uint256,address,bytes,address,uint256,uint8,address,uint256),bytes,uint256,uint256,bytes32)": {
        "notice": "Relay call + One Balance payment - with sponsor authenticationSponsor signature allows for payment via sponsor's 1Balance balanceOracle value for exchange rate between native tokens and fee token"
      },
      "userAuthCallWith1Balance((uint256,address,bytes,address,uint256,uint256,uint8,address,uint256),bytes,uint256,uint256,bytes32)": {
        "notice": "Relay call + One Balance payment - with ONLY user authentication.The user here is paying for themselves, no external sponsorUser signature allows for payment via user's 1Balance balanceOracle value for exchange rate between native tokens and fee token"
      },
      "userSponsorAuthCallWith1Balance((uint256,address,bytes,address,uint256,uint256,address,uint256,uint8,address,uint256),bytes,bytes,uint256,uint256,bytes32)": {
        "notice": "Relay call + One Balance payment - with BOTH sponsor and user authenticationBoth sponsor and user signature allows for payment via sponsor's 1Balance balance"
      }
    },
    "notice": "This contract deals with synchronous payments and Gelato 1Balance payments",
    "version": 1
  },
  "storageLayout": {
    "storage": [
      {
        "astId": 3927,
        "contract": "contracts/GelatoRelay.sol:GelatoRelay",
        "label": "userNonce",
        "offset": 0,
        "slot": "0",
        "type": "t_mapping(t_address,t_uint256)"
      },
      {
        "astId": 3931,
        "contract": "contracts/GelatoRelay.sol:GelatoRelay",
        "label": "wasCallSponsoredAlready",
        "offset": 0,
        "slot": "1",
        "type": "t_mapping(t_bytes32,t_bool)"
      }
    ],
    "types": {
      "t_address": {
        "encoding": "inplace",
        "label": "address",
        "numberOfBytes": "20"
      },
      "t_bool": {
        "encoding": "inplace",
        "label": "bool",
        "numberOfBytes": "1"
      },
      "t_bytes32": {
        "encoding": "inplace",
        "label": "bytes32",
        "numberOfBytes": "32"
      },
      "t_mapping(t_address,t_uint256)": {
        "encoding": "mapping",
        "key": "t_address",
        "label": "mapping(address => uint256)",
        "numberOfBytes": "32",
        "value": "t_uint256"
      },
      "t_mapping(t_bytes32,t_bool)": {
        "encoding": "mapping",
        "key": "t_bytes32",
        "label": "mapping(bytes32 => bool)",
        "numberOfBytes": "32",
        "value": "t_bool"
      },
      "t_uint256": {
        "encoding": "inplace",
        "label": "uint256",
        "numberOfBytes": "32"
      }
    }
  }
}