{
  "address": "0x87DA9281e386f4a6767aF2F88ec441A3472c1AAf",
  "abi": [
    {
      "inputs": [
        {
          "internalType": "address",
          "name": "_gelato",
          "type": "address"
        }
      ],
      "stateMutability": "nonpayable",
      "type": "constructor"
    },
    {
      "anonymous": false,
      "inputs": [
        {
          "indexed": true,
          "internalType": "address",
          "name": "target",
          "type": "address"
        },
        {
          "indexed": false,
          "internalType": "address",
          "name": "feeToken",
          "type": "address"
        },
        {
          "indexed": false,
          "internalType": "uint256",
          "name": "fee",
          "type": "uint256"
        },
        {
          "indexed": false,
          "internalType": "bytes32",
          "name": "taskId",
          "type": "bytes32"
        }
      ],
      "name": "LogCallWithSyncFee",
      "type": "event"
    },
    {
      "anonymous": false,
      "inputs": [
        {
          "indexed": true,
          "internalType": "address",
          "name": "target",
          "type": "address"
        },
        {
          "indexed": true,
          "internalType": "bytes32",
          "name": "correlationId",
          "type": "bytes32"
        }
      ],
      "name": "LogCallWithSyncFeeV2",
      "type": "event"
    },
    {
      "anonymous": false,
      "inputs": [
        {
          "indexed": true,
          "internalType": "address",
          "name": "sponsor",
          "type": "address"
        },
        {
          "indexed": true,
          "internalType": "address",
          "name": "target",
          "type": "address"
        },
        {
          "indexed": true,
          "internalType": "address",
          "name": "feeToken",
          "type": "address"
        },
        {
          "indexed": false,
          "internalType": "uint256",
          "name": "oneBalanceChainId",
          "type": "uint256"
        },
        {
          "indexed": false,
          "internalType": "uint256",
          "name": "nativeToFeeTokenXRateNumerator",
          "type": "uint256"
        },
        {
          "indexed": false,
          "internalType": "uint256",
          "name": "nativeToFeeTokenXRateDenominator",
          "type": "uint256"
        },
        {
          "indexed": false,
          "internalType": "bytes32",
          "name": "correlationId",
          "type": "bytes32"
        }
      ],
      "name": "LogUseGelato1Balance",
      "type": "event"
    },
    {
      "inputs": [],
      "name": "DOMAIN_SEPARATOR",
      "outputs": [
        {
          "internalType": "bytes32",
          "name": "",
          "type": "bytes32"
        }
      ],
      "stateMutability": "view",
      "type": "function"
    },
    {
      "inputs": [],
      "name": "SPONSORED_CALL_TYPEHASH",
      "outputs": [
        {
          "internalType": "bytes32",
          "name": "",
          "type": "bytes32"
        }
      ],
      "stateMutability": "view",
      "type": "function"
    },
    {
      "inputs": [],
      "name": "SPONSORED_USER_AUTH_CALL_TYPEHASH",
      "outputs": [
        {
          "internalType": "bytes32",
          "name": "",
          "type": "bytes32"
        }
      ],
      "stateMutability": "view",
      "type": "function"
    },
    {
      "inputs": [
        {
          "internalType": "address",
          "name": "_target",
          "type": "address"
        },
        {
          "internalType": "bytes",
          "name": "_data",
          "type": "bytes"
        },
        {
          "internalType": "address",
          "name": "_feeToken",
          "type": "address"
        },
        {
          "internalType": "uint256",
          "name": "_fee",
          "type": "uint256"
        },
        {
          "internalType": "bytes32",
          "name": "_taskId",
          "type": "bytes32"
        }
      ],
      "name": "callWithSyncFee",
      "outputs": [],
      "stateMutability": "nonpayable",
      "type": "function"
    },
    {
      "inputs": [
        {
          "internalType": "address",
          "name": "_target",
          "type": "address"
        },
        {
          "internalType": "bytes",
          "name": "_data",
          "type": "bytes"
        },
        {
          "internalType": "bool",
          "name": "_relayContext",
          "type": "bool"
        },
        {
          "internalType": "bytes32",
          "name": "_correlationId",
          "type": "bytes32"
        }
      ],
      "name": "callWithSyncFeeV2",
      "outputs": [],
      "stateMutability": "nonpayable",
      "type": "function"
    },
    {
      "inputs": [],
      "name": "gelato",
      "outputs": [
        {
          "internalType": "address",
          "name": "",
          "type": "address"
        }
      ],
      "stateMutability": "view",
      "type": "function"
    },
    {
      "inputs": [],
      "name": "name",
      "outputs": [
        {
          "internalType": "string",
          "name": "",
          "type": "string"
        }
      ],
      "stateMutability": "view",
      "type": "function"
    },
    {
      "inputs": [
        {
          "components": [
            {
              "internalType": "uint256",
              "name": "chainId",
              "type": "uint256"
            },
            {
              "internalType": "address",
              "name": "target",
              "type": "address"
            },
            {
              "internalType": "bytes",
              "name": "data",
              "type": "bytes"
            }
          ],
          "internalType": "struct SponsoredCall",
          "name": "_call",
          "type": "tuple"
        },
        {
          "internalType": "address",
          "name": "_sponsor",
          "type": "address"
        },
        {
          "internalType": "address",
          "name": "_feeToken",
          "type": "address"
        },
        {
          "internalType": "uint256",
          "name": "_oneBalanceChainId",
          "type": "uint256"
        },
        {
          "internalType": "uint256",
          "name": "_nativeToFeeTokenXRateNumerator",
          "type": "uint256"
        },
        {
          "internalType": "uint256",
          "name": "_nativeToFeeTokenXRateDenominator",
          "type": "uint256"
        },
        {
          "internalType": "bytes32",
          "name": "_correlationId",
          "type": "bytes32"
        }
      ],
      "name": "sponsoredCall",
      "outputs": [],
      "stateMutability": "nonpayable",
      "type": "function"
    },
    {
      "inputs": [
        {
          "components": [
            {
              "internalType": "uint256",
              "name": "chainId",
              "type": "uint256"
            },
            {
              "internalType": "address",
              "name": "target",
              "type": "address"
            },
            {
              "internalType": "bytes",
              "name": "data",
              "type": "bytes"
            },
            {
              "internalType": "address",
              "name": "user",
              "type": "address"
            },
            {
              "internalType": "uint256",
              "name": "userNonce",
              "type": "uint256"
            },
            {
              "internalType": "uint256",
              "name": "userDeadline",
              "type": "uint256"
            }
          ],
          "internalType": "struct SponsoredUserAuthCall",
          "name": "_call",
          "type": "tuple"
        },
        {
          "internalType": "address",
          "name": "_sponsor",
          "type": "address"
        },
        {
          "internalType": "address",
          "name": "_feeToken",
          "type": "address"
        },
        {
          "internalType": "uint256",
          "name": "_oneBalanceChainId",
          "type": "uint256"
        },
        {
          "internalType": "bytes",
          "name": "_userSignature",
          "type": "bytes"
        },
        {
          "internalType": "uint256",
          "name": "_nativeToFeeTokenXRateNumerator",
          "type": "uint256"
        },
        {
          "internalType": "uint256",
          "name": "_nativeToFeeTokenXRateDenominator",
          "type": "uint256"
        },
        {
          "internalType": "bytes32",
          "name": "_correlationId",
          "type": "bytes32"
        }
      ],
      "name": "sponsoredUserAuthCall",
      "outputs": [],
      "stateMutability": "nonpayable",
      "type": "function"
    },
    {
      "inputs": [
        {
          "internalType": "address",
          "name": "",
          "type": "address"
        }
      ],
      "name": "userNonce",
      "outputs": [
        {
          "internalType": "uint256",
          "name": "",
          "type": "uint256"
        }
      ],
      "stateMutability": "view",
      "type": "function"
    },
    {
      "inputs": [],
      "name": "version",
      "outputs": [
        {
          "internalType": "string",
          "name": "",
          "type": "string"
        }
      ],
      "stateMutability": "view",
      "type": "function"
    }
  ],
  "transactionHash": "0xdcf222b8cda445bc5e0104b6610f0664be996b731abfe6968d5764fda95ef86e",
  "args": [
    "0x25aD59adbe00C2d80c86d01e2E05e1294DA84823"
  ],
  "numDeployments": 6,
  "solcInputHash": "dc9e9b250df2a5027a38a4dc5ab7102e",
  "bytecode": "0x60a060405234801561001057600080fd5b50604051620023923803806200239283398101604081905261003191610042565b6001600160a01b0316608052610072565b60006020828403121561005457600080fd5b81516001600160a01b038116811461006b57600080fd5b9392505050565b6080516122e8620000aa600039600081816101c301528181610273015281816104ab015281816106fd01526108dd01526122e86000f3fe608060405234801561001057600080fd5b50600436106100c95760003560e01c80633644e515116100815780637c708a181161005b5780637c708a181461020a578063a2d53b5e14610212578063d3f3d12f1461022557600080fd5b80633644e5151461017a57806354fd4d5014610182578063573ea575146101be57600080fd5b80630c44357d116100b25780630c44357d1461013257806327be3c24146101475780632e04b8e71461015a57600080fd5b806302939818146100ce57806306fdde03146100e9575b600080fd5b6100d6610238565b6040519081526020015b60405180910390f35b6101256040518060400160405280600b81526020017f47656c61746f52656c617900000000000000000000000000000000000000000081525081565b6040516100e09190611b53565b610145610140366004611c29565b61025b565b005b610145610155366004611c99565b610493565b6100d6610168366004611d25565b60006020819052908152604090205481565b6100d66106b3565b6101256040518060400160405280600181526020017f310000000000000000000000000000000000000000000000000000000000000081525081565b6101e57f000000000000000000000000000000000000000000000000000000000000000081565b60405173ffffffffffffffffffffffffffffffffffffffff90911681526020016100e0565b6100d66106c2565b610145610220366004611d42565b6106e5565b610145610233366004611dbc565b6108c5565b6040518060a0016040528060748152602001612193607491398051906020012081565b3373ffffffffffffffffffffffffffffffffffffffff7f000000000000000000000000000000000000000000000000000000000000000016146102ff576040517f08c379a000000000000000000000000000000000000000000000000000000000815260206004820152601760248201527f4f6e6c792063616c6c61626c652062792067656c61746f00000000000000000060448201526064015b60405180910390fd5b600080831561033557610310610b7d565b915061033273ffffffffffffffffffffffffffffffffffffffff831630610ba4565b90505b836103ca576103c56103738787367fffffffffffffffffffffffffffffffffffffffffffffffffffffffffffffffec013560601c610c8e565b610c8e565b60408051808201909152601e81527f47656c61746f52656c61792e63616c6c5769746853796e6346656556323a0000602082015273ffffffffffffffffffffffffffffffffffffffff8a169190610cbe565b6103e8565b6103e861037387876103da610dc8565b866103e3610dd7565b610dfe565b5083156104475760008161041273ffffffffffffffffffffffffffffffffffffffff851630610ba4565b61041c9190611ea6565b905080156104455761044573ffffffffffffffffffffffffffffffffffffffff84163383610e68565b505b604051839073ffffffffffffffffffffffffffffffffffffffff8916907fd8cb76b2a24ef8154ad59a94b242b7237ecb805ebe9f7f5c16d14aebf0047f4990600090a350505050505050565b3373ffffffffffffffffffffffffffffffffffffffff7f00000000000000000000000000000000000000000000000000000000000000001614610532576040517f08c379a000000000000000000000000000000000000000000000000000000000815260206004820152601760248201527f4f6e6c792063616c6c61626c652062792067656c61746f00000000000000000060448201526064016102f6565b61057587600001356040518060400160405280601a81526020017f47656c61746f52656c61792e73706f6e736f72656443616c6c3a000000000000815250610eb3565b61061e6105856040890189611eb9565b8080601f01602080910402602001604051908101604052809392919081815260200183838082843760009201919091525050604080518082018252601a81527f47656c61746f52656c61792e73706f6e736f72656443616c6c3a0000000000006020808301919091529093506106019250908c01908c01611d25565b73ffffffffffffffffffffffffffffffffffffffff169190610cbe565b5073ffffffffffffffffffffffffffffffffffffffff85166106466040890160208a01611d25565b60408051878152602081018790529081018590526060810184905273ffffffffffffffffffffffffffffffffffffffff918216918916907f116bfd46451bbd23e7a5f5b7420b28e3d98d4c477f173da513aaaeac3c4baada9060800160405180910390a450505050505050565b60006106bd610f36565b905090565b604051806060016040528060388152602001612207603891398051906020012081565b3373ffffffffffffffffffffffffffffffffffffffff7f00000000000000000000000000000000000000000000000000000000000000001614610784576040517f08c379a000000000000000000000000000000000000000000000000000000000815260206004820152601760248201527f4f6e6c792063616c6c61626c652062792067656c61746f00000000000000000060448201526064016102f6565b60006107a673ffffffffffffffffffffffffffffffffffffffff851630610ba4565b905061080a6107b88787338888610dfe565b60408051808201909152601c81527f47656c61746f52656c61792e63616c6c5769746853796e634665653a00000000602082015273ffffffffffffffffffffffffffffffffffffffff8a169190610cbe565b50600061082d73ffffffffffffffffffffffffffffffffffffffff861630610ba4565b9050600061083b8383611ea6565b905061085e73ffffffffffffffffffffffffffffffffffffffff87163383610e68565b6040805173ffffffffffffffffffffffffffffffffffffffff888116825260208201889052918101869052908a16907f2ebf5825cbf63a0d0bd018d3d8547867630cd139f87864652d984d57da4edb559060600160405180910390a2505050505050505050565b3373ffffffffffffffffffffffffffffffffffffffff7f00000000000000000000000000000000000000000000000000000000000000001614610964576040517f08c379a000000000000000000000000000000000000000000000000000000000815260206004820152601760248201527f4f6e6c792063616c6c61626c652062792067656c61746f00000000000000000060448201526064016102f6565b61098a896000013560405180606001604052806022815260200161229160229139610eb3565b6000808061099e60808d0160608e01611d25565b73ffffffffffffffffffffffffffffffffffffffff1673ffffffffffffffffffffffffffffffffffffffff168152602001908152602001600020549050610a078a60800135828c60a0013560405180606001604052806022815260200161229160229139611039565b6000610a11610f36565b9050610a2f818c8989610a2a6080840160608501611d25565b611148565b50610a3b826001611f1e565b6000808d6060016020810190610a519190611d25565b73ffffffffffffffffffffffffffffffffffffffff1673ffffffffffffffffffffffffffffffffffffffff16815260200190815260200160002081905550610ae4610ab88c8060400190610aa59190611eb9565b8e606001602081019061036e9190611d25565b604051806060016040528060228152602001612291602291398d60200160208101906106019190611d25565b5073ffffffffffffffffffffffffffffffffffffffff8916610b0c60408d0160208e01611d25565b604080518b8152602081018990529081018790526060810186905273ffffffffffffffffffffffffffffffffffffffff918216918d16907f116bfd46451bbd23e7a5f5b7420b28e3d98d4c477f173da513aaaeac3c4baada9060800160405180910390a45050505050505050505050565b60008036610b8c604082611ea6565b610b97928290611f31565b8101906106bd9190611d25565b600073ffffffffffffffffffffffffffffffffffffffff831673eeeeeeeeeeeeeeeeeeeeeeeeeeeeeeeeeeeeeeee14610c6c576040517f70a0823100000000000000000000000000000000000000000000000000000000815273ffffffffffffffffffffffffffffffffffffffff83811660048301528416906370a0823190602401602060405180830381865afa158015610c43573d6000803e3d6000fd5b505050506040513d601f19601f82011682018060405250810190610c679190611f5b565b610c85565b8173ffffffffffffffffffffffffffffffffffffffff16315b90505b92915050565b6060838383604051602001610ca593929190611f74565b60405160208183030381529060405290505b9392505050565b606060008473ffffffffffffffffffffffffffffffffffffffff1684604051610ce79190611fad565b6000604051808303816000865af19150503d8060008114610d24576040519150601f19603f3d011682016040523d82523d6000602084013e610d29565b606091505b50925090508015610db6578151600003610db15773ffffffffffffffffffffffffffffffffffffffff85163b151583604051602001610d689190611fc9565b60405160208183030381529060405290610daf576040517f08c379a00000000000000000000000000000000000000000000000000000000081526004016102f69190611b53565b505b610dc0565b610dc082846112de565b509392505050565b60008036610b8c606082611ea6565b60008036610de6602082611ea6565b610df1928290611f31565b8101906106bd919061200a565b6040805173ffffffffffffffffffffffffffffffffffffffff858116602083015284168183015260608082018490528251808303820181526080830190935291610e4e918891889160a001612023565b604051602081830303815290604052905095945050505050565b73ffffffffffffffffffffffffffffffffffffffff831673eeeeeeeeeeeeeeeeeeeeeeeeeeeeeeeeeeeeeeee14610ea957610ea48383836113da565b505050565b610ea48282611467565b468214610efe6040518060400160405280600781526020017f636861696e696400000000000000000000000000000000000000000000000000815250836115c190919063ffffffff16565b90610ea4576040517f08c379a00000000000000000000000000000000000000000000000000000000081526004016102f69190611b53565b600060405180608001604052806052815260200161223f605291398051602091820120604080518082018252600b81527f47656c61746f52656c61790000000000000000000000000000000000000000009084015280518082018252600181527f3100000000000000000000000000000000000000000000000000000000000000908401528051928301919091527f34fc646dc54aecbfe1e155e4774cd50377f6ce69bbc8ac7b749a4bee450138e5908201527fc89efdaa54c0f20c7adf612882df0950f5a951637e0307cdcb4c672f298b8bc660608201524660808201523060a082015260c00160405160208183030381529060405280519060200120905090565b8284146110846040518060400160405280600581526020017f6e6f6e6365000000000000000000000000000000000000000000000000000000815250836115c190919063ffffffff16565b906110bc576040517f08c379a00000000000000000000000000000000000000000000000000000000081526004016102f69190611b53565b508115806110ca5750428210155b60408051808201909152600881527f646561646c696e6500000000000000000000000000000000000000000000000060208201526111099083906115c1565b90611141576040517f08c379a00000000000000000000000000000000000000000000000000000000081526004016102f69190611b53565b5050505050565b600085611154866115ed565b805160209182012060405161119b9392017f190100000000000000000000000000000000000000000000000000000000000081526002810192909252602282015260420190565b6040516020818303038152906040528051906020012090506000806111f68387878080601f0160208091040260200160405190810160405280939291908181526020018383808284376000920191909152506116c692505050565b9092509050600081600481111561120f5761120f61204a565b14801561124757508373ffffffffffffffffffffffffffffffffffffffff168273ffffffffffffffffffffffffffffffffffffffff16145b6112d3576040517f08c379a000000000000000000000000000000000000000000000000000000000815260206004820152603e60248201527f47656c61746f52656c6179426173653142616c616e63652e5f7265717569726560448201527f53706f6e736f726564557365724175746843616c6c5369676e6174757265000060648201526084016102f6565b505095945050505050565b602082516112ec9190612079565b6004036113c95760208201517fffffffff0000000000000000000000000000000000000000000000000000000081167f08c379a000000000000000000000000000000000000000000000000000000000036113b857604483019250818360405160200161135a9291906120b4565b604080517fffffffffffffffffffffffffffffffffffffffffffffffffffffffffffffffe0818403018152908290527f08c379a00000000000000000000000000000000000000000000000000000000082526102f691600401611b53565b8160405160200161135a91906120e3565b8060405160200161135a9190612124565b6040805173ffffffffffffffffffffffffffffffffffffffff8416602482015260448082018490528251808303909101815260649091019091526020810180517bffffffffffffffffffffffffffffffffffffffffffffffffffffffff167fa9059cbb00000000000000000000000000000000000000000000000000000000179052610ea490849061170b565b804710156114d1576040517f08c379a000000000000000000000000000000000000000000000000000000000815260206004820152601d60248201527f416464726573733a20696e73756666696369656e742062616c616e636500000060448201526064016102f6565b60008273ffffffffffffffffffffffffffffffffffffffff168260405160006040518083038185875af1925050503d806000811461152b576040519150601f19603f3d011682016040523d82523d6000602084013e611530565b606091505b5050905080610ea4576040517f08c379a000000000000000000000000000000000000000000000000000000000815260206004820152603a60248201527f416464726573733a20756e61626c6520746f2073656e642076616c75652c207260448201527f6563697069656e74206d6179206861766520726576657274656400000000000060648201526084016102f6565b606082826040516020016115d69291906120b4565b604051602081830303815290604052905092915050565b60606040518060a0016040528060748152602001612193607491398051602091820120908335906116249060408601908601611d25565b6116316040860186611eb9565b60405161163f929190612165565b6040519081900390206116586080870160608801611d25565b60408051602081019690965285019390935273ffffffffffffffffffffffffffffffffffffffff9182166060850152608084810191909152911660a0838101919091529084013560c083015283013560e0820152610100016040516020818303038152906040529050919050565b60008082516041036116fc5760208301516040840151606085015160001a6116f087828585611817565b94509450505050611704565b506000905060025b9250929050565b600061176d826040518060400160405280602081526020017f5361666545524332303a206c6f772d6c6576656c2063616c6c206661696c65648152508573ffffffffffffffffffffffffffffffffffffffff1661192f9092919063ffffffff16565b805190915015610ea4578080602001905181019061178b9190612175565b610ea4576040517f08c379a000000000000000000000000000000000000000000000000000000000815260206004820152602a60248201527f5361666545524332303a204552433230206f7065726174696f6e20646964206e60448201527f6f7420737563636565640000000000000000000000000000000000000000000060648201526084016102f6565b6000807f7fffffffffffffffffffffffffffffff5d576e7357a4501ddfe92f46681b20a083111561184e5750600090506003611926565b8460ff16601b1415801561186657508460ff16601c14155b156118775750600090506004611926565b6040805160008082526020820180845289905260ff881692820192909252606081018690526080810185905260019060a0016020604051602081039080840390855afa1580156118cb573d6000803e3d6000fd5b50506040517fffffffffffffffffffffffffffffffffffffffffffffffffffffffffffffffe0015191505073ffffffffffffffffffffffffffffffffffffffff811661191f57600060019250925050611926565b9150600090505b94509492505050565b606061193e8484600085611946565b949350505050565b6060824710156119d8576040517f08c379a000000000000000000000000000000000000000000000000000000000815260206004820152602660248201527f416464726573733a20696e73756666696369656e742062616c616e636520666f60448201527f722063616c6c000000000000000000000000000000000000000000000000000060648201526084016102f6565b73ffffffffffffffffffffffffffffffffffffffff85163b611a56576040517f08c379a000000000000000000000000000000000000000000000000000000000815260206004820152601d60248201527f416464726573733a2063616c6c20746f206e6f6e2d636f6e747261637400000060448201526064016102f6565b6000808673ffffffffffffffffffffffffffffffffffffffff168587604051611a7f9190611fad565b60006040518083038185875af1925050503d8060008114611abc576040519150601f19603f3d011682016040523d82523d6000602084013e611ac1565b606091505b5091509150611ad1828286611adc565b979650505050505050565b60608315611aeb575081610cb7565b825115611afb5782518084602001fd5b816040517f08c379a00000000000000000000000000000000000000000000000000000000081526004016102f69190611b53565b60005b83811015611b4a578181015183820152602001611b32565b50506000910152565b6020815260008251806020840152611b72816040850160208701611b2f565b601f017fffffffffffffffffffffffffffffffffffffffffffffffffffffffffffffffe0169190910160400192915050565b73ffffffffffffffffffffffffffffffffffffffff81168114611bc657600080fd5b50565b8035611bd481611ba4565b919050565b60008083601f840112611beb57600080fd5b50813567ffffffffffffffff811115611c0357600080fd5b60208301915083602082850101111561170457600080fd5b8015158114611bc657600080fd5b600080600080600060808688031215611c4157600080fd5b8535611c4c81611ba4565b9450602086013567ffffffffffffffff811115611c6857600080fd5b611c7488828901611bd9565b9095509350506040860135611c8881611c1b565b949793965091946060013592915050565b600080600080600080600060e0888a031215611cb457600080fd5b873567ffffffffffffffff811115611ccb57600080fd5b88016060818b031215611cdd57600080fd5b96506020880135611ced81611ba4565b95506040880135611cfd81611ba4565b969995985095966060810135965060808101359560a0820135955060c0909101359350915050565b600060208284031215611d3757600080fd5b8135610cb781611ba4565b60008060008060008060a08789031215611d5b57600080fd5b8635611d6681611ba4565b9550602087013567ffffffffffffffff811115611d8257600080fd5b611d8e89828a01611bd9565b9096509450506040870135611da281611ba4565b959894975092956060810135946080909101359350915050565b60008060008060008060008060006101008a8c031215611ddb57600080fd5b893567ffffffffffffffff80821115611df357600080fd5b908b019060c0828e031215611e0757600080fd5b90995060208b013590611e1982611ba4565b819950611e2860408d01611bc9565b985060608c0135975060808c0135915080821115611e4557600080fd5b50611e528c828d01611bd9565b9a9d999c50979a9699979860a08801359760c0810135975060e0013595509350505050565b7f4e487b7100000000000000000000000000000000000000000000000000000000600052601160045260246000fd5b81810381811115610c8857610c88611e77565b60008083357fffffffffffffffffffffffffffffffffffffffffffffffffffffffffffffffe1843603018112611eee57600080fd5b83018035915067ffffffffffffffff821115611f0957600080fd5b60200191503681900382131561170457600080fd5b80820180821115610c8857610c88611e77565b60008085851115611f4157600080fd5b83861115611f4e57600080fd5b5050820193919092039150565b600060208284031215611f6d57600080fd5b5051919050565b8284823760609190911b7fffffffffffffffffffffffffffffffffffffffff000000000000000000000000169101908152601401919050565b60008251611fbf818460208701611b2f565b9190910192915050565b60008251611fdb818460208701611b2f565b7f43616c6c20746f206e6f6e20636f6e7472616374000000000000000000000000920191825250601401919050565b60006020828403121561201c57600080fd5b5035919050565b828482376000838201600081528351612040818360208801611b2f565b0195945050505050565b7f4e487b7100000000000000000000000000000000000000000000000000000000600052602160045260246000fd5b6000826120af577f4e487b7100000000000000000000000000000000000000000000000000000000600052601260045260246000fd5b500690565b600083516120c6818460208801611b2f565b8351908301906120da818360208801611b2f565b01949350505050565b600082516120f5818460208701611b2f565b7f4e6f4572726f7253656c6563746f720000000000000000000000000000000000920191825250600f01919050565b60008251612136818460208701611b2f565b7f556e657870656374656452657475726e64617461000000000000000000000000920191825250601401919050565b8183823760009101908152919050565b60006020828403121561218757600080fd5b8151610cb781611c1b56fe53706f6e736f726564557365724175746843616c6c2875696e7432353620636861696e49642c61646472657373207461726765742c627974657320646174612c6164647265737320757365722c75696e7432353620757365724e6f6e63652c75696e743235362075736572446561646c696e652953706f6e736f72656443616c6c2875696e7432353620636861696e49642c61646472657373207461726765742c6279746573206461746129454950373132446f6d61696e28737472696e67206e616d652c737472696e672076657273696f6e2c75696e7432353620636861696e49642c6164647265737320766572696679696e67436f6e74726163742947656c61746f52656c61792e73706f6e736f726564557365724175746843616c6c3aa2646970667358221220c570c24022bdbf4cc77023a45ee3a3919ec30232e71db01819f7d5620c886c9964736f6c63430008110033",
  "devdoc": {
    "details": "This contract must NEVER hold funds!Maliciously crafted transaction payloads could wipe out any funds left here",
    "kind": "dev",
    "methods": {
      "callWithSyncFee(address,bytes,address,uint256,bytes32)": {
        "details": "Previous version kept for backward compatibility"
      },
      "callWithSyncFeeV2(address,bytes,bool,bytes32)": {
        "details": "This is the most straightforward use case, and `transfer` handles token payments.",
        "params": {
          "_correlationId": "Unique task identifier generated by gelato",
          "_data": "Payload for call on _target",
          "_relayContext": "true: all relay context encoding, false: only feeCollector encoding",
          "_target": "Target smart contract"
        }
      },
      "sponsoredCall((uint256,address,bytes),address,address,uint256,uint256,uint256,bytes32)": {
        "details": "Payment is handled with off-chain accounting using Gelato's 1Balance system",
        "params": {
          "_call": "Relay call data packed into SponsoredCall struct",
          "_correlationId": "Unique task identifier generated by gelato",
          "_nativeToFeeTokenXRateDenominator": "Exchange rate denominator",
          "_nativeToFeeTokenXRateNumerator": "Exchange rate numerator"
        }
      },
      "sponsoredUserAuthCall((uint256,address,bytes,address,uint256,uint256),address,address,uint256,bytes,uint256,uint256,bytes32)": {
        "details": "Payment is handled with off-chain accounting using Gelato's 1Balance systemThe userNonce abstraction does not support multiple calls (call concurrency)Apps that need concurrent user calls will need to implement multi-callingon their end via encoding into _call.data.",
        "params": {
          "_call": "Relay call data packed into SponsoredUserAuthCall struct",
          "_correlationId": "Unique task identifier generated by gelato",
          "_nativeToFeeTokenXRateDenominator": "Exchange rate denominator",
          "_nativeToFeeTokenXRateNumerator": "Exchange rate numerator",
          "_userSignature": "EIP-712 compliant signature from _call.user"
        }
      }
    },
    "title": "Gelato Relay contract",
    "version": 1
  },
  "userdoc": {
    "kind": "user",
    "methods": {
      "callWithSyncFeeV2(address,bytes,bool,bytes32)": {
        "notice": "Relay call with Synchronous PaymentThe target contract pays Gelato during the call forward"
      },
      "sponsoredCall((uint256,address,bytes),address,address,uint256,uint256,uint256,bytes32)": {
        "notice": "Relay call + One Balance payment - with sponsor authenticationSponsor signature allows for payment via sponsor's 1Balance balanceOracle value for exchange rate between native tokens and fee token"
      },
      "sponsoredUserAuthCall((uint256,address,bytes,address,uint256,uint256),address,address,uint256,bytes,uint256,uint256,bytes32)": {
        "notice": "Relay call + One Balance payment - with BOTH sponsor and user authenticationBoth sponsor and user signature allows for payment via sponsor's 1Balance balance"
      }
    },
    "notice": "This contract deals with synchronous payments and Gelato 1Balance payments",
    "version": 1
  },
  "storageLayout": {
    "storage": [
      {
        "astId": 2958,
        "contract": "contracts/GelatoRelay.sol:GelatoRelay",
        "label": "userNonce",
        "offset": 0,
        "slot": "0",
        "type": "t_mapping(t_address,t_uint256)"
      }
    ],
    "types": {
      "t_address": {
        "encoding": "inplace",
        "label": "address",
        "numberOfBytes": "20"
      },
      "t_mapping(t_address,t_uint256)": {
        "encoding": "mapping",
        "key": "t_address",
        "label": "mapping(address => uint256)",
        "numberOfBytes": "32",
        "value": "t_uint256"
      },
      "t_uint256": {
        "encoding": "inplace",
        "label": "uint256",
        "numberOfBytes": "32"
      }
    }
  }
}