{
  "address": "0x69B910a1B856193784a7aa65F57830301D296Ea1",
  "abi": [
    {
      "inputs": [
        {
          "internalType": "address",
          "name": "_gelato",
          "type": "address"
        }
      ],
      "stateMutability": "nonpayable",
      "type": "constructor"
    },
    {
      "anonymous": false,
      "inputs": [
        {
          "indexed": true,
          "internalType": "address",
          "name": "sponsor",
          "type": "address"
        },
        {
          "indexed": true,
          "internalType": "address",
          "name": "user",
          "type": "address"
        },
        {
          "indexed": true,
          "internalType": "address",
          "name": "target",
          "type": "address"
        },
        {
          "indexed": false,
          "internalType": "uint256",
          "name": "sponsorChainId",
          "type": "uint256"
        },
        {
          "indexed": false,
          "internalType": "address",
          "name": "feeToken",
          "type": "address"
        },
        {
          "indexed": false,
          "internalType": "uint256",
          "name": "fee",
          "type": "uint256"
        },
        {
          "indexed": false,
          "internalType": "bytes32",
          "name": "taskId",
          "type": "bytes32"
        }
      ],
      "name": "LogMetaTxRequestAsyncGasTankFee",
      "type": "event"
    },
    {
      "anonymous": false,
      "inputs": [
        {
          "indexed": true,
          "internalType": "address",
          "name": "sponsor",
          "type": "address"
        },
        {
          "indexed": true,
          "internalType": "address",
          "name": "user",
          "type": "address"
        },
        {
          "indexed": true,
          "internalType": "address",
          "name": "target",
          "type": "address"
        },
        {
          "indexed": false,
          "internalType": "address",
          "name": "feeToken",
          "type": "address"
        },
        {
          "indexed": false,
          "internalType": "uint256",
          "name": "fee",
          "type": "uint256"
        },
        {
          "indexed": false,
          "internalType": "bytes32",
          "name": "taskId",
          "type": "bytes32"
        }
      ],
      "name": "LogMetaTxRequestSyncGasTankFee",
      "type": "event"
    },
    {
      "anonymous": false,
      "inputs": [
        {
          "indexed": false,
          "internalType": "address",
          "name": "oldGasTank",
          "type": "address"
        },
        {
          "indexed": false,
          "internalType": "address",
          "name": "newGasTank",
          "type": "address"
        }
      ],
      "name": "LogSetGasTank",
      "type": "event"
    },
    {
      "anonymous": false,
      "inputs": [
        {
          "indexed": false,
          "internalType": "address",
          "name": "oldGasTankAdmin",
          "type": "address"
        },
        {
          "indexed": false,
          "internalType": "address",
          "name": "newGasTankAdmin",
          "type": "address"
        }
      ],
      "name": "LogSetGasTankAdmin",
      "type": "event"
    },
    {
      "anonymous": false,
      "inputs": [
        {
          "indexed": true,
          "internalType": "address",
          "name": "sponsor",
          "type": "address"
        },
        {
          "indexed": true,
          "internalType": "address",
          "name": "service",
          "type": "address"
        },
        {
          "indexed": true,
          "internalType": "address",
          "name": "feeToken",
          "type": "address"
        },
        {
          "indexed": false,
          "internalType": "uint256",
          "name": "sponsorChainId",
          "type": "uint256"
        },
        {
          "indexed": false,
          "internalType": "uint256",
          "name": "nativeToFeeTokenXRateNumerator",
          "type": "uint256"
        },
        {
          "indexed": false,
          "internalType": "uint256",
          "name": "nativeToFeeTokenXRateDenominator",
          "type": "uint256"
        }
      ],
      "name": "LogUseGelato1Balance",
      "type": "event"
    },
    {
      "inputs": [],
      "name": "EIP712_DOMAIN_TYPE",
      "outputs": [
        {
          "internalType": "string",
          "name": "",
          "type": "string"
        }
      ],
      "stateMutability": "view",
      "type": "function"
    },
    {
      "inputs": [],
      "name": "METATX_REQUEST_TYPEHASH",
      "outputs": [
        {
          "internalType": "bytes32",
          "name": "",
          "type": "bytes32"
        }
      ],
      "stateMutability": "view",
      "type": "function"
    },
    {
      "inputs": [],
      "name": "chainId",
      "outputs": [
        {
          "internalType": "uint256",
          "name": "",
          "type": "uint256"
        }
      ],
      "stateMutability": "view",
      "type": "function"
    },
    {
      "inputs": [],
      "name": "gasTank",
      "outputs": [
        {
          "internalType": "address",
          "name": "",
          "type": "address"
        }
      ],
      "stateMutability": "view",
      "type": "function"
    },
    {
      "inputs": [],
      "name": "gasTankAdmin",
      "outputs": [
        {
          "internalType": "address",
          "name": "",
          "type": "address"
        }
      ],
      "stateMutability": "view",
      "type": "function"
    },
    {
      "inputs": [],
      "name": "gelato",
      "outputs": [
        {
          "internalType": "address",
          "name": "",
          "type": "address"
        }
      ],
      "stateMutability": "view",
      "type": "function"
    },
    {
      "inputs": [],
      "name": "getDomainSeparator",
      "outputs": [
        {
          "internalType": "bytes32",
          "name": "",
          "type": "bytes32"
        }
      ],
      "stateMutability": "view",
      "type": "function"
    },
    {
      "inputs": [
        {
          "internalType": "address",
          "name": "_gasTankAdmin",
          "type": "address"
        }
      ],
      "name": "init",
      "outputs": [],
      "stateMutability": "nonpayable",
      "type": "function"
    },
    {
      "inputs": [
        {
          "components": [
            {
              "internalType": "uint256",
              "name": "chainId",
              "type": "uint256"
            },
            {
              "internalType": "address",
              "name": "target",
              "type": "address"
            },
            {
              "internalType": "bytes",
              "name": "data",
              "type": "bytes"
            },
            {
              "internalType": "address",
              "name": "feeToken",
              "type": "address"
            },
            {
              "internalType": "uint256",
              "name": "paymentType",
              "type": "uint256"
            },
            {
              "internalType": "uint256",
              "name": "maxFee",
              "type": "uint256"
            },
            {
              "internalType": "uint256",
              "name": "gas",
              "type": "uint256"
            },
            {
              "internalType": "address",
              "name": "user",
              "type": "address"
            },
            {
              "internalType": "address",
              "name": "sponsor",
              "type": "address"
            },
            {
              "internalType": "uint256",
              "name": "sponsorChainId",
              "type": "uint256"
            },
            {
              "internalType": "uint256",
              "name": "nonce",
              "type": "uint256"
            },
            {
              "internalType": "uint256",
              "name": "deadline",
              "type": "uint256"
            }
          ],
          "internalType": "struct MetaTxRequest",
          "name": "_req",
          "type": "tuple"
        },
        {
          "internalType": "bytes",
          "name": "_userSignature",
          "type": "bytes"
        },
        {
          "internalType": "bytes",
          "name": "_sponsorSignature",
          "type": "bytes"
        },
        {
          "internalType": "uint256",
          "name": "_gelatoFee",
          "type": "uint256"
        },
        {
          "internalType": "uint256",
          "name": "_nativeToFeeTokenXRateNumerator",
          "type": "uint256"
        },
        {
          "internalType": "uint256",
          "name": "_nativeToFeeTokenXRateDenominator",
          "type": "uint256"
        },
        {
          "internalType": "bytes32",
          "name": "_taskId",
          "type": "bytes32"
        }
      ],
      "name": "metaTxRequestGasTankFee",
      "outputs": [],
      "stateMutability": "nonpayable",
      "type": "function"
    },
    {
      "inputs": [
        {
          "internalType": "address",
          "name": "",
          "type": "address"
        }
      ],
      "name": "nonce",
      "outputs": [
        {
          "internalType": "uint256",
          "name": "",
          "type": "uint256"
        }
      ],
      "stateMutability": "view",
      "type": "function"
    },
    {
      "inputs": [
        {
          "internalType": "address",
          "name": "_gasTank",
          "type": "address"
        }
      ],
      "name": "setGasTank",
      "outputs": [],
      "stateMutability": "nonpayable",
      "type": "function"
    },
    {
      "inputs": [
        {
          "internalType": "address",
          "name": "_gasTankAdmin",
          "type": "address"
        }
      ],
      "name": "setGasTankAdmin",
      "outputs": [],
      "stateMutability": "nonpayable",
      "type": "function"
    }
  ],
  "transactionHash": "0xfc03e9fb6cb5a13713421c34f0a3129de721738a97fa05f4f5381033f631fc54",
  "args": [
    "0x25aD59adbe00C2d80c86d01e2E05e1294DA84823"
  ],
  "numDeployments": 2,
  "solcInputHash": "24891a73cc9f8e6000a4d150fa42948d",
  "bytecode": "0x60c060405234801561001057600080fd5b50604051611b7b380380611b7b83398101604081905261002f91610044565b6001600160a01b03166080524660a052610074565b60006020828403121561005657600080fd5b81516001600160a01b038116811461006d57600080fd5b9392505050565b60805160a051611abf6100bc600039600081816101cd0152818161074b0152818161089401528181610ecf0152610f7c015260008181610166015261078c0152611abf6000f3fe608060405234801561001057600080fd5b50600436106100d45760003560e01c80637be52e5911610081578063c3f28abd1161005b578063c3f28abd14610202578063ed24911d14610217578063fadb98731461021f57600080fd5b80637be52e59146101a85780639a8a0592146101c8578063ac4cae3a146101ef57600080fd5b806348271fa0116100b257806348271fa01461011c578063573ea5751461016157806370ae92d21461018857600080fd5b806319ab453c146100d95780633e40957d146100ee57806343e297b214610109575b600080fd5b6100ec6100e7366004611676565b610232565b005b6100f66103d2565b6040519081526020015b60405180910390f35b6100ec610117366004611676565b6103f6565b60035461013c9073ffffffffffffffffffffffffffffffffffffffff1681565b60405173ffffffffffffffffffffffffffffffffffffffff9091168152602001610100565b61013c7f000000000000000000000000000000000000000000000000000000000000000081565b6100f6610196366004611676565b60016020526000908152604090205481565b60025461013c9073ffffffffffffffffffffffffffffffffffffffff1681565b6100f67f000000000000000000000000000000000000000000000000000000000000000081565b6100ec6101fd366004611676565b61058f565b61020a610728565b60405161010091906116e3565b6100f6610744565b6100ec61022d366004611776565b610774565b600054610100900460ff1661024d5760005460ff1615610251565b303b155b6102e2576040517f08c379a000000000000000000000000000000000000000000000000000000000815260206004820152602e60248201527f496e697469616c697a61626c653a20636f6e747261637420697320616c72656160448201527f647920696e697469616c697a656400000000000000000000000000000000000060648201526084015b60405180910390fd5b600054610100900460ff1615801561032157600080547fffffffffffffffffffffffffffffffffffffffffffffffffffffffffffff0000166101011790555b600380547fffffffffffffffffffffffff00000000000000000000000000000000000000001673ffffffffffffffffffffffffffffffffffffffff8416908117909155604080516000815260208101929092527f7b4314d7a370be44c4e81707ded97705e0bd63e6bd46d7bbe386155e94436419910160405180910390a180156103ce57600080547fffffffffffffffffffffffffffffffffffffffffffffffffffffffffffff00ff1690555b5050565b60405180610100016040528060cb81526020016119bf60cb91398051906020012081565b60035473ffffffffffffffffffffffffffffffffffffffff163314610477576040517f08c379a000000000000000000000000000000000000000000000000000000000815260206004820152601d60248201527f4f6e6c792063616c6c61626c652062792067617354616e6b41646d696e00000060448201526064016102d9565b73ffffffffffffffffffffffffffffffffffffffff81166104f4576040517f08c379a000000000000000000000000000000000000000000000000000000000815260206004820152601760248201527f496e76616c69642067617354616e6b206164647265737300000000000000000060448201526064016102d9565b6002546040805173ffffffffffffffffffffffffffffffffffffffff928316815291831660208301527f646b74924371efeac02b8806e41f72490eaa858cf528e6f59768d6bbcea84fba910160405180910390a1600280547fffffffffffffffffffffffff00000000000000000000000000000000000000001673ffffffffffffffffffffffffffffffffffffffff92909216919091179055565b60035473ffffffffffffffffffffffffffffffffffffffff163314610610576040517f08c379a000000000000000000000000000000000000000000000000000000000815260206004820152601d60248201527f4f6e6c792063616c6c61626c652062792067617354616e6b41646d696e00000060448201526064016102d9565b73ffffffffffffffffffffffffffffffffffffffff811661068d576040517f08c379a000000000000000000000000000000000000000000000000000000000815260206004820152601c60248201527f496e76616c69642067617354616e6b41646d696e20616464726573730000000060448201526064016102d9565b6003546040805173ffffffffffffffffffffffffffffffffffffffff928316815291831660208301527f7b4314d7a370be44c4e81707ded97705e0bd63e6bd46d7bbe386155e94436419910160405180910390a1600380547fffffffffffffffffffffffff00000000000000000000000000000000000000001673ffffffffffffffffffffffffffffffffffffffff92909216919091179055565b60405180608001604052806052815260200161196d6052913981565b600061076f7f00000000000000000000000000000000000000000000000000000000000000006110e2565b905090565b3373ffffffffffffffffffffffffffffffffffffffff7f00000000000000000000000000000000000000000000000000000000000000001614610813576040517f08c379a000000000000000000000000000000000000000000000000000000000815260206004820152601760248201527f4f6e6c792063616c6c61626c652062792067656c61746f00000000000000000060448201526064016102d9565b610160890135158061082a57504289610160013510155b610890576040517f08c379a000000000000000000000000000000000000000000000000000000000815260206004820152600f60248201527f526571756573742065787069726564000000000000000000000000000000000060448201526064016102d9565b88357f00000000000000000000000000000000000000000000000000000000000000001461091a576040517f08c379a000000000000000000000000000000000000000000000000000000000815260206004820152600d60248201527f57726f6e6720636861696e49640000000000000000000000000000000000000060448201526064016102d9565b886080013560011480610931575088608001356002145b610997576040517f08c379a000000000000000000000000000000000000000000000000000000000815260206004820152601a60248201527f7061796d656e7454797065206d7573742062652031206f72203200000000000060448201526064016102d9565b8860a00135841115610a05576040517f08c379a000000000000000000000000000000000000000000000000000000000815260206004820152601560248201527f4578656375746f72206f7665722d63686172676564000000000000000000000060448201526064016102d9565b6000600181610a1b6101008d0160e08e01611676565b73ffffffffffffffffffffffffffffffffffffffff1673ffffffffffffffffffffffffffffffffffffffff168152602001908152602001600020549050808a610140013514610ac6576040517f08c379a000000000000000000000000000000000000000000000000000000000815260206004820152600d60248201527f496e76616c6964206e6f6e63650000000000000000000000000000000000000060448201526064016102d9565b610ad1816001611834565b60016000610ae66101008e0160e08f01611676565b73ffffffffffffffffffffffffffffffffffffffff168152602081019190915260400160002055610b298a8a8a610b24610100840160e08501611676565b6111e8565b610b3b6101208b016101008c01611676565b73ffffffffffffffffffffffffffffffffffffffff16610b626101008c0160e08d01611676565b73ffffffffffffffffffffffffffffffffffffffff1614610b9557610b958a8888610b2461012084016101008501611676565b60025473ffffffffffffffffffffffffffffffffffffffff16610bbe60408c0160208d01611676565b73ffffffffffffffffffffffffffffffffffffffff1603610c3b576040517f08c379a000000000000000000000000000000000000000000000000000000000815260206004820181905260248201527f74617267657420616464726573732063616e6e6f742062652067617354616e6b60448201526064016102d9565b610c6a610c4e60408c0160208d01611676565b73ffffffffffffffffffffffffffffffffffffffff163b151590565b610cd0576040517f08c379a000000000000000000000000000000000000000000000000000000000815260206004820152600f60248201527f43616e6e6f742063616c6c20454f41000000000000000000000000000000000060448201526064016102d9565b6000610ce260408c0160208d01611676565b73ffffffffffffffffffffffffffffffffffffffff1660c08c0135610d0a60408e018e611873565b8e60e0016020810190610d1d9190611676565b604051602001610d2f939291906118d8565b604080517fffffffffffffffffffffffffffffffffffffffffffffffffffffffffffffffe081840301815290829052610d6791611911565b60006040518083038160008787f1925050503d8060008114610da5576040519150601f19603f3d011682016040523d82523d6000602084013e610daa565b606091505b5050905080610e15576040517f08c379a000000000000000000000000000000000000000000000000000000000815260206004820152601460248201527f45787465726e616c2063616c6c206661696c656400000000000000000000000060448201526064016102d9565b8a60800135600103610ff657610e3160408c0160208d01611676565b73ffffffffffffffffffffffffffffffffffffffff16610e586101008d0160e08e01611676565b73ffffffffffffffffffffffffffffffffffffffff16610e806101208e016101008f01611676565b73ffffffffffffffffffffffffffffffffffffffff167f16242369046bb2c7332fc0c95dd99d425572accb515027a97630cadf2dfafb7c6101208f013515610ecd578e6101200135610eef565b7f00000000000000000000000000000000000000000000000000000000000000005b8f6060016020810190610f029190611676565b6040805192835273ffffffffffffffffffffffffffffffffffffffff909116602083015281018b90526060810188905260800160405180910390a4610f4d60808c0160608d01611676565b73ffffffffffffffffffffffffffffffffffffffff1630610f766101208e016101008f01611676565b604080517f00000000000000000000000000000000000000000000000000000000000000008152602081018a905290810188905273ffffffffffffffffffffffffffffffffffffffff91909116907f650ffd1260298f9776a28c58c2cffa095b1d4f723e5523e55015387c2f56c5619060600160405180910390a46110d5565b61100660408c0160208d01611676565b73ffffffffffffffffffffffffffffffffffffffff1661102d6101008d0160e08e01611676565b73ffffffffffffffffffffffffffffffffffffffff166110556101208e016101008f01611676565b73ffffffffffffffffffffffffffffffffffffffff167fa3f8da1c59eb950d4098996c44c53e9692e2c5d73cd186cb415376d31d5ba7c68e606001602081019061109f9190611676565b6040805173ffffffffffffffffffffffffffffffffffffffff9092168252602082018c9052810188905260600160405180910390a45b5050505050505050505050565b600060405180608001604052806052815260200161196d605291398051602091820120604080518082018252600d81527f47656c61746f4d657461426f78000000000000000000000000000000000000009084015280518082018252600281527f5631000000000000000000000000000000000000000000000000000000000000908401528051928301919091527f919f16ca789a3e2bbe70bbe2c4e0a9ff8affaab44711ff9ce735a3f4eef9b2d9908201527f4c23426613a5dc69e08fbd2787e6210aa679d4522e95a89d4dd88c4fd13a22836060820152608081018390523060a082015260c001604051602081830303815290604052805190602001209050919050565b60006111f485356110e2565b905060008161120287611365565b80516020918201206040516112499392017f190100000000000000000000000000000000000000000000000000000000000081526002810192909252602282015260420190565b6040516020818303038152906040528051906020012090506000806112a48388888080601f0160208091040260200160405190810160405280939291908181526020018383808284376000920191909152506114a892505050565b909250905060008160048111156112bd576112bd61192d565b1480156112f557508473ffffffffffffffffffffffffffffffffffffffff168273ffffffffffffffffffffffffffffffffffffffff16145b61135b576040517f08c379a000000000000000000000000000000000000000000000000000000000815260206004820152601160248201527f496e76616c6964207369676e617475726500000000000000000000000000000060448201526064016102d9565b5050505050505050565b606060405180610100016040528060cb81526020016119bf60cb913980516020918201209083359061139d9060408601908601611676565b6113aa6040860186611873565b6040516113b892919061195c565b6040519081900390206113d16080870160608801611676565b608087013560a088013560c08901356113f16101008b0160e08c01611676565b6114036101208c016101008d01611676565b60408051602081019b909b528a019890985273ffffffffffffffffffffffffffffffffffffffff96871660608a0152608089019590955292851660a088015260c087019190915260e08601526101008501528116610120848101919091529116610140838101919091529084013561016083810191909152908401356101808301528301356101a08201526101c0016040516020818303038152906040529050919050565b60008082516041036114de5760208301516040840151606085015160001a6114d287828585611516565b9450945050505061150f565b825160400361150757602083015160408401516114fc86838361162e565b93509350505061150f565b506000905060025b9250929050565b6000807f7fffffffffffffffffffffffffffffff5d576e7357a4501ddfe92f46681b20a083111561154d5750600090506003611625565b8460ff16601b1415801561156557508460ff16601c14155b156115765750600090506004611625565b6040805160008082526020820180845289905260ff881692820192909252606081018690526080810185905260019060a0016020604051602081039080840390855afa1580156115ca573d6000803e3d6000fd5b50506040517fffffffffffffffffffffffffffffffffffffffffffffffffffffffffffffffe0015191505073ffffffffffffffffffffffffffffffffffffffff811661161e57600060019250925050611625565b9150600090505b94509492505050565b6000807f7fffffffffffffffffffffffffffffffffffffffffffffffffffffffffffffff831660ff84901c601b0161166887828885611516565b935093505050935093915050565b60006020828403121561168857600080fd5b813573ffffffffffffffffffffffffffffffffffffffff811681146116ac57600080fd5b9392505050565b60005b838110156116ce5781810151838201526020016116b6565b838111156116dd576000848401525b50505050565b60208152600082518060208401526117028160408501602087016116b3565b601f017fffffffffffffffffffffffffffffffffffffffffffffffffffffffffffffffe0169190910160400192915050565b60008083601f84011261174657600080fd5b50813567ffffffffffffffff81111561175e57600080fd5b60208301915083602082850101111561150f57600080fd5b600080600080600080600080600060e08a8c03121561179457600080fd5b893567ffffffffffffffff808211156117ac57600080fd5b908b0190610180828e0312156117c157600080fd5b90995060208b013590808211156117d757600080fd5b6117e38d838e01611734565b909a50985060408c01359150808211156117fc57600080fd5b506118098c828d01611734565b9a9d999c50979a9799986060890135986080810135985060a0810135975060c0013595509350505050565b6000821982111561186e577f4e487b7100000000000000000000000000000000000000000000000000000000600052601160045260246000fd5b500190565b60008083357fffffffffffffffffffffffffffffffffffffffffffffffffffffffffffffffe18436030181126118a857600080fd5b83018035915067ffffffffffffffff8211156118c357600080fd5b60200191503681900382131561150f57600080fd5b8284823760609190911b7fffffffffffffffffffffffffffffffffffffffff000000000000000000000000169101908152601401919050565b600082516119238184602087016116b3565b9190910192915050565b7f4e487b7100000000000000000000000000000000000000000000000000000000600052602160045260246000fd5b818382376000910190815291905056fe454950373132446f6d61696e28737472696e67206e616d652c737472696e672076657273696f6e2c75696e7432353620636861696e49642c6164647265737320766572696679696e67436f6e7472616374294d6574615478526571756573742875696e7432353620636861696e49642c61646472657373207461726765742c627974657320646174612c6164647265737320666565546f6b656e2c75696e74323536207061796d656e74547970652c75696e74323536206d61784665652c75696e74323536206761732c6164647265737320757365722c616464726573732073706f6e736f722c75696e743235362073706f6e736f72436861696e49642c75696e74323536206e6f6e63652c75696e7432353620646561646c696e6529a2646970667358221220177fec68c04bde4b01018c542349c6125700d1dcd488706ee7398712050da73c64736f6c634300080d0033",
  "devdoc": {
    "details": "Maliciously crafted transaction payloads could wipe out any funds left here.",
    "kind": "dev",
    "methods": {
      "metaTxRequestGasTankFee((uint256,address,bytes,address,uint256,uint256,uint256,address,address,uint256,uint256,uint256),bytes,bytes,uint256,uint256,uint256,bytes32)": {
        "params": {
          "_gelatoFee": "Fee to be charged by Gelato relayer, denominated in _req.feeToken",
          "_req": "Relay request data",
          "_sponsorSignature": "EIP-712 compliant signature from _req.sponsor                          (can be same as _userSignature)",
          "_userSignature": "EIP-712 compliant signature from _req.user"
        }
      }
    },
    "title": "Gelato Meta Box contract",
    "version": 1
  },
  "userdoc": {
    "kind": "user",
    "methods": {
      "metaTxRequestGasTankFee((uint256,address,bytes,address,uint256,uint256,uint256,address,address,uint256,uint256,uint256),bytes,bytes,uint256,uint256,uint256,bytes32)": {
        "notice": "Relay request + async Gas Tank payment deductions (off-chain accounting)EOA that originates the tx, but does not necessarily pay the relayer"
      }
    },
    "notice": "This contract must NEVER hold funds!",
    "version": 1
  },
  "storageLayout": {
    "storage": [
      {
        "astId": 6,
        "contract": "contracts/GelatoMetaBox.sol:GelatoMetaBox",
        "label": "_initialized",
        "offset": 0,
        "slot": "0",
        "type": "t_bool"
      },
      {
        "astId": 9,
        "contract": "contracts/GelatoMetaBox.sol:GelatoMetaBox",
        "label": "_initializing",
        "offset": 1,
        "slot": "0",
        "type": "t_bool"
      },
      {
        "astId": 2470,
        "contract": "contracts/GelatoMetaBox.sol:GelatoMetaBox",
        "label": "nonce",
        "offset": 0,
        "slot": "1",
        "type": "t_mapping(t_address,t_uint256)"
      },
      {
        "astId": 2472,
        "contract": "contracts/GelatoMetaBox.sol:GelatoMetaBox",
        "label": "gasTank",
        "offset": 0,
        "slot": "2",
        "type": "t_address"
      },
      {
        "astId": 2474,
        "contract": "contracts/GelatoMetaBox.sol:GelatoMetaBox",
        "label": "gasTankAdmin",
        "offset": 0,
        "slot": "3",
        "type": "t_address"
      }
    ],
    "types": {
      "t_address": {
        "encoding": "inplace",
        "label": "address",
        "numberOfBytes": "20"
      },
      "t_bool": {
        "encoding": "inplace",
        "label": "bool",
        "numberOfBytes": "1"
      },
      "t_mapping(t_address,t_uint256)": {
        "encoding": "mapping",
        "key": "t_address",
        "label": "mapping(address => uint256)",
        "numberOfBytes": "32",
        "value": "t_uint256"
      },
      "t_uint256": {
        "encoding": "inplace",
        "label": "uint256",
        "numberOfBytes": "32"
      }
    }
  }
}