{
  "address": "0x98858E08d119b78A34176E7D2DDF65Ee85B58809",
  "abi": [
    {
      "inputs": [
        {
          "internalType": "address",
          "name": "_gelato",
          "type": "address"
        }
      ],
      "stateMutability": "nonpayable",
      "type": "constructor"
    },
    {
      "anonymous": false,
      "inputs": [
        {
          "indexed": false,
          "internalType": "uint8",
          "name": "version",
          "type": "uint8"
        }
      ],
      "name": "Initialized",
      "type": "event"
    },
    {
      "anonymous": false,
      "inputs": [
        {
          "indexed": true,
          "internalType": "address",
          "name": "target",
          "type": "address"
        },
        {
          "indexed": false,
          "internalType": "address",
          "name": "feeToken",
          "type": "address"
        },
        {
          "indexed": false,
          "internalType": "uint256",
          "name": "fee",
          "type": "uint256"
        },
        {
          "indexed": false,
          "internalType": "bytes32",
          "name": "taskId",
          "type": "bytes32"
        }
      ],
      "name": "LogForwardCallSyncFee",
      "type": "event"
    },
    {
      "anonymous": false,
      "inputs": [
        {
          "indexed": true,
          "internalType": "address",
          "name": "sponsor",
          "type": "address"
        },
        {
          "indexed": true,
          "internalType": "address",
          "name": "target",
          "type": "address"
        },
        {
          "indexed": false,
          "internalType": "uint256",
          "name": "sponsorChainId",
          "type": "uint256"
        },
        {
          "indexed": false,
          "internalType": "address",
          "name": "feeToken",
          "type": "address"
        },
        {
          "indexed": false,
          "internalType": "uint256",
          "name": "fee",
          "type": "uint256"
        },
        {
          "indexed": false,
          "internalType": "bytes32",
          "name": "taskId",
          "type": "bytes32"
        }
      ],
      "name": "LogForwardRequestAsyncGasTankFee",
      "type": "event"
    },
    {
      "anonymous": false,
      "inputs": [
        {
          "indexed": true,
          "internalType": "address",
          "name": "sponsor",
          "type": "address"
        },
        {
          "indexed": true,
          "internalType": "address",
          "name": "target",
          "type": "address"
        },
        {
          "indexed": false,
          "internalType": "address",
          "name": "feeToken",
          "type": "address"
        },
        {
          "indexed": false,
          "internalType": "uint256",
          "name": "fee",
          "type": "uint256"
        },
        {
          "indexed": false,
          "internalType": "bytes32",
          "name": "taskId",
          "type": "bytes32"
        }
      ],
      "name": "LogForwardRequestSyncGasTankFee",
      "type": "event"
    },
    {
      "anonymous": false,
      "inputs": [
        {
          "indexed": true,
          "internalType": "bytes32",
          "name": "taskId",
          "type": "bytes32"
        },
        {
          "indexed": true,
          "internalType": "address",
          "name": "user",
          "type": "address"
        }
      ],
      "name": "LogMetaTxRequestSyncGasTankFee",
      "type": "event"
    },
    {
      "anonymous": false,
      "inputs": [
        {
          "indexed": false,
          "internalType": "address",
          "name": "oldGasTank",
          "type": "address"
        },
        {
          "indexed": false,
          "internalType": "address",
          "name": "newGasTank",
          "type": "address"
        }
      ],
      "name": "LogSetGasTank",
      "type": "event"
    },
    {
      "anonymous": false,
      "inputs": [
        {
          "indexed": false,
          "internalType": "address",
          "name": "oldGasTankAdmin",
          "type": "address"
        },
        {
          "indexed": false,
          "internalType": "address",
          "name": "newGasTankAdmin",
          "type": "address"
        }
      ],
      "name": "LogSetGasTankAdmin",
      "type": "event"
    },
    {
      "anonymous": false,
      "inputs": [
        {
          "indexed": true,
          "internalType": "address",
          "name": "sponsor",
          "type": "address"
        },
        {
          "indexed": true,
          "internalType": "address",
          "name": "service",
          "type": "address"
        },
        {
          "indexed": true,
          "internalType": "address",
          "name": "feeToken",
          "type": "address"
        },
        {
          "indexed": false,
          "internalType": "address",
          "name": "user",
          "type": "address"
        },
        {
          "indexed": false,
          "internalType": "uint256",
          "name": "sponsorChainId",
          "type": "uint256"
        },
        {
          "indexed": false,
          "internalType": "uint256",
          "name": "nativeToFeeTokenXRateNumerator",
          "type": "uint256"
        },
        {
          "indexed": false,
          "internalType": "uint256",
          "name": "nativeToFeeTokenXRateDenominator",
          "type": "uint256"
        },
        {
          "indexed": false,
          "internalType": "bytes32",
          "name": "taskId",
          "type": "bytes32"
        }
      ],
      "name": "LogUseGelato1Balance",
      "type": "event"
    },
    {
      "inputs": [],
      "name": "EIP712_DOMAIN_TYPE",
      "outputs": [
        {
          "internalType": "string",
          "name": "",
          "type": "string"
        }
      ],
      "stateMutability": "view",
      "type": "function"
    },
    {
      "inputs": [],
      "name": "FORWARD_REQUEST_TYPEHASH",
      "outputs": [
        {
          "internalType": "bytes32",
          "name": "",
          "type": "bytes32"
        }
      ],
      "stateMutability": "view",
      "type": "function"
    },
    {
      "inputs": [],
      "name": "METATX_REQUEST_TYPEHASH",
      "outputs": [
        {
          "internalType": "bytes32",
          "name": "",
          "type": "bytes32"
        }
      ],
      "stateMutability": "view",
      "type": "function"
    },
    {
      "inputs": [],
      "name": "chainId",
      "outputs": [
        {
          "internalType": "uint256",
          "name": "",
          "type": "uint256"
        }
      ],
      "stateMutability": "view",
      "type": "function"
    },
    {
      "inputs": [
        {
          "internalType": "address",
          "name": "_target",
          "type": "address"
        },
        {
          "internalType": "bytes",
          "name": "_data",
          "type": "bytes"
        },
        {
          "internalType": "address",
          "name": "_feeToken",
          "type": "address"
        },
        {
          "internalType": "uint256",
          "name": "_gelatoFee",
          "type": "uint256"
        },
        {
          "internalType": "bytes32",
          "name": "_taskId",
          "type": "bytes32"
        }
      ],
      "name": "forwardCallSyncFee",
      "outputs": [],
      "stateMutability": "nonpayable",
      "type": "function"
    },
    {
      "inputs": [
        {
          "components": [
            {
              "internalType": "uint256",
              "name": "chainId",
              "type": "uint256"
            },
            {
              "internalType": "address",
              "name": "target",
              "type": "address"
            },
            {
              "internalType": "bytes",
              "name": "data",
              "type": "bytes"
            },
            {
              "internalType": "address",
              "name": "feeToken",
              "type": "address"
            },
            {
              "internalType": "uint256",
              "name": "paymentType",
              "type": "uint256"
            },
            {
              "internalType": "uint256",
              "name": "maxFee",
              "type": "uint256"
            },
            {
              "internalType": "address",
              "name": "sponsor",
              "type": "address"
            },
            {
              "internalType": "uint256",
              "name": "sponsorChainId",
              "type": "uint256"
            },
            {
              "internalType": "uint256",
              "name": "nonce",
              "type": "uint256"
            },
            {
              "internalType": "bool",
              "name": "enforceSponsorNonce",
              "type": "bool"
            },
            {
              "internalType": "bool",
              "name": "enforceSponsorNonceOrdering",
              "type": "bool"
            }
          ],
          "internalType": "struct ForwardRequest",
          "name": "_req",
          "type": "tuple"
        },
        {
          "internalType": "bytes",
          "name": "_sponsorSignature",
          "type": "bytes"
        },
        {
          "internalType": "uint256",
          "name": "_gelatoFee",
          "type": "uint256"
        },
        {
          "internalType": "uint256",
          "name": "_nativeToFeeTokenXRateNumerator",
          "type": "uint256"
        },
        {
          "internalType": "uint256",
          "name": "_nativeToFeeTokenXRateDenominator",
          "type": "uint256"
        },
        {
          "internalType": "bytes32",
          "name": "_taskId",
          "type": "bytes32"
        }
      ],
      "name": "forwardRequestGasTankFee",
      "outputs": [],
      "stateMutability": "nonpayable",
      "type": "function"
    },
    {
      "inputs": [],
      "name": "gasTank",
      "outputs": [
        {
          "internalType": "address",
          "name": "",
          "type": "address"
        }
      ],
      "stateMutability": "view",
      "type": "function"
    },
    {
      "inputs": [],
      "name": "gasTankAdmin",
      "outputs": [
        {
          "internalType": "address",
          "name": "",
          "type": "address"
        }
      ],
      "stateMutability": "view",
      "type": "function"
    },
    {
      "inputs": [],
      "name": "gelato",
      "outputs": [
        {
          "internalType": "address",
          "name": "",
          "type": "address"
        }
      ],
      "stateMutability": "view",
      "type": "function"
    },
    {
      "inputs": [],
      "name": "getDomainSeparator",
      "outputs": [
        {
          "internalType": "bytes32",
          "name": "",
          "type": "bytes32"
        }
      ],
      "stateMutability": "view",
      "type": "function"
    },
    {
      "inputs": [
        {
          "internalType": "address",
          "name": "_gasTankAdmin",
          "type": "address"
        }
      ],
      "name": "init",
      "outputs": [],
      "stateMutability": "nonpayable",
      "type": "function"
    },
    {
      "inputs": [
        {
          "internalType": "bytes32",
          "name": "",
          "type": "bytes32"
        }
      ],
      "name": "messageDelivered",
      "outputs": [
        {
          "internalType": "bool",
          "name": "",
          "type": "bool"
        }
      ],
      "stateMutability": "view",
      "type": "function"
    },
    {
      "inputs": [
        {
          "components": [
            {
              "internalType": "uint256",
              "name": "chainId",
              "type": "uint256"
            },
            {
              "internalType": "address",
              "name": "target",
              "type": "address"
            },
            {
              "internalType": "bytes",
              "name": "data",
              "type": "bytes"
            },
            {
              "internalType": "address",
              "name": "feeToken",
              "type": "address"
            },
            {
              "internalType": "uint256",
              "name": "paymentType",
              "type": "uint256"
            },
            {
              "internalType": "uint256",
              "name": "maxFee",
              "type": "uint256"
            },
            {
              "internalType": "address",
              "name": "user",
              "type": "address"
            },
            {
              "internalType": "address",
              "name": "sponsor",
              "type": "address"
            },
            {
              "internalType": "uint256",
              "name": "sponsorChainId",
              "type": "uint256"
            },
            {
              "internalType": "uint256",
              "name": "nonce",
              "type": "uint256"
            },
            {
              "internalType": "uint256",
              "name": "deadline",
              "type": "uint256"
            }
          ],
          "internalType": "struct MetaTxRequest",
          "name": "_req",
          "type": "tuple"
        },
        {
          "internalType": "bytes",
          "name": "_userSignature",
          "type": "bytes"
        },
        {
          "internalType": "bytes",
          "name": "_sponsorSignature",
          "type": "bytes"
        },
        {
          "internalType": "uint256",
          "name": "_gelatoFee",
          "type": "uint256"
        },
        {
          "internalType": "uint256",
          "name": "_nativeToFeeTokenXRateNumerator",
          "type": "uint256"
        },
        {
          "internalType": "uint256",
          "name": "_nativeToFeeTokenXRateDenominator",
          "type": "uint256"
        },
        {
          "internalType": "bytes32",
          "name": "_taskId",
          "type": "bytes32"
        }
      ],
      "name": "metaTxRequestGasTankFee",
      "outputs": [],
      "stateMutability": "nonpayable",
      "type": "function"
    },
    {
      "inputs": [
        {
          "internalType": "address",
          "name": "",
          "type": "address"
        }
      ],
      "name": "nonce",
      "outputs": [
        {
          "internalType": "uint256",
          "name": "",
          "type": "uint256"
        }
      ],
      "stateMutability": "view",
      "type": "function"
    },
    {
      "inputs": [
        {
          "internalType": "address",
          "name": "_gasTank",
          "type": "address"
        }
      ],
      "name": "setGasTank",
      "outputs": [],
      "stateMutability": "nonpayable",
      "type": "function"
    },
    {
      "inputs": [
        {
          "internalType": "address",
          "name": "_gasTankAdmin",
          "type": "address"
        }
      ],
      "name": "setGasTankAdmin",
      "outputs": [],
      "stateMutability": "nonpayable",
      "type": "function"
    }
  ],
  "transactionHash": "0x6713eecc80c488778795c7e015ca622fe8eff01512913188387f27713349254d",
  "args": [
    "0x25aD59adbe00C2d80c86d01e2E05e1294DA84823"
  ],
  "numDeployments": 1,
  "solcInputHash": "692a202332ac2c6260d88a677ac81f23",
  "bytecode": "0x60c06040523480156200001157600080fd5b506040516200322b3803806200322b83398101604081905262000034916200004a565b6001600160a01b03166080524660a0526200007c565b6000602082840312156200005d57600080fd5b81516001600160a01b03811681146200007557600080fd5b9392505050565b60805160a051613143620000e8600039600081816102470152818161072d01528181610d1801528181610e210152818161121d0152818161173b01526117f50152600081816101c5015281816106a201528181611115015281816118360152611ab301526131436000f3fe608060405234801561001057600080fd5b50600436106101005760003560e01c80638e80340b11610097578063c3f28abd11610066578063c3f28abd1461027c578063e57d130114610291578063ed24911d146102a4578063f37bf92e146102ac57600080fd5b80638e80340b14610227578063956309681461023a5780639a8a059214610242578063ac4cae3a1461026957600080fd5b806348271fa0116100d357806348271fa01461017b578063573ea575146101c057806370ae92d2146101e75780637be52e591461020757600080fd5b806319ab453c146101055780632329f9bb1461011a5780633e40957d1461015257806343e297b214610168575b600080fd5b610118610113366004612a9f565b6102bf565b005b61013d610128366004612abc565b60026020526000908152604090205460ff1681565b60405190151581526020015b60405180910390f35b61015a6104cd565b604051908152602001610149565b610118610176366004612a9f565b6104f1565b60045461019b9073ffffffffffffffffffffffffffffffffffffffff1681565b60405173ffffffffffffffffffffffffffffffffffffffff9091168152602001610149565b61019b7f000000000000000000000000000000000000000000000000000000000000000081565b61015a6101f5366004612a9f565b60016020526000908152604090205481565b60035461019b9073ffffffffffffffffffffffffffffffffffffffff1681565b610118610235366004612b30565b61068a565b61015a610f24565b61015a7f000000000000000000000000000000000000000000000000000000000000000081565b610118610277366004612a9f565b610f48565b6102846110e1565b6040516101499190612bec565b61011861029f366004612c3d565b6110fd565b61015a6117ee565b6101186102ba366004612cf2565b61181e565b600054610100900460ff16158080156102df5750600054600160ff909116105b806102f95750303b1580156102f9575060005460ff166001145b61038a576040517f08c379a000000000000000000000000000000000000000000000000000000000815260206004820152602e60248201527f496e697469616c697a61626c653a20636f6e747261637420697320616c72656160448201527f647920696e697469616c697a656400000000000000000000000000000000000060648201526084015b60405180910390fd5b600080547fffffffffffffffffffffffffffffffffffffffffffffffffffffffffffffff0016600117905580156103e857600080547fffffffffffffffffffffffffffffffffffffffffffffffffffffffffffff00ff166101001790555b600480547fffffffffffffffffffffffff00000000000000000000000000000000000000001673ffffffffffffffffffffffffffffffffffffffff8416908117909155604080516000815260208101929092527f7b4314d7a370be44c4e81707ded97705e0bd63e6bd46d7bbe386155e94436419910160405180910390a180156104c957600080547fffffffffffffffffffffffffffffffffffffffffffffffffffffffffffff00ff169055604051600181527f7f26b83ff96e1f2b6a682f133852f6798a09c465da95921460cefb38474024989060200160405180910390a15b5050565b60405180610100016040528060cb815260200161304360cb91398051906020012081565b60045473ffffffffffffffffffffffffffffffffffffffff163314610572576040517f08c379a000000000000000000000000000000000000000000000000000000000815260206004820152601d60248201527f4f6e6c792063616c6c61626c652062792067617354616e6b41646d696e0000006044820152606401610381565b73ffffffffffffffffffffffffffffffffffffffff81166105ef576040517f08c379a000000000000000000000000000000000000000000000000000000000815260206004820152601760248201527f496e76616c69642067617354616e6b20616464726573730000000000000000006044820152606401610381565b6003546040805173ffffffffffffffffffffffffffffffffffffffff928316815291831660208301527f646b74924371efeac02b8806e41f72490eaa858cf528e6f59768d6bbcea84fba910160405180910390a1600380547fffffffffffffffffffffffff00000000000000000000000000000000000000001673ffffffffffffffffffffffffffffffffffffffff92909216919091179055565b3373ffffffffffffffffffffffffffffffffffffffff7f00000000000000000000000000000000000000000000000000000000000000001614610729576040517f08c379a000000000000000000000000000000000000000000000000000000000815260206004820152601760248201527f4f6e6c792063616c6c61626c652062792067656c61746f0000000000000000006044820152606401610381565b86357f0000000000000000000000000000000000000000000000000000000000000000146107b3576040517f08c379a000000000000000000000000000000000000000000000000000000000815260206004820152600d60248201527f57726f6e6720636861696e4964000000000000000000000000000000000000006044820152606401610381565b8660800135600114806107ca575086608001356002145b610830576040517f08c379a000000000000000000000000000000000000000000000000000000000815260206004820152601a60248201527f7061796d656e7454797065206d7573742062652031206f7220320000000000006044820152606401610381565b8660a0013584111561089e576040517f08c379a000000000000000000000000000000000000000000000000000000000815260206004820152601c60248201527f47656c61746f206578656375746f72206f7665722d63686172676564000000006044820152606401610381565b6108b061014088016101208901612d7a565b15610ac4576108c761016088016101408901612d7a565b156109f457600160006108e060e08a0160c08b01612a9f565b73ffffffffffffffffffffffffffffffffffffffff1673ffffffffffffffffffffffffffffffffffffffff1681526020019081526020016000205487610100013514610988576040517f08c379a000000000000000000000000000000000000000000000000000000000815260206004820152600d60248201527f496e76616c6964206e6f6e6365000000000000000000000000000000000000006044820152606401610381565b6109986101008801356001612dc6565b600160006109ac60e08b0160c08c01612a9f565b73ffffffffffffffffffffffffffffffffffffffff1681526020810191909152604001600020556109ee8787876109e960e0840160c08501612a9f565b611bad565b50610adc565b6000610a0c8888886109e960e0840160c08501612a9f565b60008181526002602052604090205490915060ff1615610a88576040517f08c379a000000000000000000000000000000000000000000000000000000000815260206004820152601560248201527f5461736b20616c726561647920657865637574656400000000000000000000006044820152606401610381565b600090815260026020526040902080547fffffffffffffffffffffffffffffffffffffffffffffffffffffffffffffff00166001179055610adc565b610ada8787876109e960e0840160c08501612a9f565b505b60035473ffffffffffffffffffffffffffffffffffffffff16610b056040890160208a01612a9f565b73ffffffffffffffffffffffffffffffffffffffff1603610b82576040517f08c379a000000000000000000000000000000000000000000000000000000000815260206004820181905260248201527f74617267657420616464726573732063616e6e6f742062652067617354616e6b6044820152606401610381565b610bb1610b956040890160208a01612a9f565b73ffffffffffffffffffffffffffffffffffffffff163b151590565b610c17576040517f08c379a000000000000000000000000000000000000000000000000000000000815260206004820152600f60248201527f43616e6e6f742063616c6c20454f4100000000000000000000000000000000006044820152606401610381565b610c88610c276040890189612dde565b8080601f016020809104026020016040519081016040528093929190818152602001838380828437600092019190915250610c6c9250505060408a0160208b01612a9f565b73ffffffffffffffffffffffffffffffffffffffff1690611d2e565b508660800135600103610e6857610ca56040880160208901612a9f565b73ffffffffffffffffffffffffffffffffffffffff16610ccb60e0890160c08a01612a9f565b73ffffffffffffffffffffffffffffffffffffffff167f65896ccac284fcb1ee73c45d950853d73d66cd1c55f61ba945159377d140677360e08a013515610d16578960e00135610d38565b7f00000000000000000000000000000000000000000000000000000000000000005b610d4860808c0160608d01612a9f565b6040805192835273ffffffffffffffffffffffffffffffffffffffff909116602083015281018890526060810185905260800160405180910390a3610d936080880160608901612a9f565b73ffffffffffffffffffffffffffffffffffffffff1630610dba60e08a0160c08b01612a9f565b73ffffffffffffffffffffffffffffffffffffffff167f9ed647f9a908333fa389d7b2880faf2988ef96e52c88f6f3a91e73b81f9a9518610e0160e08c0160c08d01612a9f565b6040805173ffffffffffffffffffffffffffffffffffffffff90921682527f000000000000000000000000000000000000000000000000000000000000000060208301528101889052606081018790526080810186905260a00160405180910390a4610f1b565b610e786040880160208901612a9f565b73ffffffffffffffffffffffffffffffffffffffff16610e9e60e0890160c08a01612a9f565b73ffffffffffffffffffffffffffffffffffffffff167f143674915c965337534cbf757620018597dc069ea1fa7d79ef405cd9f1554eb1610ee560808b0160608c01612a9f565b6040805173ffffffffffffffffffffffffffffffffffffffff909216825260208201899052810185905260600160405180910390a35b50505050505050565b60405180610120016040528060e88152602001612f0960e891398051906020012081565b60045473ffffffffffffffffffffffffffffffffffffffff163314610fc9576040517f08c379a000000000000000000000000000000000000000000000000000000000815260206004820152601d60248201527f4f6e6c792063616c6c61626c652062792067617354616e6b41646d696e0000006044820152606401610381565b73ffffffffffffffffffffffffffffffffffffffff8116611046576040517f08c379a000000000000000000000000000000000000000000000000000000000815260206004820152601c60248201527f496e76616c69642067617354616e6b41646d696e2061646472657373000000006044820152606401610381565b6004546040805173ffffffffffffffffffffffffffffffffffffffff928316815291831660208301527f7b4314d7a370be44c4e81707ded97705e0bd63e6bd46d7bbe386155e94436419910160405180910390a1600480547fffffffffffffffffffffffff00000000000000000000000000000000000000001673ffffffffffffffffffffffffffffffffffffffff92909216919091179055565b604051806080016040528060528152602001612ff16052913981565b3373ffffffffffffffffffffffffffffffffffffffff7f0000000000000000000000000000000000000000000000000000000000000000161461119c576040517f08c379a000000000000000000000000000000000000000000000000000000000815260206004820152601760248201527f4f6e6c792063616c6c61626c652062792067656c61746f0000000000000000006044820152606401610381565b61014089013515806111b357504289610140013510155b611219576040517f08c379a000000000000000000000000000000000000000000000000000000000815260206004820152600f60248201527f52657175657374206578706972656400000000000000000000000000000000006044820152606401610381565b88357f0000000000000000000000000000000000000000000000000000000000000000146112a3576040517f08c379a000000000000000000000000000000000000000000000000000000000815260206004820152600d60248201527f57726f6e6720636861696e4964000000000000000000000000000000000000006044820152606401610381565b8860800135600114806112ba575088608001356002145b611320576040517f08c379a000000000000000000000000000000000000000000000000000000000815260206004820152601a60248201527f7061796d656e7454797065206d7573742062652031206f7220320000000000006044820152606401610381565b8860a0013584111561138e576040517f08c379a000000000000000000000000000000000000000000000000000000000815260206004820152601560248201527f4578656375746f72206f7665722d6368617267656400000000000000000000006044820152606401610381565b60006001816113a360e08d0160c08e01612a9f565b73ffffffffffffffffffffffffffffffffffffffff1673ffffffffffffffffffffffffffffffffffffffff168152602001908152602001600020549050808a61012001351461144e576040517f08c379a000000000000000000000000000000000000000000000000000000000815260206004820152600d60248201527f496e76616c6964206e6f6e6365000000000000000000000000000000000000006044820152606401610381565b611459816001612dc6565b6001600061146d60e08e0160c08f01612a9f565b73ffffffffffffffffffffffffffffffffffffffff1681526020810191909152604001600020556114af8a8a8a6114aa60e0840160c08501612a9f565b611d77565b6114c06101008b0160e08c01612a9f565b73ffffffffffffffffffffffffffffffffffffffff166114e660e08c0160c08d01612a9f565b73ffffffffffffffffffffffffffffffffffffffff1614611518576115188a88886114aa610100840160e08501612a9f565b60035473ffffffffffffffffffffffffffffffffffffffff1661154160408c0160208d01612a9f565b73ffffffffffffffffffffffffffffffffffffffff16036115be576040517f08c379a000000000000000000000000000000000000000000000000000000000815260206004820181905260248201527f74617267657420616464726573732063616e6e6f742062652067617354616e6b6044820152606401610381565b6115d1610b9560408c0160208d01612a9f565b611637576040517f08c379a000000000000000000000000000000000000000000000000000000000815260206004820152600f60248201527f43616e6e6f742063616c6c20454f4100000000000000000000000000000000006044820152606401610381565b61168c61164760408c018c612dde565b8080601f016020809104026020016040519081016040528093929190818152602001838380828437600092019190915250610c6c9250505060408d0160208e01612a9f565b508960800135600103611782576116a960808b0160608c01612a9f565b73ffffffffffffffffffffffffffffffffffffffff16306116d16101008d0160e08e01612a9f565b73ffffffffffffffffffffffffffffffffffffffff167f9ed647f9a908333fa389d7b2880faf2988ef96e52c88f6f3a91e73b81f9a95188d60c001602081019061171b9190612a9f565b6040805173ffffffffffffffffffffffffffffffffffffffff90921682527f000000000000000000000000000000000000000000000000000000000000000060208301528101899052606081018890526080810187905260a00160405180910390a46117e2565b89608001356002036117e25761179e60e08b0160c08c01612a9f565b73ffffffffffffffffffffffffffffffffffffffff16827f12dbf19c6538bb833b64d020ba1fb6a9ae0e6d495cb70b84eab4c00d2d2015d460405160405180910390a35b50505050505050505050565b60006118197f0000000000000000000000000000000000000000000000000000000000000000611ef4565b905090565b3373ffffffffffffffffffffffffffffffffffffffff7f000000000000000000000000000000000000000000000000000000000000000016146118bd576040517f08c379a000000000000000000000000000000000000000000000000000000000815260206004820152601760248201527f4f6e6c792063616c6c61626c652062792067656c61746f0000000000000000006044820152606401610381565b60006118c98430611ffa565b60035490915073ffffffffffffffffffffffffffffffffffffffff90811690881603611951576040517f08c379a000000000000000000000000000000000000000000000000000000000815260206004820181905260248201527f74617267657420616464726573732063616e6e6f742062652067617354616e6b6044820152606401610381565b73ffffffffffffffffffffffffffffffffffffffff87163b6119cf576040517f08c379a000000000000000000000000000000000000000000000000000000000815260206004820152600f60248201527f43616e6e6f742063616c6c20454f4100000000000000000000000000000000006044820152606401610381565b611a2686868080601f0160208091040260200160405190810160405280939291908181526020018383808284376000920191909152505073ffffffffffffffffffffffffffffffffffffffff8b1692915050611d2e565b506000611a338530611ffa565b90506000611a418383612e43565b905084811015611aad576040517f08c379a000000000000000000000000000000000000000000000000000000000815260206004820152601060248201527f496e73756666696369656e7420666565000000000000000000000000000000006044820152606401610381565b611b46867f000000000000000000000000000000000000000000000000000000000000000073ffffffffffffffffffffffffffffffffffffffff166312fde4b76040518163ffffffff1660e01b8152600401602060405180830381865afa158015611b1c573d6000803e3d6000fd5b505050506040513d601f19601f82011682018060405250810190611b409190612e5a565b836120df565b6040805173ffffffffffffffffffffffffffffffffffffffff888116825260208201849052918101869052908a16907f1618dc761784eda45de355d3b21a8e1b76070c7cebc7479971350f6ac0f55be59060600160405180910390a2505050505050505050565b600080611bba8635611ef4565b9050600081611bc888612143565b8051602091820120604051611c0f9392017f190100000000000000000000000000000000000000000000000000000000000081526002810192909252602282015260420190565b604051602081830303815290604052805190602001209050600080611c6a8389898080601f01602080910402602001604051908101604052809392919081815260200183838082843760009201919091525061228d92505050565b90925090506000816004811115611c8357611c83612e77565b148015611cbb57508573ffffffffffffffffffffffffffffffffffffffff168273ffffffffffffffffffffffffffffffffffffffff16145b611d21576040517f08c379a000000000000000000000000000000000000000000000000000000000815260206004820152601160248201527f496e76616c6964207369676e61747572650000000000000000000000000000006044820152606401610381565b5090979650505050505050565b6060611d7083836040518060400160405280601e81526020017f416464726573733a206c6f772d6c6576656c2063616c6c206661696c656400008152506122fb565b9392505050565b6000611d838535611ef4565b9050600081611d9187612312565b8051602091820120604051611dd89392017f190100000000000000000000000000000000000000000000000000000000000081526002810192909252602282015260420190565b604051602081830303815290604052805190602001209050600080611e338388888080601f01602080910402602001604051908101604052809392919081815260200183838082843760009201919091525061228d92505050565b90925090506000816004811115611e4c57611e4c612e77565b148015611e8457508473ffffffffffffffffffffffffffffffffffffffff168273ffffffffffffffffffffffffffffffffffffffff16145b611eea576040517f08c379a000000000000000000000000000000000000000000000000000000000815260206004820152601160248201527f496e76616c6964207369676e61747572650000000000000000000000000000006044820152606401610381565b5050505050505050565b6000604051806080016040528060528152602001612ff1605291398051602091820120604080518082018252600d81527f47656c61746f4d657461426f78000000000000000000000000000000000000009084015280518082018252600281527f5631000000000000000000000000000000000000000000000000000000000000908401528051928301919091527f919f16ca789a3e2bbe70bbe2c4e0a9ff8affaab44711ff9ce735a3f4eef9b2d9908201527f4c23426613a5dc69e08fbd2787e6210aa679d4522e95a89d4dd88c4fd13a22836060820152608081018390523060a082015260c001604051602081830303815290604052805190602001209050919050565b600073ffffffffffffffffffffffffffffffffffffffff831673eeeeeeeeeeeeeeeeeeeeeeeeeeeeeeeeeeeeeeee146120c2576040517f70a0823100000000000000000000000000000000000000000000000000000000815273ffffffffffffffffffffffffffffffffffffffff83811660048301528416906370a0823190602401602060405180830381865afa158015612099573d6000803e3d6000fd5b505050506040513d601f19601f820116820180604052508101906120bd9190612ea6565b611d70565b5073ffffffffffffffffffffffffffffffffffffffff1631919050565b806000036120ec57505050565b7fffffffffffffffffffffffff111111111111111111111111111111111111111273ffffffffffffffffffffffffffffffffffffffff841601612138576121338282612434565b505050565b61213383838361258e565b606060405180610120016040528060e88152602001612f0960e8913980516020918201209083359061217b9060408601908601612a9f565b6121886040860186612dde565b604051612196929190612ebf565b6040519081900390206121af6080870160608801612a9f565b608087013560a08801356121c960e08a0160c08b01612a9f565b60e08a01356101008b01356121e66101408d016101208e01612d7a565b6121f86101608e016101408f01612d7a565b60408051602081019d909d528c019a909a5273ffffffffffffffffffffffffffffffffffffffff98891660608c015260808b019790975294871660a08a015260c089019390935260e0880191909152909316610100860152610120850192909252610140840191909152151561016083015215156101808201526101a0015b6040516020818303038152906040529050919050565b60008082516041036122c35760208301516040840151606085015160001a6122b78782858561261b565b945094505050506122f4565b82516040036122ec57602083015160408401516122e1868383612733565b9350935050506122f4565b506000905060025b9250929050565b606061230a8484600085612785565b949350505050565b606060405180610100016040528060cb815260200161304360cb913980516020918201209083359061234a9060408601908601612a9f565b6123576040860186612dde565b604051612365929190612ebf565b60405190819003902061237e6080870160608801612a9f565b608087013560a088013561239860e08a0160c08b01612a9f565b6123a96101008b0160e08c01612a9f565b60408051602081019a909a5289019790975273ffffffffffffffffffffffffffffffffffffffff9586166060890152608088019490945291841660a087015260c086015260e08501528116610100848101919091529116610120838101919091529084013561014083810191909152908401356101608301528301356101808201526101a001612277565b8047101561249e576040517f08c379a000000000000000000000000000000000000000000000000000000000815260206004820152601d60248201527f416464726573733a20696e73756666696369656e742062616c616e63650000006044820152606401610381565b60008273ffffffffffffffffffffffffffffffffffffffff168260405160006040518083038185875af1925050503d80600081146124f8576040519150601f19603f3d011682016040523d82523d6000602084013e6124fd565b606091505b5050905080612133576040517f08c379a000000000000000000000000000000000000000000000000000000000815260206004820152603a60248201527f416464726573733a20756e61626c6520746f2073656e642076616c75652c207260448201527f6563697069656e74206d617920686176652072657665727465640000000000006064820152608401610381565b6040805173ffffffffffffffffffffffffffffffffffffffff8416602482015260448082018490528251808303909101815260649091019091526020810180517bffffffffffffffffffffffffffffffffffffffffffffffffffffffff167fa9059cbb0000000000000000000000000000000000000000000000000000000017905261213390849061291b565b6000807f7fffffffffffffffffffffffffffffff5d576e7357a4501ddfe92f46681b20a0831115612652575060009050600361272a565b8460ff16601b1415801561266a57508460ff16601c14155b1561267b575060009050600461272a565b6040805160008082526020820180845289905260ff881692820192909252606081018690526080810185905260019060a0016020604051602081039080840390855afa1580156126cf573d6000803e3d6000fd5b50506040517fffffffffffffffffffffffffffffffffffffffffffffffffffffffffffffffe0015191505073ffffffffffffffffffffffffffffffffffffffff81166127235760006001925092505061272a565b9150600090505b94509492505050565b6000807f7fffffffffffffffffffffffffffffffffffffffffffffffffffffffffffffff83168161276960ff86901c601b612dc6565b90506127778782888561261b565b935093505050935093915050565b606082471015612817576040517f08c379a000000000000000000000000000000000000000000000000000000000815260206004820152602660248201527f416464726573733a20696e73756666696369656e742062616c616e636520666f60448201527f722063616c6c00000000000000000000000000000000000000000000000000006064820152608401610381565b73ffffffffffffffffffffffffffffffffffffffff85163b612895576040517f08c379a000000000000000000000000000000000000000000000000000000000815260206004820152601d60248201527f416464726573733a2063616c6c20746f206e6f6e2d636f6e74726163740000006044820152606401610381565b6000808673ffffffffffffffffffffffffffffffffffffffff1685876040516128be9190612ecf565b60006040518083038185875af1925050503d80600081146128fb576040519150601f19603f3d011682016040523d82523d6000602084013e612900565b606091505b5091509150612910828286612a27565b979650505050505050565b600061297d826040518060400160405280602081526020017f5361666545524332303a206c6f772d6c6576656c2063616c6c206661696c65648152508573ffffffffffffffffffffffffffffffffffffffff166122fb9092919063ffffffff16565b805190915015612133578080602001905181019061299b9190612eeb565b612133576040517f08c379a000000000000000000000000000000000000000000000000000000000815260206004820152602a60248201527f5361666545524332303a204552433230206f7065726174696f6e20646964206e60448201527f6f742073756363656564000000000000000000000000000000000000000000006064820152608401610381565b60608315612a36575081611d70565b825115612a465782518084602001fd5b816040517f08c379a00000000000000000000000000000000000000000000000000000000081526004016103819190612bec565b73ffffffffffffffffffffffffffffffffffffffff81168114612a9c57600080fd5b50565b600060208284031215612ab157600080fd5b8135611d7081612a7a565b600060208284031215612ace57600080fd5b5035919050565b60006101608284031215612ae857600080fd5b50919050565b60008083601f840112612b0057600080fd5b50813567ffffffffffffffff811115612b1857600080fd5b6020830191508360208285010111156122f457600080fd5b600080600080600080600060c0888a031215612b4b57600080fd5b873567ffffffffffffffff80821115612b6357600080fd5b612b6f8b838c01612ad5565b985060208a0135915080821115612b8557600080fd5b50612b928a828b01612aee565b989b909a509798604081013598606082013598506080820135975060a09091013595509350505050565b60005b83811015612bd7578181015183820152602001612bbf565b83811115612be6576000848401525b50505050565b6020815260008251806020840152612c0b816040850160208701612bbc565b601f017fffffffffffffffffffffffffffffffffffffffffffffffffffffffffffffffe0169190910160400192915050565b600080600080600080600080600060e08a8c031215612c5b57600080fd5b893567ffffffffffffffff80821115612c7357600080fd5b612c7f8d838e01612ad5565b9a5060208c0135915080821115612c9557600080fd5b612ca18d838e01612aee565b909a50985060408c0135915080821115612cba57600080fd5b50612cc78c828d01612aee565b9a9d999c50979a9799986060890135986080810135985060a0810135975060c0013595509350505050565b60008060008060008060a08789031215612d0b57600080fd5b8635612d1681612a7a565b9550602087013567ffffffffffffffff811115612d3257600080fd5b612d3e89828a01612aee565b9096509450506040870135612d5281612a7a565b959894975092956060810135946080909101359350915050565b8015158114612a9c57600080fd5b600060208284031215612d8c57600080fd5b8135611d7081612d6c565b7f4e487b7100000000000000000000000000000000000000000000000000000000600052601160045260246000fd5b60008219821115612dd957612dd9612d97565b500190565b60008083357fffffffffffffffffffffffffffffffffffffffffffffffffffffffffffffffe1843603018112612e1357600080fd5b83018035915067ffffffffffffffff821115612e2e57600080fd5b6020019150368190038213156122f457600080fd5b600082821015612e5557612e55612d97565b500390565b600060208284031215612e6c57600080fd5b8151611d7081612a7a565b7f4e487b7100000000000000000000000000000000000000000000000000000000600052602160045260246000fd5b600060208284031215612eb857600080fd5b5051919050565b8183823760009101908152919050565b60008251612ee1818460208701612bbc565b9190910192915050565b600060208284031215612efd57600080fd5b8151611d7081612d6c56fe466f7277617264526571756573742875696e7432353620636861696e49642c61646472657373207461726765742c627974657320646174612c6164647265737320666565546f6b656e2c75696e74323536207061796d656e74547970652c75696e74323536206d61784665652c75696e74323536206761732c616464726573732073706f6e736f722c75696e743235362073706f6e736f72436861696e49642c75696e74323536206e6f6e63652c626f6f6c20656e666f72636553706f6e736f724e6f6e63652c626f6f6c20656e666f72636553706f6e736f724e6f6e63654f72646572696e6729454950373132446f6d61696e28737472696e67206e616d652c737472696e672076657273696f6e2c75696e7432353620636861696e49642c6164647265737320766572696679696e67436f6e7472616374294d6574615478526571756573742875696e7432353620636861696e49642c61646472657373207461726765742c627974657320646174612c6164647265737320666565546f6b656e2c75696e74323536207061796d656e74547970652c75696e74323536206d61784665652c75696e74323536206761732c6164647265737320757365722c616464726573732073706f6e736f722c75696e743235362073706f6e736f72436861696e49642c75696e74323536206e6f6e63652c75696e7432353620646561646c696e6529a2646970667358221220dfea4c9e828b1ee31a4f7085c39efb4ad1a58ddec9515157c7988d76cb8b33c964736f6c634300080f0033",
  "devdoc": {
    "details": "Maliciously crafted transaction payloads could wipe out any funds left here.",
    "kind": "dev",
    "methods": {
      "forwardCallSyncFee(address,bytes,address,uint256,bytes32)": {
        "params": {
          "_data": "Payload for call on _target",
          "_feeToken": "payment can be done in any whitelisted token",
          "_gelatoFee": "Fee to be charged, denominated in feeToken",
          "_target": "Target smart contract",
          "_taskId": "Unique task indentifier"
        }
      },
      "forwardRequestGasTankFee((uint256,address,bytes,address,uint256,uint256,address,uint256,uint256,bool,bool),bytes,uint256,uint256,uint256,bytes32)": {
        "params": {
          "_gelatoFee": "Fee to be charged by Gelato relayer, denominated in _req.feeToken",
          "_nativeToFeeTokenXRateNumerator": "Exchange rate numerator",
          "_req": "Relay request data",
          "_sponsorSignature": "EIP-712 compliant signature from _req.sponsor",
          "_taskId": "Unique task indentifier"
        }
      },
      "metaTxRequestGasTankFee((uint256,address,bytes,address,uint256,uint256,address,address,uint256,uint256,uint256),bytes,bytes,uint256,uint256,uint256,bytes32)": {
        "params": {
          "_gelatoFee": "Fee to be charged by Gelato relayer, denominated in _req.feeToken",
          "_req": "Relay request data",
          "_sponsorSignature": "EIP-712 compliant signature from _req.sponsor                          (can be same as _userSignature)",
          "_userSignature": "EIP-712 compliant signature from _req.user"
        }
      }
    },
    "title": "Gelato Meta Box contract",
    "version": 1
  },
  "userdoc": {
    "kind": "user",
    "methods": {
      "forwardCallSyncFee(address,bytes,address,uint256,bytes32)": {
        "notice": "Relay request + Sync Payment (target pays Gelato during call forward)"
      },
      "forwardRequestGasTankFee((uint256,address,bytes,address,uint256,uint256,address,uint256,uint256,bool,bool),bytes,uint256,uint256,uint256,bytes32)": {
        "notice": "Relay request + async Gas Tank payment deductions (off-chain accounting)Oracle value for exchange rate between native tokens and fee token"
      },
      "metaTxRequestGasTankFee((uint256,address,bytes,address,uint256,uint256,address,address,uint256,uint256,uint256),bytes,bytes,uint256,uint256,uint256,bytes32)": {
        "notice": "Relay request + async Gas Tank payment deductions (off-chain accounting)EOA that originates the tx, but does not necessarily pay the relayer"
      }
    },
    "notice": "This contract must NEVER hold funds!",
    "version": 1
  },
  "storageLayout": {
    "storage": [
      {
        "astId": 6,
        "contract": "contracts/GelatoRelay.sol:GelatoRelay",
        "label": "_initialized",
        "offset": 0,
        "slot": "0",
        "type": "t_uint8"
      },
      {
        "astId": 9,
        "contract": "contracts/GelatoRelay.sol:GelatoRelay",
        "label": "_initializing",
        "offset": 1,
        "slot": "0",
        "type": "t_bool"
      },
      {
        "astId": 2714,
        "contract": "contracts/GelatoRelay.sol:GelatoRelay",
        "label": "nonce",
        "offset": 0,
        "slot": "1",
        "type": "t_mapping(t_address,t_uint256)"
      },
      {
        "astId": 2718,
        "contract": "contracts/GelatoRelay.sol:GelatoRelay",
        "label": "messageDelivered",
        "offset": 0,
        "slot": "2",
        "type": "t_mapping(t_bytes32,t_bool)"
      },
      {
        "astId": 2720,
        "contract": "contracts/GelatoRelay.sol:GelatoRelay",
        "label": "gasTank",
        "offset": 0,
        "slot": "3",
        "type": "t_address"
      },
      {
        "astId": 2722,
        "contract": "contracts/GelatoRelay.sol:GelatoRelay",
        "label": "gasTankAdmin",
        "offset": 0,
        "slot": "4",
        "type": "t_address"
      }
    ],
    "types": {
      "t_address": {
        "encoding": "inplace",
        "label": "address",
        "numberOfBytes": "20"
      },
      "t_bool": {
        "encoding": "inplace",
        "label": "bool",
        "numberOfBytes": "1"
      },
      "t_bytes32": {
        "encoding": "inplace",
        "label": "bytes32",
        "numberOfBytes": "32"
      },
      "t_mapping(t_address,t_uint256)": {
        "encoding": "mapping",
        "key": "t_address",
        "label": "mapping(address => uint256)",
        "numberOfBytes": "32",
        "value": "t_uint256"
      },
      "t_mapping(t_bytes32,t_bool)": {
        "encoding": "mapping",
        "key": "t_bytes32",
        "label": "mapping(bytes32 => bool)",
        "numberOfBytes": "32",
        "value": "t_bool"
      },
      "t_uint256": {
        "encoding": "inplace",
        "label": "uint256",
        "numberOfBytes": "32"
      },
      "t_uint8": {
        "encoding": "inplace",
        "label": "uint8",
        "numberOfBytes": "1"
      }
    }
  }
}