{
  "address": "0x0feFFDF309E13D0B8Fe3568f9229e456518522f5",
  "abi": [
    {
      "inputs": [
        {
          "internalType": "address",
          "name": "_gelato",
          "type": "address"
        }
      ],
      "stateMutability": "nonpayable",
      "type": "constructor"
    },
    {
      "anonymous": false,
      "inputs": [
        {
          "indexed": true,
          "internalType": "address",
          "name": "target",
          "type": "address"
        },
        {
          "indexed": false,
          "internalType": "address",
          "name": "feeToken",
          "type": "address"
        },
        {
          "indexed": false,
          "internalType": "uint256",
          "name": "fee",
          "type": "uint256"
        },
        {
          "indexed": false,
          "internalType": "bytes32",
          "name": "taskId",
          "type": "bytes32"
        }
      ],
      "name": "LogCallWithSyncFee",
      "type": "event"
    },
    {
      "anonymous": false,
      "inputs": [
        {
          "indexed": true,
          "internalType": "address",
          "name": "target",
          "type": "address"
        },
        {
          "indexed": true,
          "internalType": "bytes32",
          "name": "correlationId",
          "type": "bytes32"
        }
      ],
      "name": "LogCallWithSyncFeeV2",
      "type": "event"
    },
    {
      "anonymous": false,
      "inputs": [
        {
          "indexed": true,
          "internalType": "address",
          "name": "sponsor",
          "type": "address"
        },
        {
          "indexed": true,
          "internalType": "address",
          "name": "target",
          "type": "address"
        },
        {
          "indexed": true,
          "internalType": "address",
          "name": "feeToken",
          "type": "address"
        },
        {
          "indexed": false,
          "internalType": "uint256",
          "name": "oneBalanceChainId",
          "type": "uint256"
        },
        {
          "indexed": false,
          "internalType": "uint256",
          "name": "nativeToFeeTokenXRateNumerator",
          "type": "uint256"
        },
        {
          "indexed": false,
          "internalType": "uint256",
          "name": "nativeToFeeTokenXRateDenominator",
          "type": "uint256"
        },
        {
          "indexed": false,
          "internalType": "bytes32",
          "name": "correlationId",
          "type": "bytes32"
        }
      ],
      "name": "LogUseGelato1Balance",
      "type": "event"
    },
    {
      "inputs": [
        {
          "internalType": "address",
          "name": "_target",
          "type": "address"
        },
        {
          "internalType": "bytes",
          "name": "_data",
          "type": "bytes"
        },
        {
          "internalType": "address",
          "name": "_feeToken",
          "type": "address"
        },
        {
          "internalType": "uint256",
          "name": "_fee",
          "type": "uint256"
        },
        {
          "internalType": "bytes32",
          "name": "_taskId",
          "type": "bytes32"
        }
      ],
      "name": "callWithSyncFee",
      "outputs": [],
      "stateMutability": "nonpayable",
      "type": "function"
    },
    {
      "inputs": [
        {
          "internalType": "address",
          "name": "_target",
          "type": "address"
        },
        {
          "internalType": "bytes",
          "name": "_data",
          "type": "bytes"
        },
        {
          "internalType": "bool",
          "name": "_isRelayContext",
          "type": "bool"
        },
        {
          "internalType": "bytes32",
          "name": "_correlationId",
          "type": "bytes32"
        }
      ],
      "name": "callWithSyncFeeV2",
      "outputs": [],
      "stateMutability": "nonpayable",
      "type": "function"
    },
    {
      "inputs": [],
      "name": "gelato",
      "outputs": [
        {
          "internalType": "address",
          "name": "",
          "type": "address"
        }
      ],
      "stateMutability": "view",
      "type": "function"
    },
    {
      "inputs": [
        {
          "components": [
            {
              "internalType": "uint256",
              "name": "chainId",
              "type": "uint256"
            },
            {
              "internalType": "address",
              "name": "target",
              "type": "address"
            },
            {
              "internalType": "bytes",
              "name": "data",
              "type": "bytes"
            }
          ],
          "internalType": "struct SponsoredCall",
          "name": "_call",
          "type": "tuple"
        },
        {
          "internalType": "address",
          "name": "_sponsor",
          "type": "address"
        },
        {
          "internalType": "address",
          "name": "_feeToken",
          "type": "address"
        },
        {
          "internalType": "uint256",
          "name": "_oneBalanceChainId",
          "type": "uint256"
        },
        {
          "internalType": "uint256",
          "name": "_nativeToFeeTokenXRateNumerator",
          "type": "uint256"
        },
        {
          "internalType": "uint256",
          "name": "_nativeToFeeTokenXRateDenominator",
          "type": "uint256"
        },
        {
          "internalType": "bytes32",
          "name": "_correlationId",
          "type": "bytes32"
        }
      ],
      "name": "sponsoredCall",
      "outputs": [],
      "stateMutability": "nonpayable",
      "type": "function"
    }
  ],
  "transactionHash": "0x7710249859609fc43d82e07b9fc709d44ddf26cbcc8d293b7461b88c8d359f66",
  "args": [
    "0x53889b861f6cd5F93A419296b540aAD0BedE41Bd"
  ],
  "numDeployments": 2,
  "solcInputHash": "42735abee81fff16b7d5bbf2a06a8146",
  "bytecode": "0x60a060405234801561001057600080fd5b506040516116c63803806116c683398101604081905261002f91610040565b6001600160a01b0316608052610070565b60006020828403121561005257600080fd5b81516001600160a01b038116811461006957600080fd5b9392505050565b60805161162861009e60003960008181607e0152818160f40152818161036c01526105d801526116286000f3fe608060405234801561001057600080fd5b506004361061004c5760003560e01c80630c44357d1461005157806327be3c2414610066578063573ea57514610079578063a2d53b5e146100c9575b600080fd5b61006461005f36600461110c565b6100dc565b005b61006461007436600461117a565b610354565b6100a07f000000000000000000000000000000000000000000000000000000000000000081565b60405173ffffffffffffffffffffffffffffffffffffffff909116815260200160405180910390f35b6100646100d7366004611202565b6105c0565b3373ffffffffffffffffffffffffffffffffffffffff7f00000000000000000000000000000000000000000000000000000000000000001614610180576040517f08c379a000000000000000000000000000000000000000000000000000000000815260206004820152601760248201527f4f6e6c792063616c6c61626c652062792067656c61746f00000000000000000060448201526064015b60405180910390fd5b6000806000841561020057367fffffffffffffffffffffffffffffffffffffffffffffffffffffffffffffffb8013560601c9150367fffffffffffffffffffffffffffffffffffffffffffffffffffffffffffffffcc013560601c92506101fd73ffffffffffffffffffffffffffffffffffffffff8416306107a6565b90505b84610275576102706102398888367fffffffffffffffffffffffffffffffffffffffffffffffffffffffffffffffec013560601c610890565b6040518060600160405280602181526020016115d26021913973ffffffffffffffffffffffffffffffffffffffff8b1691906108c0565b6102a8565b6102a861023988888587367fffffffffffffffffffffffffffffffffffffffffffffffffffffffffffffffe001356109ca565b508415610307576000816102d273ffffffffffffffffffffffffffffffffffffffff8616306107a6565b6102dc9190611279565b905080156103055761030573ffffffffffffffffffffffffffffffffffffffff851684836109ff565b505b604051849073ffffffffffffffffffffffffffffffffffffffff8a16907fd8cb76b2a24ef8154ad59a94b242b7237ecb805ebe9f7f5c16d14aebf0047f4990600090a35050505050505050565b3373ffffffffffffffffffffffffffffffffffffffff7f000000000000000000000000000000000000000000000000000000000000000016146103f3576040517f08c379a000000000000000000000000000000000000000000000000000000000815260206004820152601760248201527f4f6e6c792063616c6c61626c652062792067656c61746f0000000000000000006044820152606401610177565b86354614610482576040517f08c379a0000000000000000000000000000000000000000000000000000000008152602060048201526024808201527f47656c61746f52656c61794465762e73706f6e736f72656443616c6c3a63686160448201527f696e6964000000000000000000000000000000000000000000000000000000006064820152608401610177565b61052b61049260408901896112b3565b8080601f01602080910402602001604051908101604052809392919081815260200183838082843760009201919091525050604080518082018252601d81527f47656c61746f52656c61794465762e73706f6e736f72656443616c6c3a00000060208083019190915290935061050e9250908c01908c01611318565b73ffffffffffffffffffffffffffffffffffffffff1691906108c0565b5073ffffffffffffffffffffffffffffffffffffffff85166105536040890160208a01611318565b60408051878152602081018790529081018590526060810184905273ffffffffffffffffffffffffffffffffffffffff918216918916907f116bfd46451bbd23e7a5f5b7420b28e3d98d4c477f173da513aaaeac3c4baada9060800160405180910390a450505050505050565b3373ffffffffffffffffffffffffffffffffffffffff7f0000000000000000000000000000000000000000000000000000000000000000161461065f576040517f08c379a000000000000000000000000000000000000000000000000000000000815260206004820152601760248201527f4f6e6c792063616c6c61626c652062792067656c61746f0000000000000000006044820152606401610177565b600061068173ffffffffffffffffffffffffffffffffffffffff8516306107a6565b90506106e56106938787338888610a4a565b60408051808201909152601f81527f47656c61746f52656c61794465762e63616c6c5769746853796e634665653a00602082015273ffffffffffffffffffffffffffffffffffffffff8a1691906108c0565b50600061070873ffffffffffffffffffffffffffffffffffffffff8616306107a6565b905060006107168383611279565b9050801561073f5761073f73ffffffffffffffffffffffffffffffffffffffff871633836109ff565b6040805173ffffffffffffffffffffffffffffffffffffffff888116825260208201889052918101869052908a16907f2ebf5825cbf63a0d0bd018d3d8547867630cd139f87864652d984d57da4edb559060600160405180910390a2505050505050505050565b600073ffffffffffffffffffffffffffffffffffffffff831673eeeeeeeeeeeeeeeeeeeeeeeeeeeeeeeeeeeeeeee1461086e576040517f70a0823100000000000000000000000000000000000000000000000000000000815273ffffffffffffffffffffffffffffffffffffffff83811660048301528416906370a0823190602401602060405180830381865afa158015610845573d6000803e3d6000fd5b505050506040513d601f19601f820116820180604052508101906108699190611333565b610887565b8173ffffffffffffffffffffffffffffffffffffffff16315b90505b92915050565b60608383836040516020016108a79392919061134c565b60405160208183030381529060405290505b9392505050565b606060008473ffffffffffffffffffffffffffffffffffffffff16846040516108e991906113a9565b6000604051808303816000865af19150503d8060008114610926576040519150601f19603f3d011682016040523d82523d6000602084013e61092b565b606091505b509250905080156109b85781516000036109b35773ffffffffffffffffffffffffffffffffffffffff85163b15158360405160200161096a91906113c5565b604051602081830303815290604052906109b1576040517f08c379a00000000000000000000000000000000000000000000000000000000081526004016101779190611406565b505b6109c2565b6109c28284610a9a565b509392505050565b606085858585856040516020016109e5959493929190611457565b604051602081830303815290604052905095945050505050565b73ffffffffffffffffffffffffffffffffffffffff831673eeeeeeeeeeeeeeeeeeeeeeeeeeeeeeeeeeeeeeee14610a4057610a3b838383610b96565b505050565b610a3b8282610c23565b6040805173ffffffffffffffffffffffffffffffffffffffff8581166020830152841681830152606080820184905282518083038201815260808301909352916109e5918891889160a0016114a1565b60208251610aa891906114c8565b600403610b855760208201517fffffffff0000000000000000000000000000000000000000000000000000000081167f08c379a00000000000000000000000000000000000000000000000000000000003610b74576044830192508183604051602001610b16929190611503565b604080517fffffffffffffffffffffffffffffffffffffffffffffffffffffffffffffffe0818403018152908290527f08c379a000000000000000000000000000000000000000000000000000000000825261017791600401611406565b81604051602001610b169190611532565b80604051602001610b169190611573565b6040805173ffffffffffffffffffffffffffffffffffffffff8416602482015260448082018490528251808303909101815260649091019091526020810180517bffffffffffffffffffffffffffffffffffffffffffffffffffffffff167fa9059cbb00000000000000000000000000000000000000000000000000000000179052610a3b908490610d7d565b80471015610c8d576040517f08c379a000000000000000000000000000000000000000000000000000000000815260206004820152601d60248201527f416464726573733a20696e73756666696369656e742062616c616e63650000006044820152606401610177565b60008273ffffffffffffffffffffffffffffffffffffffff168260405160006040518083038185875af1925050503d8060008114610ce7576040519150601f19603f3d011682016040523d82523d6000602084013e610cec565b606091505b5050905080610a3b576040517f08c379a000000000000000000000000000000000000000000000000000000000815260206004820152603a60248201527f416464726573733a20756e61626c6520746f2073656e642076616c75652c207260448201527f6563697069656e74206d617920686176652072657665727465640000000000006064820152608401610177565b6000610ddf826040518060400160405280602081526020017f5361666545524332303a206c6f772d6c6576656c2063616c6c206661696c65648152508573ffffffffffffffffffffffffffffffffffffffff16610e899092919063ffffffff16565b805190915015610a3b5780806020019051810190610dfd91906115b4565b610a3b576040517f08c379a000000000000000000000000000000000000000000000000000000000815260206004820152602a60248201527f5361666545524332303a204552433230206f7065726174696f6e20646964206e60448201527f6f742073756363656564000000000000000000000000000000000000000000006064820152608401610177565b6060610e988484600085610ea0565b949350505050565b606082471015610f32576040517f08c379a000000000000000000000000000000000000000000000000000000000815260206004820152602660248201527f416464726573733a20696e73756666696369656e742062616c616e636520666f60448201527f722063616c6c00000000000000000000000000000000000000000000000000006064820152608401610177565b73ffffffffffffffffffffffffffffffffffffffff85163b610fb0576040517f08c379a000000000000000000000000000000000000000000000000000000000815260206004820152601d60248201527f416464726573733a2063616c6c20746f206e6f6e2d636f6e74726163740000006044820152606401610177565b6000808673ffffffffffffffffffffffffffffffffffffffff168587604051610fd991906113a9565b60006040518083038185875af1925050503d8060008114611016576040519150601f19603f3d011682016040523d82523d6000602084013e61101b565b606091505b509150915061102b828286611036565b979650505050505050565b606083156110455750816108b9565b8251156110555782518084602001fd5b816040517f08c379a00000000000000000000000000000000000000000000000000000000081526004016101779190611406565b803573ffffffffffffffffffffffffffffffffffffffff811681146110ad57600080fd5b919050565b60008083601f8401126110c457600080fd5b50813567ffffffffffffffff8111156110dc57600080fd5b6020830191508360208285010111156110f457600080fd5b9250929050565b801515811461110957600080fd5b50565b60008060008060006080868803121561112457600080fd5b61112d86611089565b9450602086013567ffffffffffffffff81111561114957600080fd5b611155888289016110b2565b9095509350506040860135611169816110fb565b949793965091946060013592915050565b600080600080600080600060e0888a03121561119557600080fd5b873567ffffffffffffffff8111156111ac57600080fd5b88016060818b0312156111be57600080fd5b96506111cc60208901611089565b95506111da60408901611089565b969995985095966060810135965060808101359560a0820135955060c0909101359350915050565b60008060008060008060a0878903121561121b57600080fd5b61122487611089565b9550602087013567ffffffffffffffff81111561124057600080fd5b61124c89828a016110b2565b909650945061125f905060408801611089565b925060608701359150608087013590509295509295509295565b8181038181111561088a577f4e487b7100000000000000000000000000000000000000000000000000000000600052601160045260246000fd5b60008083357fffffffffffffffffffffffffffffffffffffffffffffffffffffffffffffffe18436030181126112e857600080fd5b83018035915067ffffffffffffffff82111561130357600080fd5b6020019150368190038213156110f457600080fd5b60006020828403121561132a57600080fd5b61088782611089565b60006020828403121561134557600080fd5b5051919050565b8284823760609190911b7fffffffffffffffffffffffffffffffffffffffff000000000000000000000000169101908152601401919050565b60005b838110156113a0578181015183820152602001611388565b50506000910152565b600082516113bb818460208701611385565b9190910192915050565b600082516113d7818460208701611385565b7f43616c6c20746f206e6f6e20636f6e7472616374000000000000000000000000920191825250601401919050565b6020815260008251806020840152611425816040850160208701611385565b601f017fffffffffffffffffffffffffffffffffffffffffffffffffffffffffffffffe0169190910160400192915050565b848682377fffffffffffffffffffffffffffffffffffffffff000000000000000000000000606094851b8116959091019485529190921b1660148301526028820152604801919050565b8284823760008382016000815283516114be818360208801611385565b0195945050505050565b6000826114fe577f4e487b7100000000000000000000000000000000000000000000000000000000600052601260045260246000fd5b500690565b60008351611515818460208801611385565b835190830190611529818360208801611385565b01949350505050565b60008251611544818460208701611385565b7f4e6f4572726f7253656c6563746f720000000000000000000000000000000000920191825250600f01919050565b60008251611585818460208701611385565b7f556e657870656374656452657475726e64617461000000000000000000000000920191825250601401919050565b6000602082840312156115c657600080fd5b81516108b9816110fb56fe47656c61746f52656c61794465762e63616c6c5769746853796e6346656556323aa2646970667358221220fe5059c30e63a318ced833e786c9e6e06c37d7c0a663aaa637a2fbe39af9c0fe64736f6c63430008110033",
  "devdoc": {
    "details": "This contract must NEVER hold funds!Maliciously crafted transaction payloads could wipe out any funds left here",
    "kind": "dev",
    "methods": {
      "callWithSyncFee(address,bytes,address,uint256,bytes32)": {
        "details": "Previous version kept for backward compatibility"
      },
      "callWithSyncFeeV2(address,bytes,bool,bytes32)": {
        "details": "This is the most straightforward use case, and `transfer` handles token payments.",
        "params": {
          "_correlationId": "Unique task identifier generated by gelato",
          "_data": "Payload for call on _target",
          "_isRelayContext": "true: all relay context encoding, false: only feeCollector encoding",
          "_target": "Target smart contract"
        }
      },
      "sponsoredCall((uint256,address,bytes),address,address,uint256,uint256,uint256,bytes32)": {
        "details": "Payment is handled with off-chain accounting using Gelato's 1Balance system",
        "params": {
          "_call": "Relay call data packed into SponsoredCall struct",
          "_correlationId": "Unique task identifier generated by gelato",
          "_nativeToFeeTokenXRateDenominator": "Exchange rate denominator",
          "_nativeToFeeTokenXRateNumerator": "Exchange rate numerator"
        }
      }
    },
    "title": "Gelato Relay contract",
    "version": 1
  },
  "userdoc": {
    "kind": "user",
    "methods": {
      "callWithSyncFeeV2(address,bytes,bool,bytes32)": {
        "notice": "Relay call with Synchronous PaymentThe target contract pays Gelato during the call forward"
      },
      "sponsoredCall((uint256,address,bytes),address,address,uint256,uint256,uint256,bytes32)": {
        "notice": "Relay call + One Balance payment - with sponsor authenticationOracle value for exchange rate between native tokens and fee token"
      }
    },
    "notice": "This contract deals with synchronous payments and Gelato 1Balance payments",
    "version": 1
  },
  "storageLayout": {
    "storage": [],
    "types": null
  }
}