{
  "address": "0xd8253782c45a12053594b9deB72d8e8aB2Fca54c",
  "abi": [
    {
      "inputs": [
        {
          "internalType": "address",
          "name": "_gelato",
          "type": "address"
        }
      ],
      "stateMutability": "nonpayable",
      "type": "constructor"
    },
    {
      "anonymous": false,
      "inputs": [
        {
          "indexed": true,
          "internalType": "address",
          "name": "sponsor",
          "type": "address"
        },
        {
          "indexed": true,
          "internalType": "address",
          "name": "target",
          "type": "address"
        },
        {
          "indexed": true,
          "internalType": "address",
          "name": "feeToken",
          "type": "address"
        },
        {
          "indexed": false,
          "internalType": "uint256",
          "name": "oneBalanceChainId",
          "type": "uint256"
        },
        {
          "indexed": false,
          "internalType": "uint256",
          "name": "nativeToFeeTokenXRateNumerator",
          "type": "uint256"
        },
        {
          "indexed": false,
          "internalType": "uint256",
          "name": "nativeToFeeTokenXRateDenominator",
          "type": "uint256"
        },
        {
          "indexed": false,
          "internalType": "bytes32",
          "name": "correlationId",
          "type": "bytes32"
        }
      ],
      "name": "LogUseGelato1Balance",
      "type": "event"
    },
    {
      "inputs": [],
      "name": "DOMAIN_SEPARATOR",
      "outputs": [
        {
          "internalType": "bytes32",
          "name": "",
          "type": "bytes32"
        }
      ],
      "stateMutability": "view",
      "type": "function"
    },
    {
      "inputs": [],
      "name": "SPONSORED_CALL_ERC2771_TYPEHASH",
      "outputs": [
        {
          "internalType": "bytes32",
          "name": "",
          "type": "bytes32"
        }
      ],
      "stateMutability": "view",
      "type": "function"
    },
    {
      "inputs": [],
      "name": "gelato",
      "outputs": [
        {
          "internalType": "address",
          "name": "",
          "type": "address"
        }
      ],
      "stateMutability": "view",
      "type": "function"
    },
    {
      "inputs": [],
      "name": "name",
      "outputs": [
        {
          "internalType": "string",
          "name": "",
          "type": "string"
        }
      ],
      "stateMutability": "view",
      "type": "function"
    },
    {
      "inputs": [
        {
          "components": [
            {
              "internalType": "uint256",
              "name": "chainId",
              "type": "uint256"
            },
            {
              "internalType": "address",
              "name": "target",
              "type": "address"
            },
            {
              "internalType": "bytes",
              "name": "data",
              "type": "bytes"
            },
            {
              "internalType": "address",
              "name": "user",
              "type": "address"
            },
            {
              "internalType": "uint256",
              "name": "userNonce",
              "type": "uint256"
            },
            {
              "internalType": "uint256",
              "name": "userDeadline",
              "type": "uint256"
            }
          ],
          "internalType": "struct CallWithERC2771",
          "name": "_call",
          "type": "tuple"
        },
        {
          "internalType": "address",
          "name": "_sponsor",
          "type": "address"
        },
        {
          "internalType": "address",
          "name": "_feeToken",
          "type": "address"
        },
        {
          "internalType": "uint256",
          "name": "_oneBalanceChainId",
          "type": "uint256"
        },
        {
          "internalType": "bytes",
          "name": "_userSignature",
          "type": "bytes"
        },
        {
          "internalType": "uint256",
          "name": "_nativeToFeeTokenXRateNumerator",
          "type": "uint256"
        },
        {
          "internalType": "uint256",
          "name": "_nativeToFeeTokenXRateDenominator",
          "type": "uint256"
        },
        {
          "internalType": "bytes32",
          "name": "_correlationId",
          "type": "bytes32"
        }
      ],
      "name": "sponsoredCallERC2771",
      "outputs": [],
      "stateMutability": "nonpayable",
      "type": "function"
    },
    {
      "inputs": [
        {
          "internalType": "address",
          "name": "",
          "type": "address"
        }
      ],
      "name": "userNonce",
      "outputs": [
        {
          "internalType": "uint256",
          "name": "",
          "type": "uint256"
        }
      ],
      "stateMutability": "view",
      "type": "function"
    },
    {
      "inputs": [],
      "name": "version",
      "outputs": [
        {
          "internalType": "string",
          "name": "",
          "type": "string"
        }
      ],
      "stateMutability": "view",
      "type": "function"
    }
  ],
  "transactionHash": "0x67f6c19124180ea52ef8fa93ce6bd15843e1da68bd19ef25286cf770b3b0ca96",
  "args": [
    "0x25aD59adbe00C2d80c86d01e2E05e1294DA84823"
  ],
  "numDeployments": 1,
  "solcInputHash": "5998a4daac8bd316619453c51881b88e",
  "bytecode": "0x60a060405234801561001057600080fd5b5060405161134938038061134983398101604081905261002f91610040565b6001600160a01b0316608052610070565b60006020828403121561005257600080fd5b81516001600160a01b038116811461006957600080fd5b9392505050565b6080516112b76100926000396000818161016801526101f901526112b76000f3fe608060405234801561001057600080fd5b506004361061007d5760003560e01c80633644e5151161005b5780633644e5151461010a578063415e51181461011257806354fd4d5014610127578063573ea5751461016357600080fd5b806306fdde031461008257806313523610146100d45780632e04b8e7146100ea575b600080fd5b6100be6040518060400160405280601a81526020017f47656c61746f52656c61793142616c616e63654552433237373100000000000081525081565b6040516100cb9190610daa565b60405180910390f35b6100dc6101af565b6040519081526020016100cb565b6100dc6100f8366004610e24565b60006020819052908152604090205481565b6100dc6101d2565b610125610120366004610e46565b6101e1565b005b6100be6040518060400160405280600181526020017f310000000000000000000000000000000000000000000000000000000000000081525081565b61018a7f000000000000000000000000000000000000000000000000000000000000000081565b60405173ffffffffffffffffffffffffffffffffffffffff90911681526020016100cb565b6040518060a001604052806073815260200161120f607391398051906020012081565b60006101dc6104c0565b905090565b3373ffffffffffffffffffffffffffffffffffffffff7f00000000000000000000000000000000000000000000000000000000000000001614610285576040517f08c379a000000000000000000000000000000000000000000000000000000000815260206004820152601760248201527f4f6e6c792063616c6c61626c652062792067656c61746f00000000000000000060448201526064015b60405180910390fd5b6102ab896000013560405180606001604052806030815260200161118d603091396105c3565b600080806102bf60808d0160608e01610e24565b73ffffffffffffffffffffffffffffffffffffffff1673ffffffffffffffffffffffffffffffffffffffff1681526020019081526020016000205490506103288a60800135828c60a0013560405180606001604052806030815260200161118d6030913961064b565b60006103326104c0565b9050610350818c898961034b6080840160608501610e24565b61075a565b5061035c826001610f2c565b6000808d60600160208101906103729190610e24565b73ffffffffffffffffffffffffffffffffffffffff1673ffffffffffffffffffffffffffffffffffffffff168152602001908152602001600020819055506104276103de8c80604001906103c69190610f66565b8e60600160208101906103d99190610e24565b610917565b60405180606001604052806030815260200161118d603091398d602001602081019061040a9190610e24565b73ffffffffffffffffffffffffffffffffffffffff169190610946565b5073ffffffffffffffffffffffffffffffffffffffff891661044f60408d0160208e01610e24565b604080518b8152602081018990529081018790526060810186905273ffffffffffffffffffffffffffffffffffffffff918216918d16907f116bfd46451bbd23e7a5f5b7420b28e3d98d4c477f173da513aaaeac3c4baada9060800160405180910390a45050505050505050505050565b60006040518060800160405280605281526020016111bd605291398051602091820120604080518082018252601a81527f47656c61746f52656c61793142616c616e6365455243323737310000000000009084015280518082018252600181527f3100000000000000000000000000000000000000000000000000000000000000908401528051928301919091527f8fb3af50ca9fa3ebf1283ffaaf784d85b12109334204371317ec6527a3812a23908201527fc89efdaa54c0f20c7adf612882df0950f5a951637e0307cdcb4c672f298b8bc660608201524660808201523060a082015260c00160405160208183030381529060405280519060200120905090565b46821461060e6040518060400160405280600781526020017f636861696e69640000000000000000000000000000000000000000000000000081525083610a5090919063ffffffff16565b90610646576040517f08c379a000000000000000000000000000000000000000000000000000000000815260040161027c9190610daa565b505050565b8284146106966040518060400160405280600581526020017f6e6f6e636500000000000000000000000000000000000000000000000000000081525083610a5090919063ffffffff16565b906106ce576040517f08c379a000000000000000000000000000000000000000000000000000000000815260040161027c9190610daa565b508115806106dc5750428210155b60408051808201909152600881527f646561646c696e65000000000000000000000000000000000000000000000000602082015261071b908390610a50565b90610753576040517f08c379a000000000000000000000000000000000000000000000000000000000815260040161027c9190610daa565b5050505050565b60008561076686610a7d565b80516020918201206040516107ad9392017f190100000000000000000000000000000000000000000000000000000000000081526002810192909252602282015260420190565b6040516020818303038152906040528051906020012090506000806108088387878080601f016020809104026020016040519081016040528093929190818152602001838380828437600092019190915250610b5692505050565b9092509050600081600481111561082157610821610fcb565b14801561085957508373ffffffffffffffffffffffffffffffffffffffff168273ffffffffffffffffffffffffffffffffffffffff16145b61090c576040517f08c379a0000000000000000000000000000000000000000000000000000000008152602060048201526044602482018190527f47656c61746f52656c61793142616c616e636545524332373731426173652e5f908201527f7265717569726553706f6e736f72656443616c6c455243323737315369676e6160648201527f7475726500000000000000000000000000000000000000000000000000000000608482015260a40161027c565b505095945050505050565b606083838360405160200161092e93929190610ffa565b60405160208183030381529060405290509392505050565b606060008473ffffffffffffffffffffffffffffffffffffffff168460405161096f9190611033565b6000604051808303816000865af19150503d80600081146109ac576040519150601f19603f3d011682016040523d82523d6000602084013e6109b1565b606091505b50925090508015610a3e578151600003610a395773ffffffffffffffffffffffffffffffffffffffff85163b1515836040516020016109f0919061104f565b60405160208183030381529060405290610a37576040517f08c379a000000000000000000000000000000000000000000000000000000000815260040161027c9190610daa565b505b610a48565b610a488284610b9b565b509392505050565b60608282604051602001610a65929190611090565b60405160208183030381529060405290505b92915050565b60606040518060a001604052806073815260200161120f60739139805160209182012090833590610ab49060408601908601610e24565b610ac16040860186610f66565b604051610acf9291906110bf565b604051908190039020610ae86080870160608801610e24565b60408051602081019690965285019390935273ffffffffffffffffffffffffffffffffffffffff9182166060850152608084810191909152911660a0838101919091529084013560c083015283013560e0820152610100016040516020818303038152906040529050919050565b6000808251604103610b8c5760208301516040840151606085015160001a610b8087828585610c97565b94509450505050610b94565b506000905060025b9250929050565b60208251610ba991906110cf565b600403610c865760208201517fffffffff0000000000000000000000000000000000000000000000000000000081167f08c379a00000000000000000000000000000000000000000000000000000000003610c75576044830192508183604051602001610c17929190611090565b604080517fffffffffffffffffffffffffffffffffffffffffffffffffffffffffffffffe0818403018152908290527f08c379a000000000000000000000000000000000000000000000000000000000825261027c91600401610daa565b81604051602001610c17919061110a565b80604051602001610c17919061114b565b6000807f7fffffffffffffffffffffffffffffff5d576e7357a4501ddfe92f46681b20a0831115610cce5750600090506003610d7d565b6040805160008082526020820180845289905260ff881692820192909252606081018690526080810185905260019060a0016020604051602081039080840390855afa158015610d22573d6000803e3d6000fd5b50506040517fffffffffffffffffffffffffffffffffffffffffffffffffffffffffffffffe0015191505073ffffffffffffffffffffffffffffffffffffffff8116610d7657600060019250925050610d7d565b9150600090505b94509492505050565b60005b83811015610da1578181015183820152602001610d89565b50506000910152565b6020815260008251806020840152610dc9816040850160208701610d86565b601f017fffffffffffffffffffffffffffffffffffffffffffffffffffffffffffffffe0169190910160400192915050565b803573ffffffffffffffffffffffffffffffffffffffff81168114610e1f57600080fd5b919050565b600060208284031215610e3657600080fd5b610e3f82610dfb565b9392505050565b60008060008060008060008060006101008a8c031215610e6557600080fd5b893567ffffffffffffffff80821115610e7d57600080fd5b908b019060c0828e031215610e9157600080fd5b819a50610ea060208d01610dfb565b9950610eae60408d01610dfb565b985060608c0135975060808c0135915080821115610ecb57600080fd5b818c0191508c601f830112610edf57600080fd5b813581811115610eee57600080fd5b8d6020828501011115610f0057600080fd5b9a9d999c50979a96996020919091019890975060a08701359660c0810135965060e00135945092505050565b80820180821115610a77577f4e487b7100000000000000000000000000000000000000000000000000000000600052601160045260246000fd5b60008083357fffffffffffffffffffffffffffffffffffffffffffffffffffffffffffffffe1843603018112610f9b57600080fd5b83018035915067ffffffffffffffff821115610fb657600080fd5b602001915036819003821315610b9457600080fd5b7f4e487b7100000000000000000000000000000000000000000000000000000000600052602160045260246000fd5b8284823760609190911b7fffffffffffffffffffffffffffffffffffffffff000000000000000000000000169101908152601401919050565b60008251611045818460208701610d86565b9190910192915050565b60008251611061818460208701610d86565b7f43616c6c20746f206e6f6e20636f6e7472616374000000000000000000000000920191825250601401919050565b600083516110a2818460208801610d86565b8351908301906110b6818360208801610d86565b01949350505050565b8183823760009101908152919050565b600082611105577f4e487b7100000000000000000000000000000000000000000000000000000000600052601260045260246000fd5b500690565b6000825161111c818460208701610d86565b7f4e6f4572726f7253656c6563746f720000000000000000000000000000000000920191825250600f01919050565b6000825161115d818460208701610d86565b7f556e657870656374656452657475726e6461746100000000000000000000000092019182525060140191905056fe47656c61746f52656c61793142616c616e6365455243323737312e73706f6e736f72656443616c6c455243323737313a454950373132446f6d61696e28737472696e67206e616d652c737472696e672076657273696f6e2c75696e7432353620636861696e49642c6164647265737320766572696679696e67436f6e74726163742953706f6e736f72656443616c6c455243323737312875696e7432353620636861696e49642c61646472657373207461726765742c627974657320646174612c6164647265737320757365722c75696e7432353620757365724e6f6e63652c75696e743235362075736572446561646c696e6529a2646970667358221220d0ae3b7c36181b89db2015868d798436472e03dd79364bd1613ceccf5dd33b8564736f6c63430008130033",
  "devdoc": {
    "details": "This contract must NEVER hold funds!Maliciously crafted transaction payloads could wipe out any funds left here",
    "kind": "dev",
    "methods": {
      "sponsoredCallERC2771((uint256,address,bytes,address,uint256,uint256),address,address,uint256,bytes,uint256,uint256,bytes32)": {
        "details": "Payment is handled with off-chain accounting using Gelato's 1Balance systemThe userNonce abstraction does not support multiple calls (call concurrency)Apps that need concurrent user calls will need to implement multi-callingon their end via encoding into _call.data.",
        "params": {
          "_call": "Relay call data packed into CallWithERC2771 struct",
          "_correlationId": "Unique task identifier generated by gelato",
          "_nativeToFeeTokenXRateDenominator": "Exchange rate denominator",
          "_nativeToFeeTokenXRateNumerator": "Exchange rate numerator",
          "_userSignature": "EIP-712 compliant signature from _call.user"
        }
      }
    },
    "title": "Gelato Relay contract",
    "version": 1
  },
  "userdoc": {
    "kind": "user",
    "methods": {
      "sponsoredCallERC2771((uint256,address,bytes,address,uint256,uint256),address,address,uint256,bytes,uint256,uint256,bytes32)": {
        "notice": "Relay call + One Balance payment with _msgSender user signature verification"
      }
    },
    "notice": "This contract deals with synchronous payments and Gelato 1Balance payments",
    "version": 1
  },
  "storageLayout": {
    "storage": [
      {
        "astId": 4454,
        "contract": "contracts/GelatoRelay1BalanceERC2771.sol:GelatoRelay1BalanceERC2771",
        "label": "userNonce",
        "offset": 0,
        "slot": "0",
        "type": "t_mapping(t_address,t_uint256)"
      }
    ],
    "types": {
      "t_address": {
        "encoding": "inplace",
        "label": "address",
        "numberOfBytes": "20"
      },
      "t_mapping(t_address,t_uint256)": {
        "encoding": "mapping",
        "key": "t_address",
        "label": "mapping(address => uint256)",
        "numberOfBytes": "32",
        "value": "t_uint256"
      },
      "t_uint256": {
        "encoding": "inplace",
        "label": "uint256",
        "numberOfBytes": "32"
      }
    }
  }
}