{
  "address": "0xf93f0462D1882bf9CB5ecf1830ceFA826A254ADE",
  "abi": [
    {
      "inputs": [
        {
          "internalType": "address",
          "name": "_gelato",
          "type": "address"
        }
      ],
      "stateMutability": "nonpayable",
      "type": "constructor"
    },
    {
      "anonymous": false,
      "inputs": [
        {
          "indexed": true,
          "internalType": "address",
          "name": "sponsor",
          "type": "address"
        },
        {
          "indexed": true,
          "internalType": "address",
          "name": "target",
          "type": "address"
        },
        {
          "indexed": false,
          "internalType": "address",
          "name": "feeToken",
          "type": "address"
        },
        {
          "indexed": false,
          "internalType": "uint256",
          "name": "fee",
          "type": "uint256"
        },
        {
          "indexed": false,
          "internalType": "bytes32",
          "name": "taskId",
          "type": "bytes32"
        }
      ],
      "name": "LogForwardRequestPullFee",
      "type": "event"
    },
    {
      "anonymous": false,
      "inputs": [
        {
          "indexed": true,
          "internalType": "address",
          "name": "previousOwner",
          "type": "address"
        },
        {
          "indexed": true,
          "internalType": "address",
          "name": "newOwner",
          "type": "address"
        }
      ],
      "name": "OwnershipTransferred",
      "type": "event"
    },
    {
      "anonymous": false,
      "inputs": [
        {
          "indexed": false,
          "internalType": "address",
          "name": "account",
          "type": "address"
        }
      ],
      "name": "Paused",
      "type": "event"
    },
    {
      "anonymous": false,
      "inputs": [
        {
          "indexed": false,
          "internalType": "address",
          "name": "account",
          "type": "address"
        }
      ],
      "name": "Unpaused",
      "type": "event"
    },
    {
      "inputs": [],
      "name": "EIP712_DOMAIN_TYPE",
      "outputs": [
        {
          "internalType": "string",
          "name": "",
          "type": "string"
        }
      ],
      "stateMutability": "view",
      "type": "function"
    },
    {
      "inputs": [],
      "name": "FORWARD_REQUEST_TYPEHASH",
      "outputs": [
        {
          "internalType": "bytes32",
          "name": "",
          "type": "bytes32"
        }
      ],
      "stateMutability": "view",
      "type": "function"
    },
    {
      "inputs": [],
      "name": "chainId",
      "outputs": [
        {
          "internalType": "uint256",
          "name": "",
          "type": "uint256"
        }
      ],
      "stateMutability": "view",
      "type": "function"
    },
    {
      "inputs": [
        {
          "internalType": "address",
          "name": "_dest",
          "type": "address"
        }
      ],
      "name": "delistDest",
      "outputs": [],
      "stateMutability": "nonpayable",
      "type": "function"
    },
    {
      "inputs": [
        {
          "components": [
            {
              "internalType": "uint256",
              "name": "chainId",
              "type": "uint256"
            },
            {
              "internalType": "address",
              "name": "target",
              "type": "address"
            },
            {
              "internalType": "bytes",
              "name": "data",
              "type": "bytes"
            },
            {
              "internalType": "address",
              "name": "feeToken",
              "type": "address"
            },
            {
              "internalType": "uint256",
              "name": "paymentType",
              "type": "uint256"
            },
            {
              "internalType": "uint256",
              "name": "maxFee",
              "type": "uint256"
            },
            {
              "internalType": "address",
              "name": "sponsor",
              "type": "address"
            },
            {
              "internalType": "uint256",
              "name": "sponsorChainId",
              "type": "uint256"
            },
            {
              "internalType": "uint256",
              "name": "nonce",
              "type": "uint256"
            },
            {
              "internalType": "bool",
              "name": "enforceSponsorNonce",
              "type": "bool"
            }
          ],
          "internalType": "struct ForwardRequest",
          "name": "_req",
          "type": "tuple"
        },
        {
          "internalType": "bytes",
          "name": "_sponsorSignature",
          "type": "bytes"
        },
        {
          "internalType": "uint256",
          "name": "_gelatoFee",
          "type": "uint256"
        },
        {
          "internalType": "bytes32",
          "name": "_taskId",
          "type": "bytes32"
        }
      ],
      "name": "forwardRequestPullFee",
      "outputs": [],
      "stateMutability": "nonpayable",
      "type": "function"
    },
    {
      "inputs": [],
      "name": "gelato",
      "outputs": [
        {
          "internalType": "address",
          "name": "",
          "type": "address"
        }
      ],
      "stateMutability": "view",
      "type": "function"
    },
    {
      "inputs": [],
      "name": "getDomainSeparator",
      "outputs": [
        {
          "internalType": "bytes32",
          "name": "",
          "type": "bytes32"
        }
      ],
      "stateMutability": "view",
      "type": "function"
    },
    {
      "inputs": [],
      "name": "getWhitelistedDest",
      "outputs": [
        {
          "internalType": "address[]",
          "name": "",
          "type": "address[]"
        }
      ],
      "stateMutability": "view",
      "type": "function"
    },
    {
      "inputs": [
        {
          "internalType": "address",
          "name": "",
          "type": "address"
        }
      ],
      "name": "nonce",
      "outputs": [
        {
          "internalType": "uint256",
          "name": "",
          "type": "uint256"
        }
      ],
      "stateMutability": "view",
      "type": "function"
    },
    {
      "inputs": [],
      "name": "owner",
      "outputs": [
        {
          "internalType": "address",
          "name": "",
          "type": "address"
        }
      ],
      "stateMutability": "view",
      "type": "function"
    },
    {
      "inputs": [],
      "name": "pause",
      "outputs": [],
      "stateMutability": "nonpayable",
      "type": "function"
    },
    {
      "inputs": [],
      "name": "paused",
      "outputs": [
        {
          "internalType": "bool",
          "name": "",
          "type": "bool"
        }
      ],
      "stateMutability": "view",
      "type": "function"
    },
    {
      "inputs": [],
      "name": "renounceOwnership",
      "outputs": [],
      "stateMutability": "nonpayable",
      "type": "function"
    },
    {
      "inputs": [
        {
          "internalType": "address",
          "name": "newOwner",
          "type": "address"
        }
      ],
      "name": "transferOwnership",
      "outputs": [],
      "stateMutability": "nonpayable",
      "type": "function"
    },
    {
      "inputs": [],
      "name": "unpause",
      "outputs": [],
      "stateMutability": "nonpayable",
      "type": "function"
    },
    {
      "inputs": [
        {
          "internalType": "address",
          "name": "_dest",
          "type": "address"
        }
      ],
      "name": "whitelistDest",
      "outputs": [],
      "stateMutability": "nonpayable",
      "type": "function"
    }
  ],
  "transactionHash": "0x556c93f81fd44f0aeef915294e1d46c4ce499b73f32170a80b7fe4564d6c2d3b",
  "args": [
    "0x25aD59adbe00C2d80c86d01e2E05e1294DA84823"
  ],
  "numDeployments": 1,
  "solcInputHash": "07d9e0e51d624db3a8352ca337e57f64",
  "bytecode": "0x60c06040523480156200001157600080fd5b50604051620023f5380380620023f58339810160408190526200003491620000b2565b6200003f3362000062565b6000805460ff60a01b191690556001600160a01b03166080524660a052620000e4565b600080546001600160a01b038381166001600160a01b0319831681178455604051919092169283917f8be0079c531659141344cd1fd0a4f28419497f9722a3daafe3b4186f6b6457e09190a35050565b600060208284031215620000c557600080fd5b81516001600160a01b0381168114620000dd57600080fd5b9392505050565b60805160a0516122cf6200012660003960008181610249015281816107ea0152610d3e0152600081816101450152818161075f0152610c1a01526122cf6000f3fe608060405234801561001057600080fd5b50600436106101005760003560e01c80638456cb59116100975780639a8a0592116100665780639a8a059214610244578063c3f28abd1461026b578063ed24911d14610280578063f2fde38b1461028857600080fd5b80638456cb59146102035780638481c5811461020b5780638da5cb5b1461021e578063956309681461023c57600080fd5b80635c975abb116100d35780635c975abb1461018c57806366118cb5146101ba57806370ae92d2146101cd578063715018a6146101fb57600080fd5b80630683d46d146101055780633f4ba83a146101235780635550b0f41461012d578063573ea57514610140575b600080fd5b61010d61029b565b60405161011a9190611da5565b60405180910390f35b61012b610358565b005b61012b61013b366004611dff565b6103e8565b6101677f000000000000000000000000000000000000000000000000000000000000000081565b60405173ffffffffffffffffffffffffffffffffffffffff909116815260200161011a565b60005474010000000000000000000000000000000000000000900460ff16604051901515815260200161011a565b61012b6101c8366004611dff565b610510565b6101ed6101db366004611dff565b60016020526000908152604090205481565b60405190815260200161011a565b61012b610633565b61012b6106be565b61012b610219366004611e35565b610747565b60005473ffffffffffffffffffffffffffffffffffffffff16610167565b6101ed610cf8565b6101ed7f000000000000000000000000000000000000000000000000000000000000000081565b610273610d1b565b60405161011a9190611f10565b6101ed610d37565b61012b610296366004611dff565b610d67565b606060006102a96002610e97565b905060008167ffffffffffffffff8111156102c6576102c6611f61565b6040519080825280602002602001820160405280156102ef578160200160208202803683370190505b50905060005b8281101561035157610308600282610ea7565b82828151811061031a5761031a611f90565b73ffffffffffffffffffffffffffffffffffffffff909216602092830291909101909101528061034981611fee565b9150506102f5565b5092915050565b60005473ffffffffffffffffffffffffffffffffffffffff1633146103de576040517f08c379a000000000000000000000000000000000000000000000000000000000815260206004820181905260248201527f4f776e61626c653a2063616c6c6572206973206e6f7420746865206f776e657260448201526064015b60405180910390fd5b6103e6610eba565b565b60005473ffffffffffffffffffffffffffffffffffffffff163314610469576040517f08c379a000000000000000000000000000000000000000000000000000000000815260206004820181905260248201527f4f776e61626c653a2063616c6c6572206973206e6f7420746865206f776e657260448201526064016103d5565b610474600282610fb3565b15610501576040517f08c379a000000000000000000000000000000000000000000000000000000000815260206004820152602760248201527f44657374696e6174696f6e206164647265737320616c7265616479207768697460448201527f656c69737465640000000000000000000000000000000000000000000000000060648201526084016103d5565b61050c600282610fe2565b5050565b60005473ffffffffffffffffffffffffffffffffffffffff163314610591576040517f08c379a000000000000000000000000000000000000000000000000000000000815260206004820181905260248201527f4f776e61626c653a2063616c6c6572206973206e6f7420746865206f776e657260448201526064016103d5565b61059c600282610fb3565b610628576040517f08c379a000000000000000000000000000000000000000000000000000000000815260206004820152602360248201527f44657374696e6174696f6e2061646472657373206e6f742077686974656c697360448201527f746564000000000000000000000000000000000000000000000000000000000060648201526084016103d5565b61050c600282611004565b60005473ffffffffffffffffffffffffffffffffffffffff1633146106b4576040517f08c379a000000000000000000000000000000000000000000000000000000000815260206004820181905260248201527f4f776e61626c653a2063616c6c6572206973206e6f7420746865206f776e657260448201526064016103d5565b6103e66000611026565b60005473ffffffffffffffffffffffffffffffffffffffff16331461073f576040517f08c379a000000000000000000000000000000000000000000000000000000000815260206004820181905260248201527f4f776e61626c653a2063616c6c6572206973206e6f7420746865206f776e657260448201526064016103d5565b6103e661109b565b3373ffffffffffffffffffffffffffffffffffffffff7f000000000000000000000000000000000000000000000000000000000000000016146107e6576040517f08c379a000000000000000000000000000000000000000000000000000000000815260206004820152601760248201527f4f6e6c792063616c6c61626c652062792067656c61746f00000000000000000060448201526064016103d5565b84357f000000000000000000000000000000000000000000000000000000000000000014610870576040517f08c379a000000000000000000000000000000000000000000000000000000000815260206004820152600d60248201527f57726f6e6720636861696e49640000000000000000000000000000000000000060448201526064016103d5565b84608001356003146108de576040517f08c379a000000000000000000000000000000000000000000000000000000000815260206004820152601560248201527f7061796d656e7454797065206d7573742062652033000000000000000000000060448201526064016103d5565b6108f96108f16040870160208801611dff565b600290610fb3565b61095f576040517f08c379a000000000000000000000000000000000000000000000000000000000815260206004820152601e60248201527f7461726765742061646472657373206e6f742077686974656c6973746564000060448201526064016103d5565b73eeeeeeeeeeeeeeeeeeeeeeeeeeeeeeeeeeeeeeee6109846080870160608801611dff565b73ffffffffffffffffffffffffffffffffffffffff1603610a27576040517f08c379a000000000000000000000000000000000000000000000000000000000815260206004820152602c60248201527f4e617469766520746f6b656e206e6f7420737570706f7274656420666f72207060448201527f61796d656e74547970652033000000000000000000000000000000000000000060648201526084016103d5565b8460a00135821115610a95576040517f08c379a000000000000000000000000000000000000000000000000000000000815260206004820152601560248201527f4578656375746f72206f7665722d63686172676564000000000000000000000060448201526064016103d5565b610aa761014086016101208701612034565b15610bb5576000600181610ac160e0890160c08a01611dff565b73ffffffffffffffffffffffffffffffffffffffff1673ffffffffffffffffffffffffffffffffffffffff168152602001908152602001600020549050808661010001351015610b6d576040517f08c379a000000000000000000000000000000000000000000000000000000000815260206004820152601560248201527f5461736b20616c7265616479206578656375746564000000000000000000000060448201526064016103d5565b610b78816001612051565b60016000610b8c60e08a0160c08b01611dff565b73ffffffffffffffffffffffffffffffffffffffff168152602081019190915260400160002055505b610bd0858585610bcb60e0840160c08501611dff565b611187565b610bf5610be36040870160208801611dff565b610bf06040880188612069565b611304565b610c3f610c086080870160608801611dff565b610c1860e0880160c08901611dff565b7f0000000000000000000000000000000000000000000000000000000000000000856114ad565b610c4f6040860160208701611dff565b73ffffffffffffffffffffffffffffffffffffffff16610c7560e0870160c08801611dff565b73ffffffffffffffffffffffffffffffffffffffff167f4113a7309cd63f1458914fdd253480f259e634fca5ed8c870179a43ee0fd7fa2610cbc6080890160608a01611dff565b6040805173ffffffffffffffffffffffffffffffffffffffff909216825260208201879052810185905260600160405180910390a35050505050565b6040518060e0016040528060bb81526020016121df60bb91398051906020012081565b60405180608001604052806052815260200161218d6052913981565b6000610d627f0000000000000000000000000000000000000000000000000000000000000000611542565b905090565b60005473ffffffffffffffffffffffffffffffffffffffff163314610de8576040517f08c379a000000000000000000000000000000000000000000000000000000000815260206004820181905260248201527f4f776e61626c653a2063616c6c6572206973206e6f7420746865206f776e657260448201526064016103d5565b73ffffffffffffffffffffffffffffffffffffffff8116610e8b576040517f08c379a000000000000000000000000000000000000000000000000000000000815260206004820152602660248201527f4f776e61626c653a206e6577206f776e657220697320746865207a65726f206160448201527f646472657373000000000000000000000000000000000000000000000000000060648201526084016103d5565b610e9481611026565b50565b6000610ea1825490565b92915050565b6000610eb38383611648565b9392505050565b60005474010000000000000000000000000000000000000000900460ff16610f3e576040517f08c379a000000000000000000000000000000000000000000000000000000000815260206004820152601460248201527f5061757361626c653a206e6f742070617573656400000000000000000000000060448201526064016103d5565b600080547fffffffffffffffffffffff00ffffffffffffffffffffffffffffffffffffffff1690557f5db9ee0a495bf2e6ff9c91a7834c1ba4fdd244a5e8aa4e537bd38aeae4b073aa335b60405173ffffffffffffffffffffffffffffffffffffffff909116815260200160405180910390a1565b73ffffffffffffffffffffffffffffffffffffffff811660009081526001830160205260408120541515610eb3565b6000610eb38373ffffffffffffffffffffffffffffffffffffffff8416611672565b6000610eb38373ffffffffffffffffffffffffffffffffffffffff84166116c1565b6000805473ffffffffffffffffffffffffffffffffffffffff8381167fffffffffffffffffffffffff0000000000000000000000000000000000000000831681178455604051919092169283917f8be0079c531659141344cd1fd0a4f28419497f9722a3daafe3b4186f6b6457e09190a35050565b60005474010000000000000000000000000000000000000000900460ff1615611120576040517f08c379a000000000000000000000000000000000000000000000000000000000815260206004820152601060248201527f5061757361626c653a207061757365640000000000000000000000000000000060448201526064016103d5565b600080547fffffffffffffffffffffff00ffffffffffffffffffffffffffffffffffffffff16740100000000000000000000000000000000000000001790557f62e78cea01bee320cd4e420270b5ea74000d11b0c9f74754ebdbfc544b05a258610f893390565b60006111938535611542565b90506000816111a1876117b4565b80516020918201206040516111e89392017f190100000000000000000000000000000000000000000000000000000000000081526002810192909252602282015260420190565b6040516020818303038152906040528051906020012090506000806112438388888080601f0160208091040260200160405190810160405280939291908181526020018383808284376000920191909152506118dc92505050565b9092509050600081600481111561125c5761125c6120ce565b14801561129457508473ffffffffffffffffffffffffffffffffffffffff168273ffffffffffffffffffffffffffffffffffffffff16145b6112fa576040517f08c379a000000000000000000000000000000000000000000000000000000000815260206004820152601160248201527f496e76616c6964207369676e617475726500000000000000000000000000000060448201526064016103d5565b5050505050505050565b60008373ffffffffffffffffffffffffffffffffffffffff163b116113ab576040517f08c379a000000000000000000000000000000000000000000000000000000000815260206004820152603560248201527f47656c61746f43616c6c5574696c732e7361666545787465726e616c43616c6c60448201527f3a205f646573742063616e6e6f7420626520454f41000000000000000000000060648201526084016103d5565b60008373ffffffffffffffffffffffffffffffffffffffff1683836040516113d49291906120fd565b6000604051808303816000865af19150503d8060008114611411576040519150601f19603f3d011682016040523d82523d6000602084013e611416565b606091505b50509050806114a7576040517f08c379a000000000000000000000000000000000000000000000000000000000815260206004820152603660248201527f47656c61746f43616c6c5574696c732e7361666545787465726e616c43616c6c60448201527f3a2045787465726e616c2063616c6c206661696c65640000000000000000000060648201526084016103d5565b50505050565b6040805173ffffffffffffffffffffffffffffffffffffffff85811660248301528416604482015260648082018490528251808303909101815260849091019091526020810180517bffffffffffffffffffffffffffffffffffffffffffffffffffffffff167f23b872dd000000000000000000000000000000000000000000000000000000001790526114a790859061194a565b600060405180608001604052806052815260200161218d605291398051602091820120604080518082018252601481527f47656c61746f52656c6179466f727761726465720000000000000000000000009084015280518082018252600281527f5631000000000000000000000000000000000000000000000000000000000000908401528051928301919091527f7234c7d9c507fe929abbaaae19187746b78bd8de7bfcbbfe07aa7aef1a476fb3908201527f4c23426613a5dc69e08fbd2787e6210aa679d4522e95a89d4dd88c4fd13a22836060820152608081018390523060a082015260c001604051602081830303815290604052805190602001209050919050565b600082600001828154811061165f5761165f611f90565b9060005260206000200154905092915050565b60008181526001830160205260408120546116b957508154600181810184556000848152602080822090930184905584548482528286019093526040902091909155610ea1565b506000610ea1565b600081815260018301602052604081205480156117aa5760006116e560018361210d565b85549091506000906116f99060019061210d565b905081811461175e57600086600001828154811061171957611719611f90565b906000526020600020015490508087600001848154811061173c5761173c611f90565b6000918252602080832090910192909255918252600188019052604090208390555b855486908061176f5761176f612124565b600190038181906000526020600020016000905590558560010160008681526020019081526020016000206000905560019350505050610ea1565b6000915050610ea1565b60606040518060e0016040528060bb81526020016121df60bb91398051602091820120908335906117eb9060408601908601611dff565b6117f86040860186612069565b6040516118069291906120fd565b60405190819003902061181f6080870160608801611dff565b608087013560a088013561183960e08a0160c08b01611dff565b60e08a01356101008b01356118566101408d016101208e01612034565b60408051602081019c909c528b019990995273ffffffffffffffffffffffffffffffffffffffff97881660608b015260808a019690965293861660a089015260c088019290925260e08701529092166101008501526101208401919091526101408301521515610160820152610180016040516020818303038152906040529050919050565b60008082516041036119125760208301516040840151606085015160001a61190687828585611a5b565b94509450505050611943565b825160400361193b5760208301516040840151611930868383611b73565b935093505050611943565b506000905060025b9250929050565b60006119ac826040518060400160405280602081526020017f5361666545524332303a206c6f772d6c6576656c2063616c6c206661696c65648152508573ffffffffffffffffffffffffffffffffffffffff16611bbb9092919063ffffffff16565b805190915015611a5657808060200190518101906119ca9190612153565b611a56576040517f08c379a000000000000000000000000000000000000000000000000000000000815260206004820152602a60248201527f5361666545524332303a204552433230206f7065726174696f6e20646964206e60448201527f6f7420737563636565640000000000000000000000000000000000000000000060648201526084016103d5565b505050565b6000807f7fffffffffffffffffffffffffffffff5d576e7357a4501ddfe92f46681b20a0831115611a925750600090506003611b6a565b8460ff16601b14158015611aaa57508460ff16601c14155b15611abb5750600090506004611b6a565b6040805160008082526020820180845289905260ff881692820192909252606081018690526080810185905260019060a0016020604051602081039080840390855afa158015611b0f573d6000803e3d6000fd5b50506040517fffffffffffffffffffffffffffffffffffffffffffffffffffffffffffffffe0015191505073ffffffffffffffffffffffffffffffffffffffff8116611b6357600060019250925050611b6a565b9150600090505b94509492505050565b6000807f7fffffffffffffffffffffffffffffffffffffffffffffffffffffffffffffff831660ff84901c601b01611bad87828885611a5b565b935093505050935093915050565b6060611bca8484600085611bd2565b949350505050565b606082471015611c64576040517f08c379a000000000000000000000000000000000000000000000000000000000815260206004820152602660248201527f416464726573733a20696e73756666696369656e742062616c616e636520666f60448201527f722063616c6c000000000000000000000000000000000000000000000000000060648201526084016103d5565b843b611ccc576040517f08c379a000000000000000000000000000000000000000000000000000000000815260206004820152601d60248201527f416464726573733a2063616c6c20746f206e6f6e2d636f6e747261637400000060448201526064016103d5565b6000808673ffffffffffffffffffffffffffffffffffffffff168587604051611cf59190612170565b60006040518083038185875af1925050503d8060008114611d32576040519150601f19603f3d011682016040523d82523d6000602084013e611d37565b606091505b5091509150611d47828286611d52565b979650505050505050565b60608315611d61575081610eb3565b825115611d715782518084602001fd5b816040517f08c379a00000000000000000000000000000000000000000000000000000000081526004016103d59190611f10565b6020808252825182820181905260009190848201906040850190845b81811015611df357835173ffffffffffffffffffffffffffffffffffffffff1683529284019291840191600101611dc1565b50909695505050505050565b600060208284031215611e1157600080fd5b813573ffffffffffffffffffffffffffffffffffffffff81168114610eb357600080fd5b600080600080600060808688031215611e4d57600080fd5b853567ffffffffffffffff80821115611e6557600080fd5b90870190610140828a031215611e7a57600080fd5b90955060208701359080821115611e9057600080fd5b818801915088601f830112611ea457600080fd5b813581811115611eb357600080fd5b896020828501011115611ec557600080fd5b9699602092909201985095966040810135965060600135945092505050565b60005b83811015611eff578181015183820152602001611ee7565b838111156114a75750506000910152565b6020815260008251806020840152611f2f816040850160208701611ee4565b601f017fffffffffffffffffffffffffffffffffffffffffffffffffffffffffffffffe0169190910160400192915050565b7f4e487b7100000000000000000000000000000000000000000000000000000000600052604160045260246000fd5b7f4e487b7100000000000000000000000000000000000000000000000000000000600052603260045260246000fd5b7f4e487b7100000000000000000000000000000000000000000000000000000000600052601160045260246000fd5b60007fffffffffffffffffffffffffffffffffffffffffffffffffffffffffffffffff820361201f5761201f611fbf565b5060010190565b8015158114610e9457600080fd5b60006020828403121561204657600080fd5b8135610eb381612026565b6000821982111561206457612064611fbf565b500190565b60008083357fffffffffffffffffffffffffffffffffffffffffffffffffffffffffffffffe184360301811261209e57600080fd5b83018035915067ffffffffffffffff8211156120b957600080fd5b60200191503681900382131561194357600080fd5b7f4e487b7100000000000000000000000000000000000000000000000000000000600052602160045260246000fd5b8183823760009101908152919050565b60008282101561211f5761211f611fbf565b500390565b7f4e487b7100000000000000000000000000000000000000000000000000000000600052603160045260246000fd5b60006020828403121561216557600080fd5b8151610eb381612026565b60008251612182818460208701611ee4565b919091019291505056fe454950373132446f6d61696e28737472696e67206e616d652c737472696e672076657273696f6e2c75696e7432353620636861696e49642c6164647265737320766572696679696e67436f6e747261637429466f7277617264526571756573742875696e7432353620636861696e49642c61646472657373207461726765742c627974657320646174612c6164647265737320666565546f6b656e2c75696e74323536207061796d656e74547970652c75696e74323536206d61784665652c616464726573732073706f6e736f722c75696e743235362073706f6e736f72436861696e49642c75696e74323536206e6f6e63652c626f6f6c20656e666f72636553706f6e736f724e6f6e636529a2646970667358221220641ee39d401d3b84f56d20b8d253812a929bf5f94a50ed35466e67dbadefab1764736f6c634300080d0033",
  "devdoc": {
    "details": "Maliciously crafted transaction payloads could wipe out any funds left here.",
    "kind": "dev",
    "methods": {
      "owner()": {
        "details": "Returns the address of the current owner."
      },
      "paused()": {
        "details": "Returns true if the contract is paused, and false otherwise."
      },
      "renounceOwnership()": {
        "details": "Leaves the contract without owner. It will not be possible to call `onlyOwner` functions anymore. Can only be called by the current owner. NOTE: Renouncing ownership will leave the contract without an owner, thereby removing any functionality that is only available to the owner."
      },
      "transferOwnership(address)": {
        "details": "Transfers ownership of the contract to a new account (`newOwner`). Can only be called by the current owner."
      }
    },
    "title": "Gelato Relay Forwarder Pull Fee contract",
    "version": 1
  },
  "userdoc": {
    "kind": "user",
    "methods": {},
    "notice": "Forward calls + fee payment with transferFrom sponsor's address to gelato",
    "version": 1
  },
  "storageLayout": {
    "storage": [
      {
        "astId": 326,
        "contract": "contracts/GelatoRelayForwarderPullFee.sol:GelatoRelayForwarderPullFee",
        "label": "_owner",
        "offset": 0,
        "slot": "0",
        "type": "t_address"
      },
      {
        "astId": 518,
        "contract": "contracts/GelatoRelayForwarderPullFee.sol:GelatoRelayForwarderPullFee",
        "label": "_paused",
        "offset": 20,
        "slot": "0",
        "type": "t_bool"
      },
      {
        "astId": 3648,
        "contract": "contracts/GelatoRelayForwarderPullFee.sol:GelatoRelayForwarderPullFee",
        "label": "nonce",
        "offset": 0,
        "slot": "1",
        "type": "t_mapping(t_address,t_uint256)"
      },
      {
        "astId": 3651,
        "contract": "contracts/GelatoRelayForwarderPullFee.sol:GelatoRelayForwarderPullFee",
        "label": "_whitelistedDest",
        "offset": 0,
        "slot": "2",
        "type": "t_struct(AddressSet)2118_storage"
      }
    ],
    "types": {
      "t_address": {
        "encoding": "inplace",
        "label": "address",
        "numberOfBytes": "20"
      },
      "t_array(t_bytes32)dyn_storage": {
        "base": "t_bytes32",
        "encoding": "dynamic_array",
        "label": "bytes32[]",
        "numberOfBytes": "32"
      },
      "t_bool": {
        "encoding": "inplace",
        "label": "bool",
        "numberOfBytes": "1"
      },
      "t_bytes32": {
        "encoding": "inplace",
        "label": "bytes32",
        "numberOfBytes": "32"
      },
      "t_mapping(t_address,t_uint256)": {
        "encoding": "mapping",
        "key": "t_address",
        "label": "mapping(address => uint256)",
        "numberOfBytes": "32",
        "value": "t_uint256"
      },
      "t_mapping(t_bytes32,t_uint256)": {
        "encoding": "mapping",
        "key": "t_bytes32",
        "label": "mapping(bytes32 => uint256)",
        "numberOfBytes": "32",
        "value": "t_uint256"
      },
      "t_struct(AddressSet)2118_storage": {
        "encoding": "inplace",
        "label": "struct EnumerableSet.AddressSet",
        "members": [
          {
            "astId": 2117,
            "contract": "contracts/GelatoRelayForwarderPullFee.sol:GelatoRelayForwarderPullFee",
            "label": "_inner",
            "offset": 0,
            "slot": "0",
            "type": "t_struct(Set)1817_storage"
          }
        ],
        "numberOfBytes": "64"
      },
      "t_struct(Set)1817_storage": {
        "encoding": "inplace",
        "label": "struct EnumerableSet.Set",
        "members": [
          {
            "astId": 1812,
            "contract": "contracts/GelatoRelayForwarderPullFee.sol:GelatoRelayForwarderPullFee",
            "label": "_values",
            "offset": 0,
            "slot": "0",
            "type": "t_array(t_bytes32)dyn_storage"
          },
          {
            "astId": 1816,
            "contract": "contracts/GelatoRelayForwarderPullFee.sol:GelatoRelayForwarderPullFee",
            "label": "_indexes",
            "offset": 0,
            "slot": "1",
            "type": "t_mapping(t_bytes32,t_uint256)"
          }
        ],
        "numberOfBytes": "64"
      },
      "t_uint256": {
        "encoding": "inplace",
        "label": "uint256",
        "numberOfBytes": "32"
      }
    }
  }
}