{
  "address": "0xBf175FCC7086b4f9bd59d5EAE8eA67b8f940DE0d",
  "abi": [
    {
      "inputs": [
        {
          "internalType": "address",
          "name": "_gelato",
          "type": "address"
        }
      ],
      "stateMutability": "nonpayable",
      "type": "constructor"
    },
    {
      "anonymous": false,
      "inputs": [
        {
          "indexed": true,
          "internalType": "address",
          "name": "target",
          "type": "address"
        },
        {
          "indexed": true,
          "internalType": "bytes32",
          "name": "correlationId",
          "type": "bytes32"
        }
      ],
      "name": "LogCallWithSyncFeeERC2771",
      "type": "event"
    },
    {
      "anonymous": false,
      "inputs": [
        {
          "indexed": true,
          "internalType": "address",
          "name": "sponsor",
          "type": "address"
        },
        {
          "indexed": true,
          "internalType": "address",
          "name": "target",
          "type": "address"
        },
        {
          "indexed": true,
          "internalType": "address",
          "name": "feeToken",
          "type": "address"
        },
        {
          "indexed": false,
          "internalType": "uint256",
          "name": "oneBalanceChainId",
          "type": "uint256"
        },
        {
          "indexed": false,
          "internalType": "uint256",
          "name": "nativeToFeeTokenXRateNumerator",
          "type": "uint256"
        },
        {
          "indexed": false,
          "internalType": "uint256",
          "name": "nativeToFeeTokenXRateDenominator",
          "type": "uint256"
        },
        {
          "indexed": false,
          "internalType": "bytes32",
          "name": "correlationId",
          "type": "bytes32"
        }
      ],
      "name": "LogUseGelato1Balance",
      "type": "event"
    },
    {
      "inputs": [],
      "name": "CALL_WITH_SYNC_FEE_ERC2771_TYPEHASH",
      "outputs": [
        {
          "internalType": "bytes32",
          "name": "",
          "type": "bytes32"
        }
      ],
      "stateMutability": "view",
      "type": "function"
    },
    {
      "inputs": [],
      "name": "DOMAIN_SEPARATOR",
      "outputs": [
        {
          "internalType": "bytes32",
          "name": "",
          "type": "bytes32"
        }
      ],
      "stateMutability": "view",
      "type": "function"
    },
    {
      "inputs": [],
      "name": "SPONSORED_CALL_ERC2771_TYPEHASH",
      "outputs": [
        {
          "internalType": "bytes32",
          "name": "",
          "type": "bytes32"
        }
      ],
      "stateMutability": "view",
      "type": "function"
    },
    {
      "inputs": [
        {
          "components": [
            {
              "internalType": "uint256",
              "name": "chainId",
              "type": "uint256"
            },
            {
              "internalType": "address",
              "name": "target",
              "type": "address"
            },
            {
              "internalType": "bytes",
              "name": "data",
              "type": "bytes"
            },
            {
              "internalType": "address",
              "name": "user",
              "type": "address"
            },
            {
              "internalType": "uint256",
              "name": "userNonce",
              "type": "uint256"
            },
            {
              "internalType": "uint256",
              "name": "userDeadline",
              "type": "uint256"
            }
          ],
          "internalType": "struct CallWithERC2771",
          "name": "_call",
          "type": "tuple"
        },
        {
          "internalType": "address",
          "name": "_feeToken",
          "type": "address"
        },
        {
          "internalType": "bytes",
          "name": "_userSignature",
          "type": "bytes"
        },
        {
          "internalType": "bool",
          "name": "_isRelayContext",
          "type": "bool"
        },
        {
          "internalType": "bytes32",
          "name": "_correlationId",
          "type": "bytes32"
        }
      ],
      "name": "callWithSyncFeeERC2771",
      "outputs": [],
      "stateMutability": "nonpayable",
      "type": "function"
    },
    {
      "inputs": [],
      "name": "gelato",
      "outputs": [
        {
          "internalType": "address",
          "name": "",
          "type": "address"
        }
      ],
      "stateMutability": "view",
      "type": "function"
    },
    {
      "inputs": [],
      "name": "name",
      "outputs": [
        {
          "internalType": "string",
          "name": "",
          "type": "string"
        }
      ],
      "stateMutability": "view",
      "type": "function"
    },
    {
      "inputs": [
        {
          "components": [
            {
              "internalType": "uint256",
              "name": "chainId",
              "type": "uint256"
            },
            {
              "internalType": "address",
              "name": "target",
              "type": "address"
            },
            {
              "internalType": "bytes",
              "name": "data",
              "type": "bytes"
            },
            {
              "internalType": "address",
              "name": "user",
              "type": "address"
            },
            {
              "internalType": "uint256",
              "name": "userNonce",
              "type": "uint256"
            },
            {
              "internalType": "uint256",
              "name": "userDeadline",
              "type": "uint256"
            }
          ],
          "internalType": "struct CallWithERC2771",
          "name": "_call",
          "type": "tuple"
        },
        {
          "internalType": "address",
          "name": "_sponsor",
          "type": "address"
        },
        {
          "internalType": "address",
          "name": "_feeToken",
          "type": "address"
        },
        {
          "internalType": "uint256",
          "name": "_oneBalanceChainId",
          "type": "uint256"
        },
        {
          "internalType": "bytes",
          "name": "_userSignature",
          "type": "bytes"
        },
        {
          "internalType": "uint256",
          "name": "_nativeToFeeTokenXRateNumerator",
          "type": "uint256"
        },
        {
          "internalType": "uint256",
          "name": "_nativeToFeeTokenXRateDenominator",
          "type": "uint256"
        },
        {
          "internalType": "bytes32",
          "name": "_correlationId",
          "type": "bytes32"
        }
      ],
      "name": "sponsoredCallERC2771",
      "outputs": [],
      "stateMutability": "nonpayable",
      "type": "function"
    },
    {
      "inputs": [
        {
          "internalType": "address",
          "name": "",
          "type": "address"
        }
      ],
      "name": "userNonce",
      "outputs": [
        {
          "internalType": "uint256",
          "name": "",
          "type": "uint256"
        }
      ],
      "stateMutability": "view",
      "type": "function"
    },
    {
      "inputs": [],
      "name": "version",
      "outputs": [
        {
          "internalType": "string",
          "name": "",
          "type": "string"
        }
      ],
      "stateMutability": "view",
      "type": "function"
    }
  ],
  "transactionHash": "0x177f0b539139457d6e582d00f56d6bd22e762837b9a418d543849e930f469e0f",
  "args": [
    "0x91f2A140cA47DdF438B9c583b7E71987525019bB"
  ],
  "numDeployments": 1,
  "solcInputHash": "8a9028dcd05718e2699a4776d11b1021",
  "bytecode": "0x60a060405234801561001057600080fd5b50604051611ad7380380611ad783398101604081905261002f91610040565b6001600160a01b0316608052610070565b60006020828403121561005257600080fd5b81516001600160a01b038116811461006957600080fd5b9392505050565b608051611a3e6100996000396000818161018e0152818161023a015261053c0152611a3e6000f3fe608060405234801561001057600080fd5b50600436106100a35760003560e01c8063415e511811610076578063573ea5751161005b578063573ea57514610189578063742ee293146101d5578063b9d16f1c146101dd57600080fd5b8063415e51181461013857806354fd4d501461014d57600080fd5b806306fdde03146100a857806313523610146100fa5780632e04b8e7146101105780633644e51514610130575b600080fd5b6100e46040518060400160405280601281526020017f47656c61746f52656c617945524332373731000000000000000000000000000081525081565b6040516100f19190611343565b60405180910390f35b6101026101f0565b6040519081526020016100f1565b61010261011e3660046113bd565b60006020819052908152604090205481565b610102610213565b61014b610146366004611439565b610222565b005b6100e46040518060400160405280600181526020017f310000000000000000000000000000000000000000000000000000000000000081525081565b6101b07f000000000000000000000000000000000000000000000000000000000000000081565b60405173ffffffffffffffffffffffffffffffffffffffff90911681526020016100f1565b610102610501565b61014b6101eb3660046114e7565b610524565b6040518060a0016040528060738152602001611996607391398051906020012081565b600061021d61082b565b905090565b3373ffffffffffffffffffffffffffffffffffffffff7f000000000000000000000000000000000000000000000000000000000000000016146102c6576040517f08c379a000000000000000000000000000000000000000000000000000000000815260206004820152601760248201527f4f6e6c792063616c6c61626c652062792067656c61746f00000000000000000060448201526064015b60405180910390fd5b6102ec896000013560405180606001604052806028815260200161187d6028913961092e565b6000808061030060808d0160608e016113bd565b73ffffffffffffffffffffffffffffffffffffffff1673ffffffffffffffffffffffffffffffffffffffff1681526020019081526020016000205490506103698a60800135828c60a0013560405180606001604052806028815260200161187d602891396109b6565b600061037361082b565b9050610391818c898961038c60808401606085016113bd565b610ac5565b5061039d826001611583565b6000808d60600160208101906103b391906113bd565b73ffffffffffffffffffffffffffffffffffffffff1673ffffffffffffffffffffffffffffffffffffffff1681526020019081526020016000208190555061046861041f8c806040019061040791906115bd565b8e606001602081019061041a91906113bd565b610c5b565b60405180606001604052806028815260200161187d602891398d602001602081019061044b91906113bd565b73ffffffffffffffffffffffffffffffffffffffff169190610c8a565b5073ffffffffffffffffffffffffffffffffffffffff891661049060408d0160208e016113bd565b604080518b8152602081018990529081018790526060810186905273ffffffffffffffffffffffffffffffffffffffff918216918d16907f116bfd46451bbd23e7a5f5b7420b28e3d98d4c477f173da513aaaeac3c4baada9060800160405180910390a45050505050505050505050565b6040518060a00160405280607581526020016118a5607591398051906020012081565b3373ffffffffffffffffffffffffffffffffffffffff7f000000000000000000000000000000000000000000000000000000000000000016146105c3576040517f08c379a000000000000000000000000000000000000000000000000000000000815260206004820152601760248201527f4f6e6c792063616c6c61626c652062792067656c61746f00000000000000000060448201526064016102bd565b6105e986600001356040518060600160405280602a815260200161196c602a913961092e565b600080806105fd60808a0160608b016113bd565b73ffffffffffffffffffffffffffffffffffffffff1673ffffffffffffffffffffffffffffffffffffffff1681526020019081526020016000205490506106668760800135828960a001356040518060600160405280602a815260200161196c602a91396109b6565b600061067061082b565b905061068e8189888861068960808401606085016113bd565b610d94565b5061069a826001611583565b6000806106ad60808c0160608d016113bd565b73ffffffffffffffffffffffffffffffffffffffff16815260208101919091526040016000205583610756576107516107286106ec60408b018b6115bd565b367fffffffffffffffffffffffffffffffffffffffffffffffffffffffffffffffec013560601c61072360808e0160608f016113bd565b610f1f565b6040518060600160405280602a815260200161196c602a913961044b60408c0160208d016113bd565b6107cd565b6107cd61072861076960408b018b6115bd565b367fffffffffffffffffffffffffffffffffffffffffffffffffffffffffffffffb8013560601c8b367fffffffffffffffffffffffffffffffffffffffffffffffffffffffffffffffe001358e60600160208101906107c891906113bd565b610f51565b50826107df60408a0160208b016113bd565b73ffffffffffffffffffffffffffffffffffffffff167f54a07c256d6c19724ae52465b8676550ecbe2c59035eb67330324962ac62db6960405160405180910390a35050505050505050565b600060405180608001604052806052815260200161191a605291398051602091820120604080518082018252601281527f47656c61746f52656c61794552433237373100000000000000000000000000009084015280518082018252600181527f3100000000000000000000000000000000000000000000000000000000000000908401528051928301919091527f70c540b9e520f15fb82a0638406c3d99d9cadb63b8c86c5b11e4fc8b168dfd4a908201527fc89efdaa54c0f20c7adf612882df0950f5a951637e0307cdcb4c672f298b8bc660608201524660808201523060a082015260c00160405160208183030381529060405280519060200120905090565b4682146109796040518060400160405280600781526020017f636861696e69640000000000000000000000000000000000000000000000000081525083610f8990919063ffffffff16565b906109b1576040517f08c379a00000000000000000000000000000000000000000000000000000000081526004016102bd9190611343565b505050565b828414610a016040518060400160405280600581526020017f6e6f6e636500000000000000000000000000000000000000000000000000000081525083610f8990919063ffffffff16565b90610a39576040517f08c379a00000000000000000000000000000000000000000000000000000000081526004016102bd9190611343565b50811580610a475750428210155b60408051808201909152600881527f646561646c696e650000000000000000000000000000000000000000000000006020820152610a86908390610f89565b90610abe576040517f08c379a00000000000000000000000000000000000000000000000000000000081526004016102bd9190611343565b5050505050565b600085610ad186610fb6565b8051602091820120604051610b189392017f190100000000000000000000000000000000000000000000000000000000000081526002810192909252602282015260420190565b604051602081830303815290604052805190602001209050600080610b738387878080601f01602080910402602001604051908101604052809392919081815260200183838082843760009201919091525061108f92505050565b90925090506000816004811115610b8c57610b8c611622565b148015610bc457508373ffffffffffffffffffffffffffffffffffffffff168273ffffffffffffffffffffffffffffffffffffffff16145b610c50576040517f08c379a000000000000000000000000000000000000000000000000000000000815260206004820152603c60248201527f47656c61746f52656c617945524332373731426173652e5f726571756972655360448201527f706f6e736f72656443616c6c455243323737315369676e61747572650000000060648201526084016102bd565b505095945050505050565b6060838383604051602001610c7293929190611651565b60405160208183030381529060405290509392505050565b606060008473ffffffffffffffffffffffffffffffffffffffff1684604051610cb3919061168a565b6000604051808303816000865af19150503d8060008114610cf0576040519150601f19603f3d011682016040523d82523d6000602084013e610cf5565b606091505b50925090508015610d82578151600003610d7d5773ffffffffffffffffffffffffffffffffffffffff85163b151583604051602001610d3491906116a6565b60405160208183030381529060405290610d7b576040517f08c379a00000000000000000000000000000000000000000000000000000000081526004016102bd9190611343565b505b610d8c565b610d8c82846110d4565b509392505050565b600085610da0866111d0565b8051602091820120604051610de79392017f190100000000000000000000000000000000000000000000000000000000000081526002810192909252602282015260420190565b604051602081830303815290604052805190602001209050600080610e428387878080601f01602080910402602001604051908101604052809392919081815260200183838082843760009201919091525061108f92505050565b90925090506000816004811115610e5b57610e5b611622565b148015610e9357508373ffffffffffffffffffffffffffffffffffffffff168273ffffffffffffffffffffffffffffffffffffffff16145b610c50576040517f08c379a000000000000000000000000000000000000000000000000000000000815260206004820152603e60248201527f47656c61746f52656c617945524332373731426173652e5f726571756972654360448201527f616c6c5769746853796e63466565455243323737315369676e6174757265000060648201526084016102bd565b606084848484604051602001610f3894939291906116e7565b6040516020818303038152906040529050949350505050565b6060868686868686604051602001610f6e9695949392919061172a565b60405160208183030381529060405290509695505050505050565b60608282604051602001610f9e929190611780565b60405160208183030381529060405290505b92915050565b60606040518060a001604052806073815260200161199660739139805160209182012090833590610fed90604086019086016113bd565b610ffa60408601866115bd565b6040516110089291906117af565b60405190819003902061102160808701606088016113bd565b60408051602081019690965285019390935273ffffffffffffffffffffffffffffffffffffffff9182166060850152608084810191909152911660a0838101919091529084013560c083015283013560e0820152610100016040516020818303038152906040529050919050565b60008082516041036110c55760208301516040840151606085015160001a6110b987828585611207565b945094505050506110cd565b506000905060025b9250929050565b602082516110e291906117bf565b6004036111bf5760208201517fffffffff0000000000000000000000000000000000000000000000000000000081167f08c379a000000000000000000000000000000000000000000000000000000000036111ae576044830192508183604051602001611150929190611780565b604080517fffffffffffffffffffffffffffffffffffffffffffffffffffffffffffffffe0818403018152908290527f08c379a00000000000000000000000000000000000000000000000000000000082526102bd91600401611343565b8160405160200161115091906117fa565b80604051602001611150919061183b565b60606040518060a00160405280607581526020016118a560759139805160209182012090833590610fed90604086019086016113bd565b6000807f7fffffffffffffffffffffffffffffff5d576e7357a4501ddfe92f46681b20a083111561123e5750600090506003611316565b8460ff16601b1415801561125657508460ff16601c14155b156112675750600090506004611316565b6040805160008082526020820180845289905260ff881692820192909252606081018690526080810185905260019060a0016020604051602081039080840390855afa1580156112bb573d6000803e3d6000fd5b50506040517fffffffffffffffffffffffffffffffffffffffffffffffffffffffffffffffe0015191505073ffffffffffffffffffffffffffffffffffffffff811661130f57600060019250925050611316565b9150600090505b94509492505050565b60005b8381101561133a578181015183820152602001611322565b50506000910152565b602081526000825180602084015261136281604085016020870161131f565b601f017fffffffffffffffffffffffffffffffffffffffffffffffffffffffffffffffe0169190910160400192915050565b803573ffffffffffffffffffffffffffffffffffffffff811681146113b857600080fd5b919050565b6000602082840312156113cf57600080fd5b6113d882611394565b9392505050565b600060c082840312156113f157600080fd5b50919050565b60008083601f84011261140957600080fd5b50813567ffffffffffffffff81111561142157600080fd5b6020830191508360208285010111156110cd57600080fd5b60008060008060008060008060006101008a8c03121561145857600080fd5b893567ffffffffffffffff8082111561147057600080fd5b61147c8d838e016113df565b9a5061148a60208d01611394565b995061149860408d01611394565b985060608c0135975060808c01359150808211156114b557600080fd5b506114c28c828d016113f7565b9a9d999c50979a9699979860a08801359760c0810135975060e0013595509350505050565b60008060008060008060a0878903121561150057600080fd5b863567ffffffffffffffff8082111561151857600080fd5b6115248a838b016113df565b975061153260208a01611394565b9650604089013591508082111561154857600080fd5b5061155589828a016113f7565b9095509350506060870135801515811461156e57600080fd5b80925050608087013590509295509295509295565b80820180821115610fb0577f4e487b7100000000000000000000000000000000000000000000000000000000600052601160045260246000fd5b60008083357fffffffffffffffffffffffffffffffffffffffffffffffffffffffffffffffe18436030181126115f257600080fd5b83018035915067ffffffffffffffff82111561160d57600080fd5b6020019150368190038213156110cd57600080fd5b7f4e487b7100000000000000000000000000000000000000000000000000000000600052602160045260246000fd5b8284823760609190911b7fffffffffffffffffffffffffffffffffffffffff000000000000000000000000169101908152601401919050565b6000825161169c81846020870161131f565b9190910192915050565b600082516116b881846020870161131f565b7f43616c6c20746f206e6f6e20636f6e7472616374000000000000000000000000920191825250601401919050565b838582377fffffffffffffffffffffffffffffffffffffffff000000000000000000000000606093841b811694909101938452911b166014820152602801919050565b858782377fffffffffffffffffffffffffffffffffffffffff000000000000000000000000606095861b81169690910195865292841b83166014860152602885019190915290911b166048820152605c01919050565b6000835161179281846020880161131f565b8351908301906117a681836020880161131f565b01949350505050565b8183823760009101908152919050565b6000826117f5577f4e487b7100000000000000000000000000000000000000000000000000000000600052601260045260246000fd5b500690565b6000825161180c81846020870161131f565b7f4e6f4572726f7253656c6563746f720000000000000000000000000000000000920191825250600f01919050565b6000825161184d81846020870161131f565b7f556e657870656374656452657475726e6461746100000000000000000000000092019182525060140191905056fe47656c61746f52656c6179455243323737312e73706f6e736f72656443616c6c455243323737313a43616c6c5769746853796e63466565455243323737312875696e7432353620636861696e49642c61646472657373207461726765742c627974657320646174612c6164647265737320757365722c75696e7432353620757365724e6f6e63652c75696e743235362075736572446561646c696e6529454950373132446f6d61696e28737472696e67206e616d652c737472696e672076657273696f6e2c75696e7432353620636861696e49642c6164647265737320766572696679696e67436f6e74726163742947656c61746f52656c6179455243323737312e63616c6c5769746853796e63466565455243323737313a53706f6e736f72656443616c6c455243323737312875696e7432353620636861696e49642c61646472657373207461726765742c627974657320646174612c6164647265737320757365722c75696e7432353620757365724e6f6e63652c75696e743235362075736572446561646c696e6529a26469706673582212202a89ae15c45c26967092bb01ecb238181abb4c443bc982759887a634ba3f3c3b64736f6c63430008110033",
  "devdoc": {
    "details": "This contract must NEVER hold funds!Maliciously crafted transaction payloads could wipe out any funds left here",
    "kind": "dev",
    "methods": {
      "callWithSyncFeeERC2771((uint256,address,bytes,address,uint256,uint256),address,bytes,bool,bytes32)": {
        "details": "This is the most straightforward use case, and `transfer` handles token payments.",
        "params": {
          "_call": "Relay call data packed into CallWithERC2771 struct",
          "_correlationId": "Unique task identifier generated by gelato",
          "_isRelayContext": "true: all relay context encoding, false: only feeCollector encoding"
        }
      },
      "sponsoredCallERC2771((uint256,address,bytes,address,uint256,uint256),address,address,uint256,bytes,uint256,uint256,bytes32)": {
        "details": "Payment is handled with off-chain accounting using Gelato's 1Balance systemThe userNonce abstraction does not support multiple calls (call concurrency)Apps that need concurrent user calls will need to implement multi-callingon their end via encoding into _call.data.",
        "params": {
          "_call": "Relay call data packed into CallWithERC2771 struct",
          "_correlationId": "Unique task identifier generated by gelato",
          "_nativeToFeeTokenXRateDenominator": "Exchange rate denominator",
          "_nativeToFeeTokenXRateNumerator": "Exchange rate numerator",
          "_userSignature": "EIP-712 compliant signature from _call.user"
        }
      }
    },
    "title": "Gelato Relay contract",
    "version": 1
  },
  "userdoc": {
    "kind": "user",
    "methods": {
      "callWithSyncFeeERC2771((uint256,address,bytes,address,uint256,uint256),address,bytes,bool,bytes32)": {
        "notice": "Relay call with Synchronous PaymentThe target contract pays Gelato during the call forward"
      },
      "sponsoredCallERC2771((uint256,address,bytes,address,uint256,uint256),address,address,uint256,bytes,uint256,uint256,bytes32)": {
        "notice": "Relay call + One Balance payment with _msgSender user signature verification"
      }
    },
    "notice": "This contract deals with synchronous payments and Gelato 1Balance payments",
    "version": 1
  },
  "storageLayout": {
    "storage": [
      {
        "astId": 3568,
        "contract": "contracts/GelatoRelayERC2771.sol:GelatoRelayERC2771",
        "label": "userNonce",
        "offset": 0,
        "slot": "0",
        "type": "t_mapping(t_address,t_uint256)"
      }
    ],
    "types": {
      "t_address": {
        "encoding": "inplace",
        "label": "address",
        "numberOfBytes": "20"
      },
      "t_mapping(t_address,t_uint256)": {
        "encoding": "mapping",
        "key": "t_address",
        "label": "mapping(address => uint256)",
        "numberOfBytes": "32",
        "value": "t_uint256"
      },
      "t_uint256": {
        "encoding": "inplace",
        "label": "uint256",
        "numberOfBytes": "32"
      }
    }
  }
}