{
  "address": "0xc65d82ECE367EF06bf2AB791B3f3CF037Dc0e816",
  "abi": [
    {
      "inputs": [
        {
          "internalType": "address",
          "name": "_gelato",
          "type": "address"
        }
      ],
      "stateMutability": "nonpayable",
      "type": "constructor"
    },
    {
      "anonymous": false,
      "inputs": [
        {
          "indexed": true,
          "internalType": "address",
          "name": "sponsor",
          "type": "address"
        },
        {
          "indexed": true,
          "internalType": "address",
          "name": "target",
          "type": "address"
        },
        {
          "indexed": true,
          "internalType": "address",
          "name": "feeToken",
          "type": "address"
        },
        {
          "indexed": false,
          "internalType": "uint256",
          "name": "oneBalanceChainId",
          "type": "uint256"
        },
        {
          "indexed": false,
          "internalType": "uint256",
          "name": "nativeToFeeTokenXRateNumerator",
          "type": "uint256"
        },
        {
          "indexed": false,
          "internalType": "uint256",
          "name": "nativeToFeeTokenXRateDenominator",
          "type": "uint256"
        },
        {
          "indexed": false,
          "internalType": "bytes32",
          "name": "correlationId",
          "type": "bytes32"
        }
      ],
      "name": "LogUseGelato1Balance",
      "type": "event"
    },
    {
      "inputs": [],
      "name": "DOMAIN_SEPARATOR",
      "outputs": [
        {
          "internalType": "bytes32",
          "name": "",
          "type": "bytes32"
        }
      ],
      "stateMutability": "view",
      "type": "function"
    },
    {
      "inputs": [],
      "name": "SPONSORED_CALL_CONCURRENT_ERC2771_TYPEHASH",
      "outputs": [
        {
          "internalType": "bytes32",
          "name": "",
          "type": "bytes32"
        }
      ],
      "stateMutability": "view",
      "type": "function"
    },
    {
      "inputs": [],
      "name": "gelato",
      "outputs": [
        {
          "internalType": "address",
          "name": "",
          "type": "address"
        }
      ],
      "stateMutability": "view",
      "type": "function"
    },
    {
      "inputs": [
        {
          "internalType": "bytes32",
          "name": "",
          "type": "bytes32"
        }
      ],
      "name": "hashUsed",
      "outputs": [
        {
          "internalType": "bool",
          "name": "",
          "type": "bool"
        }
      ],
      "stateMutability": "view",
      "type": "function"
    },
    {
      "inputs": [],
      "name": "name",
      "outputs": [
        {
          "internalType": "string",
          "name": "",
          "type": "string"
        }
      ],
      "stateMutability": "view",
      "type": "function"
    },
    {
      "inputs": [
        {
          "components": [
            {
              "internalType": "uint256",
              "name": "chainId",
              "type": "uint256"
            },
            {
              "internalType": "address",
              "name": "target",
              "type": "address"
            },
            {
              "internalType": "bytes",
              "name": "data",
              "type": "bytes"
            },
            {
              "internalType": "address",
              "name": "user",
              "type": "address"
            },
            {
              "internalType": "bytes32",
              "name": "userSalt",
              "type": "bytes32"
            },
            {
              "internalType": "uint256",
              "name": "userDeadline",
              "type": "uint256"
            }
          ],
          "internalType": "struct CallWithConcurrentERC2771",
          "name": "_call",
          "type": "tuple"
        },
        {
          "internalType": "address",
          "name": "_sponsor",
          "type": "address"
        },
        {
          "internalType": "address",
          "name": "_feeToken",
          "type": "address"
        },
        {
          "internalType": "uint256",
          "name": "_oneBalanceChainId",
          "type": "uint256"
        },
        {
          "internalType": "bytes",
          "name": "_userSignature",
          "type": "bytes"
        },
        {
          "internalType": "uint256",
          "name": "_nativeToFeeTokenXRateNumerator",
          "type": "uint256"
        },
        {
          "internalType": "uint256",
          "name": "_nativeToFeeTokenXRateDenominator",
          "type": "uint256"
        },
        {
          "internalType": "bytes32",
          "name": "_correlationId",
          "type": "bytes32"
        }
      ],
      "name": "sponsoredCallConcurrentERC2771",
      "outputs": [],
      "stateMutability": "nonpayable",
      "type": "function"
    },
    {
      "inputs": [],
      "name": "version",
      "outputs": [
        {
          "internalType": "string",
          "name": "",
          "type": "string"
        }
      ],
      "stateMutability": "view",
      "type": "function"
    }
  ],
  "transactionHash": "0x34e8c2c47ece12de370aa132e1a0c47e96ba635ef8619a7d9ad7a5e645e3920e",
  "args": [
    "0xb0cb899251086ed70e5d2c8d733D2896Fd989850"
  ],
  "numDeployments": 1,
  "solcInputHash": "d55ef212f5a43db4bacad8b4ae13f7b2",
  "bytecode": "0x60a060405234801561001057600080fd5b5060405161126a38038061126a83398101604081905261002f91610040565b6001600160a01b0316608052610070565b60006020828403121561005257600080fd5b81516001600160a01b038116811461006957600080fd5b9392505050565b6080516111d86100926000396000818161012a01526101f401526111d86000f3fe608060405234801561001057600080fd5b506004361061007d5760003560e01c806354fd4d501161005b57806354fd4d50146100e9578063573ea5751461012557806390b15b0014610171578063b567146d1461017957600080fd5b806306fdde03146100825780633644e515146100a0578063533e62b6146100b6575b600080fd5b61008a61018e565b6040516100979190610cab565b60405180910390f35b6100a86101aa565b604051908152602001610097565b6100d96100c4366004610cfc565b60006020819052908152604090205460ff1681565b6040519015158152602001610097565b61008a6040518060400160405280600181526020017f310000000000000000000000000000000000000000000000000000000000000081525081565b61014c7f000000000000000000000000000000000000000000000000000000000000000081565b60405173ffffffffffffffffffffffffffffffffffffffff9091168152602001610097565b6100a86101b9565b61018c610187366004610d3e565b6101dc565b005b60405180606001604052806024815260200161106d6024913981565b60006101b461046e565b905090565b6040518060a00160405280607c8152602001611091607c91398051906020012081565b3373ffffffffffffffffffffffffffffffffffffffff7f00000000000000000000000000000000000000000000000000000000000000001614610280576040517f08c379a000000000000000000000000000000000000000000000000000000000815260206004820152601760248201527f4f6e6c792063616c6c61626c652062792067656c61746f00000000000000000060448201526064015b60405180910390fd5b6102a6896000013560405180608001604052806044815260200161115f60449139610543565b6102cc8960a0013560405180608001604052806044815260200161115f604491396105cb565b60006102d78a610617565b90506102fb8160405180608001604052806044815260200161115f604491396106f7565b600061030561046e565b9050610326818389898f60600160208101906103219190610e24565b61074c565b506000828152602081905260409081902080547fffffffffffffffffffffffffffffffffffffffffffffffffffffffffffffff001660011790556103d59061038c90610374908e018e610e46565b8e60600160208101906103879190610e24565b6108f2565b60405180608001604052806044815260200161115f604491398d60200160208101906103b89190610e24565b73ffffffffffffffffffffffffffffffffffffffff169190610921565b5073ffffffffffffffffffffffffffffffffffffffff89166103fd60408d0160208e01610e24565b604080518b8152602081018990529081018790526060810186905273ffffffffffffffffffffffffffffffffffffffff918216918d16907f116bfd46451bbd23e7a5f5b7420b28e3d98d4c477f173da513aaaeac3c4baada9060800160405180910390a45050505050505050505050565b600060405180608001604052806052815260200161110d605291398051906020012060405180606001604052806024815260200161106d602491398051602091820120604080518082018252600181527f310000000000000000000000000000000000000000000000000000000000000090840152805192830193909352918101919091527fc89efdaa54c0f20c7adf612882df0950f5a951637e0307cdcb4c672f298b8bc660608201524660808201523060a082015260c00160405160208183030381529060405280519060200120905090565b46821461058e6040518060400160405280600781526020017f636861696e69640000000000000000000000000000000000000000000000000081525083610a2b90919063ffffffff16565b906105c6576040517f08c379a00000000000000000000000000000000000000000000000000000000081526004016102779190610cab565b505050565b8115806105d85750428210155b60408051808201909152600881527f646561646c696e65000000000000000000000000000000000000000000000000602082015261058e908390610a2b565b60006040518060a00160405280607c8152602001611091607c913980516020918201209083359061064e9060408601908601610e24565b61065b6040860186610e46565b604051610669929190610eab565b6040519081900390206106826080870160608801610e24565b60408051602081019690965285019390935273ffffffffffffffffffffffffffffffffffffffff9182166060850152608084810191909152911660a0838101919091529084013560c083015283013560e082015261010001604051602081830303815290604052805190602001209050919050565b60008281526020818152604091829020548251808401909352600683527f7265706c617900000000000000000000000000000000000000000000000000009183019190915260ff16159061058e908390610a2b565b6040517f1901000000000000000000000000000000000000000000000000000000000000602082015260228101869052604281018590526000906062016040516020818303038152906040528051906020012090506000806107e48387878080601f016020809104026020016040519081016040528093929190818152602001838380828437600092019190915250610a5792505050565b909250905060008160048111156107fd576107fd610ebb565b14801561083557508373ffffffffffffffffffffffffffffffffffffffff168273ffffffffffffffffffffffffffffffffffffffff16145b6108e7576040517f08c379a000000000000000000000000000000000000000000000000000000000815260206004820152605860248201527f47656c61746f52656c61793142616c616e6365436f6e63757272656e7445524360448201527f32373731426173652e5f7265717569726553706f6e736f72656443616c6c436f60648201527f6e63757272656e74455243323737315369676e61747572650000000000000000608482015260a401610277565b505095945050505050565b606083838360405160200161090993929190610eea565b60405160208183030381529060405290509392505050565b606060008473ffffffffffffffffffffffffffffffffffffffff168460405161094a9190610f23565b6000604051808303816000865af19150503d8060008114610987576040519150601f19603f3d011682016040523d82523d6000602084013e61098c565b606091505b50925090508015610a19578151600003610a145773ffffffffffffffffffffffffffffffffffffffff85163b1515836040516020016109cb9190610f3f565b60405160208183030381529060405290610a12576040517f08c379a00000000000000000000000000000000000000000000000000000000081526004016102779190610cab565b505b610a23565b610a238284610a9c565b509392505050565b60608282604051602001610a40929190610f80565b604051602081830303815290604052905092915050565b6000808251604103610a8d5760208301516040840151606085015160001a610a8187828585610b98565b94509450505050610a95565b506000905060025b9250929050565b60208251610aaa9190610faf565b600403610b875760208201517fffffffff0000000000000000000000000000000000000000000000000000000081167f08c379a00000000000000000000000000000000000000000000000000000000003610b76576044830192508183604051602001610b18929190610f80565b604080517fffffffffffffffffffffffffffffffffffffffffffffffffffffffffffffffe0818403018152908290527f08c379a000000000000000000000000000000000000000000000000000000000825261027791600401610cab565b81604051602001610b189190610fea565b80604051602001610b18919061102b565b6000807f7fffffffffffffffffffffffffffffff5d576e7357a4501ddfe92f46681b20a0831115610bcf5750600090506003610c7e565b6040805160008082526020820180845289905260ff881692820192909252606081018690526080810185905260019060a0016020604051602081039080840390855afa158015610c23573d6000803e3d6000fd5b50506040517fffffffffffffffffffffffffffffffffffffffffffffffffffffffffffffffe0015191505073ffffffffffffffffffffffffffffffffffffffff8116610c7757600060019250925050610c7e565b9150600090505b94509492505050565b60005b83811015610ca2578181015183820152602001610c8a565b50506000910152565b6020815260008251806020840152610cca816040850160208701610c87565b601f017fffffffffffffffffffffffffffffffffffffffffffffffffffffffffffffffe0169190910160400192915050565b600060208284031215610d0e57600080fd5b5035919050565b803573ffffffffffffffffffffffffffffffffffffffff81168114610d3957600080fd5b919050565b60008060008060008060008060006101008a8c031215610d5d57600080fd5b893567ffffffffffffffff80821115610d7557600080fd5b908b019060c0828e031215610d8957600080fd5b819a50610d9860208d01610d15565b9950610da660408d01610d15565b985060608c0135975060808c0135915080821115610dc357600080fd5b818c0191508c601f830112610dd757600080fd5b813581811115610de657600080fd5b8d6020828501011115610df857600080fd5b9a9d999c50979a96996020919091019890975060a08701359660c0810135965060e00135945092505050565b600060208284031215610e3657600080fd5b610e3f82610d15565b9392505050565b60008083357fffffffffffffffffffffffffffffffffffffffffffffffffffffffffffffffe1843603018112610e7b57600080fd5b83018035915067ffffffffffffffff821115610e9657600080fd5b602001915036819003821315610a9557600080fd5b8183823760009101908152919050565b7f4e487b7100000000000000000000000000000000000000000000000000000000600052602160045260246000fd5b8284823760609190911b7fffffffffffffffffffffffffffffffffffffffff000000000000000000000000169101908152601401919050565b60008251610f35818460208701610c87565b9190910192915050565b60008251610f51818460208701610c87565b7f43616c6c20746f206e6f6e20636f6e7472616374000000000000000000000000920191825250601401919050565b60008351610f92818460208801610c87565b835190830190610fa6818360208801610c87565b01949350505050565b600082610fe5577f4e487b7100000000000000000000000000000000000000000000000000000000600052601260045260246000fd5b500690565b60008251610ffc818460208701610c87565b7f4e6f4572726f7253656c6563746f720000000000000000000000000000000000920191825250600f01919050565b6000825161103d818460208701610c87565b7f556e657870656374656452657475726e6461746100000000000000000000000092019182525060140191905056fe47656c61746f52656c61793142616c616e6365436f6e63757272656e744552433237373153706f6e736f72656443616c6c436f6e63757272656e74455243323737312875696e7432353620636861696e49642c61646472657373207461726765742c627974657320646174612c6164647265737320757365722c62797465733332207573657253616c742c75696e743235362075736572446561646c696e6529454950373132446f6d61696e28737472696e67206e616d652c737472696e672076657273696f6e2c75696e7432353620636861696e49642c6164647265737320766572696679696e67436f6e74726163742947656c61746f52656c61793142616c616e6365436f6e63757272656e74455243323737312e73706f6e736f72656443616c6c436f6e63757272656e74455243323737313aa2646970667358221220686fbf9b5d3768c5314f3b12162621d50723eea606b5b8a59cde1c334e8415c264736f6c63430008140033",
  "devdoc": {
    "details": "This contract must NEVER hold funds!Maliciously crafted transaction payloads could wipe out any funds left here",
    "kind": "dev",
    "methods": {
      "sponsoredCallConcurrentERC2771((uint256,address,bytes,address,bytes32,uint256),address,address,uint256,bytes,uint256,uint256,bytes32)": {
        "details": "Payment is handled with off-chain accounting using Gelato's 1Balance system",
        "params": {
          "_call": "Relay call data packed into CallWithConcurrentERC2771 struct",
          "_correlationId": "Unique task identifier generated by gelato",
          "_nativeToFeeTokenXRateDenominator": "Exchange rate denominator",
          "_nativeToFeeTokenXRateNumerator": "Exchange rate numerator",
          "_userSignature": "EIP-712 compliant signature from _call.user"
        }
      }
    },
    "title": "Gelato Relay contract",
    "version": 1
  },
  "userdoc": {
    "kind": "user",
    "methods": {
      "sponsoredCallConcurrentERC2771((uint256,address,bytes,address,bytes32,uint256),address,address,uint256,bytes,uint256,uint256,bytes32)": {
        "notice": "Relay call + One Balance payment with _msgSender user signature verification"
      }
    },
    "notice": "This contract deals with synchronous payments and Gelato 1Balance payments",
    "version": 1
  },
  "storageLayout": {
    "storage": [
      {
        "astId": 5515,
        "contract": "contracts/GelatoRelay1BalanceConcurrentERC2771.sol:GelatoRelay1BalanceConcurrentERC2771",
        "label": "hashUsed",
        "offset": 0,
        "slot": "0",
        "type": "t_mapping(t_bytes32,t_bool)"
      }
    ],
    "types": {
      "t_bool": {
        "encoding": "inplace",
        "label": "bool",
        "numberOfBytes": "1"
      },
      "t_bytes32": {
        "encoding": "inplace",
        "label": "bytes32",
        "numberOfBytes": "32"
      },
      "t_mapping(t_bytes32,t_bool)": {
        "encoding": "mapping",
        "key": "t_bytes32",
        "label": "mapping(bytes32 => bool)",
        "numberOfBytes": "32",
        "value": "t_bool"
      }
    }
  }
}