{
  "address": "0x5d9b7540d352dc491b79dcf5f9dae4f3226e5641",
  "abi": [
    {
      "inputs": [
        {
          "internalType": "address",
          "name": "_gelato",
          "type": "address"
        }
      ],
      "stateMutability": "nonpayable",
      "type": "constructor"
    },
    {
      "anonymous": false,
      "inputs": [
        {
          "indexed": true,
          "internalType": "address",
          "name": "sponsor",
          "type": "address"
        },
        {
          "indexed": true,
          "internalType": "address",
          "name": "target",
          "type": "address"
        },
        {
          "indexed": true,
          "internalType": "address",
          "name": "feeToken",
          "type": "address"
        },
        {
          "indexed": false,
          "internalType": "uint256",
          "name": "oneBalanceChainId",
          "type": "uint256"
        },
        {
          "indexed": false,
          "internalType": "uint256",
          "name": "nativeToFeeTokenXRateNumerator",
          "type": "uint256"
        },
        {
          "indexed": false,
          "internalType": "uint256",
          "name": "nativeToFeeTokenXRateDenominator",
          "type": "uint256"
        },
        {
          "indexed": false,
          "internalType": "bytes32",
          "name": "correlationId",
          "type": "bytes32"
        }
      ],
      "name": "LogUseGelato1Balance",
      "type": "event"
    },
    {
      "anonymous": false,
      "inputs": [],
      "name": "LogUseGelato1BalanceV2",
      "type": "event"
    },
    {
      "inputs": [],
      "name": "gelato",
      "outputs": [
        {
          "internalType": "address",
          "name": "",
          "type": "address"
        }
      ],
      "stateMutability": "view",
      "type": "function"
    },
    {
      "inputs": [
        {
          "components": [
            {
              "internalType": "uint256",
              "name": "chainId",
              "type": "uint256"
            },
            {
              "internalType": "address",
              "name": "target",
              "type": "address"
            },
            {
              "internalType": "bytes",
              "name": "data",
              "type": "bytes"
            }
          ],
          "internalType": "struct SponsoredCall",
          "name": "_call",
          "type": "tuple"
        },
        {
          "internalType": "address",
          "name": "_sponsor",
          "type": "address"
        },
        {
          "internalType": "address",
          "name": "_feeToken",
          "type": "address"
        },
        {
          "internalType": "uint256",
          "name": "_oneBalanceChainId",
          "type": "uint256"
        },
        {
          "internalType": "uint256",
          "name": "_nativeToFeeTokenXRateNumerator",
          "type": "uint256"
        },
        {
          "internalType": "uint256",
          "name": "_nativeToFeeTokenXRateDenominator",
          "type": "uint256"
        },
        {
          "internalType": "bytes32",
          "name": "_correlationId",
          "type": "bytes32"
        }
      ],
      "name": "sponsoredCall",
      "outputs": [],
      "stateMutability": "nonpayable",
      "type": "function"
    },
    {
      "inputs": [
        {
          "internalType": "address",
          "name": "_target",
          "type": "address"
        },
        {
          "internalType": "bytes",
          "name": "_data",
          "type": "bytes"
        },
        {
          "internalType": "bytes32",
          "name": "_correlationId",
          "type": "bytes32"
        },
        {
          "internalType": "bytes32",
          "name": "_r",
          "type": "bytes32"
        },
        {
          "internalType": "bytes32",
          "name": "_vs",
          "type": "bytes32"
        }
      ],
      "name": "sponsoredCallV2",
      "outputs": [],
      "stateMutability": "nonpayable",
      "type": "function"
    }
  ],
  "transactionHash": "0x698e293105bcb8019a344901f3dfc3f81f0891cc1b5f6ad751c78c0779c83c82",
  "args": [
    "0x266E4AB6baD069aFc28d3C2CC129f6F8455b1dc2"
  ],
  "numDeployments": 4,
  "solcInputHash": "487f6681fbf6cb61105093a5f5b61282",
  "bytecode": "0x60a060405234801561001057600080fd5b50604051610a51380380610a5183398101604081905261002f91610040565b6001600160a01b0316608052610070565b60006020828403121561005257600080fd5b81516001600160a01b038116811461006957600080fd5b9392505050565b6080516109c1610090600039600081816060015260d601526109c16000f3fe608060405234801561001057600080fd5b50600436106100415760003560e01c806327be3c2414610046578063573ea5751461005b578063ad718d2a146100ab575b600080fd5b61005961005436600461061d565b6100be565b005b6100827f000000000000000000000000000000000000000000000000000000000000000081565b60405173ffffffffffffffffffffffffffffffffffffffff909116815260200160405180910390f35b6100596100b93660046106a5565b610330565b3373ffffffffffffffffffffffffffffffffffffffff7f00000000000000000000000000000000000000000000000000000000000000001614610162576040517f08c379a000000000000000000000000000000000000000000000000000000000815260206004820152601760248201527f4f6e6c792063616c6c61626c652062792067656c61746f00000000000000000060448201526064015b60405180910390fd5b863546146101f2576040517f08c379a000000000000000000000000000000000000000000000000000000000815260206004820152602160248201527f47656c61746f52656c61792e73706f6e736f72656443616c6c3a636861696e6960448201527f64000000000000000000000000000000000000000000000000000000000000006064820152608401610159565b61029b610202604089018961073f565b8080601f01602080910402602001604051908101604052809392919081815260200183838082843760009201919091525050604080518082018252601a81527f47656c61746f52656c61792e73706f6e736f72656443616c6c3a00000000000060208083019190915290935061027e9250908c01908c016107ab565b73ffffffffffffffffffffffffffffffffffffffff1691906103ee565b5073ffffffffffffffffffffffffffffffffffffffff85166102c36040890160208a016107ab565b60408051878152602081018790529081018590526060810184905273ffffffffffffffffffffffffffffffffffffffff918216918916907f116bfd46451bbd23e7a5f5b7420b28e3d98d4c477f173da513aaaeac3c4baada9060800160405180910390a450505050505050565b6103bc85858080601f0160208091040260200160405190810160405280939291908181526020018383808284376000920191909152505060408051808201909152601c81527f47656c61746f52656c61792e73706f6e736f72656443616c6c56323a00000000602082015273ffffffffffffffffffffffffffffffffffffffff8b1693925090506103ee565b506040517f8e4f8b7f1299a63a6b46587ec357933d2006e5697cd46d99297e670cee1dbeb190600090a1505050505050565b606060008473ffffffffffffffffffffffffffffffffffffffff168460405161041791906107f1565b6000604051808303816000865af19150503d8060008114610454576040519150601f19603f3d011682016040523d82523d6000602084013e610459565b606091505b509250905080156104e65781516000036104e15773ffffffffffffffffffffffffffffffffffffffff85163b151583604051602001610498919061080d565b604051602081830303815290604052906104df576040517f08c379a0000000000000000000000000000000000000000000000000000000008152600401610159919061084e565b505b6104f0565b6104f082846104f8565b509392505050565b60208251610506919061089f565b6004036105e35760208201517fffffffff0000000000000000000000000000000000000000000000000000000081167f08c379a000000000000000000000000000000000000000000000000000000000036105d25760448301925081836040516020016105749291906108da565b604080517fffffffffffffffffffffffffffffffffffffffffffffffffffffffffffffffe0818403018152908290527f08c379a00000000000000000000000000000000000000000000000000000000082526101599160040161084e565b816040516020016105749190610909565b80604051602001610574919061094a565b803573ffffffffffffffffffffffffffffffffffffffff8116811461061857600080fd5b919050565b600080600080600080600060e0888a03121561063857600080fd5b873567ffffffffffffffff81111561064f57600080fd5b88016060818b03121561066157600080fd5b965061066f602089016105f4565b955061067d604089016105f4565b969995985095966060810135965060808101359560a0820135955060c0909101359350915050565b60008060008060008060a087890312156106be57600080fd5b6106c7876105f4565b9550602087013567ffffffffffffffff808211156106e457600080fd5b818901915089601f8301126106f857600080fd5b81358181111561070757600080fd5b8a602082850101111561071957600080fd5b979a60209290920199509697604081013597506060810135965060800135945092505050565b60008083357fffffffffffffffffffffffffffffffffffffffffffffffffffffffffffffffe184360301811261077457600080fd5b83018035915067ffffffffffffffff82111561078f57600080fd5b6020019150368190038213156107a457600080fd5b9250929050565b6000602082840312156107bd57600080fd5b6107c6826105f4565b9392505050565b60005b838110156107e85781810151838201526020016107d0565b50506000910152565b600082516108038184602087016107cd565b9190910192915050565b6000825161081f8184602087016107cd565b7f43616c6c20746f206e6f6e20636f6e7472616374000000000000000000000000920191825250601401919050565b602081526000825180602084015261086d8160408501602087016107cd565b601f017fffffffffffffffffffffffffffffffffffffffffffffffffffffffffffffffe0169190910160400192915050565b6000826108d5577f4e487b7100000000000000000000000000000000000000000000000000000000600052601260045260246000fd5b500690565b600083516108ec8184602088016107cd565b8351908301906109008183602088016107cd565b01949350505050565b6000825161091b8184602087016107cd565b7f4e6f4572726f7253656c6563746f720000000000000000000000000000000000920191825250600f01919050565b6000825161095c8184602087016107cd565b7f556e657870656374656452657475726e6461746100000000000000000000000092019182525060140191905056fea2646970667358221220a0b9012f356da591a3a95095c1c9bdae63a29140c46da5ef2eea5943b1445d4864736f6c63430008140033",
  "devdoc": {
    "details": "This contract must NEVER hold funds!Maliciously crafted transaction payloads could wipe out any funds left here",
    "kind": "dev",
    "methods": {
      "sponsoredCall((uint256,address,bytes),address,address,uint256,uint256,uint256,bytes32)": {
        "details": "Payment is handled with off-chain accounting using Gelato's 1Balance system",
        "params": {
          "_call": "Relay call data packed into SponsoredCall struct",
          "_correlationId": "Unique task identifier generated by gelato",
          "_nativeToFeeTokenXRateDenominator": "Exchange rate denominator",
          "_nativeToFeeTokenXRateNumerator": "Exchange rate numerator"
        }
      },
      "sponsoredCallV2(address,bytes,bytes32,bytes32,bytes32)": {
        "details": "This method can be called directly without passing through the diamondThe validity of the emitted LogUseGelato1BalanceV2 event must be verified off-chainPayment is handled with off-chain accounting using Gelato's 1Balance system",
        "params": {
          "_correlationId": "Unique task identifier generated by gelato Signature is split into `r` and `vs` - See https://eips.ethereum.org/EIPS/eip-2098",
          "_data": "Relay call data",
          "_r": "Checker signature",
          "_target": "Relay call target",
          "_vs": "Checker signature"
        }
      }
    },
    "title": "Gelato Relay contract",
    "version": 1
  },
  "userdoc": {
    "kind": "user",
    "methods": {
      "sponsoredCall((uint256,address,bytes),address,address,uint256,uint256,uint256,bytes32)": {
        "notice": "Relay call + One Balance payment - with sponsor authenticationOracle value for exchange rate between native tokens and fee token"
      },
      "sponsoredCallV2(address,bytes,bytes32,bytes32,bytes32)": {
        "notice": "Relay call + One Balance payment - with sponsor authentication"
      }
    },
    "notice": "This contract deals with synchronous payments and Gelato 1Balance payments",
    "version": 1
  },
  "storageLayout": {
    "storage": [],
    "types": null
  }
}