{
  "address": "0x2caD01dE572e00af828e5FB02EBf9821f03eD8f0",
  "abi": [
    {
      "inputs": [
        {
          "internalType": "address",
          "name": "_gelato",
          "type": "address"
        }
      ],
      "stateMutability": "nonpayable",
      "type": "constructor"
    },
    {
      "anonymous": false,
      "inputs": [
        {
          "indexed": true,
          "internalType": "address",
          "name": "sponsor",
          "type": "address"
        },
        {
          "indexed": true,
          "internalType": "address",
          "name": "user",
          "type": "address"
        },
        {
          "indexed": true,
          "internalType": "address",
          "name": "target",
          "type": "address"
        },
        {
          "indexed": false,
          "internalType": "address",
          "name": "feeToken",
          "type": "address"
        },
        {
          "indexed": false,
          "internalType": "uint256",
          "name": "fee",
          "type": "uint256"
        },
        {
          "indexed": false,
          "internalType": "bytes32",
          "name": "taskId",
          "type": "bytes32"
        }
      ],
      "name": "LogMetaTxRequestPullFee",
      "type": "event"
    },
    {
      "anonymous": false,
      "inputs": [
        {
          "indexed": true,
          "internalType": "address",
          "name": "previousOwner",
          "type": "address"
        },
        {
          "indexed": true,
          "internalType": "address",
          "name": "newOwner",
          "type": "address"
        }
      ],
      "name": "OwnershipTransferred",
      "type": "event"
    },
    {
      "anonymous": false,
      "inputs": [
        {
          "indexed": false,
          "internalType": "address",
          "name": "account",
          "type": "address"
        }
      ],
      "name": "Paused",
      "type": "event"
    },
    {
      "anonymous": false,
      "inputs": [
        {
          "indexed": false,
          "internalType": "address",
          "name": "account",
          "type": "address"
        }
      ],
      "name": "Unpaused",
      "type": "event"
    },
    {
      "inputs": [],
      "name": "EIP712_DOMAIN_TYPE",
      "outputs": [
        {
          "internalType": "string",
          "name": "",
          "type": "string"
        }
      ],
      "stateMutability": "view",
      "type": "function"
    },
    {
      "inputs": [],
      "name": "METATX_REQUEST_TYPEHASH",
      "outputs": [
        {
          "internalType": "bytes32",
          "name": "",
          "type": "bytes32"
        }
      ],
      "stateMutability": "view",
      "type": "function"
    },
    {
      "inputs": [],
      "name": "chainId",
      "outputs": [
        {
          "internalType": "uint256",
          "name": "",
          "type": "uint256"
        }
      ],
      "stateMutability": "view",
      "type": "function"
    },
    {
      "inputs": [
        {
          "internalType": "address",
          "name": "_dest",
          "type": "address"
        }
      ],
      "name": "delistDest",
      "outputs": [],
      "stateMutability": "nonpayable",
      "type": "function"
    },
    {
      "inputs": [],
      "name": "gelato",
      "outputs": [
        {
          "internalType": "address",
          "name": "",
          "type": "address"
        }
      ],
      "stateMutability": "view",
      "type": "function"
    },
    {
      "inputs": [],
      "name": "getDomainSeparator",
      "outputs": [
        {
          "internalType": "bytes32",
          "name": "",
          "type": "bytes32"
        }
      ],
      "stateMutability": "view",
      "type": "function"
    },
    {
      "inputs": [],
      "name": "getWhitelistedDest",
      "outputs": [
        {
          "internalType": "address[]",
          "name": "",
          "type": "address[]"
        }
      ],
      "stateMutability": "view",
      "type": "function"
    },
    {
      "inputs": [
        {
          "components": [
            {
              "internalType": "uint256",
              "name": "chainId",
              "type": "uint256"
            },
            {
              "internalType": "address",
              "name": "target",
              "type": "address"
            },
            {
              "internalType": "bytes",
              "name": "data",
              "type": "bytes"
            },
            {
              "internalType": "address",
              "name": "feeToken",
              "type": "address"
            },
            {
              "internalType": "uint256",
              "name": "paymentType",
              "type": "uint256"
            },
            {
              "internalType": "uint256",
              "name": "maxFee",
              "type": "uint256"
            },
            {
              "internalType": "address",
              "name": "user",
              "type": "address"
            },
            {
              "internalType": "address",
              "name": "sponsor",
              "type": "address"
            },
            {
              "internalType": "uint256",
              "name": "sponsorChainId",
              "type": "uint256"
            },
            {
              "internalType": "uint256",
              "name": "nonce",
              "type": "uint256"
            },
            {
              "internalType": "uint256",
              "name": "deadline",
              "type": "uint256"
            }
          ],
          "internalType": "struct MetaTxRequest",
          "name": "_req",
          "type": "tuple"
        },
        {
          "internalType": "bytes",
          "name": "_userSignature",
          "type": "bytes"
        },
        {
          "internalType": "bytes",
          "name": "_sponsorSignature",
          "type": "bytes"
        },
        {
          "internalType": "uint256",
          "name": "_gelatoFee",
          "type": "uint256"
        },
        {
          "internalType": "bytes32",
          "name": "_taskId",
          "type": "bytes32"
        }
      ],
      "name": "metaTxRequestPullFee",
      "outputs": [],
      "stateMutability": "nonpayable",
      "type": "function"
    },
    {
      "inputs": [
        {
          "internalType": "address",
          "name": "",
          "type": "address"
        }
      ],
      "name": "nonce",
      "outputs": [
        {
          "internalType": "uint256",
          "name": "",
          "type": "uint256"
        }
      ],
      "stateMutability": "view",
      "type": "function"
    },
    {
      "inputs": [],
      "name": "owner",
      "outputs": [
        {
          "internalType": "address",
          "name": "",
          "type": "address"
        }
      ],
      "stateMutability": "view",
      "type": "function"
    },
    {
      "inputs": [],
      "name": "pause",
      "outputs": [],
      "stateMutability": "nonpayable",
      "type": "function"
    },
    {
      "inputs": [],
      "name": "paused",
      "outputs": [
        {
          "internalType": "bool",
          "name": "",
          "type": "bool"
        }
      ],
      "stateMutability": "view",
      "type": "function"
    },
    {
      "inputs": [],
      "name": "renounceOwnership",
      "outputs": [],
      "stateMutability": "nonpayable",
      "type": "function"
    },
    {
      "inputs": [
        {
          "internalType": "address",
          "name": "newOwner",
          "type": "address"
        }
      ],
      "name": "transferOwnership",
      "outputs": [],
      "stateMutability": "nonpayable",
      "type": "function"
    },
    {
      "inputs": [],
      "name": "unpause",
      "outputs": [],
      "stateMutability": "nonpayable",
      "type": "function"
    },
    {
      "inputs": [
        {
          "internalType": "address",
          "name": "_dest",
          "type": "address"
        }
      ],
      "name": "whitelistDest",
      "outputs": [],
      "stateMutability": "nonpayable",
      "type": "function"
    }
  ],
  "transactionHash": "0xcaa4d4408fb54f2798e5c417a194d2eb91a80e6a01a61fbfd96e6577b8be2c2f",
  "args": [
    "0x0630d1b8C2df3F0a68Df578D02075027a6397173"
  ],
  "numDeployments": 1,
  "solcInputHash": "07d9e0e51d624db3a8352ca337e57f64",
  "bytecode": "0x60c06040523480156200001157600080fd5b5060405162002551380380620025518339810160408190526200003491620000b2565b6200003f3362000062565b6000805460ff60a01b191690556001600160a01b03166080524660a052620000e4565b600080546001600160a01b038381166001600160a01b0319831681178455604051919092169283917f8be0079c531659141344cd1fd0a4f28419497f9722a3daafe3b4186f6b6457e09190a35050565b600060208284031215620000c557600080fd5b81516001600160a01b0381168114620000dd57600080fd5b9392505050565b60805160a05161242b6200012660003960008181610249015281816103c00152610fe201526000818161016e015281816102b301526109ed015261242b6000f3fe608060405234801561001057600080fd5b50600436106101005760003560e01c806370ae92d2116100975780639a8a0592116100665780639a8a059214610244578063c3f28abd1461026b578063ed24911d14610280578063f2fde38b1461028857600080fd5b806370ae92d2146101f6578063715018a6146102165780638456cb591461021e5780638da5cb5b1461022657600080fd5b80635550b0f4116100d35780635550b0f414610156578063573ea575146101695780635c975abb146101b557806366118cb5146101e357600080fd5b8063055c3f09146101055780630683d46d1461011a5780633e40957d146101385780633f4ba83a1461014e575b600080fd5b610118610113366004611eec565b61029b565b005b610122610af5565b60405161012f9190611f99565b60405180910390f35b610140610bb2565b60405190815260200161012f565b610118610bd5565b610118610164366004611ff3565b610c60565b6101907f000000000000000000000000000000000000000000000000000000000000000081565b60405173ffffffffffffffffffffffffffffffffffffffff909116815260200161012f565b60005474010000000000000000000000000000000000000000900460ff16604051901515815260200161012f565b6101186101f1366004611ff3565b610d88565b610140610204366004611ff3565b60016020526000908152604090205481565b610118610eab565b610118610f36565b60005473ffffffffffffffffffffffffffffffffffffffff16610190565b6101407f000000000000000000000000000000000000000000000000000000000000000081565b610273610fbf565b60405161012f9190612055565b610140610fdb565b610118610296366004611ff3565b61100b565b3373ffffffffffffffffffffffffffffffffffffffff7f0000000000000000000000000000000000000000000000000000000000000000161461033f576040517f08c379a000000000000000000000000000000000000000000000000000000000815260206004820152601760248201527f4f6e6c792063616c6c61626c652062792067656c61746f00000000000000000060448201526064015b60405180910390fd5b610140870135158061035657504287610140013510155b6103bc576040517f08c379a000000000000000000000000000000000000000000000000000000000815260206004820152600f60248201527f52657175657374206578706972656400000000000000000000000000000000006044820152606401610336565b86357f000000000000000000000000000000000000000000000000000000000000000014610446576040517f08c379a000000000000000000000000000000000000000000000000000000000815260206004820152600d60248201527f57726f6e6720636861696e4964000000000000000000000000000000000000006044820152606401610336565b86608001356003146104b4576040517f08c379a000000000000000000000000000000000000000000000000000000000815260206004820152601560248201527f7061796d656e7454797065206d757374206265203300000000000000000000006044820152606401610336565b6104cf6104c76040890160208a01611ff3565b60029061113b565b610535576040517f08c379a000000000000000000000000000000000000000000000000000000000815260206004820152601e60248201527f7461726765742061646472657373206e6f742077686974656c697374656400006044820152606401610336565b73eeeeeeeeeeeeeeeeeeeeeeeeeeeeeeeeeeeeeeee61055a6080890160608a01611ff3565b73ffffffffffffffffffffffffffffffffffffffff16036105fd576040517f08c379a000000000000000000000000000000000000000000000000000000000815260206004820152602c60248201527f4e617469766520746f6b656e206e6f7420737570706f7274656420666f72207060448201527f61796d656e7454797065203300000000000000000000000000000000000000006064820152608401610336565b8660a0013582111561066b576040517f08c379a000000000000000000000000000000000000000000000000000000000815260206004820152601560248201527f4578656375746f72206f7665722d6368617267656400000000000000000000006044820152606401610336565b600060018161068060e08b0160c08c01611ff3565b73ffffffffffffffffffffffffffffffffffffffff1673ffffffffffffffffffffffffffffffffffffffff168152602001908152602001600020549050808861012001351461072b576040517f08c379a000000000000000000000000000000000000000000000000000000000815260206004820152600d60248201527f496e76616c6964206e6f6e6365000000000000000000000000000000000000006044820152606401610336565b6107368160016120d5565b6001600061074a60e08c0160c08d01611ff3565b73ffffffffffffffffffffffffffffffffffffffff16815260208101919091526040016000205561078c88888861078760e0840160c08501611ff3565b61116f565b61079d610100890160e08a01611ff3565b73ffffffffffffffffffffffffffffffffffffffff166107c360e08a0160c08b01611ff3565b73ffffffffffffffffffffffffffffffffffffffff16146107f5576107f5888686610787610100840160e08501611ff3565b61082461080860408a0160208b01611ff3565b73ffffffffffffffffffffffffffffffffffffffff163b151590565b61088a576040517f08c379a000000000000000000000000000000000000000000000000000000000815260206004820152600f60248201527f43616e6e6f742063616c6c20454f4100000000000000000000000000000000006044820152606401610336565b600061089c60408a0160208b01611ff3565b73ffffffffffffffffffffffffffffffffffffffff166108bf60408b018b6120ed565b6108cf60e08d0160c08e01611ff3565b6040516020016108e193929190612152565b604080517fffffffffffffffffffffffffffffffffffffffffffffffffffffffffffffffe0818403018152908290526109199161218b565b6000604051808303816000865af19150503d8060008114610956576040519150601f19603f3d011682016040523d82523d6000602084013e61095b565b606091505b50509050806109c6576040517f08c379a000000000000000000000000000000000000000000000000000000000815260206004820152601460248201527f45787465726e616c2063616c6c206661696c65640000000000000000000000006044820152606401610336565b50610a126109da60808a0160608b01611ff3565b6109eb6101008b0160e08c01611ff3565b7f0000000000000000000000000000000000000000000000000000000000000000866112ec565b610a226040890160208a01611ff3565b73ffffffffffffffffffffffffffffffffffffffff16610a4860e08a0160c08b01611ff3565b73ffffffffffffffffffffffffffffffffffffffff16610a6f6101008b0160e08c01611ff3565b73ffffffffffffffffffffffffffffffffffffffff167f03dd5aff697664a4c8b7e1f1980ca40037a34cecaf0a02ffc2b4e83689bd6df9610ab660808d0160608e01611ff3565b6040805173ffffffffffffffffffffffffffffffffffffffff909216825260208201899052810187905260600160405180910390a45050505050505050565b60606000610b036002611387565b905060008167ffffffffffffffff811115610b2057610b206121a7565b604051908082528060200260200182016040528015610b49578160200160208202803683370190505b50905060005b82811015610bab57610b62600282611391565b828281518110610b7457610b746121d6565b73ffffffffffffffffffffffffffffffffffffffff9092166020928302919091019091015280610ba381612205565b915050610b4f565b5092915050565b6040518060e0016040528060bf81526020016122e560bf91398051906020012081565b60005473ffffffffffffffffffffffffffffffffffffffff163314610c56576040517f08c379a000000000000000000000000000000000000000000000000000000000815260206004820181905260248201527f4f776e61626c653a2063616c6c6572206973206e6f7420746865206f776e65726044820152606401610336565b610c5e61139d565b565b60005473ffffffffffffffffffffffffffffffffffffffff163314610ce1576040517f08c379a000000000000000000000000000000000000000000000000000000000815260206004820181905260248201527f4f776e61626c653a2063616c6c6572206973206e6f7420746865206f776e65726044820152606401610336565b610cec60028261113b565b15610d79576040517f08c379a000000000000000000000000000000000000000000000000000000000815260206004820152602760248201527f44657374696e6174696f6e206164647265737320616c7265616479207768697460448201527f656c6973746564000000000000000000000000000000000000000000000000006064820152608401610336565b610d84600282611496565b5050565b60005473ffffffffffffffffffffffffffffffffffffffff163314610e09576040517f08c379a000000000000000000000000000000000000000000000000000000000815260206004820181905260248201527f4f776e61626c653a2063616c6c6572206973206e6f7420746865206f776e65726044820152606401610336565b610e1460028261113b565b610ea0576040517f08c379a000000000000000000000000000000000000000000000000000000000815260206004820152602360248201527f44657374696e6174696f6e2061646472657373206e6f742077686974656c697360448201527f74656400000000000000000000000000000000000000000000000000000000006064820152608401610336565b610d846002826114b8565b60005473ffffffffffffffffffffffffffffffffffffffff163314610f2c576040517f08c379a000000000000000000000000000000000000000000000000000000000815260206004820181905260248201527f4f776e61626c653a2063616c6c6572206973206e6f7420746865206f776e65726044820152606401610336565b610c5e60006114da565b60005473ffffffffffffffffffffffffffffffffffffffff163314610fb7576040517f08c379a000000000000000000000000000000000000000000000000000000000815260206004820181905260248201527f4f776e61626c653a2063616c6c6572206973206e6f7420746865206f776e65726044820152606401610336565b610c5e61154f565b6040518060800160405280605281526020016123a46052913981565b60006110067f000000000000000000000000000000000000000000000000000000000000000061163b565b905090565b60005473ffffffffffffffffffffffffffffffffffffffff16331461108c576040517f08c379a000000000000000000000000000000000000000000000000000000000815260206004820181905260248201527f4f776e61626c653a2063616c6c6572206973206e6f7420746865206f776e65726044820152606401610336565b73ffffffffffffffffffffffffffffffffffffffff811661112f576040517f08c379a000000000000000000000000000000000000000000000000000000000815260206004820152602660248201527f4f776e61626c653a206e6577206f776e657220697320746865207a65726f206160448201527f64647265737300000000000000000000000000000000000000000000000000006064820152608401610336565b611138816114da565b50565b73ffffffffffffffffffffffffffffffffffffffff8116600090815260018301602052604081205415155b90505b92915050565b600061117b853561163b565b905060008161118987611741565b80516020918201206040516111d09392017f190100000000000000000000000000000000000000000000000000000000000081526002810192909252602282015260420190565b60405160208183030381529060405280519060200120905060008061122b8388888080601f01602080910402602001604051908101604052809392919081815260200183838082843760009201919091525061187392505050565b909250905060008160048111156112445761124461223d565b14801561127c57508473ffffffffffffffffffffffffffffffffffffffff168273ffffffffffffffffffffffffffffffffffffffff16145b6112e2576040517f08c379a000000000000000000000000000000000000000000000000000000000815260206004820152601160248201527f496e76616c6964207369676e61747572650000000000000000000000000000006044820152606401610336565b5050505050505050565b6040805173ffffffffffffffffffffffffffffffffffffffff85811660248301528416604482015260648082018490528251808303909101815260849091019091526020810180517bffffffffffffffffffffffffffffffffffffffffffffffffffffffff167f23b872dd000000000000000000000000000000000000000000000000000000001790526113819085906118e1565b50505050565b6000611169825490565b600061116683836119f2565b60005474010000000000000000000000000000000000000000900460ff16611421576040517f08c379a000000000000000000000000000000000000000000000000000000000815260206004820152601460248201527f5061757361626c653a206e6f74207061757365640000000000000000000000006044820152606401610336565b600080547fffffffffffffffffffffff00ffffffffffffffffffffffffffffffffffffffff1690557f5db9ee0a495bf2e6ff9c91a7834c1ba4fdd244a5e8aa4e537bd38aeae4b073aa335b60405173ffffffffffffffffffffffffffffffffffffffff909116815260200160405180910390a1565b60006111668373ffffffffffffffffffffffffffffffffffffffff8416611a1c565b60006111668373ffffffffffffffffffffffffffffffffffffffff8416611a6b565b6000805473ffffffffffffffffffffffffffffffffffffffff8381167fffffffffffffffffffffffff0000000000000000000000000000000000000000831681178455604051919092169283917f8be0079c531659141344cd1fd0a4f28419497f9722a3daafe3b4186f6b6457e09190a35050565b60005474010000000000000000000000000000000000000000900460ff16156115d4576040517f08c379a000000000000000000000000000000000000000000000000000000000815260206004820152601060248201527f5061757361626c653a20706175736564000000000000000000000000000000006044820152606401610336565b600080547fffffffffffffffffffffff00ffffffffffffffffffffffffffffffffffffffff16740100000000000000000000000000000000000000001790557f62e78cea01bee320cd4e420270b5ea74000d11b0c9f74754ebdbfc544b05a25861146c3390565b60006040518060800160405280605281526020016123a4605291398051602091820120604080518082018252600d81527f47656c61746f4d657461426f78000000000000000000000000000000000000009084015280518082018252600281527f5631000000000000000000000000000000000000000000000000000000000000908401528051928301919091527f919f16ca789a3e2bbe70bbe2c4e0a9ff8affaab44711ff9ce735a3f4eef9b2d9908201527f4c23426613a5dc69e08fbd2787e6210aa679d4522e95a89d4dd88c4fd13a22836060820152608081018390523060a082015260c001604051602081830303815290604052805190602001209050919050565b60606040518060e0016040528060bf81526020016122e560bf91398051602091820120908335906117789060408601908601611ff3565b61178560408601866120ed565b60405161179392919061226c565b6040519081900390206117ac6080870160608801611ff3565b608087013560a08801356117c660e08a0160c08b01611ff3565b6117d76101008b0160e08c01611ff3565b60408051602081019a909a5289019790975273ffffffffffffffffffffffffffffffffffffffff9586166060890152608088019490945291841660a087015260c086015260e08501528116610100848101919091529116610120838101919091529084013561014083810191909152908401356101608301528301356101808201526101a0016040516020818303038152906040529050919050565b60008082516041036118a95760208301516040840151606085015160001a61189d87828585611b5e565b945094505050506118da565b82516040036118d257602083015160408401516118c7868383611c76565b9350935050506118da565b506000905060025b9250929050565b6000611943826040518060400160405280602081526020017f5361666545524332303a206c6f772d6c6576656c2063616c6c206661696c65648152508573ffffffffffffffffffffffffffffffffffffffff16611cbe9092919063ffffffff16565b8051909150156119ed5780806020019051810190611961919061227c565b6119ed576040517f08c379a000000000000000000000000000000000000000000000000000000000815260206004820152602a60248201527f5361666545524332303a204552433230206f7065726174696f6e20646964206e60448201527f6f742073756363656564000000000000000000000000000000000000000000006064820152608401610336565b505050565b6000826000018281548110611a0957611a096121d6565b9060005260206000200154905092915050565b6000818152600183016020526040812054611a6357508154600181810184556000848152602080822090930184905584548482528286019093526040902091909155611169565b506000611169565b60008181526001830160205260408120548015611b54576000611a8f60018361229e565b8554909150600090611aa39060019061229e565b9050818114611b08576000866000018281548110611ac357611ac36121d6565b9060005260206000200154905080876000018481548110611ae657611ae66121d6565b6000918252602080832090910192909255918252600188019052604090208390555b8554869080611b1957611b196122b5565b600190038181906000526020600020016000905590558560010160008681526020019081526020016000206000905560019350505050611169565b6000915050611169565b6000807f7fffffffffffffffffffffffffffffff5d576e7357a4501ddfe92f46681b20a0831115611b955750600090506003611c6d565b8460ff16601b14158015611bad57508460ff16601c14155b15611bbe5750600090506004611c6d565b6040805160008082526020820180845289905260ff881692820192909252606081018690526080810185905260019060a0016020604051602081039080840390855afa158015611c12573d6000803e3d6000fd5b50506040517fffffffffffffffffffffffffffffffffffffffffffffffffffffffffffffffe0015191505073ffffffffffffffffffffffffffffffffffffffff8116611c6657600060019250925050611c6d565b9150600090505b94509492505050565b6000807f7fffffffffffffffffffffffffffffffffffffffffffffffffffffffffffffff831660ff84901c601b01611cb087828885611b5e565b935093505050935093915050565b6060611ccd8484600085611cd7565b90505b9392505050565b606082471015611d69576040517f08c379a000000000000000000000000000000000000000000000000000000000815260206004820152602660248201527f416464726573733a20696e73756666696369656e742062616c616e636520666f60448201527f722063616c6c00000000000000000000000000000000000000000000000000006064820152608401610336565b843b611dd1576040517f08c379a000000000000000000000000000000000000000000000000000000000815260206004820152601d60248201527f416464726573733a2063616c6c20746f206e6f6e2d636f6e74726163740000006044820152606401610336565b6000808673ffffffffffffffffffffffffffffffffffffffff168587604051611dfa919061218b565b60006040518083038185875af1925050503d8060008114611e37576040519150601f19603f3d011682016040523d82523d6000602084013e611e3c565b606091505b5091509150611e4c828286611e57565b979650505050505050565b60608315611e66575081611cd0565b825115611e765782518084602001fd5b816040517f08c379a00000000000000000000000000000000000000000000000000000000081526004016103369190612055565b60008083601f840112611ebc57600080fd5b50813567ffffffffffffffff811115611ed457600080fd5b6020830191508360208285010111156118da57600080fd5b600080600080600080600060a0888a031215611f0757600080fd5b873567ffffffffffffffff80821115611f1f57600080fd5b90890190610160828c031215611f3457600080fd5b90975060208901359080821115611f4a57600080fd5b611f568b838c01611eaa565b909850965060408a0135915080821115611f6f57600080fd5b50611f7c8a828b01611eaa565b989b979a5095989597966060870135966080013595509350505050565b6020808252825182820181905260009190848201906040850190845b81811015611fe757835173ffffffffffffffffffffffffffffffffffffffff1683529284019291840191600101611fb5565b50909695505050505050565b60006020828403121561200557600080fd5b813573ffffffffffffffffffffffffffffffffffffffff81168114611cd057600080fd5b60005b8381101561204457818101518382015260200161202c565b838111156113815750506000910152565b6020815260008251806020840152612074816040850160208701612029565b601f017fffffffffffffffffffffffffffffffffffffffffffffffffffffffffffffffe0169190910160400192915050565b7f4e487b7100000000000000000000000000000000000000000000000000000000600052601160045260246000fd5b600082198211156120e8576120e86120a6565b500190565b60008083357fffffffffffffffffffffffffffffffffffffffffffffffffffffffffffffffe184360301811261212257600080fd5b83018035915067ffffffffffffffff82111561213d57600080fd5b6020019150368190038213156118da57600080fd5b8284823760609190911b7fffffffffffffffffffffffffffffffffffffffff000000000000000000000000169101908152601401919050565b6000825161219d818460208701612029565b9190910192915050565b7f4e487b7100000000000000000000000000000000000000000000000000000000600052604160045260246000fd5b7f4e487b7100000000000000000000000000000000000000000000000000000000600052603260045260246000fd5b60007fffffffffffffffffffffffffffffffffffffffffffffffffffffffffffffffff8203612236576122366120a6565b5060010190565b7f4e487b7100000000000000000000000000000000000000000000000000000000600052602160045260246000fd5b8183823760009101908152919050565b60006020828403121561228e57600080fd5b81518015158114611cd057600080fd5b6000828210156122b0576122b06120a6565b500390565b7f4e487b7100000000000000000000000000000000000000000000000000000000600052603160045260246000fdfe4d6574615478526571756573742875696e7432353620636861696e49642c61646472657373207461726765742c627974657320646174612c6164647265737320666565546f6b656e2c75696e74323536207061796d656e74547970652c75696e74323536206d61784665652c6164647265737320757365722c616464726573732073706f6e736f722c75696e743235362073706f6e736f72436861696e49642c75696e74323536206e6f6e63652c75696e7432353620646561646c696e6529454950373132446f6d61696e28737472696e67206e616d652c737472696e672076657273696f6e2c75696e7432353620636861696e49642c6164647265737320766572696679696e67436f6e747261637429a26469706673582212206e40fa9ee6d02e972612e480a86e0f94e2d53e3fd08b37ad8a6c213403e6ec1a64736f6c634300080d0033",
  "devdoc": {
    "kind": "dev",
    "methods": {
      "metaTxRequestPullFee((uint256,address,bytes,address,uint256,uint256,address,address,uint256,uint256,uint256),bytes,bytes,uint256,bytes32)": {
        "details": "Assumes that _req.sponsor has approved this contract to spend _req.feeToken",
        "params": {
          "_gelatoFee": "Fee to be charged by Gelato relayer, denominated in _req.feeToken",
          "_req": "Relay request data",
          "_sponsorSignature": "EIP-712 compliant signature from _req.sponsor                          (can be same as _userSignature)",
          "_taskId": "Gelato task id",
          "_userSignature": "EIP-712 compliant signature from _req.user"
        }
      },
      "owner()": {
        "details": "Returns the address of the current owner."
      },
      "paused()": {
        "details": "Returns true if the contract is paused, and false otherwise."
      },
      "renounceOwnership()": {
        "details": "Leaves the contract without owner. It will not be possible to call `onlyOwner` functions anymore. Can only be called by the current owner. NOTE: Renouncing ownership will leave the contract without an owner, thereby removing any functionality that is only available to the owner."
      },
      "transferOwnership(address)": {
        "details": "Transfers ownership of the contract to a new account (`newOwner`). Can only be called by the current owner."
      }
    },
    "version": 1
  },
  "userdoc": {
    "kind": "user",
    "methods": {
      "metaTxRequestPullFee((uint256,address,bytes,address,uint256,uint256,address,address,uint256,uint256,uint256),bytes,bytes,uint256,bytes32)": {
        "notice": "Relay meta tx request + pull fee from (transferFrom) _req.sponsor's addressEOA that originates the tx, but does not necessarily pay the relayerHandles the case of tokens with fee on transfer"
      }
    },
    "version": 1
  },
  "storageLayout": {
    "storage": [
      {
        "astId": 326,
        "contract": "contracts/GelatoMetaBoxPullFee.sol:GelatoMetaBoxPullFee",
        "label": "_owner",
        "offset": 0,
        "slot": "0",
        "type": "t_address"
      },
      {
        "astId": 518,
        "contract": "contracts/GelatoMetaBoxPullFee.sol:GelatoMetaBoxPullFee",
        "label": "_paused",
        "offset": 20,
        "slot": "0",
        "type": "t_bool"
      },
      {
        "astId": 2833,
        "contract": "contracts/GelatoMetaBoxPullFee.sol:GelatoMetaBoxPullFee",
        "label": "nonce",
        "offset": 0,
        "slot": "1",
        "type": "t_mapping(t_address,t_uint256)"
      },
      {
        "astId": 2836,
        "contract": "contracts/GelatoMetaBoxPullFee.sol:GelatoMetaBoxPullFee",
        "label": "_whitelistedDest",
        "offset": 0,
        "slot": "2",
        "type": "t_struct(AddressSet)2118_storage"
      }
    ],
    "types": {
      "t_address": {
        "encoding": "inplace",
        "label": "address",
        "numberOfBytes": "20"
      },
      "t_array(t_bytes32)dyn_storage": {
        "base": "t_bytes32",
        "encoding": "dynamic_array",
        "label": "bytes32[]",
        "numberOfBytes": "32"
      },
      "t_bool": {
        "encoding": "inplace",
        "label": "bool",
        "numberOfBytes": "1"
      },
      "t_bytes32": {
        "encoding": "inplace",
        "label": "bytes32",
        "numberOfBytes": "32"
      },
      "t_mapping(t_address,t_uint256)": {
        "encoding": "mapping",
        "key": "t_address",
        "label": "mapping(address => uint256)",
        "numberOfBytes": "32",
        "value": "t_uint256"
      },
      "t_mapping(t_bytes32,t_uint256)": {
        "encoding": "mapping",
        "key": "t_bytes32",
        "label": "mapping(bytes32 => uint256)",
        "numberOfBytes": "32",
        "value": "t_uint256"
      },
      "t_struct(AddressSet)2118_storage": {
        "encoding": "inplace",
        "label": "struct EnumerableSet.AddressSet",
        "members": [
          {
            "astId": 2117,
            "contract": "contracts/GelatoMetaBoxPullFee.sol:GelatoMetaBoxPullFee",
            "label": "_inner",
            "offset": 0,
            "slot": "0",
            "type": "t_struct(Set)1817_storage"
          }
        ],
        "numberOfBytes": "64"
      },
      "t_struct(Set)1817_storage": {
        "encoding": "inplace",
        "label": "struct EnumerableSet.Set",
        "members": [
          {
            "astId": 1812,
            "contract": "contracts/GelatoMetaBoxPullFee.sol:GelatoMetaBoxPullFee",
            "label": "_values",
            "offset": 0,
            "slot": "0",
            "type": "t_array(t_bytes32)dyn_storage"
          },
          {
            "astId": 1816,
            "contract": "contracts/GelatoMetaBoxPullFee.sol:GelatoMetaBoxPullFee",
            "label": "_indexes",
            "offset": 0,
            "slot": "1",
            "type": "t_mapping(t_bytes32,t_uint256)"
          }
        ],
        "numberOfBytes": "64"
      },
      "t_uint256": {
        "encoding": "inplace",
        "label": "uint256",
        "numberOfBytes": "32"
      }
    }
  }
}