{
  "address": "0x5157a2b9297952564f55e4FF6876DDa3eC6256e4",
  "abi": [
    {
      "inputs": [
        {
          "internalType": "address",
          "name": "_gelato",
          "type": "address"
        }
      ],
      "stateMutability": "nonpayable",
      "type": "constructor"
    },
    {
      "anonymous": false,
      "inputs": [
        {
          "indexed": true,
          "internalType": "address",
          "name": "target",
          "type": "address"
        },
        {
          "indexed": false,
          "internalType": "address",
          "name": "feeToken",
          "type": "address"
        },
        {
          "indexed": false,
          "internalType": "uint256",
          "name": "fee",
          "type": "uint256"
        },
        {
          "indexed": false,
          "internalType": "bytes32",
          "name": "taskId",
          "type": "bytes32"
        }
      ],
      "name": "LogCallWithSyncFee",
      "type": "event"
    },
    {
      "anonymous": false,
      "inputs": [
        {
          "indexed": true,
          "internalType": "address",
          "name": "sponsor",
          "type": "address"
        },
        {
          "indexed": true,
          "internalType": "address",
          "name": "target",
          "type": "address"
        },
        {
          "indexed": true,
          "internalType": "address",
          "name": "feeToken",
          "type": "address"
        },
        {
          "indexed": false,
          "internalType": "uint256",
          "name": "oneBalanceChainId",
          "type": "uint256"
        },
        {
          "indexed": false,
          "internalType": "uint256",
          "name": "nativeToFeeTokenXRateNumerator",
          "type": "uint256"
        },
        {
          "indexed": false,
          "internalType": "uint256",
          "name": "nativeToFeeTokenXRateDenominator",
          "type": "uint256"
        },
        {
          "indexed": false,
          "internalType": "bytes32",
          "name": "taskId",
          "type": "bytes32"
        }
      ],
      "name": "LogUseGelato1Balance",
      "type": "event"
    },
    {
      "inputs": [],
      "name": "DOMAIN_SEPARATOR",
      "outputs": [
        {
          "internalType": "bytes32",
          "name": "",
          "type": "bytes32"
        }
      ],
      "stateMutability": "view",
      "type": "function"
    },
    {
      "inputs": [],
      "name": "SPONSORED_CALL_TYPEHASH",
      "outputs": [
        {
          "internalType": "bytes32",
          "name": "",
          "type": "bytes32"
        }
      ],
      "stateMutability": "view",
      "type": "function"
    },
    {
      "inputs": [],
      "name": "SPONSORED_USER_AUTH_CALL_TYPEHASH",
      "outputs": [
        {
          "internalType": "bytes32",
          "name": "",
          "type": "bytes32"
        }
      ],
      "stateMutability": "view",
      "type": "function"
    },
    {
      "inputs": [
        {
          "internalType": "address",
          "name": "_target",
          "type": "address"
        },
        {
          "internalType": "bytes",
          "name": "_data",
          "type": "bytes"
        },
        {
          "internalType": "address",
          "name": "_feeToken",
          "type": "address"
        },
        {
          "internalType": "uint256",
          "name": "_fee",
          "type": "uint256"
        },
        {
          "internalType": "bytes32",
          "name": "_taskId",
          "type": "bytes32"
        }
      ],
      "name": "callWithSyncFee",
      "outputs": [],
      "stateMutability": "nonpayable",
      "type": "function"
    },
    {
      "inputs": [],
      "name": "gelato",
      "outputs": [
        {
          "internalType": "address",
          "name": "",
          "type": "address"
        }
      ],
      "stateMutability": "view",
      "type": "function"
    },
    {
      "inputs": [],
      "name": "name",
      "outputs": [
        {
          "internalType": "string",
          "name": "",
          "type": "string"
        }
      ],
      "stateMutability": "view",
      "type": "function"
    },
    {
      "inputs": [
        {
          "components": [
            {
              "internalType": "uint256",
              "name": "chainId",
              "type": "uint256"
            },
            {
              "internalType": "address",
              "name": "target",
              "type": "address"
            },
            {
              "internalType": "bytes",
              "name": "data",
              "type": "bytes"
            }
          ],
          "internalType": "struct SponsoredCall",
          "name": "_call",
          "type": "tuple"
        },
        {
          "internalType": "address",
          "name": "_sponsor",
          "type": "address"
        },
        {
          "internalType": "address",
          "name": "_feeToken",
          "type": "address"
        },
        {
          "internalType": "uint256",
          "name": "_oneBalanceChainId",
          "type": "uint256"
        },
        {
          "internalType": "uint256",
          "name": "_nativeToFeeTokenXRateNumerator",
          "type": "uint256"
        },
        {
          "internalType": "uint256",
          "name": "_nativeToFeeTokenXRateDenominator",
          "type": "uint256"
        },
        {
          "internalType": "bytes32",
          "name": "_taskId",
          "type": "bytes32"
        }
      ],
      "name": "sponsoredCall",
      "outputs": [],
      "stateMutability": "nonpayable",
      "type": "function"
    },
    {
      "inputs": [
        {
          "components": [
            {
              "internalType": "uint256",
              "name": "chainId",
              "type": "uint256"
            },
            {
              "internalType": "address",
              "name": "target",
              "type": "address"
            },
            {
              "internalType": "bytes",
              "name": "data",
              "type": "bytes"
            },
            {
              "internalType": "address",
              "name": "user",
              "type": "address"
            },
            {
              "internalType": "uint256",
              "name": "userNonce",
              "type": "uint256"
            },
            {
              "internalType": "uint256",
              "name": "userDeadline",
              "type": "uint256"
            }
          ],
          "internalType": "struct SponsoredUserAuthCall",
          "name": "_call",
          "type": "tuple"
        },
        {
          "internalType": "address",
          "name": "_sponsor",
          "type": "address"
        },
        {
          "internalType": "address",
          "name": "_feeToken",
          "type": "address"
        },
        {
          "internalType": "uint256",
          "name": "_oneBalanceChainId",
          "type": "uint256"
        },
        {
          "internalType": "bytes",
          "name": "_userSignature",
          "type": "bytes"
        },
        {
          "internalType": "uint256",
          "name": "_nativeToFeeTokenXRateNumerator",
          "type": "uint256"
        },
        {
          "internalType": "uint256",
          "name": "_nativeToFeeTokenXRateDenominator",
          "type": "uint256"
        },
        {
          "internalType": "bytes32",
          "name": "_taskId",
          "type": "bytes32"
        }
      ],
      "name": "sponsoredUserAuthCall",
      "outputs": [],
      "stateMutability": "nonpayable",
      "type": "function"
    },
    {
      "inputs": [
        {
          "internalType": "address",
          "name": "",
          "type": "address"
        }
      ],
      "name": "userNonce",
      "outputs": [
        {
          "internalType": "uint256",
          "name": "",
          "type": "uint256"
        }
      ],
      "stateMutability": "view",
      "type": "function"
    },
    {
      "inputs": [],
      "name": "version",
      "outputs": [
        {
          "internalType": "string",
          "name": "",
          "type": "string"
        }
      ],
      "stateMutability": "view",
      "type": "function"
    }
  ],
  "transactionHash": "0xd2d5bc74cdb4786af68487ae9bb48a24ed976feed07ba778bcbbbb591d00bccd",
  "args": [
    "0x0630d1b8C2df3F0a68Df578D02075027a6397173"
  ],
  "numDeployments": 2,
  "solcInputHash": "8d9a3262bc58b7739ec41a59fa94a3d6",
  "bytecode": "0x60a060405234801561001057600080fd5b50604051611b16380380611b1683398101604081905261002f91610040565b6001600160a01b0316608052610070565b60006020828403121561005257600080fd5b81516001600160a01b038116811461006957600080fd5b9392505050565b608051611a766100a0600039600081816101a501528181610255015281816104ac01526106790152611a766000f3fe608060405234801561001057600080fd5b50600436106100be5760003560e01c806354fd4d50116100765780637c708a181161005b5780637c708a18146101ec578063a2d53b5e146101f4578063d3f3d12f1461020757600080fd5b806354fd4d5014610164578063573ea575146101a057600080fd5b806327be3c24116100a757806327be3c24146101275780632e04b8e71461013c5780633644e5151461015c57600080fd5b806302939818146100c357806306fdde03146100de575b600080fd5b6100cb61021a565b6040519081526020015b60405180910390f35b61011a6040518060400160405280600b81526020017f47656c61746f52656c617900000000000000000000000000000000000000000081525081565b6040516100d591906113d8565b61013a610135366004611452565b61023d565b005b6100cb61014a3660046114da565b60006020819052908152604090205481565b6100cb610462565b61011a6040518060400160405280600181526020017f310000000000000000000000000000000000000000000000000000000000000081525081565b6101c77f000000000000000000000000000000000000000000000000000000000000000081565b60405173ffffffffffffffffffffffffffffffffffffffff90911681526020016100d5565b6100cb610471565b61013a610202366004611537565b610494565b61013a6102153660046115ae565b610661565b6040518060a0016040528060748152602001611921607491398051906020012081565b3373ffffffffffffffffffffffffffffffffffffffff7f000000000000000000000000000000000000000000000000000000000000000016146102e1576040517f08c379a000000000000000000000000000000000000000000000000000000000815260206004820152601760248201527f4f6e6c792063616c6c61626c652062792067656c61746f00000000000000000060448201526064015b60405180910390fd5b61032487600001356040518060400160405280601a81526020017f47656c61746f52656c61792e73706f6e736f72656443616c6c3a00000000000081525061091e565b6103cd6103346040890189611665565b8080601f01602080910402602001604051908101604052809392919081815260200183838082843760009201919091525050604080518082018252601a81527f47656c61746f52656c61792e73706f6e736f72656443616c6c3a0000000000006020808301919091529093506103b09250908c01908c016114da565b73ffffffffffffffffffffffffffffffffffffffff1691906109a6565b5073ffffffffffffffffffffffffffffffffffffffff85166103f56040890160208a016114da565b60408051878152602081018790529081018590526060810184905273ffffffffffffffffffffffffffffffffffffffff918216918916907f116bfd46451bbd23e7a5f5b7420b28e3d98d4c477f173da513aaaeac3c4baada9060800160405180910390a450505050505050565b600061046c610ab0565b905090565b604051806060016040528060388152602001611995603891398051906020012081565b3373ffffffffffffffffffffffffffffffffffffffff7f00000000000000000000000000000000000000000000000000000000000000001614610533576040517f08c379a000000000000000000000000000000000000000000000000000000000815260206004820152601760248201527f4f6e6c792063616c6c61626c652062792067656c61746f00000000000000000060448201526064016102d8565b600061055573ffffffffffffffffffffffffffffffffffffffff851633610bb3565b90506105b96105678787338888610c9d565b60408051808201909152601c81527f47656c61746f52656c61792e63616c6c5769746853796e634665653a00000000602082015273ffffffffffffffffffffffffffffffffffffffff8a1691906109a6565b5060006105dc73ffffffffffffffffffffffffffffffffffffffff861633610bb3565b905073ffffffffffffffffffffffffffffffffffffffff88167f2ebf5825cbf63a0d0bd018d3d8547867630cd139f87864652d984d57da4edb558661062185856116f9565b6040805173ffffffffffffffffffffffffffffffffffffffff90931683526020830191909152810186905260600160405180910390a25050505050505050565b3373ffffffffffffffffffffffffffffffffffffffff7f00000000000000000000000000000000000000000000000000000000000000001614610700576040517f08c379a000000000000000000000000000000000000000000000000000000000815260206004820152601760248201527f4f6e6c792063616c6c61626c652062792067656c61746f00000000000000000060448201526064016102d8565b6107268960000135604051806060016040528060228152602001611a1f6022913961091e565b6000808061073a60808d0160608e016114da565b73ffffffffffffffffffffffffffffffffffffffff1673ffffffffffffffffffffffffffffffffffffffff1681526020019081526020016000205490506107a38a60800135828c60a00135604051806060016040528060228152602001611a1f60229139610d07565b60006107ad610ab0565b90506107cb818c89896107c660808401606085016114da565b610e16565b506107d782600161170c565b6000808d60600160208101906107ed91906114da565b73ffffffffffffffffffffffffffffffffffffffff1673ffffffffffffffffffffffffffffffffffffffff168152602001908152602001600020819055506108856108598c80604001906108419190611665565b8e606001602081019061085491906114da565b610fac565b604051806060016040528060228152602001611a1f602291398d60200160208101906103b091906114da565b5073ffffffffffffffffffffffffffffffffffffffff89166108ad60408d0160208e016114da565b604080518b8152602081018990529081018790526060810186905273ffffffffffffffffffffffffffffffffffffffff918216918d16907f116bfd46451bbd23e7a5f5b7420b28e3d98d4c477f173da513aaaeac3c4baada9060800160405180910390a45050505050505050505050565b4682146109696040518060400160405280600781526020017f636861696e69640000000000000000000000000000000000000000000000000081525083610fdb90919063ffffffff16565b906109a1576040517f08c379a00000000000000000000000000000000000000000000000000000000081526004016102d891906113d8565b505050565b606060008473ffffffffffffffffffffffffffffffffffffffff16846040516109cf919061171f565b6000604051808303816000865af19150503d8060008114610a0c576040519150601f19603f3d011682016040523d82523d6000602084013e610a11565b606091505b50925090508015610a9e578151600003610a995773ffffffffffffffffffffffffffffffffffffffff85163b151583604051602001610a50919061173b565b60405160208183030381529060405290610a97576040517f08c379a00000000000000000000000000000000000000000000000000000000081526004016102d891906113d8565b505b610aa8565b610aa88284611007565b509392505050565b60006040518060800160405280605281526020016119cd605291398051602091820120604080518082018252600b81527f47656c61746f52656c61790000000000000000000000000000000000000000009084015280518082018252600181527f3100000000000000000000000000000000000000000000000000000000000000908401528051928301919091527f34fc646dc54aecbfe1e155e4774cd50377f6ce69bbc8ac7b749a4bee450138e5908201527fc89efdaa54c0f20c7adf612882df0950f5a951637e0307cdcb4c672f298b8bc660608201524660808201523060a082015260c00160405160208183030381529060405280519060200120905090565b600073ffffffffffffffffffffffffffffffffffffffff831673eeeeeeeeeeeeeeeeeeeeeeeeeeeeeeeeeeeeeeee14610c7b576040517f70a0823100000000000000000000000000000000000000000000000000000000815273ffffffffffffffffffffffffffffffffffffffff83811660048301528416906370a0823190602401602060405180830381865afa158015610c52573d6000803e3d6000fd5b505050506040513d601f19601f82011682018060405250810190610c76919061177c565b610c94565b8173ffffffffffffffffffffffffffffffffffffffff16315b90505b92915050565b6040805173ffffffffffffffffffffffffffffffffffffffff858116602083015284168183015260608082018490528251808303820181526080830190935291610ced918891889160a001611795565b604051602081830303815290604052905095945050505050565b828414610d526040518060400160405280600581526020017f6e6f6e636500000000000000000000000000000000000000000000000000000081525083610fdb90919063ffffffff16565b90610d8a576040517f08c379a00000000000000000000000000000000000000000000000000000000081526004016102d891906113d8565b50811580610d985750428210155b60408051808201909152600881527f646561646c696e650000000000000000000000000000000000000000000000006020820152610dd7908390610fdb565b90610e0f576040517f08c379a00000000000000000000000000000000000000000000000000000000081526004016102d891906113d8565b5050505050565b600085610e2286611103565b8051602091820120604051610e699392017f190100000000000000000000000000000000000000000000000000000000000081526002810192909252602282015260420190565b604051602081830303815290604052805190602001209050600080610ec48387878080601f0160208091040260200160405190810160405280939291908181526020018383808284376000920191909152506111dc92505050565b90925090506000816004811115610edd57610edd6117bc565b148015610f1557508373ffffffffffffffffffffffffffffffffffffffff168273ffffffffffffffffffffffffffffffffffffffff16145b610fa1576040517f08c379a000000000000000000000000000000000000000000000000000000000815260206004820152603e60248201527f47656c61746f52656c6179426173653142616c616e63652e5f7265717569726560448201527f53706f6e736f726564557365724175746843616c6c5369676e6174757265000060648201526084016102d8565b505095945050505050565b6060838383604051602001610fc3939291906117eb565b60405160208183030381529060405290509392505050565b60608282604051602001610ff0929190611824565b604051602081830303815290604052905092915050565b602082516110159190611853565b6004036110f25760208201517fffffffff0000000000000000000000000000000000000000000000000000000081167f08c379a000000000000000000000000000000000000000000000000000000000036110e1576044830192508183604051602001611083929190611824565b604080517fffffffffffffffffffffffffffffffffffffffffffffffffffffffffffffffe0818403018152908290527f08c379a00000000000000000000000000000000000000000000000000000000082526102d8916004016113d8565b81604051602001611083919061188e565b8060405160200161108391906118cf565b60606040518060a00160405280607481526020016119216074913980516020918201209083359061113a90604086019086016114da565b6111476040860186611665565b604051611155929190611910565b60405190819003902061116e60808701606088016114da565b60408051602081019690965285019390935273ffffffffffffffffffffffffffffffffffffffff9182166060850152608084810191909152911660a0838101919091529084013560c083015283013560e0820152610100016040516020818303038152906040529050919050565b60008082516041036112125760208301516040840151606085015160001a6112068782858561124a565b94509450505050611243565b825160400361123b5760208301516040840151611230868383611362565b935093505050611243565b506000905060025b9250929050565b6000807f7fffffffffffffffffffffffffffffff5d576e7357a4501ddfe92f46681b20a08311156112815750600090506003611359565b8460ff16601b1415801561129957508460ff16601c14155b156112aa5750600090506004611359565b6040805160008082526020820180845289905260ff881692820192909252606081018690526080810185905260019060a0016020604051602081039080840390855afa1580156112fe573d6000803e3d6000fd5b50506040517fffffffffffffffffffffffffffffffffffffffffffffffffffffffffffffffe0015191505073ffffffffffffffffffffffffffffffffffffffff811661135257600060019250925050611359565b9150600090505b94509492505050565b6000807f7fffffffffffffffffffffffffffffffffffffffffffffffffffffffffffffff83168161139860ff86901c601b61170c565b90506113a68782888561124a565b935093505050935093915050565b60005b838110156113cf5781810151838201526020016113b7565b50506000910152565b60208152600082518060208401526113f78160408501602087016113b4565b601f017fffffffffffffffffffffffffffffffffffffffffffffffffffffffffffffffe0169190910160400192915050565b803573ffffffffffffffffffffffffffffffffffffffff8116811461144d57600080fd5b919050565b600080600080600080600060e0888a03121561146d57600080fd5b873567ffffffffffffffff81111561148457600080fd5b88016060818b03121561149657600080fd5b96506114a460208901611429565b95506114b260408901611429565b969995985095966060810135965060808101359560a0820135955060c0909101359350915050565b6000602082840312156114ec57600080fd5b610c9482611429565b60008083601f84011261150757600080fd5b50813567ffffffffffffffff81111561151f57600080fd5b60208301915083602082850101111561124357600080fd5b60008060008060008060a0878903121561155057600080fd5b61155987611429565b9550602087013567ffffffffffffffff81111561157557600080fd5b61158189828a016114f5565b9096509450611594905060408801611429565b925060608701359150608087013590509295509295509295565b60008060008060008060008060006101008a8c0312156115cd57600080fd5b893567ffffffffffffffff808211156115e557600080fd5b908b019060c0828e0312156115f957600080fd5b819a5061160860208d01611429565b995061161660408d01611429565b985060608c0135975060808c013591508082111561163357600080fd5b506116408c828d016114f5565b9a9d999c50979a9699979860a08801359760c0810135975060e0013595509350505050565b60008083357fffffffffffffffffffffffffffffffffffffffffffffffffffffffffffffffe184360301811261169a57600080fd5b83018035915067ffffffffffffffff8211156116b557600080fd5b60200191503681900382131561124357600080fd5b7f4e487b7100000000000000000000000000000000000000000000000000000000600052601160045260246000fd5b81810381811115610c9757610c976116ca565b80820180821115610c9757610c976116ca565b600082516117318184602087016113b4565b9190910192915050565b6000825161174d8184602087016113b4565b7f43616c6c20746f206e6f6e20636f6e7472616374000000000000000000000000920191825250601401919050565b60006020828403121561178e57600080fd5b5051919050565b8284823760008382016000815283516117b28183602088016113b4565b0195945050505050565b7f4e487b7100000000000000000000000000000000000000000000000000000000600052602160045260246000fd5b8284823760609190911b7fffffffffffffffffffffffffffffffffffffffff000000000000000000000000169101908152601401919050565b600083516118368184602088016113b4565b83519083019061184a8183602088016113b4565b01949350505050565b600082611889577f4e487b7100000000000000000000000000000000000000000000000000000000600052601260045260246000fd5b500690565b600082516118a08184602087016113b4565b7f4e6f4572726f7253656c6563746f720000000000000000000000000000000000920191825250600f01919050565b600082516118e18184602087016113b4565b7f556e657870656374656452657475726e64617461000000000000000000000000920191825250601401919050565b818382376000910190815291905056fe53706f6e736f726564557365724175746843616c6c2875696e7432353620636861696e49642c61646472657373207461726765742c627974657320646174612c6164647265737320757365722c75696e7432353620757365724e6f6e63652c75696e743235362075736572446561646c696e652953706f6e736f72656443616c6c2875696e7432353620636861696e49642c61646472657373207461726765742c6279746573206461746129454950373132446f6d61696e28737472696e67206e616d652c737472696e672076657273696f6e2c75696e7432353620636861696e49642c6164647265737320766572696679696e67436f6e74726163742947656c61746f52656c61792e73706f6e736f726564557365724175746843616c6c3aa2646970667358221220e4a4f4fbedcd65ae7320a4bc4fee54386aafe18427893a6182b32c1751aae01f64736f6c63430008100033",
  "devdoc": {
    "details": "This contract must NEVER hold funds!Maliciously crafted transaction payloads could wipe out any funds left here",
    "kind": "dev",
    "methods": {
      "callWithSyncFee(address,bytes,address,uint256,bytes32)": {
        "details": "This is the most straightforward use case, and `transfer` handles token payments.",
        "params": {
          "_data": "Payload for call on _target",
          "_feeToken": "Payment can be done in native and ERC-20 tokens",
          "_target": "Target smart contract",
          "_taskId": "Unique task identifier generated by gelato"
        }
      },
      "sponsoredCall((uint256,address,bytes),address,address,uint256,uint256,uint256,bytes32)": {
        "details": "Payment is handled with off-chain accounting using Gelato's 1Balance system",
        "params": {
          "_call": "Relay call data packed into SponsoredCall struct",
          "_nativeToFeeTokenXRateDenominator": "Exchange rate denominator",
          "_nativeToFeeTokenXRateNumerator": "Exchange rate numerator",
          "_taskId": "Unique task identifier generated by gelato"
        }
      },
      "sponsoredUserAuthCall((uint256,address,bytes,address,uint256,uint256),address,address,uint256,bytes,uint256,uint256,bytes32)": {
        "details": "Payment is handled with off-chain accounting using Gelato's 1Balance systemThe userNonce abstraction does not support multiple calls (call concurrency)Apps that need concurrent user calls will need to implement multi-callingon their end via encoding into _call.data.",
        "params": {
          "_call": "Relay call data packed into SponsoredUserAuthCall struct",
          "_nativeToFeeTokenXRateDenominator": "Exchange rate denominator",
          "_nativeToFeeTokenXRateNumerator": "Exchange rate numerator",
          "_taskId": "Unique task identifier generated by gelato",
          "_userSignature": "EIP-712 compliant signature from _call.user"
        }
      }
    },
    "title": "Gelato Relay contract",
    "version": 1
  },
  "userdoc": {
    "kind": "user",
    "methods": {
      "callWithSyncFee(address,bytes,address,uint256,bytes32)": {
        "notice": "Relay call with Synchronous PaymentThe target contract pays Gelato during the call forward"
      },
      "sponsoredCall((uint256,address,bytes),address,address,uint256,uint256,uint256,bytes32)": {
        "notice": "Relay call + One Balance payment - with sponsor authenticationSponsor signature allows for payment via sponsor's 1Balance balanceOracle value for exchange rate between native tokens and fee token"
      },
      "sponsoredUserAuthCall((uint256,address,bytes,address,uint256,uint256),address,address,uint256,bytes,uint256,uint256,bytes32)": {
        "notice": "Relay call + One Balance payment - with BOTH sponsor and user authenticationBoth sponsor and user signature allows for payment via sponsor's 1Balance balance"
      }
    },
    "notice": "This contract deals with synchronous payments and Gelato 1Balance payments",
    "version": 1
  },
  "storageLayout": {
    "storage": [
      {
        "astId": 2873,
        "contract": "contracts/GelatoRelay.sol:GelatoRelay",
        "label": "userNonce",
        "offset": 0,
        "slot": "0",
        "type": "t_mapping(t_address,t_uint256)"
      }
    ],
    "types": {
      "t_address": {
        "encoding": "inplace",
        "label": "address",
        "numberOfBytes": "20"
      },
      "t_mapping(t_address,t_uint256)": {
        "encoding": "mapping",
        "key": "t_address",
        "label": "mapping(address => uint256)",
        "numberOfBytes": "32",
        "value": "t_uint256"
      },
      "t_uint256": {
        "encoding": "inplace",
        "label": "uint256",
        "numberOfBytes": "32"
      }
    }
  }
}