{
  "address": "0x3456E168d2D7271847808463D6D383D079Bd5Eaa",
  "abi": [
    {
      "inputs": [
        {
          "internalType": "address",
          "name": "_gelatoMetaBox",
          "type": "address"
        }
      ],
      "stateMutability": "nonpayable",
      "type": "constructor"
    },
    {
      "anonymous": false,
      "inputs": [
        {
          "indexed": true,
          "internalType": "address",
          "name": "user",
          "type": "address"
        },
        {
          "indexed": true,
          "internalType": "address",
          "name": "feeToken",
          "type": "address"
        },
        {
          "indexed": false,
          "internalType": "string",
          "name": "message",
          "type": "string"
        }
      ],
      "name": "Success",
      "type": "event"
    },
    {
      "inputs": [
        {
          "internalType": "address",
          "name": "forwarder",
          "type": "address"
        }
      ],
      "name": "isTrustedForwarder",
      "outputs": [
        {
          "internalType": "bool",
          "name": "",
          "type": "bool"
        }
      ],
      "stateMutability": "view",
      "type": "function"
    },
    {
      "inputs": [
        {
          "internalType": "address",
          "name": "_feeToken",
          "type": "address"
        }
      ],
      "name": "sayHi",
      "outputs": [],
      "stateMutability": "nonpayable",
      "type": "function"
    },
    {
      "inputs": [
        {
          "internalType": "address",
          "name": "_feeToken",
          "type": "address"
        }
      ],
      "name": "sayHiVanilla",
      "outputs": [],
      "stateMutability": "nonpayable",
      "type": "function"
    }
  ],
  "transactionHash": "0x566a3c7366a37c6642de4c24d8af34796f1c1cc1bf9b1543bb6479c5e4011ddf",
  "args": [
    "0xa120a7d4EaF1910D38bc934D756DF507943a4C5a"
  ],
  "numDeployments": 1,
  "solcInputHash": "24891a73cc9f8e6000a4d150fa42948d",
  "bytecode": "0x608060405234801561001057600080fd5b5060405161039a38038061039a83398101604081905261002f91610054565b600080546001600160a01b0319166001600160a01b0392909216919091179055610084565b60006020828403121561006657600080fd5b81516001600160a01b038116811461007d57600080fd5b9392505050565b610307806100936000396000f3fe608060405234801561001057600080fd5b50600436106100415760003560e01c80634b327067146100465780634c6d26271461005b578063572b6c051461006e575b600080fd5b610059610054366004610221565b6100b1565b005b610059610069366004610221565b610139565b61009d61007c366004610221565b60005473ffffffffffffffffffffffffffffffffffffffff91821691161490565b604051901515815260200160405180910390f35b604080518082018252600b81527f48656c6c6f20576f726c640000000000000000000000000000000000000000006020820152905173ffffffffffffffffffffffffffffffffffffffff83169033907f250bf4b2488bf4c0d40c5698ffbdd9538361bf0c1d6a7ac473e87b55dd8030fd9061012d90859061025e565b60405180910390a35050565b60408051808201909152600b81527f48656c6c6f20576f726c64000000000000000000000000000000000000000000602082015273ffffffffffffffffffffffffffffffffffffffff821661018c6101d1565b73ffffffffffffffffffffffffffffffffffffffff167f250bf4b2488bf4c0d40c5698ffbdd9538361bf0c1d6a7ac473e87b55dd8030fd8360405161012d919061025e565b6000805473ffffffffffffffffffffffffffffffffffffffff16330361021c57507fffffffffffffffffffffffffffffffffffffffffffffffffffffffffffffffec36013560601c90565b503390565b60006020828403121561023357600080fd5b813573ffffffffffffffffffffffffffffffffffffffff8116811461025757600080fd5b9392505050565b600060208083528351808285015260005b8181101561028b5785810183015185820160400152820161026f565b8181111561029d576000604083870101525b50601f017fffffffffffffffffffffffffffffffffffffffffffffffffffffffffffffffe01692909201604001939250505056fea2646970667358221220e0ceeadce0a1d893b0951418f3f41d72b01ce5bb283f7202e88f97e9c932628c64736f6c634300080d0033",
  "devdoc": {
    "kind": "dev",
    "methods": {},
    "title": "HelloWorld with meta transaction support (EIP-2771)",
    "version": 1
  },
  "userdoc": {
    "kind": "user",
    "methods": {},
    "version": 1
  },
  "storageLayout": {
    "storage": [
      {
        "astId": 431,
        "contract": "contracts/HelloWorld.sol:HelloWorld",
        "label": "_trustedForwarder",
        "offset": 0,
        "slot": "0",
        "type": "t_address"
      }
    ],
    "types": {
      "t_address": {
        "encoding": "inplace",
        "label": "address",
        "numberOfBytes": "20"
      }
    }
  }
}