{
  "address": "0xd8Bc338b9679977049f80A8ef1CA7B652829c989",
  "abi": [
    {
      "inputs": [
        {
          "internalType": "address",
          "name": "_gelato",
          "type": "address"
        }
      ],
      "stateMutability": "nonpayable",
      "type": "constructor"
    },
    {
      "anonymous": false,
      "inputs": [
        {
          "indexed": true,
          "internalType": "address",
          "name": "target",
          "type": "address"
        },
        {
          "indexed": false,
          "internalType": "address",
          "name": "feeToken",
          "type": "address"
        },
        {
          "indexed": false,
          "internalType": "uint256",
          "name": "fee",
          "type": "uint256"
        },
        {
          "indexed": false,
          "internalType": "bytes32",
          "name": "taskId",
          "type": "bytes32"
        }
      ],
      "name": "LogForwardCallSyncFee",
      "type": "event"
    },
    {
      "anonymous": false,
      "inputs": [
        {
          "indexed": true,
          "internalType": "address",
          "name": "sponsor",
          "type": "address"
        },
        {
          "indexed": true,
          "internalType": "address",
          "name": "target",
          "type": "address"
        },
        {
          "indexed": false,
          "internalType": "uint256",
          "name": "sponsorChainId",
          "type": "uint256"
        },
        {
          "indexed": false,
          "internalType": "address",
          "name": "feeToken",
          "type": "address"
        },
        {
          "indexed": false,
          "internalType": "uint256",
          "name": "fee",
          "type": "uint256"
        },
        {
          "indexed": false,
          "internalType": "bytes32",
          "name": "taskId",
          "type": "bytes32"
        }
      ],
      "name": "LogForwardRequestAsyncGasTankFee",
      "type": "event"
    },
    {
      "anonymous": false,
      "inputs": [
        {
          "indexed": true,
          "internalType": "address",
          "name": "sponsor",
          "type": "address"
        },
        {
          "indexed": true,
          "internalType": "address",
          "name": "target",
          "type": "address"
        },
        {
          "indexed": false,
          "internalType": "address",
          "name": "feeToken",
          "type": "address"
        },
        {
          "indexed": false,
          "internalType": "uint256",
          "name": "fee",
          "type": "uint256"
        },
        {
          "indexed": false,
          "internalType": "bytes32",
          "name": "taskId",
          "type": "bytes32"
        }
      ],
      "name": "LogForwardRequestSyncGasTankFee",
      "type": "event"
    },
    {
      "anonymous": false,
      "inputs": [
        {
          "indexed": false,
          "internalType": "address",
          "name": "oldGasTank",
          "type": "address"
        },
        {
          "indexed": false,
          "internalType": "address",
          "name": "newGasTank",
          "type": "address"
        }
      ],
      "name": "LogSetGasTank",
      "type": "event"
    },
    {
      "anonymous": false,
      "inputs": [
        {
          "indexed": false,
          "internalType": "address",
          "name": "oldGasTankAdmin",
          "type": "address"
        },
        {
          "indexed": false,
          "internalType": "address",
          "name": "newGasTankAdmin",
          "type": "address"
        }
      ],
      "name": "LogSetGasTankAdmin",
      "type": "event"
    },
    {
      "inputs": [],
      "name": "EIP712_DOMAIN_TYPE",
      "outputs": [
        {
          "internalType": "string",
          "name": "",
          "type": "string"
        }
      ],
      "stateMutability": "view",
      "type": "function"
    },
    {
      "inputs": [],
      "name": "FORWARD_REQUEST_TYPEHASH",
      "outputs": [
        {
          "internalType": "bytes32",
          "name": "",
          "type": "bytes32"
        }
      ],
      "stateMutability": "view",
      "type": "function"
    },
    {
      "inputs": [],
      "name": "chainId",
      "outputs": [
        {
          "internalType": "uint256",
          "name": "",
          "type": "uint256"
        }
      ],
      "stateMutability": "view",
      "type": "function"
    },
    {
      "inputs": [
        {
          "internalType": "address",
          "name": "_target",
          "type": "address"
        },
        {
          "internalType": "bytes",
          "name": "_data",
          "type": "bytes"
        },
        {
          "internalType": "address",
          "name": "_feeToken",
          "type": "address"
        },
        {
          "internalType": "uint256",
          "name": "_gelatoFee",
          "type": "uint256"
        },
        {
          "internalType": "bytes32",
          "name": "_taskId",
          "type": "bytes32"
        }
      ],
      "name": "forwardCallSyncFee",
      "outputs": [],
      "stateMutability": "nonpayable",
      "type": "function"
    },
    {
      "inputs": [
        {
          "components": [
            {
              "internalType": "uint256",
              "name": "chainId",
              "type": "uint256"
            },
            {
              "internalType": "address",
              "name": "target",
              "type": "address"
            },
            {
              "internalType": "bytes",
              "name": "data",
              "type": "bytes"
            },
            {
              "internalType": "address",
              "name": "feeToken",
              "type": "address"
            },
            {
              "internalType": "uint256",
              "name": "paymentType",
              "type": "uint256"
            },
            {
              "internalType": "uint256",
              "name": "maxFee",
              "type": "uint256"
            },
            {
              "internalType": "address",
              "name": "sponsor",
              "type": "address"
            },
            {
              "internalType": "uint256",
              "name": "sponsorChainId",
              "type": "uint256"
            },
            {
              "internalType": "uint256",
              "name": "nonce",
              "type": "uint256"
            },
            {
              "internalType": "bool",
              "name": "enforceSponsorNonce",
              "type": "bool"
            }
          ],
          "internalType": "struct ForwardRequest",
          "name": "_req",
          "type": "tuple"
        },
        {
          "internalType": "bytes",
          "name": "_sponsorSignature",
          "type": "bytes"
        },
        {
          "internalType": "uint256",
          "name": "_gelatoFee",
          "type": "uint256"
        },
        {
          "internalType": "bytes32",
          "name": "_taskId",
          "type": "bytes32"
        }
      ],
      "name": "forwardRequestGasTankFee",
      "outputs": [],
      "stateMutability": "nonpayable",
      "type": "function"
    },
    {
      "inputs": [],
      "name": "gasTank",
      "outputs": [
        {
          "internalType": "address",
          "name": "",
          "type": "address"
        }
      ],
      "stateMutability": "view",
      "type": "function"
    },
    {
      "inputs": [],
      "name": "gasTankAdmin",
      "outputs": [
        {
          "internalType": "address",
          "name": "",
          "type": "address"
        }
      ],
      "stateMutability": "view",
      "type": "function"
    },
    {
      "inputs": [],
      "name": "gelato",
      "outputs": [
        {
          "internalType": "address",
          "name": "",
          "type": "address"
        }
      ],
      "stateMutability": "view",
      "type": "function"
    },
    {
      "inputs": [],
      "name": "getDomainSeparator",
      "outputs": [
        {
          "internalType": "bytes32",
          "name": "",
          "type": "bytes32"
        }
      ],
      "stateMutability": "view",
      "type": "function"
    },
    {
      "inputs": [
        {
          "internalType": "address",
          "name": "_gasTankAdmin",
          "type": "address"
        }
      ],
      "name": "init",
      "outputs": [],
      "stateMutability": "nonpayable",
      "type": "function"
    },
    {
      "inputs": [
        {
          "internalType": "address",
          "name": "",
          "type": "address"
        }
      ],
      "name": "nonce",
      "outputs": [
        {
          "internalType": "uint256",
          "name": "",
          "type": "uint256"
        }
      ],
      "stateMutability": "view",
      "type": "function"
    },
    {
      "inputs": [
        {
          "internalType": "address",
          "name": "_gasTank",
          "type": "address"
        }
      ],
      "name": "setGasTank",
      "outputs": [],
      "stateMutability": "nonpayable",
      "type": "function"
    },
    {
      "inputs": [
        {
          "internalType": "address",
          "name": "_gasTankAdmin",
          "type": "address"
        }
      ],
      "name": "setGasTankAdmin",
      "outputs": [],
      "stateMutability": "nonpayable",
      "type": "function"
    }
  ],
  "transactionHash": "0xbf5edfbc84fee935e447769d5041c33882a4161fb858d0897dfd78d5076fcee7",
  "args": [
    "0x683913B3A32ada4F8100458A3E1675425BdAa7DF"
  ],
  "numDeployments": 1,
  "solcInputHash": "07d9e0e51d624db3a8352ca337e57f64",
  "bytecode": "0x60c060405234801561001057600080fd5b506040516200221a3803806200221a83398101604081905261003191610046565b6001600160a01b03166080524660a052610076565b60006020828403121561005857600080fd5b81516001600160a01b038116811461006f57600080fd5b9392505050565b60805160a051612154620000c6600039600081816101eb0152818161062c01528181610a320152610d3b01526000818161015b015281816105a101528181610d7c0152610f2d01526121546000f3fe608060405234801561001057600080fd5b50600436106100df5760003560e01c80637be52e591161008c578063ac4cae3a11610066578063ac4cae3a1461020d578063c3f28abd14610220578063ed24911d14610235578063f37bf92e1461023d57600080fd5b80637be52e59146101be57806395630968146101de5780639a8a0592146101e657600080fd5b8063573ea575116100bd578063573ea5751461015657806370ae92d21461017d57806375ecfc5f146101ab57600080fd5b806319ab453c146100e457806343e297b2146100f957806348271fa01461010c575b600080fd5b6100f76100f2366004611cba565b610250565b005b6100f7610107366004611cba565b6103f0565b60035461012c9073ffffffffffffffffffffffffffffffffffffffff1681565b60405173ffffffffffffffffffffffffffffffffffffffff90911681526020015b60405180910390f35b61012c7f000000000000000000000000000000000000000000000000000000000000000081565b61019d61018b366004611cba565b60016020526000908152604090205481565b60405190815260200161014d565b6100f76101b9366004611d17565b610589565b60025461012c9073ffffffffffffffffffffffffffffffffffffffff1681565b61019d610b5c565b61019d7f000000000000000000000000000000000000000000000000000000000000000081565b6100f761021b366004611cba565b610b7f565b610228610d18565b60405161014d9190611dc7565b61019d610d34565b6100f761024b366004611e18565b610d64565b600054610100900460ff1661026b5760005460ff161561026f565b303b155b610300576040517f08c379a000000000000000000000000000000000000000000000000000000000815260206004820152602e60248201527f496e697469616c697a61626c653a20636f6e747261637420697320616c72656160448201527f647920696e697469616c697a656400000000000000000000000000000000000060648201526084015b60405180910390fd5b600054610100900460ff1615801561033f57600080547fffffffffffffffffffffffffffffffffffffffffffffffffffffffffffff0000166101011790555b600380547fffffffffffffffffffffffff00000000000000000000000000000000000000001673ffffffffffffffffffffffffffffffffffffffff8416908117909155604080516000815260208101929092527f7b4314d7a370be44c4e81707ded97705e0bd63e6bd46d7bbe386155e94436419910160405180910390a180156103ec57600080547fffffffffffffffffffffffffffffffffffffffffffffffffffffffffffff00ff1690555b5050565b60035473ffffffffffffffffffffffffffffffffffffffff163314610471576040517f08c379a000000000000000000000000000000000000000000000000000000000815260206004820152601d60248201527f4f6e6c792063616c6c61626c652062792067617354616e6b41646d696e00000060448201526064016102f7565b73ffffffffffffffffffffffffffffffffffffffff81166104ee576040517f08c379a000000000000000000000000000000000000000000000000000000000815260206004820152601760248201527f496e76616c69642067617354616e6b206164647265737300000000000000000060448201526064016102f7565b6002546040805173ffffffffffffffffffffffffffffffffffffffff928316815291831660208301527f646b74924371efeac02b8806e41f72490eaa858cf528e6f59768d6bbcea84fba910160405180910390a1600280547fffffffffffffffffffffffff00000000000000000000000000000000000000001673ffffffffffffffffffffffffffffffffffffffff92909216919091179055565b3373ffffffffffffffffffffffffffffffffffffffff7f00000000000000000000000000000000000000000000000000000000000000001614610628576040517f08c379a000000000000000000000000000000000000000000000000000000000815260206004820152601760248201527f4f6e6c792063616c6c61626c652062792067656c61746f00000000000000000060448201526064016102f7565b84357f0000000000000000000000000000000000000000000000000000000000000000146106b2576040517f08c379a000000000000000000000000000000000000000000000000000000000815260206004820152600d60248201527f57726f6e6720636861696e49640000000000000000000000000000000000000060448201526064016102f7565b8460800135600114806106c9575084608001356002145b61072f576040517f08c379a000000000000000000000000000000000000000000000000000000000815260206004820152601a60248201527f7061796d656e7454797065206d7573742062652031206f72203200000000000060448201526064016102f7565b8460a0013582111561079d576040517f08c379a000000000000000000000000000000000000000000000000000000000815260206004820152601c60248201527f47656c61746f206578656375746f72206f7665722d636861726765640000000060448201526064016102f7565b6107af61014086016101208701611ea0565b156108bd5760006001816107c960e0890160c08a01611cba565b73ffffffffffffffffffffffffffffffffffffffff1673ffffffffffffffffffffffffffffffffffffffff168152602001908152602001600020549050808661010001351015610875576040517f08c379a000000000000000000000000000000000000000000000000000000000815260206004820152601560248201527f5461736b20616c7265616479206578656375746564000000000000000000000060448201526064016102f7565b610880816001611eec565b6001600061089460e08a0160c08b01611cba565b73ffffffffffffffffffffffffffffffffffffffff168152602081019190915260400160002055505b6108d88585856108d360e0840160c08501611cba565b610fba565b60025473ffffffffffffffffffffffffffffffffffffffff166109016040870160208801611cba565b73ffffffffffffffffffffffffffffffffffffffff160361097e576040517f08c379a000000000000000000000000000000000000000000000000000000000815260206004820181905260248201527f74617267657420616464726573732063616e6e6f742062652067617354616e6b60448201526064016102f7565b6109a36109916040870160208801611cba565b61099e6040880188611f04565b611137565b8460800135600103610aa2576109bf6040860160208701611cba565b73ffffffffffffffffffffffffffffffffffffffff166109e560e0870160c08801611cba565b73ffffffffffffffffffffffffffffffffffffffff167f65896ccac284fcb1ee73c45d950853d73d66cd1c55f61ba945159377d140677360e088013515610a30578760e00135610a52565b7f00000000000000000000000000000000000000000000000000000000000000005b610a6260808a0160608b01611cba565b6040805192835273ffffffffffffffffffffffffffffffffffffffff909116602083015281018690526060810185905260800160405180910390a3610b55565b610ab26040860160208701611cba565b73ffffffffffffffffffffffffffffffffffffffff16610ad860e0870160c08801611cba565b73ffffffffffffffffffffffffffffffffffffffff167f143674915c965337534cbf757620018597dc069ea1fa7d79ef405cd9f1554eb1610b1f6080890160608a01611cba565b6040805173ffffffffffffffffffffffffffffffffffffffff909216825260208201879052810185905260600160405180910390a35b5050505050565b6040518060e0016040528060bb815260200161206460bb91398051906020012081565b60035473ffffffffffffffffffffffffffffffffffffffff163314610c00576040517f08c379a000000000000000000000000000000000000000000000000000000000815260206004820152601d60248201527f4f6e6c792063616c6c61626c652062792067617354616e6b41646d696e00000060448201526064016102f7565b73ffffffffffffffffffffffffffffffffffffffff8116610c7d576040517f08c379a000000000000000000000000000000000000000000000000000000000815260206004820152601c60248201527f496e76616c69642067617354616e6b41646d696e20616464726573730000000060448201526064016102f7565b6003546040805173ffffffffffffffffffffffffffffffffffffffff928316815291831660208301527f7b4314d7a370be44c4e81707ded97705e0bd63e6bd46d7bbe386155e94436419910160405180910390a1600380547fffffffffffffffffffffffff00000000000000000000000000000000000000001673ffffffffffffffffffffffffffffffffffffffff92909216919091179055565b6040518060800160405280605281526020016120126052913981565b6000610d5f7f00000000000000000000000000000000000000000000000000000000000000006112e0565b905090565b3373ffffffffffffffffffffffffffffffffffffffff7f00000000000000000000000000000000000000000000000000000000000000001614610e03576040517f08c379a000000000000000000000000000000000000000000000000000000000815260206004820152601760248201527f4f6e6c792063616c6c61626c652062792067656c61746f00000000000000000060448201526064016102f7565b6000610e0f84306113e6565b60025490915073ffffffffffffffffffffffffffffffffffffffff90811690881603610e97576040517f08c379a000000000000000000000000000000000000000000000000000000000815260206004820181905260248201527f74617267657420616464726573732063616e6e6f742062652067617354616e6b60448201526064016102f7565b610ea2878787611137565b6000610eae85306113e6565b90506000610ebc8383611f69565b905084811015610f28576040517f08c379a000000000000000000000000000000000000000000000000000000000815260206004820152601060248201527f496e73756666696369656e74206665650000000000000000000000000000000060448201526064016102f7565b610f537f000000000000000000000000000000000000000000000000000000000000000087836114ce565b6040805173ffffffffffffffffffffffffffffffffffffffff888116825260208201849052918101869052908a16907f1618dc761784eda45de355d3b21a8e1b76070c7cebc7479971350f6ac0f55be59060600160405180910390a2505050505050505050565b6000610fc685356112e0565b9050600081610fd487611618565b805160209182012060405161101b9392017f190100000000000000000000000000000000000000000000000000000000000081526002810192909252602282015260420190565b6040516020818303038152906040528051906020012090506000806110768388888080601f01602080910402602001604051908101604052809392919081815260200183838082843760009201919091525061174092505050565b9092509050600081600481111561108f5761108f611f80565b1480156110c757508473ffffffffffffffffffffffffffffffffffffffff168273ffffffffffffffffffffffffffffffffffffffff16145b61112d576040517f08c379a000000000000000000000000000000000000000000000000000000000815260206004820152601160248201527f496e76616c6964207369676e617475726500000000000000000000000000000060448201526064016102f7565b5050505050505050565b60008373ffffffffffffffffffffffffffffffffffffffff163b116111de576040517f08c379a000000000000000000000000000000000000000000000000000000000815260206004820152603560248201527f47656c61746f43616c6c5574696c732e7361666545787465726e616c43616c6c60448201527f3a205f646573742063616e6e6f7420626520454f41000000000000000000000060648201526084016102f7565b60008373ffffffffffffffffffffffffffffffffffffffff168383604051611207929190611faf565b6000604051808303816000865af19150503d8060008114611244576040519150601f19603f3d011682016040523d82523d6000602084013e611249565b606091505b50509050806112da576040517f08c379a000000000000000000000000000000000000000000000000000000000815260206004820152603660248201527f47656c61746f43616c6c5574696c732e7361666545787465726e616c43616c6c60448201527f3a2045787465726e616c2063616c6c206661696c65640000000000000000000060648201526084016102f7565b50505050565b6000604051806080016040528060528152602001612012605291398051602091820120604080518082018252601481527f47656c61746f52656c6179466f727761726465720000000000000000000000009084015280518082018252600281527f5631000000000000000000000000000000000000000000000000000000000000908401528051928301919091527f7234c7d9c507fe929abbaaae19187746b78bd8de7bfcbbfe07aa7aef1a476fb3908201527f4c23426613a5dc69e08fbd2787e6210aa679d4522e95a89d4dd88c4fd13a22836060820152608081018390523060a082015260c001604051602081830303815290604052805190602001209050919050565b600073ffffffffffffffffffffffffffffffffffffffff831673eeeeeeeeeeeeeeeeeeeeeeeeeeeeeeeeeeeeeeee146114ae576040517f70a0823100000000000000000000000000000000000000000000000000000000815273ffffffffffffffffffffffffffffffffffffffff83811660048301528416906370a0823190602401602060405180830381865afa158015611485573d6000803e3d6000fd5b505050506040513d601f19601f820116820180604052508101906114a99190611fbf565b6114c7565b8173ffffffffffffffffffffffffffffffffffffffff16315b9392505050565b806000036114db57505050565b7fffffffffffffffffffffffff111111111111111111111111111111111111111273ffffffffffffffffffffffffffffffffffffffff8316016116085760008373ffffffffffffffffffffffffffffffffffffffff168260405160006040518083038185875af1925050503d8060008114611572576040519150601f19603f3d011682016040523d82523d6000602084013e611577565b606091505b50509050806112da576040517f08c379a000000000000000000000000000000000000000000000000000000000815260206004820152602a60248201527f7472616e7366657247656c61746f3a2047656c61746f20455448207472616e7360448201527f666572206661696c65640000000000000000000000000000000000000000000060648201526084016102f7565b6116138284836117ae565b505050565b60606040518060e0016040528060bb815260200161206460bb913980516020918201209083359061164f9060408601908601611cba565b61165c6040860186611f04565b60405161166a929190611faf565b6040519081900390206116836080870160608801611cba565b608087013560a088013561169d60e08a0160c08b01611cba565b60e08a01356101008b01356116ba6101408d016101208e01611ea0565b60408051602081019c909c528b019990995273ffffffffffffffffffffffffffffffffffffffff97881660608b015260808a019690965293861660a089015260c088019290925260e08701529092166101008501526101208401919091526101408301521515610160820152610180016040516020818303038152906040529050919050565b60008082516041036117765760208301516040840151606085015160001a61176a8782858561183b565b945094505050506117a7565b825160400361179f5760208301516040840151611794868383611953565b9350935050506117a7565b506000905060025b9250929050565b6040805173ffffffffffffffffffffffffffffffffffffffff8416602482015260448082018490528251808303909101815260649091019091526020810180517bffffffffffffffffffffffffffffffffffffffffffffffffffffffff167fa9059cbb0000000000000000000000000000000000000000000000000000000017905261161390849061199b565b6000807f7fffffffffffffffffffffffffffffff5d576e7357a4501ddfe92f46681b20a0831115611872575060009050600361194a565b8460ff16601b1415801561188a57508460ff16601c14155b1561189b575060009050600461194a565b6040805160008082526020820180845289905260ff881692820192909252606081018690526080810185905260019060a0016020604051602081039080840390855afa1580156118ef573d6000803e3d6000fd5b50506040517fffffffffffffffffffffffffffffffffffffffffffffffffffffffffffffffe0015191505073ffffffffffffffffffffffffffffffffffffffff81166119435760006001925092505061194a565b9150600090505b94509492505050565b6000807f7fffffffffffffffffffffffffffffffffffffffffffffffffffffffffffffff831660ff84901c601b0161198d8782888561183b565b935093505050935093915050565b60006119fd826040518060400160405280602081526020017f5361666545524332303a206c6f772d6c6576656c2063616c6c206661696c65648152508573ffffffffffffffffffffffffffffffffffffffff16611aa79092919063ffffffff16565b8051909150156116135780806020019051810190611a1b9190611fd8565b611613576040517f08c379a000000000000000000000000000000000000000000000000000000000815260206004820152602a60248201527f5361666545524332303a204552433230206f7065726174696f6e20646964206e60448201527f6f7420737563636565640000000000000000000000000000000000000000000060648201526084016102f7565b6060611ab68484600085611abe565b949350505050565b606082471015611b50576040517f08c379a000000000000000000000000000000000000000000000000000000000815260206004820152602660248201527f416464726573733a20696e73756666696369656e742062616c616e636520666f60448201527f722063616c6c000000000000000000000000000000000000000000000000000060648201526084016102f7565b843b611bb8576040517f08c379a000000000000000000000000000000000000000000000000000000000815260206004820152601d60248201527f416464726573733a2063616c6c20746f206e6f6e2d636f6e747261637400000060448201526064016102f7565b6000808673ffffffffffffffffffffffffffffffffffffffff168587604051611be19190611ff5565b60006040518083038185875af1925050503d8060008114611c1e576040519150601f19603f3d011682016040523d82523d6000602084013e611c23565b606091505b5091509150611c33828286611c3e565b979650505050505050565b60608315611c4d5750816114c7565b825115611c5d5782518084602001fd5b816040517f08c379a00000000000000000000000000000000000000000000000000000000081526004016102f79190611dc7565b803573ffffffffffffffffffffffffffffffffffffffff81168114611cb557600080fd5b919050565b600060208284031215611ccc57600080fd5b6114c782611c91565b60008083601f840112611ce757600080fd5b50813567ffffffffffffffff811115611cff57600080fd5b6020830191508360208285010111156117a757600080fd5b600080600080600060808688031215611d2f57600080fd5b853567ffffffffffffffff80821115611d4757600080fd5b90870190610140828a031215611d5c57600080fd5b90955060208701359080821115611d7257600080fd5b50611d7f88828901611cd5565b9699909850959660408101359660609091013595509350505050565b60005b83811015611db6578181015183820152602001611d9e565b838111156112da5750506000910152565b6020815260008251806020840152611de6816040850160208701611d9b565b601f017fffffffffffffffffffffffffffffffffffffffffffffffffffffffffffffffe0169190910160400192915050565b60008060008060008060a08789031215611e3157600080fd5b611e3a87611c91565b9550602087013567ffffffffffffffff811115611e5657600080fd5b611e6289828a01611cd5565b9096509450611e75905060408801611c91565b925060608701359150608087013590509295509295509295565b8015158114611e9d57600080fd5b50565b600060208284031215611eb257600080fd5b81356114c781611e8f565b7f4e487b7100000000000000000000000000000000000000000000000000000000600052601160045260246000fd5b60008219821115611eff57611eff611ebd565b500190565b60008083357fffffffffffffffffffffffffffffffffffffffffffffffffffffffffffffffe1843603018112611f3957600080fd5b83018035915067ffffffffffffffff821115611f5457600080fd5b6020019150368190038213156117a757600080fd5b600082821015611f7b57611f7b611ebd565b500390565b7f4e487b7100000000000000000000000000000000000000000000000000000000600052602160045260246000fd5b8183823760009101908152919050565b600060208284031215611fd157600080fd5b5051919050565b600060208284031215611fea57600080fd5b81516114c781611e8f565b60008251612007818460208701611d9b565b919091019291505056fe454950373132446f6d61696e28737472696e67206e616d652c737472696e672076657273696f6e2c75696e7432353620636861696e49642c6164647265737320766572696679696e67436f6e747261637429466f7277617264526571756573742875696e7432353620636861696e49642c61646472657373207461726765742c627974657320646174612c6164647265737320666565546f6b656e2c75696e74323536207061796d656e74547970652c75696e74323536206d61784665652c616464726573732073706f6e736f722c75696e743235362073706f6e736f72436861696e49642c75696e74323536206e6f6e63652c626f6f6c20656e666f72636553706f6e736f724e6f6e636529a2646970667358221220305b34a3e489f2bcef608c76dd385bbce06aadb9ae3a4f010f8ac1b50832cfae64736f6c634300080d0033",
  "devdoc": {
    "details": "Maliciously crafted transaction payloads could wipe out any funds left here.",
    "kind": "dev",
    "methods": {},
    "title": "Gelato Relay Forwarder contract",
    "version": 1
  },
  "userdoc": {
    "kind": "user",
    "methods": {},
    "notice": "This contract must NEVER hold funds!",
    "version": 1
  },
  "storageLayout": {
    "storage": [
      {
        "astId": 6,
        "contract": "contracts/GelatoRelayForwarder.sol:GelatoRelayForwarder",
        "label": "_initialized",
        "offset": 0,
        "slot": "0",
        "type": "t_bool"
      },
      {
        "astId": 9,
        "contract": "contracts/GelatoRelayForwarder.sol:GelatoRelayForwarder",
        "label": "_initializing",
        "offset": 1,
        "slot": "0",
        "type": "t_bool"
      },
      {
        "astId": 3211,
        "contract": "contracts/GelatoRelayForwarder.sol:GelatoRelayForwarder",
        "label": "nonce",
        "offset": 0,
        "slot": "1",
        "type": "t_mapping(t_address,t_uint256)"
      },
      {
        "astId": 3213,
        "contract": "contracts/GelatoRelayForwarder.sol:GelatoRelayForwarder",
        "label": "gasTank",
        "offset": 0,
        "slot": "2",
        "type": "t_address"
      },
      {
        "astId": 3215,
        "contract": "contracts/GelatoRelayForwarder.sol:GelatoRelayForwarder",
        "label": "gasTankAdmin",
        "offset": 0,
        "slot": "3",
        "type": "t_address"
      }
    ],
    "types": {
      "t_address": {
        "encoding": "inplace",
        "label": "address",
        "numberOfBytes": "20"
      },
      "t_bool": {
        "encoding": "inplace",
        "label": "bool",
        "numberOfBytes": "1"
      },
      "t_mapping(t_address,t_uint256)": {
        "encoding": "mapping",
        "key": "t_address",
        "label": "mapping(address => uint256)",
        "numberOfBytes": "32",
        "value": "t_uint256"
      },
      "t_uint256": {
        "encoding": "inplace",
        "label": "uint256",
        "numberOfBytes": "32"
      }
    }
  }
}