{
  "address": "0xC5a998D0b5eB81bb3C9244152025e074c5ECf5Bb",
  "abi": [
    {
      "inputs": [
        {
          "internalType": "address",
          "name": "_gelato",
          "type": "address"
        }
      ],
      "stateMutability": "nonpayable",
      "type": "constructor"
    },
    {
      "anonymous": false,
      "inputs": [
        {
          "indexed": true,
          "internalType": "address",
          "name": "target",
          "type": "address"
        },
        {
          "indexed": false,
          "internalType": "address",
          "name": "feeToken",
          "type": "address"
        },
        {
          "indexed": false,
          "internalType": "uint256",
          "name": "fee",
          "type": "uint256"
        },
        {
          "indexed": false,
          "internalType": "bytes32",
          "name": "taskId",
          "type": "bytes32"
        }
      ],
      "name": "LogCallWithSyncFee",
      "type": "event"
    },
    {
      "anonymous": false,
      "inputs": [
        {
          "indexed": true,
          "internalType": "address",
          "name": "sponsor",
          "type": "address"
        },
        {
          "indexed": true,
          "internalType": "address",
          "name": "target",
          "type": "address"
        },
        {
          "indexed": true,
          "internalType": "address",
          "name": "feeToken",
          "type": "address"
        },
        {
          "indexed": false,
          "internalType": "uint256",
          "name": "sponsorChainId",
          "type": "uint256"
        },
        {
          "indexed": false,
          "internalType": "uint256",
          "name": "nativeToFeeTokenXRateNumerator",
          "type": "uint256"
        },
        {
          "indexed": false,
          "internalType": "uint256",
          "name": "nativeToFeeTokenXRateDenominator",
          "type": "uint256"
        },
        {
          "indexed": false,
          "internalType": "bytes32",
          "name": "taskId",
          "type": "bytes32"
        }
      ],
      "name": "LogUseGelato1Balance",
      "type": "event"
    },
    {
      "inputs": [],
      "name": "DOMAIN_SEPARATOR",
      "outputs": [
        {
          "internalType": "bytes32",
          "name": "",
          "type": "bytes32"
        }
      ],
      "stateMutability": "view",
      "type": "function"
    },
    {
      "inputs": [],
      "name": "SPONSOR_AUTH_CALL_1BALANCE_TYPEHASH",
      "outputs": [
        {
          "internalType": "bytes32",
          "name": "",
          "type": "bytes32"
        }
      ],
      "stateMutability": "view",
      "type": "function"
    },
    {
      "inputs": [],
      "name": "USER_AUTH_CALL_1BALANCE_TYPEHASH",
      "outputs": [
        {
          "internalType": "bytes32",
          "name": "",
          "type": "bytes32"
        }
      ],
      "stateMutability": "view",
      "type": "function"
    },
    {
      "inputs": [],
      "name": "USER_SPONSOR_AUTH_CALL_1BALANCE_TYPEHASH",
      "outputs": [
        {
          "internalType": "bytes32",
          "name": "",
          "type": "bytes32"
        }
      ],
      "stateMutability": "view",
      "type": "function"
    },
    {
      "inputs": [
        {
          "internalType": "address",
          "name": "_target",
          "type": "address"
        },
        {
          "internalType": "bytes",
          "name": "_data",
          "type": "bytes"
        },
        {
          "internalType": "address",
          "name": "_feeToken",
          "type": "address"
        },
        {
          "internalType": "bytes32",
          "name": "_taskId",
          "type": "bytes32"
        }
      ],
      "name": "callWithSyncFee",
      "outputs": [],
      "stateMutability": "nonpayable",
      "type": "function"
    },
    {
      "inputs": [],
      "name": "gelato",
      "outputs": [
        {
          "internalType": "address",
          "name": "",
          "type": "address"
        }
      ],
      "stateMutability": "view",
      "type": "function"
    },
    {
      "inputs": [],
      "name": "name",
      "outputs": [
        {
          "internalType": "string",
          "name": "",
          "type": "string"
        }
      ],
      "stateMutability": "view",
      "type": "function"
    },
    {
      "inputs": [
        {
          "components": [
            {
              "internalType": "uint256",
              "name": "chainId",
              "type": "uint256"
            },
            {
              "internalType": "address",
              "name": "target",
              "type": "address"
            },
            {
              "internalType": "bytes",
              "name": "data",
              "type": "bytes"
            },
            {
              "internalType": "address",
              "name": "sponsor",
              "type": "address"
            },
            {
              "internalType": "uint256",
              "name": "sponsorSalt",
              "type": "uint256"
            },
            {
              "internalType": "enum PaymentType",
              "name": "paymentType",
              "type": "uint8"
            },
            {
              "internalType": "address",
              "name": "feeToken",
              "type": "address"
            },
            {
              "internalType": "uint256",
              "name": "oneBalanceChainId",
              "type": "uint256"
            }
          ],
          "internalType": "struct SponsorAuthCallWith1Balance",
          "name": "_call",
          "type": "tuple"
        },
        {
          "internalType": "bytes",
          "name": "_sponsorSignature",
          "type": "bytes"
        },
        {
          "internalType": "uint256",
          "name": "_nativeToFeeTokenXRateNumerator",
          "type": "uint256"
        },
        {
          "internalType": "uint256",
          "name": "_nativeToFeeTokenXRateDenominator",
          "type": "uint256"
        },
        {
          "internalType": "bytes32",
          "name": "_taskId",
          "type": "bytes32"
        }
      ],
      "name": "sponsorAuthCallWith1Balance",
      "outputs": [],
      "stateMutability": "nonpayable",
      "type": "function"
    },
    {
      "inputs": [
        {
          "components": [
            {
              "internalType": "uint256",
              "name": "chainId",
              "type": "uint256"
            },
            {
              "internalType": "address",
              "name": "target",
              "type": "address"
            },
            {
              "internalType": "bytes",
              "name": "data",
              "type": "bytes"
            },
            {
              "internalType": "address",
              "name": "user",
              "type": "address"
            },
            {
              "internalType": "uint256",
              "name": "userNonce",
              "type": "uint256"
            },
            {
              "internalType": "uint256",
              "name": "userDeadline",
              "type": "uint256"
            },
            {
              "internalType": "enum PaymentType",
              "name": "paymentType",
              "type": "uint8"
            },
            {
              "internalType": "address",
              "name": "feeToken",
              "type": "address"
            },
            {
              "internalType": "uint256",
              "name": "oneBalanceChainId",
              "type": "uint256"
            }
          ],
          "internalType": "struct UserAuthCallWith1Balance",
          "name": "_call",
          "type": "tuple"
        },
        {
          "internalType": "bytes",
          "name": "_userSignature",
          "type": "bytes"
        },
        {
          "internalType": "uint256",
          "name": "_nativeToFeeTokenXRateNumerator",
          "type": "uint256"
        },
        {
          "internalType": "uint256",
          "name": "_nativeToFeeTokenXRateDenominator",
          "type": "uint256"
        },
        {
          "internalType": "bytes32",
          "name": "_taskId",
          "type": "bytes32"
        }
      ],
      "name": "userAuthCallWith1Balance",
      "outputs": [],
      "stateMutability": "nonpayable",
      "type": "function"
    },
    {
      "inputs": [
        {
          "internalType": "address",
          "name": "",
          "type": "address"
        }
      ],
      "name": "userNonce",
      "outputs": [
        {
          "internalType": "uint256",
          "name": "",
          "type": "uint256"
        }
      ],
      "stateMutability": "view",
      "type": "function"
    },
    {
      "inputs": [
        {
          "components": [
            {
              "internalType": "uint256",
              "name": "chainId",
              "type": "uint256"
            },
            {
              "internalType": "address",
              "name": "target",
              "type": "address"
            },
            {
              "internalType": "bytes",
              "name": "data",
              "type": "bytes"
            },
            {
              "internalType": "address",
              "name": "user",
              "type": "address"
            },
            {
              "internalType": "uint256",
              "name": "userNonce",
              "type": "uint256"
            },
            {
              "internalType": "uint256",
              "name": "userDeadline",
              "type": "uint256"
            },
            {
              "internalType": "address",
              "name": "sponsor",
              "type": "address"
            },
            {
              "internalType": "uint256",
              "name": "sponsorSalt",
              "type": "uint256"
            },
            {
              "internalType": "enum PaymentType",
              "name": "paymentType",
              "type": "uint8"
            },
            {
              "internalType": "address",
              "name": "feeToken",
              "type": "address"
            },
            {
              "internalType": "uint256",
              "name": "oneBalanceChainId",
              "type": "uint256"
            }
          ],
          "internalType": "struct UserSponsorAuthCallWith1Balance",
          "name": "_call",
          "type": "tuple"
        },
        {
          "internalType": "bytes",
          "name": "_userSignature",
          "type": "bytes"
        },
        {
          "internalType": "bytes",
          "name": "_sponsorSignature",
          "type": "bytes"
        },
        {
          "internalType": "uint256",
          "name": "_nativeToFeeTokenXRateNumerator",
          "type": "uint256"
        },
        {
          "internalType": "uint256",
          "name": "_nativeToFeeTokenXRateDenominator",
          "type": "uint256"
        },
        {
          "internalType": "bytes32",
          "name": "_taskId",
          "type": "bytes32"
        }
      ],
      "name": "userSponsorAuthCallWith1Balance",
      "outputs": [],
      "stateMutability": "nonpayable",
      "type": "function"
    },
    {
      "inputs": [],
      "name": "version",
      "outputs": [
        {
          "internalType": "string",
          "name": "",
          "type": "string"
        }
      ],
      "stateMutability": "view",
      "type": "function"
    },
    {
      "inputs": [
        {
          "internalType": "bytes32",
          "name": "",
          "type": "bytes32"
        }
      ],
      "name": "wasCallSponsoredAlready",
      "outputs": [
        {
          "internalType": "bool",
          "name": "",
          "type": "bool"
        }
      ],
      "stateMutability": "view",
      "type": "function"
    }
  ],
  "transactionHash": "0x36155f03e878de11b5d0e0d84df287be50e6eb64423cb376a2199db7e0a56297",
  "args": [
    "0x683913B3A32ada4F8100458A3E1675425BdAa7DF"
  ],
  "numDeployments": 1,
  "solcInputHash": "3a21f27f0450527c6982d70fa745f52e",
  "bytecode": "0x60a06040523480156200001157600080fd5b506040516200314338038062003143833981016040819052620000349162000046565b6001600160a01b031660805262000078565b6000602082840312156200005957600080fd5b81516001600160a01b03811681146200007157600080fd5b9392505050565b60805161308c620000b7600039600081816101ca015281816102a5015281816106ac01528181610a5601528181610ee10152611050015261308c6000f3fe608060405234801561001057600080fd5b50600436106100df5760003560e01c8063573ea5751161008c578063bc49e3e811610066578063bc49e3e814610257578063c0386a521461025f578063c491a84814610272578063f1f1c5ce1461028557600080fd5b8063573ea575146101c55780638b778dc014610211578063ad5e01201461024457600080fd5b80633644e515116100bd5780633644e515146101795780633e8cc7b81461018157806354fd4d501461018957600080fd5b806306fdde03146100e457806321776100146101365780632e04b8e71461014b575b600080fd5b6101206040518060400160405280600b81526020017f47656c61746f52656c617900000000000000000000000000000000000000000081525081565b60405161012d91906125e0565b60405180910390f35b610149610144366004612673565b61028d565b005b61016b610159366004612724565b60006020819052908152604090205481565b60405190815260200161012d565b61016b610662565b61016b610671565b6101206040518060400160405280600181526020017f310000000000000000000000000000000000000000000000000000000000000081525081565b6101ec7f000000000000000000000000000000000000000000000000000000000000000081565b60405173ffffffffffffffffffffffffffffffffffffffff909116815260200161012d565b61023461021f366004612741565b60016020526000908152604090205460ff1681565b604051901515815260200161012d565b61014961025236600461275a565b610694565b61016b610a1b565b61014961026d3660046127a0565b610a3e565b610149610280366004612855565b610ec9565b61016b611161565b3373ffffffffffffffffffffffffffffffffffffffff7f00000000000000000000000000000000000000000000000000000000000000001614610331576040517f08c379a000000000000000000000000000000000000000000000000000000000815260206004820152601760248201527f4f6e6c792063616c6c61626c652062792067656c61746f00000000000000000060448201526064015b60405180910390fd5b600061034360c0880160a089016128f4565b6001811115610354576103546128c5565b146103e1576040517f08c379a000000000000000000000000000000000000000000000000000000000815260206004820152603460248201527f47656c61746f52656c61792e73706f6e736f724175746843616c6c576974683160448201527f42616c616e63653a207061796d656e74547970650000000000000000000000006064820152608401610328565b6104078660000135604051806060016040528060288152602001612ed260289139611185565b600061042c61041461120d565b8888886104276080840160608501612724565b611310565b60008181526001602052604090205490915060ff16156104ce576040517f08c379a000000000000000000000000000000000000000000000000000000000815260206004820152602f60248201527f47656c61746f52656c61792e73706f6e736f724175746843616c6c576974683160448201527f42616c616e63653a207265706c617900000000000000000000000000000000006064820152608401610328565b60008181526001602081905260409182902080547fffffffffffffffffffffffffffffffffffffffffffffffffffffffffffffff001690911790556105959061051990890189612915565b8080601f01602080910402602001604051908101604052809392919081815260200183838082843760009201919091525050604080516060810190915260288082529092509050612ed2602083013961057860408b0160208c01612724565b73ffffffffffffffffffffffffffffffffffffffff1691906114a8565b506105a660e0880160c08901612724565b73ffffffffffffffffffffffffffffffffffffffff166105cc6040890160208a01612724565b73ffffffffffffffffffffffffffffffffffffffff166105f260808a0160608b01612724565b6040805160e08c01358152602081018990529081018790526060810186905273ffffffffffffffffffffffffffffffffffffffff91909116907f116bfd46451bbd23e7a5f5b7420b28e3d98d4c477f173da513aaaeac3c4baada906080015b60405180910390a450505050505050565b600061066c61120d565b905090565b6040518060e0016040528060a78152602001612d5260a791398051906020012081565b3373ffffffffffffffffffffffffffffffffffffffff7f00000000000000000000000000000000000000000000000000000000000000001614610733576040517f08c379a000000000000000000000000000000000000000000000000000000000815260206004820152601760248201527f4f6e6c792063616c6c61626c652062792067656c61746f0000000000000000006044820152606401610328565b600061074560e0880160c089016128f4565b6001811115610756576107566128c5565b146107e3576040517f08c379a000000000000000000000000000000000000000000000000000000000815260206004820152603160248201527f47656c61746f52656c61792e757365724175746843616c6c576974683142616c60448201527f616e63653a207061796d656e74547970650000000000000000000000000000006064820152608401610328565b6108098660000135604051806060016040528060258152602001612ead60259139611185565b6000808061081d60808a0160608b01612724565b73ffffffffffffffffffffffffffffffffffffffff1673ffffffffffffffffffffffffffffffffffffffff1681526020019081526020016000205490506108868760800135828960a00135604051806060016040528060258152602001612ead602591396115b2565b6108a961089161120d565b8888886108a46080840160608501612724565b6116c1565b6108b48160016129a9565b6000806108c760808b0160608c01612724565b73ffffffffffffffffffffffffffffffffffffffff1673ffffffffffffffffffffffffffffffffffffffff1681526020019081526020016000208190555061095961093088806040019061091b9190612915565b61092b60808c0160608d01612724565b611856565b604051806060016040528060258152602001612ead6025913961057860408b0160208c01612724565b5061096b610100880160e08901612724565b73ffffffffffffffffffffffffffffffffffffffff166109916040890160208a01612724565b73ffffffffffffffffffffffffffffffffffffffff166109b760808a0160608b01612724565b604080516101008c01358152602081018990529081018790526060810186905273ffffffffffffffffffffffffffffffffffffffff91909116907f116bfd46451bbd23e7a5f5b7420b28e3d98d4c477f173da513aaaeac3c4baada90608001610651565b6040518060e0016040528060b48152602001612df960b491398051906020012081565b3373ffffffffffffffffffffffffffffffffffffffff7f00000000000000000000000000000000000000000000000000000000000000001614610add576040517f08c379a000000000000000000000000000000000000000000000000000000000815260206004820152601760248201527f4f6e6c792063616c6c61626c652062792067656c61746f0000000000000000006044820152606401610328565b6000610af16101208a016101008b016128f4565b6001811115610b0257610b026128c5565b14610b8f576040517f08c379a000000000000000000000000000000000000000000000000000000000815260206004820152603860248201527f47656c61746f52656c61792e7573657253706f6e736f724175746843616c6c5760448201527f6974683142616c616e63653a207061796d656e745479706500000000000000006064820152608401610328565b610bb588600001356040518060600160405280602c815260200161302b602c9139611185565b60008080610bc960808c0160608d01612724565b73ffffffffffffffffffffffffffffffffffffffff1673ffffffffffffffffffffffffffffffffffffffff168152602001908152602001600020549050610c328960800135828b60a001356040518060600160405280602c815260200161302b602c91396115b2565b6000610c3c61120d565b9050610c5a818b8b8b610c556080840160608501612724565b611886565b506000610c74828c8a8a610c5560e0840160c08501612724565b60008181526001602052604090205490915060ff1615610d16576040517f08c379a000000000000000000000000000000000000000000000000000000000815260206004820152603360248201527f47656c61746f52656c61792e7573657253706f6e736f724175746843616c6c5760448201527f6974683142616c616e63653a207265706c6179000000000000000000000000006064820152608401610328565b610d218360016129a9565b6000808d6060016020810190610d379190612724565b73ffffffffffffffffffffffffffffffffffffffff16815260208082019290925260409081016000908120939093558383526001918290529182902080547fffffffffffffffffffffffffffffffffffffffffffffffffffffffffffffff00169091179055610def90610dc390610db0908e018e612915565b8e606001602081019061092b9190612724565b6040518060600160405280602c815260200161302b602c91398d60200160208101906105789190612724565b50610e026101408c016101208d01612724565b73ffffffffffffffffffffffffffffffffffffffff16610e2860408d0160208e01612724565b73ffffffffffffffffffffffffffffffffffffffff16610e4e60e08e0160c08f01612724565b73ffffffffffffffffffffffffffffffffffffffff167f116bfd46451bbd23e7a5f5b7420b28e3d98d4c477f173da513aaaeac3c4baada8e61014001358a8a8a604051610eb4949392919093845260208401929092526040830152606082015260800190565b60405180910390a45050505050505050505050565b3373ffffffffffffffffffffffffffffffffffffffff7f00000000000000000000000000000000000000000000000000000000000000001614610f68576040517f08c379a000000000000000000000000000000000000000000000000000000000815260206004820152601760248201527f4f6e6c792063616c6c61626c652062792067656c61746f0000000000000000006044820152606401610328565b6000610f8a73ffffffffffffffffffffffffffffffffffffffff841630611a38565b905061101885858080601f0160208091040260200160405190810160405280939291908181526020018383808284376000920191909152505060408051808201909152601c81527f47656c61746f52656c61792e63616c6c5769746853796e634665653a00000000602082015273ffffffffffffffffffffffffffffffffffffffff8b1693925090506114a8565b50600061103b73ffffffffffffffffffffffffffffffffffffffff851630611a38565b9050600061104983836129bc565b90506110fb7f000000000000000000000000000000000000000000000000000000000000000073ffffffffffffffffffffffffffffffffffffffff166312fde4b76040518163ffffffff1660e01b8152600401602060405180830381865afa1580156110b9573d6000803e3d6000fd5b505050506040513d601f19601f820116820180604052508101906110dd91906129cf565b73ffffffffffffffffffffffffffffffffffffffff87169083611b22565b6040805173ffffffffffffffffffffffffffffffffffffffff878116825260208201849052918101869052908916907f2ebf5825cbf63a0d0bd018d3d8547867630cd139f87864652d984d57da4edb559060600160405180910390a25050505050505050565b60405180610100016040528060df8152602001612f4c60df91398051906020012081565b4682146111d06040518060400160405280600781526020017f636861696e69640000000000000000000000000000000000000000000000000081525083611b8190919063ffffffff16565b90611208576040517f08c379a000000000000000000000000000000000000000000000000000000000815260040161032891906125e0565b505050565b6000604051806080016040528060528152602001612efa605291398051602091820120604080518082018252600b81527f47656c61746f52656c61790000000000000000000000000000000000000000009084015280518082018252600181527f3100000000000000000000000000000000000000000000000000000000000000908401528051928301919091527f34fc646dc54aecbfe1e155e4774cd50377f6ce69bbc8ac7b749a4bee450138e5908201527fc89efdaa54c0f20c7adf612882df0950f5a951637e0307cdcb4c672f298b8bc660608201524660808201523060a082015260c00160405160208183030381529060405280519060200120905090565b60008561131c86611bad565b80516020918201206040516113639392017f190100000000000000000000000000000000000000000000000000000000000081526002810192909252602282015260420190565b6040516020818303038152906040528051906020012090506000806113be8387878080601f016020809104026020016040519081016040528093929190818152602001838380828437600092019190915250611c7092505050565b909250905060008160048111156113d7576113d76128c5565b14801561140f57508373ffffffffffffffffffffffffffffffffffffffff168273ffffffffffffffffffffffffffffffffffffffff16145b61149d57604080517f08c379a00000000000000000000000000000000000000000000000000000000081526020600482015260248101919091527f47656c61746f52656c6179426173653142616c616e63652e5f7265717569726560448201527f53706f6e736f724175746843616c6c5369676e61747572653142616c616e63656064820152608401610328565b505095945050505050565b606060008473ffffffffffffffffffffffffffffffffffffffff16846040516114d191906129ec565b6000604051808303816000865af19150503d806000811461150e576040519150601f19603f3d011682016040523d82523d6000602084013e611513565b606091505b509250905080156115a057815160000361159b5773ffffffffffffffffffffffffffffffffffffffff85163b1515836040516020016115529190612a08565b60405160208183030381529060405290611599576040517f08c379a000000000000000000000000000000000000000000000000000000000815260040161032891906125e0565b505b6115aa565b6115aa8284611cde565b509392505050565b8284146115fd6040518060400160405280600581526020017f6e6f6e636500000000000000000000000000000000000000000000000000000081525083611b8190919063ffffffff16565b90611635576040517f08c379a000000000000000000000000000000000000000000000000000000000815260040161032891906125e0565b508115806116435750428210155b60408051808201909152600881527f646561646c696e650000000000000000000000000000000000000000000000006020820152611682908390611b81565b906116ba576040517f08c379a000000000000000000000000000000000000000000000000000000000815260040161032891906125e0565b5050505050565b6000856116cd86611dda565b80516020918201206040516117149392017f190100000000000000000000000000000000000000000000000000000000000081526002810192909252602282015260420190565b60405160208183030381529060405280519060200120905060008061176f8387878080601f016020809104026020016040519081016040528093929190818152602001838380828437600092019190915250611c7092505050565b90925090506000816004811115611788576117886128c5565b1480156117c057508373ffffffffffffffffffffffffffffffffffffffff168273ffffffffffffffffffffffffffffffffffffffff16145b61184c576040517f08c379a000000000000000000000000000000000000000000000000000000000815260206004820152603d60248201527f47656c61746f52656c6179426173653142616c616e63652e5f7265717569726560448201527f557365724175746843616c6c5369676e61747572653142616c616e63650000006064820152608401610328565b5050505050505050565b606083838360405160200161186d93929190612a49565b60405160208183030381529060405290505b9392505050565b60008561189286611e8f565b80516020918201206040516118d99392017f190100000000000000000000000000000000000000000000000000000000000081526002810192909252602282015260420190565b6040516020818303038152906040528051906020012090506000806119348387878080601f016020809104026020016040519081016040528093929190818152602001838380828437600092019190915250611c7092505050565b9092509050600081600481111561194d5761194d6128c5565b14801561198557508373ffffffffffffffffffffffffffffffffffffffff168273ffffffffffffffffffffffffffffffffffffffff16145b61149d576040517f08c379a0000000000000000000000000000000000000000000000000000000008152602060048201526044602482018190527f47656c61746f52656c6179426173653142616c616e63652e5f72657175697265908201527f5573657253706f6e736f724175746843616c6c5369676e61747572653142616c60648201527f616e636500000000000000000000000000000000000000000000000000000000608482015260a401610328565b600073ffffffffffffffffffffffffffffffffffffffff831673eeeeeeeeeeeeeeeeeeeeeeeeeeeeeeeeeeeeeeee14611b00576040517f70a0823100000000000000000000000000000000000000000000000000000000815273ffffffffffffffffffffffffffffffffffffffff83811660048301528416906370a0823190602401602060405180830381865afa158015611ad7573d6000803e3d6000fd5b505050506040513d601f19601f82011682018060405250810190611afb9190612a82565b611b19565b8173ffffffffffffffffffffffffffffffffffffffff16315b90505b92915050565b80600003611b2f57505050565b7fffffffffffffffffffffffff111111111111111111111111111111111111111273ffffffffffffffffffffffffffffffffffffffff841601611b76576112088282611f5f565b6112088383836120b9565b60608282604051602001611b96929190612a9b565b604051602081830303815290604052905092915050565b60606040518060e0016040528060a78152602001612d5260a79139805160209182012090833590611be49060408601908601612724565b611bf16040860186612915565b604051611bff929190612aca565b604051908190039020611c186080870160608801612724565b6080870135611c2d60c0890160a08a016128f4565b611c3d60e08a0160c08b01612724565b8960e00135604051602001611c5a99989796959493929190612b15565b6040516020818303038152906040529050919050565b6000808251604103611ca65760208301516040840151606085015160001a611c9a87828585612146565b94509450505050611cd7565b8251604003611ccf5760208301516040840151611cc486838361225e565b935093505050611cd7565b506000905060025b9250929050565b60208251611cec9190612b7e565b600403611dc95760208201517fffffffff0000000000000000000000000000000000000000000000000000000081167f08c379a00000000000000000000000000000000000000000000000000000000003611db8576044830192508183604051602001611d5a929190612a9b565b604080517fffffffffffffffffffffffffffffffffffffffffffffffffffffffffffffffe0818403018152908290527f08c379a0000000000000000000000000000000000000000000000000000000008252610328916004016125e0565b81604051602001611d5a9190612bb9565b80604051602001611d5a9190612bfa565b60606040518060e0016040528060b48152602001612df960b49139805160209182012090833590611e119060408601908601612724565b611e1e6040860186612915565b604051611e2c929190612aca565b604051908190039020611e456080870160608801612724565b608087013560a0880135611e5f60e08a0160c08b016128f4565b611e706101008b0160e08c01612724565b8a6101000135604051602001611c5a9a99989796959493929190612c3b565b606060405180610100016040528060df8152602001612f4c60df9139805160209182012090833590611ec79060408601908601612724565b611ed46040860186612915565b604051611ee2929190612aca565b604051908190039020611efb6080870160608801612724565b608087013560a0880135611f1560e08a0160c08b01612724565b60e08a0135611f2c6101208c016101008d016128f4565b611f3e6101408d016101208e01612724565b8c6101400135604051602001611c5a9c9b9a99989796959493929190612cac565b80471015611fc9576040517f08c379a000000000000000000000000000000000000000000000000000000000815260206004820152601d60248201527f416464726573733a20696e73756666696369656e742062616c616e63650000006044820152606401610328565b60008273ffffffffffffffffffffffffffffffffffffffff168260405160006040518083038185875af1925050503d8060008114612023576040519150601f19603f3d011682016040523d82523d6000602084013e612028565b606091505b5050905080611208576040517f08c379a000000000000000000000000000000000000000000000000000000000815260206004820152603a60248201527f416464726573733a20756e61626c6520746f2073656e642076616c75652c207260448201527f6563697069656e74206d617920686176652072657665727465640000000000006064820152608401610328565b6040805173ffffffffffffffffffffffffffffffffffffffff8416602482015260448082018490528251808303909101815260649091019091526020810180517bffffffffffffffffffffffffffffffffffffffffffffffffffffffff167fa9059cbb000000000000000000000000000000000000000000000000000000001790526112089084906122b0565b6000807f7fffffffffffffffffffffffffffffff5d576e7357a4501ddfe92f46681b20a083111561217d5750600090506003612255565b8460ff16601b1415801561219557508460ff16601c14155b156121a65750600090506004612255565b6040805160008082526020820180845289905260ff881692820192909252606081018690526080810185905260019060a0016020604051602081039080840390855afa1580156121fa573d6000803e3d6000fd5b50506040517fffffffffffffffffffffffffffffffffffffffffffffffffffffffffffffffe0015191505073ffffffffffffffffffffffffffffffffffffffff811661224e57600060019250925050612255565b9150600090505b94509492505050565b6000807f7fffffffffffffffffffffffffffffffffffffffffffffffffffffffffffffff83168161229460ff86901c601b6129a9565b90506122a287828885612146565b935093505050935093915050565b6000612312826040518060400160405280602081526020017f5361666545524332303a206c6f772d6c6576656c2063616c6c206661696c65648152508573ffffffffffffffffffffffffffffffffffffffff166123bc9092919063ffffffff16565b80519091501561120857808060200190518101906123309190612d2f565b611208576040517f08c379a000000000000000000000000000000000000000000000000000000000815260206004820152602a60248201527f5361666545524332303a204552433230206f7065726174696f6e20646964206e60448201527f6f742073756363656564000000000000000000000000000000000000000000006064820152608401610328565b60606123cb84846000856123d3565b949350505050565b606082471015612465576040517f08c379a000000000000000000000000000000000000000000000000000000000815260206004820152602660248201527f416464726573733a20696e73756666696369656e742062616c616e636520666f60448201527f722063616c6c00000000000000000000000000000000000000000000000000006064820152608401610328565b73ffffffffffffffffffffffffffffffffffffffff85163b6124e3576040517f08c379a000000000000000000000000000000000000000000000000000000000815260206004820152601d60248201527f416464726573733a2063616c6c20746f206e6f6e2d636f6e74726163740000006044820152606401610328565b6000808673ffffffffffffffffffffffffffffffffffffffff16858760405161250c91906129ec565b60006040518083038185875af1925050503d8060008114612549576040519150601f19603f3d011682016040523d82523d6000602084013e61254e565b606091505b509150915061255e828286612569565b979650505050505050565b6060831561257857508161187f565b8251156125885782518084602001fd5b816040517f08c379a000000000000000000000000000000000000000000000000000000000815260040161032891906125e0565b60005b838110156125d75781810151838201526020016125bf565b50506000910152565b60208152600082518060208401526125ff8160408501602087016125bc565b601f017fffffffffffffffffffffffffffffffffffffffffffffffffffffffffffffffe0169190910160400192915050565b60008083601f84011261264357600080fd5b50813567ffffffffffffffff81111561265b57600080fd5b602083019150836020828501011115611cd757600080fd5b60008060008060008060a0878903121561268c57600080fd5b863567ffffffffffffffff808211156126a457600080fd5b90880190610100828b0312156126b957600080fd5b909650602088013590808211156126cf57600080fd5b506126dc89828a01612631565b979a90995096976040810135976060820135975060809091013595509350505050565b73ffffffffffffffffffffffffffffffffffffffff8116811461272157600080fd5b50565b60006020828403121561273657600080fd5b813561187f816126ff565b60006020828403121561275357600080fd5b5035919050565b60008060008060008060a0878903121561277357600080fd5b863567ffffffffffffffff8082111561278b57600080fd5b90880190610120828b0312156126b957600080fd5b60008060008060008060008060c0898b0312156127bc57600080fd5b883567ffffffffffffffff808211156127d457600080fd5b908a0190610160828d0312156127e957600080fd5b90985060208a013590808211156127ff57600080fd5b61280b8c838d01612631565b909950975060408b013591508082111561282457600080fd5b506128318b828c01612631565b999c989b5096999698976060880135976080810135975060a0013595509350505050565b60008060008060006080868803121561286d57600080fd5b8535612878816126ff565b9450602086013567ffffffffffffffff81111561289457600080fd5b6128a088828901612631565b90955093505060408601356128b4816126ff565b949793965091946060013592915050565b7f4e487b7100000000000000000000000000000000000000000000000000000000600052602160045260246000fd5b60006020828403121561290657600080fd5b81356002811061187f57600080fd5b60008083357fffffffffffffffffffffffffffffffffffffffffffffffffffffffffffffffe184360301811261294a57600080fd5b83018035915067ffffffffffffffff82111561296557600080fd5b602001915036819003821315611cd757600080fd5b7f4e487b7100000000000000000000000000000000000000000000000000000000600052601160045260246000fd5b80820180821115611b1c57611b1c61297a565b81810381811115611b1c57611b1c61297a565b6000602082840312156129e157600080fd5b815161187f816126ff565b600082516129fe8184602087016125bc565b9190910192915050565b60008251612a1a8184602087016125bc565b7f43616c6c20746f206e6f6e20636f6e7472616374000000000000000000000000920191825250601401919050565b8284823760609190911b7fffffffffffffffffffffffffffffffffffffffff000000000000000000000000169101908152601401919050565b600060208284031215612a9457600080fd5b5051919050565b60008351612aad8184602088016125bc565b835190830190612ac18183602088016125bc565b01949350505050565b8183823760009101908152919050565b60028110612b11577f4e487b7100000000000000000000000000000000000000000000000000000000600052602160045260246000fd5b9052565b6000610120820190508a825289602083015273ffffffffffffffffffffffffffffffffffffffff808a16604084015288606084015280881660808401528660a0840152612b6560c0840187612ada565b9390931660e08201526101000152979650505050505050565b600082612bb4577f4e487b7100000000000000000000000000000000000000000000000000000000600052601260045260246000fd5b500690565b60008251612bcb8184602087016125bc565b7f4e6f4572726f7253656c6563746f720000000000000000000000000000000000920191825250600f01919050565b60008251612c0c8184602087016125bc565b7f556e657870656374656452657475726e64617461000000000000000000000000920191825250601401919050565b6000610140820190508b82528a602083015273ffffffffffffffffffffffffffffffffffffffff808b16604084015289606084015280891660808401528760a08401528660c0840152612c9160e0840187612ada565b93909316610100820152610120015298975050505050505050565b6000610180820190508d82528c602083015273ffffffffffffffffffffffffffffffffffffffff808d1660408401528b6060840152808b1660808401528960a08401528860c084015280881660e084015286610100840152612d12610120840187612ada565b9390931661014082015261016001529a9950505050505050505050565b600060208284031215612d4157600080fd5b8151801515811461187f57600080fdfe53706f6e736f724175746843616c6c576974683142616c616e63652875696e7432353620636861696e49642c61646472657373207461726765742c627974657320646174612c616464726573732073706f6e736f722c75696e743235362073706f6e736f7253616c742c75696e7438207061796d656e74547970652c6164647265737320666565546f6b656e2c75696e74323536206f6e6542616c616e6365436861696e496429557365724175746843616c6c576974683142616c616e63652875696e7432353620636861696e49642c61646472657373207461726765742c627974657320646174612c6164647265737320757365722c75696e7432353620757365724e6f6e63652c75696e743235362075736572446561646c696e652c75696e7438207061796d656e74547970652c6164647265737320666565546f6b656e2c75696e74323536206f6e6542616c616e6365436861696e49642947656c61746f52656c61792e757365724175746843616c6c576974683142616c616e63653a47656c61746f52656c61792e73706f6e736f724175746843616c6c576974683142616c616e63653a454950373132446f6d61696e28737472696e67206e616d652c737472696e672076657273696f6e2c75696e7432353620636861696e49642c6164647265737320766572696679696e67436f6e7472616374295573657253706f6e736f724175746843616c6c576974683142616c616e63652875696e7432353620636861696e49642c61646472657373207461726765742c627974657320646174612c6164647265737320757365722c75696e7432353620757365724e6f6e63652c75696e743235362075736572446561646c696e652c616464726573732073706f6e736f722c75696e743235362073706f6e736f7253616c742c75696e7438207061796d656e74547970652c6164647265737320666565546f6b656e2c75696e74323536206f6e6542616c616e6365436861696e49642947656c61746f52656c61792e7573657253706f6e736f724175746843616c6c576974683142616c616e63653aa264697066735822122014d662a312d811cd62bf48a6dad91d761365c381ed5810b8a3f79dfb01e355a664736f6c63430008100033",
  "devdoc": {
    "details": "This contract must NEVER hold funds!Maliciously crafted transaction payloads could wipe out any funds left here",
    "kind": "dev",
    "methods": {
      "callWithSyncFee(address,bytes,address,bytes32)": {
        "details": "This is the most straightforward use case, and `transfer` handles token payments.",
        "params": {
          "_data": "Payload for call on _target",
          "_feeToken": "Payment can be done in native and ERC-20 tokens",
          "_target": "Target smart contract",
          "_taskId": "Unique task identifier generated by gelato"
        }
      },
      "sponsorAuthCallWith1Balance((uint256,address,bytes,address,uint256,uint8,address,uint256),bytes,uint256,uint256,bytes32)": {
        "details": "Payment is handled with off-chain accounting using Gelato's 1Balance system",
        "params": {
          "_call": "Relay call data packed into SponsorAuthCall struct",
          "_nativeToFeeTokenXRateDenominator": "Exchange rate denominator",
          "_nativeToFeeTokenXRateNumerator": "Exchange rate numerator",
          "_sponsorSignature": "EIP-712 compliant signature from _call.sponsor",
          "_taskId": "Unique task identifier generated by gelato"
        }
      },
      "userAuthCallWith1Balance((uint256,address,bytes,address,uint256,uint256,uint8,address,uint256),bytes,uint256,uint256,bytes32)": {
        "details": "Payment is handled with off-chain accounting using Gelato's 1Balance systemThe userNonce abstraction does not support multiple calls (call concurrency)Apps that need concurrent user calls will need to implement multi-callingon their end via encoding into _call.data.",
        "params": {
          "_call": "Relay call data packed into UserAuthCall struct",
          "_nativeToFeeTokenXRateDenominator": "Exchange rate denominator",
          "_nativeToFeeTokenXRateNumerator": "Exchange rate numerator",
          "_taskId": "Unique task identifier generated by gelato",
          "_userSignature": "EIP-712 compliant signature from _call.user"
        }
      },
      "userSponsorAuthCallWith1Balance((uint256,address,bytes,address,uint256,uint256,address,uint256,uint8,address,uint256),bytes,bytes,uint256,uint256,bytes32)": {
        "details": "Payment is handled with off-chain accounting using Gelato's 1Balance systemThe userNonce abstraction does not support multiple calls (call concurrency)Apps that need concurrent user calls will need to implement multi-callingon their end via encoding into _call.data.",
        "params": {
          "_call": "Relay call data packed into UserSponsorAuthCall struct",
          "_nativeToFeeTokenXRateDenominator": "Exchange rate denominator",
          "_nativeToFeeTokenXRateNumerator": "Exchange rate numerator",
          "_sponsorSignature": "EIP-712 compliant signature from _call.sponsor",
          "_taskId": "Unique task identifier generated by gelato",
          "_userSignature": "EIP-712 compliant signature from _call.user"
        }
      }
    },
    "title": "Gelato Relay contract",
    "version": 1
  },
  "userdoc": {
    "kind": "user",
    "methods": {
      "callWithSyncFee(address,bytes,address,bytes32)": {
        "notice": "Relay call with Synchronous PaymentThe target contract pays Gelato during the call forward"
      },
      "sponsorAuthCallWith1Balance((uint256,address,bytes,address,uint256,uint8,address,uint256),bytes,uint256,uint256,bytes32)": {
        "notice": "Relay call + One Balance payment - with sponsor authenticationSponsor signature allows for payment via sponsor's 1Balance balanceOracle value for exchange rate between native tokens and fee token"
      },
      "userAuthCallWith1Balance((uint256,address,bytes,address,uint256,uint256,uint8,address,uint256),bytes,uint256,uint256,bytes32)": {
        "notice": "Relay call + One Balance payment - with ONLY user authentication.The user here is paying for themselves, no external sponsorUser signature allows for payment via user's 1Balance balanceOracle value for exchange rate between native tokens and fee token"
      },
      "userSponsorAuthCallWith1Balance((uint256,address,bytes,address,uint256,uint256,address,uint256,uint8,address,uint256),bytes,bytes,uint256,uint256,bytes32)": {
        "notice": "Relay call + One Balance payment - with BOTH sponsor and user authenticationBoth sponsor and user signature allows for payment via sponsor's 1Balance balance"
      }
    },
    "notice": "This contract deals with synchronous payments and Gelato 1Balance payments",
    "version": 1
  },
  "storageLayout": {
    "storage": [
      {
        "astId": 2715,
        "contract": "contracts/GelatoRelay.sol:GelatoRelay",
        "label": "userNonce",
        "offset": 0,
        "slot": "0",
        "type": "t_mapping(t_address,t_uint256)"
      },
      {
        "astId": 2719,
        "contract": "contracts/GelatoRelay.sol:GelatoRelay",
        "label": "wasCallSponsoredAlready",
        "offset": 0,
        "slot": "1",
        "type": "t_mapping(t_bytes32,t_bool)"
      }
    ],
    "types": {
      "t_address": {
        "encoding": "inplace",
        "label": "address",
        "numberOfBytes": "20"
      },
      "t_bool": {
        "encoding": "inplace",
        "label": "bool",
        "numberOfBytes": "1"
      },
      "t_bytes32": {
        "encoding": "inplace",
        "label": "bytes32",
        "numberOfBytes": "32"
      },
      "t_mapping(t_address,t_uint256)": {
        "encoding": "mapping",
        "key": "t_address",
        "label": "mapping(address => uint256)",
        "numberOfBytes": "32",
        "value": "t_uint256"
      },
      "t_mapping(t_bytes32,t_bool)": {
        "encoding": "mapping",
        "key": "t_bytes32",
        "label": "mapping(bytes32 => bool)",
        "numberOfBytes": "32",
        "value": "t_bool"
      },
      "t_uint256": {
        "encoding": "inplace",
        "label": "uint256",
        "numberOfBytes": "32"
      }
    }
  }
}