{
  "address": "0x25e36B0214E78C894db80318A9b6b62Ef6D4E12f",
  "abi": [
    {
      "inputs": [
        {
          "internalType": "address",
          "name": "_gelato",
          "type": "address"
        }
      ],
      "stateMutability": "nonpayable",
      "type": "constructor"
    },
    {
      "anonymous": false,
      "inputs": [
        {
          "indexed": true,
          "internalType": "address",
          "name": "sponsor",
          "type": "address"
        },
        {
          "indexed": true,
          "internalType": "address",
          "name": "user",
          "type": "address"
        },
        {
          "indexed": true,
          "internalType": "address",
          "name": "target",
          "type": "address"
        },
        {
          "indexed": false,
          "internalType": "uint256",
          "name": "sponsorChainId",
          "type": "uint256"
        },
        {
          "indexed": false,
          "internalType": "address",
          "name": "feeToken",
          "type": "address"
        },
        {
          "indexed": false,
          "internalType": "uint256",
          "name": "fee",
          "type": "uint256"
        },
        {
          "indexed": false,
          "internalType": "bytes32",
          "name": "taskId",
          "type": "bytes32"
        }
      ],
      "name": "LogMetaTxRequestAsyncGasTankFee",
      "type": "event"
    },
    {
      "anonymous": false,
      "inputs": [
        {
          "indexed": true,
          "internalType": "address",
          "name": "sponsor",
          "type": "address"
        },
        {
          "indexed": true,
          "internalType": "address",
          "name": "user",
          "type": "address"
        },
        {
          "indexed": true,
          "internalType": "address",
          "name": "target",
          "type": "address"
        },
        {
          "indexed": false,
          "internalType": "address",
          "name": "feeToken",
          "type": "address"
        },
        {
          "indexed": false,
          "internalType": "uint256",
          "name": "fee",
          "type": "uint256"
        },
        {
          "indexed": false,
          "internalType": "bytes32",
          "name": "taskId",
          "type": "bytes32"
        }
      ],
      "name": "LogMetaTxRequestSyncGasTankFee",
      "type": "event"
    },
    {
      "anonymous": false,
      "inputs": [
        {
          "indexed": false,
          "internalType": "address",
          "name": "oldGasTank",
          "type": "address"
        },
        {
          "indexed": false,
          "internalType": "address",
          "name": "newGasTank",
          "type": "address"
        }
      ],
      "name": "LogSetGasTank",
      "type": "event"
    },
    {
      "anonymous": false,
      "inputs": [
        {
          "indexed": false,
          "internalType": "address",
          "name": "oldGasTankAdmin",
          "type": "address"
        },
        {
          "indexed": false,
          "internalType": "address",
          "name": "newGasTankAdmin",
          "type": "address"
        }
      ],
      "name": "LogSetGasTankAdmin",
      "type": "event"
    },
    {
      "inputs": [],
      "name": "EIP712_DOMAIN_TYPE",
      "outputs": [
        {
          "internalType": "string",
          "name": "",
          "type": "string"
        }
      ],
      "stateMutability": "view",
      "type": "function"
    },
    {
      "inputs": [],
      "name": "METATX_REQUEST_TYPEHASH",
      "outputs": [
        {
          "internalType": "bytes32",
          "name": "",
          "type": "bytes32"
        }
      ],
      "stateMutability": "view",
      "type": "function"
    },
    {
      "inputs": [],
      "name": "chainId",
      "outputs": [
        {
          "internalType": "uint256",
          "name": "",
          "type": "uint256"
        }
      ],
      "stateMutability": "view",
      "type": "function"
    },
    {
      "inputs": [],
      "name": "gasTank",
      "outputs": [
        {
          "internalType": "address",
          "name": "",
          "type": "address"
        }
      ],
      "stateMutability": "view",
      "type": "function"
    },
    {
      "inputs": [],
      "name": "gasTankAdmin",
      "outputs": [
        {
          "internalType": "address",
          "name": "",
          "type": "address"
        }
      ],
      "stateMutability": "view",
      "type": "function"
    },
    {
      "inputs": [],
      "name": "gelato",
      "outputs": [
        {
          "internalType": "address",
          "name": "",
          "type": "address"
        }
      ],
      "stateMutability": "view",
      "type": "function"
    },
    {
      "inputs": [],
      "name": "getDomainSeparator",
      "outputs": [
        {
          "internalType": "bytes32",
          "name": "",
          "type": "bytes32"
        }
      ],
      "stateMutability": "view",
      "type": "function"
    },
    {
      "inputs": [
        {
          "internalType": "address",
          "name": "_gasTankAdmin",
          "type": "address"
        }
      ],
      "name": "init",
      "outputs": [],
      "stateMutability": "nonpayable",
      "type": "function"
    },
    {
      "inputs": [
        {
          "components": [
            {
              "internalType": "uint256",
              "name": "chainId",
              "type": "uint256"
            },
            {
              "internalType": "address",
              "name": "target",
              "type": "address"
            },
            {
              "internalType": "bytes",
              "name": "data",
              "type": "bytes"
            },
            {
              "internalType": "address",
              "name": "feeToken",
              "type": "address"
            },
            {
              "internalType": "uint256",
              "name": "paymentType",
              "type": "uint256"
            },
            {
              "internalType": "uint256",
              "name": "maxFee",
              "type": "uint256"
            },
            {
              "internalType": "address",
              "name": "user",
              "type": "address"
            },
            {
              "internalType": "address",
              "name": "sponsor",
              "type": "address"
            },
            {
              "internalType": "uint256",
              "name": "sponsorChainId",
              "type": "uint256"
            },
            {
              "internalType": "uint256",
              "name": "nonce",
              "type": "uint256"
            },
            {
              "internalType": "uint256",
              "name": "deadline",
              "type": "uint256"
            }
          ],
          "internalType": "struct MetaTxRequest",
          "name": "_req",
          "type": "tuple"
        },
        {
          "internalType": "bytes",
          "name": "_userSignature",
          "type": "bytes"
        },
        {
          "internalType": "bytes",
          "name": "_sponsorSignature",
          "type": "bytes"
        },
        {
          "internalType": "uint256",
          "name": "_gelatoFee",
          "type": "uint256"
        },
        {
          "internalType": "bytes32",
          "name": "_taskId",
          "type": "bytes32"
        }
      ],
      "name": "metaTxRequestGasTankFee",
      "outputs": [],
      "stateMutability": "nonpayable",
      "type": "function"
    },
    {
      "inputs": [
        {
          "internalType": "address",
          "name": "",
          "type": "address"
        }
      ],
      "name": "nonce",
      "outputs": [
        {
          "internalType": "uint256",
          "name": "",
          "type": "uint256"
        }
      ],
      "stateMutability": "view",
      "type": "function"
    },
    {
      "inputs": [
        {
          "internalType": "address",
          "name": "_gasTank",
          "type": "address"
        }
      ],
      "name": "setGasTank",
      "outputs": [],
      "stateMutability": "nonpayable",
      "type": "function"
    },
    {
      "inputs": [
        {
          "internalType": "address",
          "name": "_gasTankAdmin",
          "type": "address"
        }
      ],
      "name": "setGasTankAdmin",
      "outputs": [],
      "stateMutability": "nonpayable",
      "type": "function"
    }
  ],
  "transactionHash": "0x104f1585466efbae35529442b1791764fb42c286a6a6f8663e4439a926e28bd3",
  "args": [
    "0x683913B3A32ada4F8100458A3E1675425BdAa7DF"
  ],
  "numDeployments": 1,
  "solcInputHash": "07d9e0e51d624db3a8352ca337e57f64",
  "bytecode": "0x60c060405234801561001057600080fd5b50604051611a79380380611a7983398101604081905261002f91610044565b6001600160a01b03166080524660a052610074565b60006020828403121561005657600080fd5b81516001600160a01b038116811461006d57600080fd5b9392505050565b60805160a0516119c46100b5600039600081816101e0015281816106ae01528181610cd80152610fec01526000818161016601526105a601526119c46000f3fe608060405234801561001057600080fd5b50600436106100d45760003560e01c806370ae92d211610081578063ac4cae3a1161005b578063ac4cae3a14610202578063c3f28abd14610215578063ed24911d1461022a57600080fd5b806370ae92d21461019b5780637be52e59146101bb5780639a8a0592146101db57600080fd5b806348271fa0116100b257806348271fa01461011c578063573ea5751461016157806364934c3e1461018857600080fd5b806319ab453c146100d95780633e40957d146100ee57806343e297b214610109575b600080fd5b6100ec6100e7366004611598565b610232565b005b6100f66103d2565b6040519081526020015b60405180910390f35b6100ec610117366004611598565b6103f5565b60035461013c9073ffffffffffffffffffffffffffffffffffffffff1681565b60405173ffffffffffffffffffffffffffffffffffffffff9091168152602001610100565b61013c7f000000000000000000000000000000000000000000000000000000000000000081565b6100ec610196366004611617565b61058e565b6100f66101a9366004611598565b60016020526000908152604090205481565b60025461013c9073ffffffffffffffffffffffffffffffffffffffff1681565b6100f67f000000000000000000000000000000000000000000000000000000000000000081565b6100ec610210366004611598565b610e30565b61021d610fc9565b60405161010091906116f4565b6100f6610fe5565b600054610100900460ff1661024d5760005460ff1615610251565b303b155b6102e2576040517f08c379a000000000000000000000000000000000000000000000000000000000815260206004820152602e60248201527f496e697469616c697a61626c653a20636f6e747261637420697320616c72656160448201527f647920696e697469616c697a656400000000000000000000000000000000000060648201526084015b60405180910390fd5b600054610100900460ff1615801561032157600080547fffffffffffffffffffffffffffffffffffffffffffffffffffffffffffff0000166101011790555b600380547fffffffffffffffffffffffff00000000000000000000000000000000000000001673ffffffffffffffffffffffffffffffffffffffff8416908117909155604080516000815260208101929092527f7b4314d7a370be44c4e81707ded97705e0bd63e6bd46d7bbe386155e94436419910160405180910390a180156103ce57600080547fffffffffffffffffffffffffffffffffffffffffffffffffffffffffffff00ff1690555b5050565b6040518060e0016040528060bf815260200161187e60bf91398051906020012081565b60035473ffffffffffffffffffffffffffffffffffffffff163314610476576040517f08c379a000000000000000000000000000000000000000000000000000000000815260206004820152601d60248201527f4f6e6c792063616c6c61626c652062792067617354616e6b41646d696e00000060448201526064016102d9565b73ffffffffffffffffffffffffffffffffffffffff81166104f3576040517f08c379a000000000000000000000000000000000000000000000000000000000815260206004820152601760248201527f496e76616c69642067617354616e6b206164647265737300000000000000000060448201526064016102d9565b6002546040805173ffffffffffffffffffffffffffffffffffffffff928316815291831660208301527f646b74924371efeac02b8806e41f72490eaa858cf528e6f59768d6bbcea84fba910160405180910390a1600280547fffffffffffffffffffffffff00000000000000000000000000000000000000001673ffffffffffffffffffffffffffffffffffffffff92909216919091179055565b3373ffffffffffffffffffffffffffffffffffffffff7f0000000000000000000000000000000000000000000000000000000000000000161461062d576040517f08c379a000000000000000000000000000000000000000000000000000000000815260206004820152601760248201527f4f6e6c792063616c6c61626c652062792067656c61746f00000000000000000060448201526064016102d9565b610140870135158061064457504287610140013510155b6106aa576040517f08c379a000000000000000000000000000000000000000000000000000000000815260206004820152600f60248201527f526571756573742065787069726564000000000000000000000000000000000060448201526064016102d9565b86357f000000000000000000000000000000000000000000000000000000000000000014610734576040517f08c379a000000000000000000000000000000000000000000000000000000000815260206004820152600d60248201527f57726f6e6720636861696e49640000000000000000000000000000000000000060448201526064016102d9565b86608001356001148061074b575086608001356002145b6107b1576040517f08c379a000000000000000000000000000000000000000000000000000000000815260206004820152601a60248201527f7061796d656e7454797065206d7573742062652031206f72203200000000000060448201526064016102d9565b8660a0013582111561081f576040517f08c379a000000000000000000000000000000000000000000000000000000000815260206004820152601560248201527f4578656375746f72206f7665722d63686172676564000000000000000000000060448201526064016102d9565b600060018161083460e08b0160c08c01611598565b73ffffffffffffffffffffffffffffffffffffffff1673ffffffffffffffffffffffffffffffffffffffff16815260200190815260200160002054905080886101200135146108df576040517f08c379a000000000000000000000000000000000000000000000000000000000815260206004820152600d60248201527f496e76616c6964206e6f6e63650000000000000000000000000000000000000060448201526064016102d9565b6108ea816001611745565b600160006108fe60e08c0160c08d01611598565b73ffffffffffffffffffffffffffffffffffffffff16815260208101919091526040016000205561094088888861093b60e0840160c08501611598565b611015565b610951610100890160e08a01611598565b73ffffffffffffffffffffffffffffffffffffffff1661097760e08a0160c08b01611598565b73ffffffffffffffffffffffffffffffffffffffff16146109a9576109a988868661093b610100840160e08501611598565b60025473ffffffffffffffffffffffffffffffffffffffff166109d260408a0160208b01611598565b73ffffffffffffffffffffffffffffffffffffffff1603610a4f576040517f08c379a000000000000000000000000000000000000000000000000000000000815260206004820181905260248201527f74617267657420616464726573732063616e6e6f742062652067617354616e6b60448201526064016102d9565b610a7e610a6260408a0160208b01611598565b73ffffffffffffffffffffffffffffffffffffffff163b151590565b610ae4576040517f08c379a000000000000000000000000000000000000000000000000000000000815260206004820152600f60248201527f43616e6e6f742063616c6c20454f41000000000000000000000000000000000060448201526064016102d9565b6000610af660408a0160208b01611598565b73ffffffffffffffffffffffffffffffffffffffff16610b1960408b018b611784565b610b2960e08d0160c08e01611598565b604051602001610b3b939291906117e9565b604080517fffffffffffffffffffffffffffffffffffffffffffffffffffffffffffffffe081840301815290829052610b7391611822565b6000604051808303816000865af19150503d8060008114610bb0576040519150601f19603f3d011682016040523d82523d6000602084013e610bb5565b606091505b5050905080610c20576040517f08c379a000000000000000000000000000000000000000000000000000000000815260206004820152601460248201527f45787465726e616c2063616c6c206661696c656400000000000000000000000060448201526064016102d9565b8860800135600103610d4b57610c3c60408a0160208b01611598565b73ffffffffffffffffffffffffffffffffffffffff16610c6260e08b0160c08c01611598565b73ffffffffffffffffffffffffffffffffffffffff16610c896101008c0160e08d01611598565b73ffffffffffffffffffffffffffffffffffffffff167f16242369046bb2c7332fc0c95dd99d425572accb515027a97630cadf2dfafb7c6101008d013515610cd6578c6101000135610cf8565b7f00000000000000000000000000000000000000000000000000000000000000005b8d6060016020810190610d0b9190611598565b6040805192835273ffffffffffffffffffffffffffffffffffffffff909116602083015281018990526060810188905260800160405180910390a4610e25565b610d5b60408a0160208b01611598565b73ffffffffffffffffffffffffffffffffffffffff16610d8160e08b0160c08c01611598565b73ffffffffffffffffffffffffffffffffffffffff16610da86101008c0160e08d01611598565b73ffffffffffffffffffffffffffffffffffffffff167fa3f8da1c59eb950d4098996c44c53e9692e2c5d73cd186cb415376d31d5ba7c6610def60808e0160608f01611598565b6040805173ffffffffffffffffffffffffffffffffffffffff9092168252602082018a9052810188905260600160405180910390a45b505050505050505050565b60035473ffffffffffffffffffffffffffffffffffffffff163314610eb1576040517f08c379a000000000000000000000000000000000000000000000000000000000815260206004820152601d60248201527f4f6e6c792063616c6c61626c652062792067617354616e6b41646d696e00000060448201526064016102d9565b73ffffffffffffffffffffffffffffffffffffffff8116610f2e576040517f08c379a000000000000000000000000000000000000000000000000000000000815260206004820152601c60248201527f496e76616c69642067617354616e6b41646d696e20616464726573730000000060448201526064016102d9565b6003546040805173ffffffffffffffffffffffffffffffffffffffff928316815291831660208301527f7b4314d7a370be44c4e81707ded97705e0bd63e6bd46d7bbe386155e94436419910160405180910390a1600380547fffffffffffffffffffffffff00000000000000000000000000000000000000001673ffffffffffffffffffffffffffffffffffffffff92909216919091179055565b60405180608001604052806052815260200161193d6052913981565b60006110107f0000000000000000000000000000000000000000000000000000000000000000611192565b905090565b60006110218535611192565b905060008161102f87611298565b80516020918201206040516110769392017f190100000000000000000000000000000000000000000000000000000000000081526002810192909252602282015260420190565b6040516020818303038152906040528051906020012090506000806110d18388888080601f0160208091040260200160405190810160405280939291908181526020018383808284376000920191909152506113ca92505050565b909250905060008160048111156110ea576110ea61183e565b14801561112257508473ffffffffffffffffffffffffffffffffffffffff168273ffffffffffffffffffffffffffffffffffffffff16145b611188576040517f08c379a000000000000000000000000000000000000000000000000000000000815260206004820152601160248201527f496e76616c6964207369676e617475726500000000000000000000000000000060448201526064016102d9565b5050505050505050565b600060405180608001604052806052815260200161193d605291398051602091820120604080518082018252600d81527f47656c61746f4d657461426f78000000000000000000000000000000000000009084015280518082018252600281527f5631000000000000000000000000000000000000000000000000000000000000908401528051928301919091527f919f16ca789a3e2bbe70bbe2c4e0a9ff8affaab44711ff9ce735a3f4eef9b2d9908201527f4c23426613a5dc69e08fbd2787e6210aa679d4522e95a89d4dd88c4fd13a22836060820152608081018390523060a082015260c001604051602081830303815290604052805190602001209050919050565b60606040518060e0016040528060bf815260200161187e60bf91398051602091820120908335906112cf9060408601908601611598565b6112dc6040860186611784565b6040516112ea92919061186d565b6040519081900390206113036080870160608801611598565b608087013560a088013561131d60e08a0160c08b01611598565b61132e6101008b0160e08c01611598565b60408051602081019a909a5289019790975273ffffffffffffffffffffffffffffffffffffffff9586166060890152608088019490945291841660a087015260c086015260e08501528116610100848101919091529116610120838101919091529084013561014083810191909152908401356101608301528301356101808201526101a0016040516020818303038152906040529050919050565b60008082516041036114005760208301516040840151606085015160001a6113f487828585611438565b94509450505050611431565b8251604003611429576020830151604084015161141e868383611550565b935093505050611431565b506000905060025b9250929050565b6000807f7fffffffffffffffffffffffffffffff5d576e7357a4501ddfe92f46681b20a083111561146f5750600090506003611547565b8460ff16601b1415801561148757508460ff16601c14155b156114985750600090506004611547565b6040805160008082526020820180845289905260ff881692820192909252606081018690526080810185905260019060a0016020604051602081039080840390855afa1580156114ec573d6000803e3d6000fd5b50506040517fffffffffffffffffffffffffffffffffffffffffffffffffffffffffffffffe0015191505073ffffffffffffffffffffffffffffffffffffffff811661154057600060019250925050611547565b9150600090505b94509492505050565b6000807f7fffffffffffffffffffffffffffffffffffffffffffffffffffffffffffffff831660ff84901c601b0161158a87828885611438565b935093505050935093915050565b6000602082840312156115aa57600080fd5b813573ffffffffffffffffffffffffffffffffffffffff811681146115ce57600080fd5b9392505050565b60008083601f8401126115e757600080fd5b50813567ffffffffffffffff8111156115ff57600080fd5b60208301915083602082850101111561143157600080fd5b600080600080600080600060a0888a03121561163257600080fd5b873567ffffffffffffffff8082111561164a57600080fd5b90890190610160828c03121561165f57600080fd5b9097506020890135908082111561167557600080fd5b6116818b838c016115d5565b909850965060408a013591508082111561169a57600080fd5b506116a78a828b016115d5565b989b979a5095989597966060870135966080013595509350505050565b60005b838110156116df5781810151838201526020016116c7565b838111156116ee576000848401525b50505050565b60208152600082518060208401526117138160408501602087016116c4565b601f017fffffffffffffffffffffffffffffffffffffffffffffffffffffffffffffffe0169190910160400192915050565b6000821982111561177f577f4e487b7100000000000000000000000000000000000000000000000000000000600052601160045260246000fd5b500190565b60008083357fffffffffffffffffffffffffffffffffffffffffffffffffffffffffffffffe18436030181126117b957600080fd5b83018035915067ffffffffffffffff8211156117d457600080fd5b60200191503681900382131561143157600080fd5b8284823760609190911b7fffffffffffffffffffffffffffffffffffffffff000000000000000000000000169101908152601401919050565b600082516118348184602087016116c4565b9190910192915050565b7f4e487b7100000000000000000000000000000000000000000000000000000000600052602160045260246000fd5b818382376000910190815291905056fe4d6574615478526571756573742875696e7432353620636861696e49642c61646472657373207461726765742c627974657320646174612c6164647265737320666565546f6b656e2c75696e74323536207061796d656e74547970652c75696e74323536206d61784665652c6164647265737320757365722c616464726573732073706f6e736f722c75696e743235362073706f6e736f72436861696e49642c75696e74323536206e6f6e63652c75696e7432353620646561646c696e6529454950373132446f6d61696e28737472696e67206e616d652c737472696e672076657273696f6e2c75696e7432353620636861696e49642c6164647265737320766572696679696e67436f6e747261637429a26469706673582212200829e042f3968f3d15244c2fcd2cf2474f87bc44d27ea57d67f040ec5458cc4b64736f6c634300080d0033",
  "devdoc": {
    "details": "Maliciously crafted transaction payloads could wipe out any funds left here.",
    "kind": "dev",
    "methods": {
      "metaTxRequestGasTankFee((uint256,address,bytes,address,uint256,uint256,address,address,uint256,uint256,uint256),bytes,bytes,uint256,bytes32)": {
        "params": {
          "_gelatoFee": "Fee to be charged by Gelato relayer, denominated in _req.feeToken",
          "_req": "Relay request data",
          "_sponsorSignature": "EIP-712 compliant signature from _req.sponsor                          (can be same as _userSignature)",
          "_userSignature": "EIP-712 compliant signature from _req.user"
        }
      }
    },
    "title": "Gelato Meta Box contract",
    "version": 1
  },
  "userdoc": {
    "kind": "user",
    "methods": {
      "metaTxRequestGasTankFee((uint256,address,bytes,address,uint256,uint256,address,address,uint256,uint256,uint256),bytes,bytes,uint256,bytes32)": {
        "notice": "Relay request + async Gas Tank payment deductions (off-chain accounting)EOA that originates the tx, but does not necessarily pay the relayer"
      }
    },
    "notice": "This contract must NEVER hold funds!",
    "version": 1
  },
  "storageLayout": {
    "storage": [
      {
        "astId": 6,
        "contract": "contracts/GelatoMetaBox.sol:GelatoMetaBox",
        "label": "_initialized",
        "offset": 0,
        "slot": "0",
        "type": "t_bool"
      },
      {
        "astId": 9,
        "contract": "contracts/GelatoMetaBox.sol:GelatoMetaBox",
        "label": "_initializing",
        "offset": 1,
        "slot": "0",
        "type": "t_bool"
      },
      {
        "astId": 2440,
        "contract": "contracts/GelatoMetaBox.sol:GelatoMetaBox",
        "label": "nonce",
        "offset": 0,
        "slot": "1",
        "type": "t_mapping(t_address,t_uint256)"
      },
      {
        "astId": 2442,
        "contract": "contracts/GelatoMetaBox.sol:GelatoMetaBox",
        "label": "gasTank",
        "offset": 0,
        "slot": "2",
        "type": "t_address"
      },
      {
        "astId": 2444,
        "contract": "contracts/GelatoMetaBox.sol:GelatoMetaBox",
        "label": "gasTankAdmin",
        "offset": 0,
        "slot": "3",
        "type": "t_address"
      }
    ],
    "types": {
      "t_address": {
        "encoding": "inplace",
        "label": "address",
        "numberOfBytes": "20"
      },
      "t_bool": {
        "encoding": "inplace",
        "label": "bool",
        "numberOfBytes": "1"
      },
      "t_mapping(t_address,t_uint256)": {
        "encoding": "mapping",
        "key": "t_address",
        "label": "mapping(address => uint256)",
        "numberOfBytes": "32",
        "value": "t_uint256"
      },
      "t_uint256": {
        "encoding": "inplace",
        "label": "uint256",
        "numberOfBytes": "32"
      }
    }
  }
}