{
  "address": "0xde1E3ea669b8f3B2C39f038379b0f9AFB900a786",
  "abi": [
    {
      "inputs": [
        {
          "internalType": "address",
          "name": "_gelato",
          "type": "address"
        }
      ],
      "stateMutability": "nonpayable",
      "type": "constructor"
    },
    {
      "anonymous": false,
      "inputs": [
        {
          "indexed": true,
          "internalType": "address",
          "name": "target",
          "type": "address"
        },
        {
          "indexed": false,
          "internalType": "address",
          "name": "feeToken",
          "type": "address"
        },
        {
          "indexed": false,
          "internalType": "uint256",
          "name": "fee",
          "type": "uint256"
        },
        {
          "indexed": false,
          "internalType": "bytes32",
          "name": "taskId",
          "type": "bytes32"
        }
      ],
      "name": "LogForwardCallSyncFee",
      "type": "event"
    },
    {
      "anonymous": false,
      "inputs": [
        {
          "indexed": true,
          "internalType": "address",
          "name": "sponsor",
          "type": "address"
        },
        {
          "indexed": true,
          "internalType": "address",
          "name": "target",
          "type": "address"
        },
        {
          "indexed": false,
          "internalType": "uint256",
          "name": "sponsorChainId",
          "type": "uint256"
        },
        {
          "indexed": false,
          "internalType": "address",
          "name": "feeToken",
          "type": "address"
        },
        {
          "indexed": false,
          "internalType": "uint256",
          "name": "fee",
          "type": "uint256"
        },
        {
          "indexed": false,
          "internalType": "bytes32",
          "name": "taskId",
          "type": "bytes32"
        }
      ],
      "name": "LogForwardRequestAsyncGasTankFee",
      "type": "event"
    },
    {
      "anonymous": false,
      "inputs": [
        {
          "indexed": true,
          "internalType": "address",
          "name": "sponsor",
          "type": "address"
        },
        {
          "indexed": true,
          "internalType": "address",
          "name": "target",
          "type": "address"
        },
        {
          "indexed": false,
          "internalType": "address",
          "name": "feeToken",
          "type": "address"
        },
        {
          "indexed": false,
          "internalType": "uint256",
          "name": "fee",
          "type": "uint256"
        },
        {
          "indexed": false,
          "internalType": "bytes32",
          "name": "taskId",
          "type": "bytes32"
        }
      ],
      "name": "LogForwardRequestSyncGasTankFee",
      "type": "event"
    },
    {
      "anonymous": false,
      "inputs": [
        {
          "indexed": false,
          "internalType": "address",
          "name": "oldGasTank",
          "type": "address"
        },
        {
          "indexed": false,
          "internalType": "address",
          "name": "newGasTank",
          "type": "address"
        }
      ],
      "name": "LogSetGasTank",
      "type": "event"
    },
    {
      "anonymous": false,
      "inputs": [
        {
          "indexed": false,
          "internalType": "address",
          "name": "oldGasTankAdmin",
          "type": "address"
        },
        {
          "indexed": false,
          "internalType": "address",
          "name": "newGasTankAdmin",
          "type": "address"
        }
      ],
      "name": "LogSetGasTankAdmin",
      "type": "event"
    },
    {
      "inputs": [],
      "name": "EIP712_DOMAIN_TYPE",
      "outputs": [
        {
          "internalType": "string",
          "name": "",
          "type": "string"
        }
      ],
      "stateMutability": "view",
      "type": "function"
    },
    {
      "inputs": [],
      "name": "FORWARD_REQUEST_TYPEHASH",
      "outputs": [
        {
          "internalType": "bytes32",
          "name": "",
          "type": "bytes32"
        }
      ],
      "stateMutability": "view",
      "type": "function"
    },
    {
      "inputs": [],
      "name": "chainId",
      "outputs": [
        {
          "internalType": "uint256",
          "name": "",
          "type": "uint256"
        }
      ],
      "stateMutability": "view",
      "type": "function"
    },
    {
      "inputs": [
        {
          "internalType": "address",
          "name": "_target",
          "type": "address"
        },
        {
          "internalType": "bytes",
          "name": "_data",
          "type": "bytes"
        },
        {
          "internalType": "address",
          "name": "_feeToken",
          "type": "address"
        },
        {
          "internalType": "uint256",
          "name": "_gas",
          "type": "uint256"
        },
        {
          "internalType": "uint256",
          "name": "_gelatoFee",
          "type": "uint256"
        },
        {
          "internalType": "bytes32",
          "name": "_taskId",
          "type": "bytes32"
        }
      ],
      "name": "forwardCallSyncFee",
      "outputs": [],
      "stateMutability": "nonpayable",
      "type": "function"
    },
    {
      "inputs": [
        {
          "components": [
            {
              "internalType": "uint256",
              "name": "chainId",
              "type": "uint256"
            },
            {
              "internalType": "address",
              "name": "target",
              "type": "address"
            },
            {
              "internalType": "bytes",
              "name": "data",
              "type": "bytes"
            },
            {
              "internalType": "address",
              "name": "feeToken",
              "type": "address"
            },
            {
              "internalType": "uint256",
              "name": "paymentType",
              "type": "uint256"
            },
            {
              "internalType": "uint256",
              "name": "maxFee",
              "type": "uint256"
            },
            {
              "internalType": "uint256",
              "name": "gas",
              "type": "uint256"
            },
            {
              "internalType": "address",
              "name": "sponsor",
              "type": "address"
            },
            {
              "internalType": "uint256",
              "name": "sponsorChainId",
              "type": "uint256"
            },
            {
              "internalType": "uint256",
              "name": "nonce",
              "type": "uint256"
            },
            {
              "internalType": "bool",
              "name": "enforceSponsorNonce",
              "type": "bool"
            },
            {
              "internalType": "bool",
              "name": "enforceSponsorNonceOrdering",
              "type": "bool"
            }
          ],
          "internalType": "struct ForwardRequest",
          "name": "_req",
          "type": "tuple"
        },
        {
          "internalType": "bytes",
          "name": "_sponsorSignature",
          "type": "bytes"
        },
        {
          "internalType": "uint256",
          "name": "_gelatoFee",
          "type": "uint256"
        },
        {
          "internalType": "bytes32",
          "name": "_taskId",
          "type": "bytes32"
        }
      ],
      "name": "forwardRequestGasTankFee",
      "outputs": [],
      "stateMutability": "nonpayable",
      "type": "function"
    },
    {
      "inputs": [],
      "name": "gasTank",
      "outputs": [
        {
          "internalType": "address",
          "name": "",
          "type": "address"
        }
      ],
      "stateMutability": "view",
      "type": "function"
    },
    {
      "inputs": [],
      "name": "gasTankAdmin",
      "outputs": [
        {
          "internalType": "address",
          "name": "",
          "type": "address"
        }
      ],
      "stateMutability": "view",
      "type": "function"
    },
    {
      "inputs": [],
      "name": "gelato",
      "outputs": [
        {
          "internalType": "address",
          "name": "",
          "type": "address"
        }
      ],
      "stateMutability": "view",
      "type": "function"
    },
    {
      "inputs": [],
      "name": "getDomainSeparator",
      "outputs": [
        {
          "internalType": "bytes32",
          "name": "",
          "type": "bytes32"
        }
      ],
      "stateMutability": "view",
      "type": "function"
    },
    {
      "inputs": [
        {
          "internalType": "address",
          "name": "_gasTankAdmin",
          "type": "address"
        }
      ],
      "name": "init",
      "outputs": [],
      "stateMutability": "nonpayable",
      "type": "function"
    },
    {
      "inputs": [
        {
          "internalType": "bytes32",
          "name": "",
          "type": "bytes32"
        }
      ],
      "name": "messageDelivered",
      "outputs": [
        {
          "internalType": "bool",
          "name": "",
          "type": "bool"
        }
      ],
      "stateMutability": "view",
      "type": "function"
    },
    {
      "inputs": [
        {
          "internalType": "address",
          "name": "",
          "type": "address"
        }
      ],
      "name": "nonce",
      "outputs": [
        {
          "internalType": "uint256",
          "name": "",
          "type": "uint256"
        }
      ],
      "stateMutability": "view",
      "type": "function"
    },
    {
      "inputs": [
        {
          "internalType": "address",
          "name": "_gasTank",
          "type": "address"
        }
      ],
      "name": "setGasTank",
      "outputs": [],
      "stateMutability": "nonpayable",
      "type": "function"
    },
    {
      "inputs": [
        {
          "internalType": "address",
          "name": "_gasTankAdmin",
          "type": "address"
        }
      ],
      "name": "setGasTankAdmin",
      "outputs": [],
      "stateMutability": "nonpayable",
      "type": "function"
    }
  ],
  "transactionHash": "0x22efcb8efe3256b4162d140d1f6fcbc6cc47eb849976f87e2ee3c01560325343",
  "args": [
    "0xDf592cB2d32445F8e831d211AB20D3233cA41bD8"
  ],
  "numDeployments": 1,
  "solcInputHash": "85fbd0f7b0e717324165a04e405ed4b9",
  "bytecode": "0x60c060405234801561001057600080fd5b50604051620023f1380380620023f183398101604081905261003191610046565b6001600160a01b03166080524660a052610076565b60006020828403121561005857600080fd5b81516001600160a01b038116811461006f57600080fd5b9392505050565b60805160a05161232b620000c66000396000818161022901528181610a7f01528181610f9501526110e3015260008181610199015281816105df0152818161079101526109f4015261232b6000f3fe608060405234801561001057600080fd5b50600436106100ea5760003560e01c80637be52e591161008c578063ac4cae3a11610066578063ac4cae3a1461024b578063add78af11461025e578063c3f28abd14610271578063ed24911d1461028657600080fd5b80637be52e59146101fc578063956309681461021c5780639a8a05921461022457600080fd5b806348271fa0116100c857806348271fa01461014f578063573ea5751461019457806365d7f199146101bb57806370ae92d2146101ce57600080fd5b806319ab453c146100ef5780632329f9bb1461010457806343e297b21461013c575b600080fd5b6101026100fd366004611e42565b61028e565b005b610127610112366004611e5d565b60026020526000908152604090205460ff1681565b60405190151581526020015b60405180910390f35b61010261014a366004611e42565b61042e565b60045461016f9073ffffffffffffffffffffffffffffffffffffffff1681565b60405173ffffffffffffffffffffffffffffffffffffffff9091168152602001610133565b61016f7f000000000000000000000000000000000000000000000000000000000000000081565b6101026101c9366004611eb8565b6105c7565b6101ee6101dc366004611e42565b60016020526000908152604090205481565b604051908152602001610133565b60035461016f9073ffffffffffffffffffffffffffffffffffffffff1681565b6101ee61081f565b6101ee7f000000000000000000000000000000000000000000000000000000000000000081565b610102610259366004611e42565b610843565b61010261026c366004611f38565b6109dc565b6102796110c0565b6040516101339190611fe8565b6101ee6110dc565b600054610100900460ff166102a95760005460ff16156102ad565b303b155b61033e576040517f08c379a000000000000000000000000000000000000000000000000000000000815260206004820152602e60248201527f496e697469616c697a61626c653a20636f6e747261637420697320616c72656160448201527f647920696e697469616c697a656400000000000000000000000000000000000060648201526084015b60405180910390fd5b600054610100900460ff1615801561037d57600080547fffffffffffffffffffffffffffffffffffffffffffffffffffffffffffff0000166101011790555b600480547fffffffffffffffffffffffff00000000000000000000000000000000000000001673ffffffffffffffffffffffffffffffffffffffff8416908117909155604080516000815260208101929092527f7b4314d7a370be44c4e81707ded97705e0bd63e6bd46d7bbe386155e94436419910160405180910390a1801561042a57600080547fffffffffffffffffffffffffffffffffffffffffffffffffffffffffffff00ff1690555b5050565b60045473ffffffffffffffffffffffffffffffffffffffff1633146104af576040517f08c379a000000000000000000000000000000000000000000000000000000000815260206004820152601d60248201527f4f6e6c792063616c6c61626c652062792067617354616e6b41646d696e0000006044820152606401610335565b73ffffffffffffffffffffffffffffffffffffffff811661052c576040517f08c379a000000000000000000000000000000000000000000000000000000000815260206004820152601760248201527f496e76616c69642067617354616e6b20616464726573730000000000000000006044820152606401610335565b6003546040805173ffffffffffffffffffffffffffffffffffffffff928316815291831660208301527f646b74924371efeac02b8806e41f72490eaa858cf528e6f59768d6bbcea84fba910160405180910390a1600380547fffffffffffffffffffffffff00000000000000000000000000000000000000001673ffffffffffffffffffffffffffffffffffffffff92909216919091179055565b3373ffffffffffffffffffffffffffffffffffffffff7f00000000000000000000000000000000000000000000000000000000000000001614610666576040517f08c379a000000000000000000000000000000000000000000000000000000000815260206004820152601760248201527f4f6e6c792063616c6c61626c652062792067656c61746f0000000000000000006044820152606401610335565b6000610672853061110c565b60035490915073ffffffffffffffffffffffffffffffffffffffff908116908916036106fa576040517f08c379a000000000000000000000000000000000000000000000000000000000815260206004820181905260248201527f74617267657420616464726573732063616e6e6f742062652067617354616e6b6044820152606401610335565b610706888888876111f4565b6000610712863061110c565b905060006107208383612068565b90508481101561078c576040517f08c379a000000000000000000000000000000000000000000000000000000000815260206004820152601060248201527f496e73756666696369656e7420666565000000000000000000000000000000006044820152606401610335565b6107b77f00000000000000000000000000000000000000000000000000000000000000008883611399565b6040805173ffffffffffffffffffffffffffffffffffffffff898116825260208201849052918101869052908b16907f1618dc761784eda45de355d3b21a8e1b76070c7cebc7479971350f6ac0f55be59060600160405180910390a250505050505050505050565b60405180610120016040528060e881526020016121bc60e891398051906020012081565b60045473ffffffffffffffffffffffffffffffffffffffff1633146108c4576040517f08c379a000000000000000000000000000000000000000000000000000000000815260206004820152601d60248201527f4f6e6c792063616c6c61626c652062792067617354616e6b41646d696e0000006044820152606401610335565b73ffffffffffffffffffffffffffffffffffffffff8116610941576040517f08c379a000000000000000000000000000000000000000000000000000000000815260206004820152601c60248201527f496e76616c69642067617354616e6b41646d696e2061646472657373000000006044820152606401610335565b6004546040805173ffffffffffffffffffffffffffffffffffffffff928316815291831660208301527f7b4314d7a370be44c4e81707ded97705e0bd63e6bd46d7bbe386155e94436419910160405180910390a1600480547fffffffffffffffffffffffff00000000000000000000000000000000000000001673ffffffffffffffffffffffffffffffffffffffff92909216919091179055565b3373ffffffffffffffffffffffffffffffffffffffff7f00000000000000000000000000000000000000000000000000000000000000001614610a7b576040517f08c379a000000000000000000000000000000000000000000000000000000000815260206004820152601760248201527f4f6e6c792063616c6c61626c652062792067656c61746f0000000000000000006044820152606401610335565b84357f000000000000000000000000000000000000000000000000000000000000000014610b05576040517f08c379a000000000000000000000000000000000000000000000000000000000815260206004820152600d60248201527f57726f6e6720636861696e4964000000000000000000000000000000000000006044820152606401610335565b846080013560011480610b1c575084608001356002145b610b82576040517f08c379a000000000000000000000000000000000000000000000000000000000815260206004820152601a60248201527f7061796d656e7454797065206d7573742062652031206f7220320000000000006044820152606401610335565b8460a00135821115610bf0576040517f08c379a000000000000000000000000000000000000000000000000000000000815260206004820152601c60248201527f47656c61746f206578656375746f72206f7665722d63686172676564000000006044820152606401610335565b610c0261016086016101408701612090565b15610e1a57610c1961018086016101608701612090565b15610d495760016000610c33610100880160e08901611e42565b73ffffffffffffffffffffffffffffffffffffffff1673ffffffffffffffffffffffffffffffffffffffff1681526020019081526020016000205485610120013514610cdb576040517f08c379a000000000000000000000000000000000000000000000000000000000815260206004820152601560248201527f5461736b20616c726561647920657865637574656400000000000000000000006044820152606401610335565b610ceb61012086013560016120ad565b60016000610d00610100890160e08a01611e42565b73ffffffffffffffffffffffffffffffffffffffff168152602081019190915260400160002055610d43858585610d3e610100840160e08501611e42565b6114e9565b50610e33565b6000610d62868686610d3e610100840160e08501611e42565b60008181526002602052604090205490915060ff1615610dde576040517f08c379a000000000000000000000000000000000000000000000000000000000815260206004820152601560248201527f5461736b20616c726561647920657865637574656400000000000000000000006044820152606401610335565b600090815260026020526040902080547fffffffffffffffffffffffffffffffffffffffffffffffffffffffffffffff00166001179055610e33565b610e31858585610d3e610100840160e08501611e42565b505b60035473ffffffffffffffffffffffffffffffffffffffff16610e5c6040870160208801611e42565b73ffffffffffffffffffffffffffffffffffffffff1603610ed9576040517f08c379a000000000000000000000000000000000000000000000000000000000815260206004820181905260248201527f74617267657420616464726573732063616e6e6f742062652067617354616e6b6044820152606401610335565b610f03610eec6040870160208801611e42565b610ef960408801886120c5565b8860c001356111f4565b846080013560010361100557610f1f6040860160208701611e42565b73ffffffffffffffffffffffffffffffffffffffff16610f46610100870160e08801611e42565b73ffffffffffffffffffffffffffffffffffffffff167f65896ccac284fcb1ee73c45d950853d73d66cd1c55f61ba945159377d140677361010088013515610f9357876101000135610fb5565b7f00000000000000000000000000000000000000000000000000000000000000005b610fc560808a0160608b01611e42565b6040805192835273ffffffffffffffffffffffffffffffffffffffff909116602083015281018690526060810185905260800160405180910390a36110b9565b6110156040860160208701611e42565b73ffffffffffffffffffffffffffffffffffffffff1661103c610100870160e08801611e42565b73ffffffffffffffffffffffffffffffffffffffff167f143674915c965337534cbf757620018597dc069ea1fa7d79ef405cd9f1554eb16110836080890160608a01611e42565b6040805173ffffffffffffffffffffffffffffffffffffffff909216825260208201879052810185905260600160405180910390a35b5050505050565b6040518060800160405280605281526020016122a46052913981565b60006111077f000000000000000000000000000000000000000000000000000000000000000061166a565b905090565b600073ffffffffffffffffffffffffffffffffffffffff831673eeeeeeeeeeeeeeeeeeeeeeeeeeeeeeeeeeeeeeee146111d4576040517f70a0823100000000000000000000000000000000000000000000000000000000815273ffffffffffffffffffffffffffffffffffffffff83811660048301528416906370a0823190602401602060405180830381865afa1580156111ab573d6000803e3d6000fd5b505050506040513d601f19601f820116820180604052508101906111cf919061212a565b6111ed565b8173ffffffffffffffffffffffffffffffffffffffff16315b9392505050565b60008473ffffffffffffffffffffffffffffffffffffffff163b1161129b576040517f08c379a000000000000000000000000000000000000000000000000000000000815260206004820152603560248201527f47656c61746f43616c6c5574696c732e7361666545787465726e616c43616c6c60448201527f3a205f646573742063616e6e6f7420626520454f4100000000000000000000006064820152608401610335565b60008473ffffffffffffffffffffffffffffffffffffffff168285856040516112c5929190612143565b60006040518083038160008787f1925050503d8060008114611303576040519150601f19603f3d011682016040523d82523d6000602084013e611308565b606091505b50509050806110b9576040517f08c379a000000000000000000000000000000000000000000000000000000000815260206004820152603660248201527f47656c61746f43616c6c5574696c732e7361666545787465726e616c43616c6c60448201527f3a2045787465726e616c2063616c6c206661696c6564000000000000000000006064820152608401610335565b806000036113a657505050565b7fffffffffffffffffffffffff111111111111111111111111111111111111111273ffffffffffffffffffffffffffffffffffffffff8316016114d95760008373ffffffffffffffffffffffffffffffffffffffff168260405160006040518083038185875af1925050503d806000811461143d576040519150601f19603f3d011682016040523d82523d6000602084013e611442565b606091505b50509050806114d3576040517f08c379a000000000000000000000000000000000000000000000000000000000815260206004820152602a60248201527f7472616e7366657247656c61746f3a2047656c61746f20455448207472616e7360448201527f666572206661696c6564000000000000000000000000000000000000000000006064820152608401610335565b50505050565b6114e4828483611770565b505050565b6000806114f6863561166a565b9050600081611504886117fd565b805160209182012060405161154b9392017f190100000000000000000000000000000000000000000000000000000000000081526002810192909252602282015260420190565b6040516020818303038152906040528051906020012090506000806115a68389898080601f01602080910402602001604051908101604052809392919081815260200183838082843760009201919091525061195592505050565b909250905060008160048111156115bf576115bf612153565b1480156115f757508573ffffffffffffffffffffffffffffffffffffffff168273ffffffffffffffffffffffffffffffffffffffff16145b61165d576040517f08c379a000000000000000000000000000000000000000000000000000000000815260206004820152601160248201527f496e76616c6964207369676e61747572650000000000000000000000000000006044820152606401610335565b5090979650505050505050565b60006040518060800160405280605281526020016122a4605291398051602091820120604080518082018252601481527f47656c61746f52656c6179466f727761726465720000000000000000000000009084015280518082018252600281527f5631000000000000000000000000000000000000000000000000000000000000908401528051928301919091527f7234c7d9c507fe929abbaaae19187746b78bd8de7bfcbbfe07aa7aef1a476fb3908201527f4c23426613a5dc69e08fbd2787e6210aa679d4522e95a89d4dd88c4fd13a22836060820152608081018390523060a082015260c001604051602081830303815290604052805190602001209050919050565b6040805173ffffffffffffffffffffffffffffffffffffffff8416602482015260448082018490528251808303909101815260649091019091526020810180517bffffffffffffffffffffffffffffffffffffffffffffffffffffffff167fa9059cbb000000000000000000000000000000000000000000000000000000001790526114e49084906119c3565b606060405180610120016040528060e881526020016121bc60e891398051602091820120908335906118359060408601908601611e42565b61184260408601866120c5565b604051611850929190612143565b6040519081900390206118696080870160608801611e42565b608087013560a088013560c08901356118896101008b0160e08c01611e42565b6101008b01356101208c01356118a76101608e016101408f01612090565b8d6101600160208101906118bb9190612090565b60408051602081019e909e528d019b909b5273ffffffffffffffffffffffffffffffffffffffff998a1660608d015260808c019890985295881660a08b015260c08a019490945260e0890192909252610100880152909316610120860152610140850192909252610160840191909152151561018083015215156101a08201526101c0016040516020818303038152906040529050919050565b600080825160410361198b5760208301516040840151606085015160001a61197f87828585611acf565b945094505050506119bc565b82516040036119b457602083015160408401516119a9868383611be7565b9350935050506119bc565b506000905060025b9250929050565b6000611a25826040518060400160405280602081526020017f5361666545524332303a206c6f772d6c6576656c2063616c6c206661696c65648152508573ffffffffffffffffffffffffffffffffffffffff16611c2f9092919063ffffffff16565b8051909150156114e45780806020019051810190611a439190612182565b6114e4576040517f08c379a000000000000000000000000000000000000000000000000000000000815260206004820152602a60248201527f5361666545524332303a204552433230206f7065726174696f6e20646964206e60448201527f6f742073756363656564000000000000000000000000000000000000000000006064820152608401610335565b6000807f7fffffffffffffffffffffffffffffff5d576e7357a4501ddfe92f46681b20a0831115611b065750600090506003611bde565b8460ff16601b14158015611b1e57508460ff16601c14155b15611b2f5750600090506004611bde565b6040805160008082526020820180845289905260ff881692820192909252606081018690526080810185905260019060a0016020604051602081039080840390855afa158015611b83573d6000803e3d6000fd5b50506040517fffffffffffffffffffffffffffffffffffffffffffffffffffffffffffffffe0015191505073ffffffffffffffffffffffffffffffffffffffff8116611bd757600060019250925050611bde565b9150600090505b94509492505050565b6000807f7fffffffffffffffffffffffffffffffffffffffffffffffffffffffffffffff831660ff84901c601b01611c2187828885611acf565b935093505050935093915050565b6060611c3e8484600085611c46565b949350505050565b606082471015611cd8576040517f08c379a000000000000000000000000000000000000000000000000000000000815260206004820152602660248201527f416464726573733a20696e73756666696369656e742062616c616e636520666f60448201527f722063616c6c00000000000000000000000000000000000000000000000000006064820152608401610335565b843b611d40576040517f08c379a000000000000000000000000000000000000000000000000000000000815260206004820152601d60248201527f416464726573733a2063616c6c20746f206e6f6e2d636f6e74726163740000006044820152606401610335565b6000808673ffffffffffffffffffffffffffffffffffffffff168587604051611d69919061219f565b60006040518083038185875af1925050503d8060008114611da6576040519150601f19603f3d011682016040523d82523d6000602084013e611dab565b606091505b5091509150611dbb828286611dc6565b979650505050505050565b60608315611dd55750816111ed565b825115611de55782518084602001fd5b816040517f08c379a00000000000000000000000000000000000000000000000000000000081526004016103359190611fe8565b803573ffffffffffffffffffffffffffffffffffffffff81168114611e3d57600080fd5b919050565b600060208284031215611e5457600080fd5b6111ed82611e19565b600060208284031215611e6f57600080fd5b5035919050565b60008083601f840112611e8857600080fd5b50813567ffffffffffffffff811115611ea057600080fd5b6020830191508360208285010111156119bc57600080fd5b600080600080600080600060c0888a031215611ed357600080fd5b611edc88611e19565b9650602088013567ffffffffffffffff811115611ef857600080fd5b611f048a828b01611e76565b9097509550611f17905060408901611e19565b969995985093966060810135956080820135955060a0909101359350915050565b600080600080600060808688031215611f5057600080fd5b853567ffffffffffffffff80821115611f6857600080fd5b90870190610180828a031215611f7d57600080fd5b90955060208701359080821115611f9357600080fd5b50611fa088828901611e76565b9699909850959660408101359660609091013595509350505050565b60005b83811015611fd7578181015183820152602001611fbf565b838111156114d35750506000910152565b6020815260008251806020840152612007816040850160208701611fbc565b601f017fffffffffffffffffffffffffffffffffffffffffffffffffffffffffffffffe0169190910160400192915050565b7f4e487b7100000000000000000000000000000000000000000000000000000000600052601160045260246000fd5b60008282101561207a5761207a612039565b500390565b801515811461208d57600080fd5b50565b6000602082840312156120a257600080fd5b81356111ed8161207f565b600082198211156120c0576120c0612039565b500190565b60008083357fffffffffffffffffffffffffffffffffffffffffffffffffffffffffffffffe18436030181126120fa57600080fd5b83018035915067ffffffffffffffff82111561211557600080fd5b6020019150368190038213156119bc57600080fd5b60006020828403121561213c57600080fd5b5051919050565b8183823760009101908152919050565b7f4e487b7100000000000000000000000000000000000000000000000000000000600052602160045260246000fd5b60006020828403121561219457600080fd5b81516111ed8161207f565b600082516121b1818460208701611fbc565b919091019291505056fe466f7277617264526571756573742875696e7432353620636861696e49642c61646472657373207461726765742c627974657320646174612c6164647265737320666565546f6b656e2c75696e74323536207061796d656e74547970652c75696e74323536206d61784665652c75696e74323536206761732c616464726573732073706f6e736f722c75696e743235362073706f6e736f72436861696e49642c75696e74323536206e6f6e63652c626f6f6c20656e666f72636553706f6e736f724e6f6e63652c626f6f6c20656e666f72636553706f6e736f724e6f6e63654f72646572696e6729454950373132446f6d61696e28737472696e67206e616d652c737472696e672076657273696f6e2c75696e7432353620636861696e49642c6164647265737320766572696679696e67436f6e747261637429a26469706673582212206ca5a48dcc027f2c4a3edc447237e801d7421815639a86c0a9e07f3ad753b53764736f6c634300080d0033",
  "devdoc": {
    "details": "Maliciously crafted transaction payloads could wipe out any funds left here.",
    "kind": "dev",
    "methods": {},
    "title": "Gelato Relay Forwarder contract",
    "version": 1
  },
  "userdoc": {
    "kind": "user",
    "methods": {},
    "notice": "This contract must NEVER hold funds!",
    "version": 1
  },
  "storageLayout": {
    "storage": [
      {
        "astId": 6,
        "contract": "contracts/GelatoRelayForwarder.sol:GelatoRelayForwarder",
        "label": "_initialized",
        "offset": 0,
        "slot": "0",
        "type": "t_bool"
      },
      {
        "astId": 9,
        "contract": "contracts/GelatoRelayForwarder.sol:GelatoRelayForwarder",
        "label": "_initializing",
        "offset": 1,
        "slot": "0",
        "type": "t_bool"
      },
      {
        "astId": 3318,
        "contract": "contracts/GelatoRelayForwarder.sol:GelatoRelayForwarder",
        "label": "nonce",
        "offset": 0,
        "slot": "1",
        "type": "t_mapping(t_address,t_uint256)"
      },
      {
        "astId": 3322,
        "contract": "contracts/GelatoRelayForwarder.sol:GelatoRelayForwarder",
        "label": "messageDelivered",
        "offset": 0,
        "slot": "2",
        "type": "t_mapping(t_bytes32,t_bool)"
      },
      {
        "astId": 3324,
        "contract": "contracts/GelatoRelayForwarder.sol:GelatoRelayForwarder",
        "label": "gasTank",
        "offset": 0,
        "slot": "3",
        "type": "t_address"
      },
      {
        "astId": 3326,
        "contract": "contracts/GelatoRelayForwarder.sol:GelatoRelayForwarder",
        "label": "gasTankAdmin",
        "offset": 0,
        "slot": "4",
        "type": "t_address"
      }
    ],
    "types": {
      "t_address": {
        "encoding": "inplace",
        "label": "address",
        "numberOfBytes": "20"
      },
      "t_bool": {
        "encoding": "inplace",
        "label": "bool",
        "numberOfBytes": "1"
      },
      "t_bytes32": {
        "encoding": "inplace",
        "label": "bytes32",
        "numberOfBytes": "32"
      },
      "t_mapping(t_address,t_uint256)": {
        "encoding": "mapping",
        "key": "t_address",
        "label": "mapping(address => uint256)",
        "numberOfBytes": "32",
        "value": "t_uint256"
      },
      "t_mapping(t_bytes32,t_bool)": {
        "encoding": "mapping",
        "key": "t_bytes32",
        "label": "mapping(bytes32 => bool)",
        "numberOfBytes": "32",
        "value": "t_bool"
      },
      "t_uint256": {
        "encoding": "inplace",
        "label": "uint256",
        "numberOfBytes": "32"
      }
    }
  }
}